20220107-09:11:03.256829000 : 8=FIX.4.4|9=90|35=A|34=1|49=MU9051500001|52=20220107-09:11:03.240|56=IFIX-TC-EQ-UAT|554=7020|98=0|108=60|10=254|
20220107-09:11:23.910547000 : 8=FIX.4.4|9=90|35=A|34=2|49=MU9051500001|52=20220107-09:11:23.903|56=IFIX-TC-EQ-UAT|554=7020|98=0|108=60|10=007|
20220107-09:11:43.870538000 : 8=FIX.4.4|9=90|35=A|34=3|49=MU9051500001|52=20220107-09:11:43.863|56=IFIX-TC-EQ-UAT|554=7020|98=0|108=60|10=015|
20220107-09:28:20.494424000 : 8=FIX.4.4|9=90|35=A|34=4|49=MU9051500001|52=20220107-09:28:20.480|56=IFIX-TC-EQ-UAT|554=7020|98=0|108=60|10=014|
20220107-09:28:23.685099000 : 8=FIX.4.4|9=87|35=A|49=IFIX-TC-EQ-UAT|56=MU9051500001|34=1|52=20220107-09:28:25.521619774|98=0|108=60|10=175|
20220107-09:28:23.979088000 : 8=FIX.4.4|9=84|35=2|49=IFIX-TC-EQ-UAT|56=MU9051500001|34=2|52=20220107-09:28:25.521691871|7=1|16=0|10=251|
20220107-09:28:23.997745000 : 8=FIX.4.4|9=111|35=4|34=1|43=Y|49=MU9051500001|52=20220107-09:28:23.992|56=IFIX-TC-EQ-UAT|122=20220107-09:28:23.992|36=5|123=Y|10=133|
20220107-09:28:26.582758000 : 8=FIX.4.4|9=140|35=h|49=IFIX-TC-EQ-UAT|56=MU9051500001|34=3|52=20220107-09:28:28.419080497|336=FOND|325=Y|340=101|58=Connection to MICEX market established|10=030|
20220107-09:28:26.601602000 : 8=FIX.4.4|9=144|35=3|34=5|49=MU9051500001|52=20220107-09:28:26.583|56=IFIX-TC-EQ-UAT|45=3|58=Value is incorrect (out of range) for this tag|371=340|372=h|373=5|10=041|
20220107-09:28:32.706803000 : 8=FIX.4.4|9=514|35=AE|49=IFIX-TC-EQ-UAT|56=MU9051500001|34=4|52=20220107-09:28:34.542529793|571=1|828=0|150=F|17=113722727|1|103700|570=N|55=AMZN-RM|236=0.0|32=1|31=256414|75=20220107|60=20220107-07:37:00|63=3|64=20220111|552=1|54=1|37=28092442643|11=2076087002/|453=3|448=MC9051500000|447=D|452=1|448=2076087002|447=D|452=3|448=MU9051500003|447=D|452=12|1=L00-000012D8|336=FQBR|625=N|12=25.64|13=3|381=256414.0|159=0.0|136=3|137=10.9|139=98|137=14.74|139=4|137=0.0|139=99|1056=1|851=2|5155=NCC|5459=Y2|6029=SUR|6636=N|7693=11866|10=140|
20220107-09:28:32.724361000 : 8=FIX.4.4|9=136|35=3|34=6|49=MU9051500001|52=20220107-09:28:32.707|56=IFIX-TC-EQ-UAT|45=4|58=Tag not defined for this message type|371=851|372=AE|373=2|10=131|
20220107-09:28:32.724419000 : 8=FIX.4.4|9=523|35=AE|49=IFIX-TC-EQ-UAT|56=MU9051500001|34=5|52=20220107-09:28:34.542621213|571=2|828=0|150=F|17=113723093|1|105315|570=N|55=AMZN-RM|236=0.0|32=1|31=256414|75=20220107|60=20220107-07:53:15|63=3|64=20220111|552=1|54=1|37=28092446529|11=plomcxldlkqbvekgxlco|453=3|448=MC9051500000|447=D|452=1|448=2076087002|447=D|452=3|448=MU9051500001|447=D|452=12|1=L00-000012D8|336=FQBR|625=N|12=25.64|13=3|381=256414.0|159=0.0|136=3|137=10.9|139=98|137=14.74|139=4|137=0.0|139=99|1056=1|851=2|5155=NCC|5459=Y2|6029=SUR|6636=N|7693=11866|10=197|
20220107-09:28:32.731924000 : 8=FIX.4.4|9=136|35=3|34=7|49=MU9051500001|52=20220107-09:28:32.724|56=IFIX-TC-EQ-UAT|45=5|58=Tag not defined for this message type|371=851|372=AE|373=2|10=132|
20220107-09:28:32.731958000 : 8=FIX.4.4|9=524|35=AE|49=IFIX-TC-EQ-UAT|56=MU9051500001|34=6|52=20220107-09:28:34.542658550|571=3|828=0|150=F|17=113723196|1|105741|570=N|55=AMZN-RM|236=0.0|32=1|31=257493|75=20220107|60=20220107-07:57:41|63=3|64=20220111|552=1|54=1|37=28092447639|11=mdrakbomrkzvsfinijlp|453=3|448=MC9051500000|447=D|452=1|448=2076087002|447=D|452=3|448=MU9051500001|447=D|452=12|1=L00-000012D8|336=FQBR|625=N|12=25.75|13=3|381=257493.0|159=0.0|136=3|137=10.94|139=98|137=14.81|139=4|137=0.0|139=99|1056=1|851=2|5155=NCC|5459=Y2|6029=SUR|6636=N|7693=11866|10=048|
20220107-09:28:32.740269000 : 8=FIX.4.4|9=136|35=3|34=8|49=MU9051500001|52=20220107-09:28:32.732|56=IFIX-TC-EQ-UAT|45=6|58=Tag not defined for this message type|371=851|372=AE|373=2|10=133|
20220107-09:28:32.740299000 : 8=FIX.4.4|9=523|35=AE|49=IFIX-TC-EQ-UAT|56=MU9051500001|34=7|52=20220107-09:28:34.542699979|571=4|828=0|150=F|17=113723447|1|110807|570=N|55=AMZN-RM|236=0.0|32=1|31=256414|75=20220107|60=20220107-08:08:07|63=3|64=20220111|552=1|54=1|37=28092450261|11=mtfrgystwkrkmhabdtfe|453=3|448=MC9051500000|447=D|452=1|448=2076087002|447=D|452=3|448=MU9051500001|447=D|452=12|1=L00-000012D8|336=FQBR|625=N|12=25.64|13=3|381=256414.0|159=0.0|136=3|137=10.9|139=98|137=14.74|139=4|137=0.0|139=99|1056=1|851=2|5155=NCC|5459=Y2|6029=SUR|6636=N|7693=11866|10=240|
20220107-09:28:32.746248000 : 8=FIX.4.4|9=136|35=3|34=9|49=MU9051500001|52=20220107-09:28:32.740|56=IFIX-TC-EQ-UAT|45=7|58=Tag not defined for this message type|371=851|372=AE|373=2|10=134|
20220107-09:28:32.746278000 : 8=FIX.4.4|9=524|35=AE|49=IFIX-TC-EQ-UAT|56=MU9051500001|34=8|52=20220107-09:28:34.542739627|571=5|828=0|150=F|17=113723517|1|111005|570=N|55=AMZN-RM|236=0.0|32=1|31=256953|75=20220107|60=20220107-08:10:05|63=3|64=20220111|552=1|54=1|37=28092450751|11=myxncjourirqogaclcnv|453=3|448=MC9051500000|447=D|452=1|448=2076087002|447=D|452=3|448=MU9051500001|447=D|452=12|1=L00-000012D8|336=FQBR|625=N|12=25.69|13=3|381=256953.0|159=0.0|136=3|137=10.92|139=98|137=14.77|139=4|137=0.0|139=99|1056=1|851=2|5155=NCC|5459=Y2|6029=SUR|6636=N|7693=11866|10=044|
20220107-09:28:32.754018000 : 8=FIX.4.4|9=137|35=3|34=10|49=MU9051500001|52=20220107-09:28:32.746|56=IFIX-TC-EQ-UAT|45=8|58=Tag not defined for this message type|371=851|372=AE|373=2|10=182|
20220107-09:28:32.754047000 : 8=FIX.4.4|9=524|35=AE|49=IFIX-TC-EQ-UAT|56=MU9051500001|34=9|52=20220107-09:28:34.542778658|571=6|828=0|150=F|17=113723569|1|111234|570=N|55=AMZN-RM|236=0.0|32=1|31=257493|75=20220107|60=20220107-08:12:34|63=3|64=20220111|552=1|54=1|37=28092451363|11=jmjfuvnaxphsxjxhweor|453=3|448=MC9051500000|447=D|452=1|448=2076087002|447=D|452=3|448=MU9051500001|447=D|452=12|1=L00-000012D8|336=FQBR|625=N|12=25.75|13=3|381=257493.0|159=0.0|136=3|137=10.94|139=98|137=14.81|139=4|137=0.0|139=99|1056=1|851=2|5155=NCC|5459=Y2|6029=SUR|6636=N|7693=11866|10=089|
20220107-09:28:32.761133000 : 8=FIX.4.4|9=137|35=3|34=11|49=MU9051500001|52=20220107-09:28:32.754|56=IFIX-TC-EQ-UAT|45=9|58=Tag not defined for this message type|371=851|372=AE|373=2|10=183|
20220107-09:28:32.761158000 : 8=FIX.4.4|9=525|35=AE|49=IFIX-TC-EQ-UAT|56=MU9051500001|34=10|52=20220107-09:28:34.542811986|571=7|828=0|150=F|17=113723625|1|111429|570=N|55=AMZN-RM|236=0.0|32=1|31=256953|75=20220107|60=20220107-08:14:29|63=3|64=20220111|552=1|54=1|37=28092451840|11=plljwlrwnbmhptnmfmpl|453=3|448=MC9051500000|447=D|452=1|448=2076087002|447=D|452=3|448=MU9051500001|447=D|452=12|1=L00-000012D8|336=FQBR|625=N|12=25.69|13=3|381=256953.0|159=0.0|136=3|137=10.92|139=98|137=14.77|139=4|137=0.0|139=99|1056=1|851=2|5155=NCC|5459=Y2|6029=SUR|6636=N|7693=11866|10=116|
20220107-09:28:32.768332000 : 8=FIX.4.4|9=138|35=3|34=12|49=MU9051500001|52=20220107-09:28:32.761|56=IFIX-TC-EQ-UAT|45=10|58=Tag not defined for this message type|371=851|372=AE|373=2|10=223|
20220107-09:28:32.768357000 : 8=FIX.4.4|9=524|35=AE|49=IFIX-TC-EQ-UAT|56=MU9051500001|34=11|52=20220107-09:28:34.542865552|571=8|828=0|150=F|17=113723662|1|111535|570=N|55=AMZN-RM|236=0.0|32=1|31=256414|75=20220107|60=20220107-08:15:35|63=3|64=20220111|552=1|54=1|37=28092452116|11=soixmkxfzvwsvosuryue|453=3|448=MC9051500000|447=D|452=1|448=2076087002|447=D|452=3|448=MU9051500001|447=D|452=12|1=L00-000012D8|336=FQBR|625=N|12=25.64|13=3|381=256414.0|159=0.0|136=3|137=10.9|139=98|137=14.74|139=4|137=0.0|139=99|1056=1|851=2|5155=NCC|5459=Y2|6029=SUR|6636=N|7693=11866|10=119|
20220107-09:28:32.775329000 : 8=FIX.4.4|9=138|35=3|34=13|49=MU9051500001|52=20220107-09:28:32.768|56=IFIX-TC-EQ-UAT|45=11|58=Tag not defined for this message type|371=851|372=AE|373=2|10=232|
20220107-09:28:32.775357000 : 8=FIX.4.4|9=525|35=AE|49=IFIX-TC-EQ-UAT|56=MU9051500001|34=12|52=20220107-09:28:34.542904133|571=9|828=0|150=F|17=113723689|1|111638|570=N|55=AMZN-RM|236=0.0|32=1|31=257493|75=20220107|60=20220107-08:16:38|63=3|64=20220111|552=1|54=1|37=28092452377|11=yeuliklwcgylpjpplzki|453=3|448=MC9051500000|447=D|452=1|448=2076087002|447=D|452=3|448=MU9051500001|447=D|452=12|1=L00-000012D8|336=FQBR|625=N|12=25.75|13=3|381=257493.0|159=0.0|136=3|137=10.94|139=98|137=14.81|139=4|137=0.0|139=99|1056=1|851=2|5155=NCC|5459=Y2|6029=SUR|6636=N|7693=11866|10=129|
20220107-09:28:32.784954000 : 8=FIX.4.4|9=138|35=3|34=14|49=MU9051500001|52=20220107-09:28:32.775|56=IFIX-TC-EQ-UAT|45=12|58=Tag not defined for this message type|371=851|372=AE|373=2|10=232|
20220107-09:28:32.785008000 : 8=FIX.4.4|9=525|35=AE|49=IFIX-TC-EQ-UAT|56=MU9051500001|34=13|52=20220107-09:28:34.542943099|571=10|828=0|150=F|17=113723723|1|111742|570=N|55=AMZN-RM|236=0.0|32=1|31=256414|75=20220107|60=20220107-08:17:42|63=3|64=20220111|552=1|54=1|37=28092452646|11=ewvbgrlwujxsslkybqwh|453=3|448=MC9051500000|447=D|452=1|448=2076087002|447=D|452=3|448=MU9051500001|447=D|452=12|1=L00-000012D8|336=FQBR|625=N|12=25.64|13=3|381=256414.0|159=0.0|136=3|137=10.9|139=98|137=14.74|139=4|137=0.0|139=99|1056=1|851=2|5155=NCC|5459=Y2|6029=SUR|6636=N|7693=11866|10=118|
20220107-09:28:32.790634000 : 8=FIX.4.4|9=138|35=3|34=15|49=MU9051500001|52=20220107-09:28:32.785|56=IFIX-TC-EQ-UAT|45=13|58=Tag not defined for this message type|371=851|372=AE|373=2|10=235|
20220107-09:28:32.790671000 : 8=FIX.4.4|9=526|35=AE|49=IFIX-TC-EQ-UAT|56=MU9051500001|34=14|52=20220107-09:28:34.542982811|571=11|828=0|150=F|17=113723808|1|112121|570=N|55=AMZN-RM|236=0.0|32=1|31=257493|75=20220107|60=20220107-08:21:21|63=3|64=20220111|552=1|54=1|37=28092453531|11=wuveoovbuicphwknjzqq|453=3|448=MC9051500000|447=D|452=1|448=2076087002|447=D|452=3|448=MU9051500001|447=D|452=12|1=L00-000012D8|336=FQBR|625=N|12=25.75|13=3|381=257493.0|159=0.0|136=3|137=10.94|139=98|137=14.81|139=4|137=0.0|139=99|1056=1|851=2|5155=NCC|5459=Y2|6029=SUR|6636=N|7693=11866|10=163|
20220107-09:28:32.800376000 : 8=FIX.4.4|9=138|35=3|34=16|49=MU9051500001|52=20220107-09:28:32.790|56=IFIX-TC-EQ-UAT|45=14|58=Tag not defined for this message type|371=851|372=AE|373=2|10=233|
20220107-09:28:32.800409000 : 8=FIX.4.4|9=526|35=AE|49=IFIX-TC-EQ-UAT|56=MU9051500001|34=15|52=20220107-09:28:34.543020680|571=12|828=0|150=F|17=113723856|1|112311|570=N|55=AMZN-RM|236=0.0|32=1|31=256953|75=20220107|60=20220107-08:23:11|63=3|64=20220111|552=1|54=1|37=28092453999|11=lorcculqqlghzdfyxkrg|453=3|448=MC9051500000|447=D|452=1|448=2076087002|447=D|452=3|448=MU9051500001|447=D|452=12|1=L00-000012D8|336=FQBR|625=N|12=25.69|13=3|381=256953.0|159=0.0|136=3|137=10.92|139=98|137=14.77|139=4|137=0.0|139=99|1056=1|851=2|5155=NCC|5459=Y2|6029=SUR|6636=N|7693=11866|10=148|
20220107-09:28:32.808787000 : 8=FIX.4.4|9=138|35=3|34=17|49=MU9051500001|52=20220107-09:28:32.800|56=IFIX-TC-EQ-UAT|45=15|58=Tag not defined for this message type|371=851|372=AE|373=2|10=227|
20220107-09:28:32.808813000 : 8=FIX.4.4|9=526|35=AE|49=IFIX-TC-EQ-UAT|56=MU9051500001|34=16|52=20220107-09:28:34.543057958|571=13|828=0|150=F|17=113724023|1|113036|570=N|55=AMZN-RM|236=0.0|32=1|31=256953|75=20220107|60=20220107-08:30:36|63=3|64=20220111|552=1|54=1|37=28092455907|11=xmytaknqbtbwzpgmgzen|453=3|448=MC9051500000|447=D|452=1|448=2076087002|447=D|452=3|448=MU9051500001|447=D|452=12|1=L00-000012D8|336=FQBR|625=N|12=25.69|13=3|381=256953.0|159=0.0|136=3|137=10.92|139=98|137=14.77|139=4|137=0.0|139=99|1056=1|851=2|5155=NCC|5459=Y2|6029=SUR|6636=N|7693=11866|10=176|
20220107-09:28:32.814970000 : 8=FIX.4.4|9=138|35=3|34=18|49=MU9051500001|52=20220107-09:28:32.808|56=IFIX-TC-EQ-UAT|45=16|58=Tag not defined for this message type|371=851|372=AE|373=2|10=237|
20220107-09:28:32.814991000 : 8=FIX.4.4|9=525|35=AE|49=IFIX-TC-EQ-UAT|56=MU9051500001|34=17|52=20220107-09:28:34.543095316|571=14|828=0|150=F|17=113724617|1|115644|570=N|55=AMZN-RM|236=0.0|32=1|31=256414|75=20220107|60=20220107-08:56:44|63=3|64=20220111|552=1|54=1|37=28092463662|11=fdzqhrkuamxyervwajva|453=3|448=MC9051500000|447=D|452=1|448=2076087002|447=D|452=3|448=MU9051500001|447=D|452=12|1=L00-000012D8|336=FQBR|625=N|12=25.64|13=3|381=256414.0|159=0.0|136=3|137=10.9|139=98|137=14.74|139=4|137=0.0|139=99|1056=1|851=2|5155=NCC|5459=Y2|6029=SUR|6636=N|7693=11866|10=103|
20220107-09:28:32.821672000 : 8=FIX.4.4|9=138|35=3|34=19|49=MU9051500001|52=20220107-09:28:32.815|56=IFIX-TC-EQ-UAT|45=17|58=Tag not defined for this message type|371=851|372=AE|373=2|10=237|
20220107-09:28:32.821697000 : 8=FIX.4.4|9=526|35=AE|49=IFIX-TC-EQ-UAT|56=MU9051500001|34=18|52=20220107-09:28:34.543138062|571=15|828=0|150=F|17=113724700|1|120011|570=N|55=AMZN-RM|236=0.0|32=1|31=257493|75=20220107|60=20220107-09:00:11|63=3|64=20220111|552=1|54=1|37=28092464650|11=vsptabgablsetcpgnufw|453=3|448=MC9051500000|447=D|452=1|448=2076087002|447=D|452=3|448=MU9051500001|447=D|452=12|1=L00-000012D8|336=FQBR|625=N|12=25.75|13=3|381=257493.0|159=0.0|136=3|137=10.94|139=98|137=14.81|139=4|137=0.0|139=99|1056=1|851=2|5155=NCC|5459=Y2|6029=SUR|6636=N|7693=11866|10=089|
20220107-09:28:32.828632000 : 8=FIX.4.4|9=138|35=3|34=20|49=MU9051500001|52=20220107-09:28:32.821|56=IFIX-TC-EQ-UAT|45=18|58=Tag not defined for this message type|371=851|372=AE|373=2|10=227|
20220107-09:28:32.828656000 : 8=FIX.4.4|9=526|35=AE|49=IFIX-TC-EQ-UAT|56=MU9051500001|34=19|52=20220107-09:28:34.543175499|571=16|828=0|150=F|17=113724718|2|120039|570=N|55=AMZN-RM|236=0.0|32=1|31=245084|75=20220107|60=20220107-09:00:39|63=3|64=20220111|552=1|54=2|37=28092464793|11=kslhoxlvkangcvmmryle|453=3|448=MC9051500000|447=D|452=1|448=2076087002|447=D|452=3|448=MU9051500001|447=D|452=12|1=L00-000012D8|336=FQBR|625=N|12=24.51|13=3|381=245084.0|159=0.0|136=3|137=10.42|139=98|137=14.09|139=4|137=0.0|139=99|1056=1|851=2|5155=NCC|5459=Y2|6029=SUR|6636=N|7693=11866|10=148|
20220107-09:28:32.834727000 : 8=FIX.4.4|9=138|35=3|34=21|49=MU9051500001|52=20220107-09:28:32.828|56=IFIX-TC-EQ-UAT|45=19|58=Tag not defined for this message type|371=851|372=AE|373=2|10=236|
20220107-09:28:32.999973000 : 8=FIX.4.4|9=526|35=AE|49=IFIX-TC-EQ-UAT|56=MU9051500001|34=20|52=20220107-09:28:34.543214182|571=17|828=0|150=F|17=113724823|2|120443|570=N|55=AMZN-RM|236=0.0|32=1|31=244545|75=20220107|60=20220107-09:04:43|63=3|64=20220111|552=1|54=2|37=28092465967|11=fppbeaiiqyyazclbvqhe|453=3|448=MC9051500000|447=D|452=1|448=2076087002|447=D|452=3|448=MU9051500001|447=D|452=12|1=L00-000012D8|336=FQBR|625=N|12=24.45|13=3|381=244545.0|159=0.0|136=3|137=10.39|139=98|137=14.06|139=4|137=0.0|139=99|1056=1|851=2|5155=NCC|5459=Y2|6029=SUR|6636=N|7693=11866|10=091|
20220107-09:28:33.010408000 : 8=FIX.4.4|9=138|35=3|34=22|49=MU9051500001|52=20220107-09:28:33.000|56=IFIX-TC-EQ-UAT|45=20|58=Tag not defined for this message type|371=851|372=AE|373=2|10=212|
20220107-09:28:33.010447000 : 8=FIX.4.4|9=526|35=AE|49=IFIX-TC-EQ-UAT|56=MU9051500001|34=21|52=20220107-09:28:34.543251394|571=18|828=0|150=F|17=113724925|2|120744|570=N|55=AMZN-RM|236=0.0|32=1|31=244545|75=20220107|60=20220107-09:07:44|63=3|64=20220111|552=1|54=2|37=28092466847|11=hqfrtvzrwfokfazfqiwy|453=3|448=MC9051500000|447=D|452=1|448=2076087002|447=D|452=3|448=MU9051500001|447=D|452=12|1=L00-000012D8|336=FQBR|625=N|12=24.45|13=3|381=244545.0|159=0.0|136=3|137=10.39|139=98|137=14.06|139=4|137=0.0|139=99|1056=1|851=2|5155=NCC|5459=Y2|6029=SUR|6636=N|7693=11866|10=184|
20220107-09:28:33.017804000 : 8=FIX.4.4|9=138|35=3|34=23|49=MU9051500001|52=20220107-09:28:33.010|56=IFIX-TC-EQ-UAT|45=21|58=Tag not defined for this message type|371=851|372=AE|373=2|10=215|
20220107-09:29:32.690476000 : 8=FIX.4.4|9=76|35=0|49=IFIX-TC-EQ-UAT|56=MU9051500001|34=22|52=20220107-09:29:34.525968429|10=188|
20220107-09:29:33.417513000 : 8=FIX.4.4|9=70|35=0|34=24|49=MU9051500001|52=20220107-09:29:33.416|56=IFIX-TC-EQ-UAT|10=112|
20220107-09:30:32.781877000 : 8=FIX.4.4|9=76|35=0|49=IFIX-TC-EQ-UAT|56=MU9051500001|34=23|52=20220107-09:30:34.529223851|10=168|
20220107-09:30:33.494392000 : 8=FIX.4.4|9=70|35=0|34=25|49=MU9051500001|52=20220107-09:30:33.492|56=IFIX-TC-EQ-UAT|10=109|
20220107-09:31:32.932988000 : 8=FIX.4.4|9=76|35=0|49=IFIX-TC-EQ-UAT|56=MU9051500001|34=24|52=20220107-09:31:34.531878947|10=185|
20220107-09:31:33.576065000 : 8=FIX.4.4|9=70|35=0|34=26|49=MU9051500001|52=20220107-09:31:33.575|56=IFIX-TC-EQ-UAT|10=113|
20220107-09:32:32.695965000 : 8=FIX.4.4|9=76|35=0|49=IFIX-TC-EQ-UAT|56=MU9051500001|34=25|52=20220107-09:32:34.534650039|10=170|
20220107-09:32:33.294248000 : 8=FIX.4.4|9=70|35=0|34=27|49=MU9051500001|52=20220107-09:32:33.293|56=IFIX-TC-EQ-UAT|10=112|
20220107-09:33:32.794976000 : 8=FIX.4.4|9=76|35=0|49=IFIX-TC-EQ-UAT|56=MU9051500001|34=26|52=20220107-09:33:34.537429982|10=186|
20220107-09:33:33.073003000 : 8=FIX.4.4|9=70|35=0|34=28|49=MU9051500001|52=20220107-09:33:33.072|56=IFIX-TC-EQ-UAT|10=109|
20220107-09:34:32.729998000 : 8=FIX.4.4|9=76|35=0|49=IFIX-TC-EQ-UAT|56=MU9051500001|34=27|52=20220107-09:34:34.542194460|10=174|
20220107-09:34:33.229336000 : 8=FIX.4.4|9=70|35=0|34=29|49=MU9051500001|52=20220107-09:34:33.228|56=IFIX-TC-EQ-UAT|10=114|
20220107-09:35:32.810046000 : 8=FIX.4.4|9=76|35=0|49=IFIX-TC-EQ-UAT|56=MU9051500001|34=28|52=20220107-09:35:34.545053126|10=172|
20220107-09:35:33.155177000 : 8=FIX.4.4|9=70|35=0|34=30|49=MU9051500001|52=20220107-09:35:33.154|56=IFIX-TC-EQ-UAT|10=105|
20220107-09:36:32.706988000 : 8=FIX.4.4|9=76|35=0|49=IFIX-TC-EQ-UAT|56=MU9051500001|34=29|52=20220107-09:36:34.546719442|10=185|
20220107-09:36:33.109011000 : 8=FIX.4.4|9=70|35=0|34=31|49=MU9051500001|52=20220107-09:36:33.107|56=IFIX-TC-EQ-UAT|10=105|
20220107-09:37:32.711584000 : 8=FIX.4.4|9=76|35=0|49=IFIX-TC-EQ-UAT|56=MU9051500001|34=30|52=20220107-09:37:34.550228130|10=162|
20220107-09:37:33.063366000 : 8=FIX.4.4|9=70|35=0|34=32|49=MU9051500001|52=20220107-09:37:33.062|56=IFIX-TC-EQ-UAT|10=107|
20220107-09:38:32.711355000 : 8=FIX.4.4|9=76|35=0|49=IFIX-TC-EQ-UAT|56=MU9051500001|34=31|52=20220107-09:38:34.550870428|10=177|
20220107-09:38:33.712088000 : 8=FIX.4.4|9=70|35=0|34=33|49=MU9051500001|52=20220107-09:38:33.711|56=IFIX-TC-EQ-UAT|10=110|
20220107-09:39:24.058546000 : 8=FIX.4.4|9=91|35=A|34=34|49=MU9051500001|52=20220107-09:39:24.039|56=IFIX-TC-EQ-UAT|554=7020|98=0|108=60|10=072|
20220107-09:39:27.245724000 : 8=FIX.4.4|9=88|35=A|49=IFIX-TC-EQ-UAT|56=MU9051500001|34=32|52=20220107-09:39:29.087544883|98=0|108=60|10=239|
20220107-09:39:30.146133000 : 8=FIX.4.4|9=141|35=h|49=IFIX-TC-EQ-UAT|56=MU9051500001|34=33|52=20220107-09:39:31.986794761|336=FOND|325=Y|340=101|58=Connection to MICEX market established|10=093|
20220107-09:39:36.700061000 : 8=FIX.4.4|9=516|35=AE|49=IFIX-TC-EQ-UAT|56=MU9051500001|34=34|52=20220107-09:39:38.541754443|571=19|828=0|150=F|17=113722727|1|103700|570=N|55=AMZN-RM|236=0.0|32=1|31=256414|75=20220107|60=20220107-07:37:00|63=3|64=20220111|552=1|54=1|37=28092442643|11=2076087002/|453=3|448=MC9051500000|447=D|452=1|448=2076087002|447=D|452=3|448=MU9051500003|447=D|452=12|1=L00-000012D8|336=FQBR|625=N|12=25.64|13=3|381=256414.0|159=0.0|136=3|137=10.9|139=98|137=14.74|139=4|137=0.0|139=99|1056=1|851=2|5155=NCC|5459=Y2|6029=SUR|6636=N|7693=11866|10=247|
20220107-09:39:36.717883000 : 8=FIX.4.4|9=138|35=3|34=35|49=MU9051500001|52=20220107-09:39:36.700|56=IFIX-TC-EQ-UAT|45=34|58=Tag not defined for this message type|371=851|372=AE|373=2|10=233|
20220107-09:39:36.717995000 : 8=FIX.4.4|9=525|35=AE|49=IFIX-TC-EQ-UAT|56=MU9051500001|34=35|52=20220107-09:39:38.541849959|571=20|828=0|150=F|17=113723093|1|105315|570=N|55=AMZN-RM|236=0.0|32=1|31=256414|75=20220107|60=20220107-07:53:15|63=3|64=20220111|552=1|54=1|37=28092446529|11=plomcxldlkqbvekgxlco|453=3|448=MC9051500000|447=D|452=1|448=2076087002|447=D|452=3|448=MU9051500001|447=D|452=12|1=L00-000012D8|336=FQBR|625=N|12=25.64|13=3|381=256414.0|159=0.0|136=3|137=10.9|139=98|137=14.74|139=4|137=0.0|139=99|1056=1|851=2|5155=NCC|5459=Y2|6029=SUR|6636=N|7693=11866|10=076|
20220107-09:39:36.730903000 : 8=FIX.4.4|9=138|35=3|34=36|49=MU9051500001|52=20220107-09:39:36.718|56=IFIX-TC-EQ-UAT|45=35|58=Tag not defined for this message type|371=851|372=AE|373=2|10=244|
20220107-09:39:36.730937000 : 8=FIX.4.4|9=526|35=AE|49=IFIX-TC-EQ-UAT|56=MU9051500001|34=36|52=20220107-09:39:38.541887646|571=21|828=0|150=F|17=113723196|1|105741|570=N|55=AMZN-RM|236=0.0|32=1|31=257493|75=20220107|60=20220107-07:57:41|63=3|64=20220111|552=1|54=1|37=28092447639|11=mdrakbomrkzvsfinijlp|453=3|448=MC9051500000|447=D|452=1|448=2076087002|447=D|452=3|448=MU9051500001|447=D|452=12|1=L00-000012D8|336=FQBR|625=N|12=25.75|13=3|381=257493.0|159=0.0|136=3|137=10.94|139=98|137=14.81|139=4|137=0.0|139=99|1056=1|851=2|5155=NCC|5459=Y2|6029=SUR|6636=N|7693=11866|10=164|
20220107-09:39:36.739289000 : 8=FIX.4.4|9=138|35=3|34=37|49=MU9051500001|52=20220107-09:39:36.731|56=IFIX-TC-EQ-UAT|45=36|58=Tag not defined for this message type|371=851|372=AE|373=2|10=241|
20220107-09:39:36.739344000 : 8=FIX.4.4|9=525|35=AE|49=IFIX-TC-EQ-UAT|56=MU9051500001|34=37|52=20220107-09:39:38.541928215|571=22|828=0|150=F|17=113723447|1|110807|570=N|55=AMZN-RM|236=0.0|32=1|31=256414|75=20220107|60=20220107-08:08:07|63=3|64=20220111|552=1|54=1|37=28092450261|11=mtfrgystwkrkmhabdtfe|453=3|448=MC9051500000|447=D|452=1|448=2076087002|447=D|452=3|448=MU9051500001|447=D|452=12|1=L00-000012D8|336=FQBR|625=N|12=25.64|13=3|381=256414.0|159=0.0|136=3|137=10.9|139=98|137=14.74|139=4|137=0.0|139=99|1056=1|851=2|5155=NCC|5459=Y2|6029=SUR|6636=N|7693=11866|10=068|
20220107-09:39:36.749752000 : 8=FIX.4.4|9=138|35=3|34=38|49=MU9051500001|52=20220107-09:39:36.739|56=IFIX-TC-EQ-UAT|45=37|58=Tag not defined for this message type|371=851|372=AE|373=2|10=251|
20220107-09:39:36.749808000 : 8=FIX.4.4|9=526|35=AE|49=IFIX-TC-EQ-UAT|56=MU9051500001|34=38|52=20220107-09:39:38.541967781|571=23|828=0|150=F|17=113723517|1|111005|570=N|55=AMZN-RM|236=0.0|32=1|31=256953|75=20220107|60=20220107-08:10:05|63=3|64=20220111|552=1|54=1|37=28092450751|11=myxncjourirqogaclcnv|453=3|448=MC9051500000|447=D|452=1|448=2076087002|447=D|452=3|448=MU9051500001|447=D|452=12|1=L00-000012D8|336=FQBR|625=N|12=25.69|13=3|381=256953.0|159=0.0|136=3|137=10.92|139=98|137=14.77|139=4|137=0.0|139=99|1056=1|851=2|5155=NCC|5459=Y2|6029=SUR|6636=N|7693=11866|10=154|
20220107-09:39:36.757842000 : 8=FIX.4.4|9=138|35=3|34=39|49=MU9051500001|52=20220107-09:39:36.749|56=IFIX-TC-EQ-UAT|45=38|58=Tag not defined for this message type|371=851|372=AE|373=2|10=254|
20220107-09:39:36.757883000 : 8=FIX.4.4|9=526|35=AE|49=IFIX-TC-EQ-UAT|56=MU9051500001|34=39|52=20220107-09:39:38.542006397|571=24|828=0|150=F|17=113723569|1|111234|570=N|55=AMZN-RM|236=0.0|32=1|31=257493|75=20220107|60=20220107-08:12:34|63=3|64=20220111|552=1|54=1|37=28092451363|11=jmjfuvnaxphsxjxhweor|453=3|448=MC9051500000|447=D|452=1|448=2076087002|447=D|452=3|448=MU9051500001|447=D|452=12|1=L00-000012D8|336=FQBR|625=N|12=25.75|13=3|381=257493.0|159=0.0|136=3|137=10.94|139=98|137=14.81|139=4|137=0.0|139=99|1056=1|851=2|5155=NCC|5459=Y2|6029=SUR|6636=N|7693=11866|10=180|
20220107-09:39:36.765785000 : 8=FIX.4.4|9=138|35=3|34=40|49=MU9051500001|52=20220107-09:39:36.757|56=IFIX-TC-EQ-UAT|45=39|58=Tag not defined for this message type|371=851|372=AE|373=2|10=246|
20220107-09:39:36.765812000 : 8=FIX.4.4|9=526|35=AE|49=IFIX-TC-EQ-UAT|56=MU9051500001|34=40|52=20220107-09:39:38.542045588|571=25|828=0|150=F|17=113723625|1|111429|570=N|55=AMZN-RM|236=0.0|32=1|31=256953|75=20220107|60=20220107-08:14:29|63=3|64=20220111|552=1|54=1|37=28092451840|11=plljwlrwnbmhptnmfmpl|453=3|448=MC9051500000|447=D|452=1|448=2076087002|447=D|452=3|448=MU9051500001|447=D|452=12|1=L00-000012D8|336=FQBR|625=N|12=25.69|13=3|381=256953.0|159=0.0|136=3|137=10.92|139=98|137=14.77|139=4|137=0.0|139=99|1056=1|851=2|5155=NCC|5459=Y2|6029=SUR|6636=N|7693=11866|10=171|
20220107-09:39:36.771585000 : 8=FIX.4.4|9=138|35=3|34=41|49=MU9051500001|52=20220107-09:39:36.765|56=IFIX-TC-EQ-UAT|45=40|58=Tag not defined for this message type|371=851|372=AE|373=2|10=238|
20220107-09:39:36.771624000 : 8=FIX.4.4|9=525|35=AE|49=IFIX-TC-EQ-UAT|56=MU9051500001|34=41|52=20220107-09:39:38.542147345|571=26|828=0|150=F|17=113723662|1|111535|570=N|55=AMZN-RM|236=0.0|32=1|31=256414|75=20220107|60=20220107-08:15:35|63=3|64=20220111|552=1|54=1|37=28092452116|11=soixmkxfzvwsvosuryue|453=3|448=MC9051500000|447=D|452=1|448=2076087002|447=D|452=3|448=MU9051500001|447=D|452=12|1=L00-000012D8|336=FQBR|625=N|12=25.64|13=3|381=256414.0|159=0.0|136=3|137=10.9|139=98|137=14.74|139=4|137=0.0|139=99|1056=1|851=2|5155=NCC|5459=Y2|6029=SUR|6636=N|7693=11866|10=170|
20220107-09:39:36.779109000 : 8=FIX.4.4|9=138|35=3|34=42|49=MU9051500001|52=20220107-09:39:36.771|56=IFIX-TC-EQ-UAT|45=41|58=Tag not defined for this message type|371=851|372=AE|373=2|10=237|
20220107-09:39:36.779130000 : 8=FIX.4.4|9=526|35=AE|49=IFIX-TC-EQ-UAT|56=MU9051500001|34=42|52=20220107-09:39:38.542188397|571=27|828=0|150=F|17=113723689|1|111638|570=N|55=AMZN-RM|236=0.0|32=1|31=257493|75=20220107|60=20220107-08:16:38|63=3|64=20220111|552=1|54=1|37=28092452377|11=yeuliklwcgylpjpplzki|453=3|448=MC9051500000|447=D|452=1|448=2076087002|447=D|452=3|448=MU9051500001|447=D|452=12|1=L00-000012D8|336=FQBR|625=N|12=25.75|13=3|381=257493.0|159=0.0|136=3|137=10.94|139=98|137=14.81|139=4|137=0.0|139=99|1056=1|851=2|5155=NCC|5459=Y2|6029=SUR|6636=N|7693=11866|10=203|
20220107-09:39:36.786636000 : 8=FIX.4.4|9=138|35=3|34=43|49=MU9051500001|52=20220107-09:39:36.779|56=IFIX-TC-EQ-UAT|45=42|58=Tag not defined for this message type|371=851|372=AE|373=2|10=247|
20220107-09:39:36.786677000 : 8=FIX.4.4|9=525|35=AE|49=IFIX-TC-EQ-UAT|56=MU9051500001|34=43|52=20220107-09:39:38.542227190|571=28|828=0|150=F|17=113723723|1|111742|570=N|55=AMZN-RM|236=0.0|32=1|31=256414|75=20220107|60=20220107-08:17:42|63=3|64=20220111|552=1|54=1|37=28092452646|11=ewvbgrlwujxsslkybqwh|453=3|448=MC9051500000|447=D|452=1|448=2076087002|447=D|452=3|448=MU9051500001|447=D|452=12|1=L00-000012D8|336=FQBR|625=N|12=25.64|13=3|381=256414.0|159=0.0|136=3|137=10.9|139=98|137=14.74|139=4|137=0.0|139=99|1056=1|851=2|5155=NCC|5459=Y2|6029=SUR|6636=N|7693=11866|10=123|
20220107-09:39:36.796510000 : 8=FIX.4.4|9=138|35=3|34=44|49=MU9051500001|52=20220107-09:39:36.786|56=IFIX-TC-EQ-UAT|45=43|58=Tag not defined for this message type|371=851|372=AE|373=2|10=247|
20220107-09:39:36.796551000 : 8=FIX.4.4|9=526|35=AE|49=IFIX-TC-EQ-UAT|56=MU9051500001|34=44|52=20220107-09:39:38.542261576|571=29|828=0|150=F|17=113723808|1|112121|570=N|55=AMZN-RM|236=0.0|32=1|31=257493|75=20220107|60=20220107-08:21:21|63=3|64=20220111|552=1|54=1|37=28092453531|11=wuveoovbuicphwknjzqq|453=3|448=MC9051500000|447=D|452=1|448=2076087002|447=D|452=3|448=MU9051500001|447=D|452=12|1=L00-000012D8|336=FQBR|625=N|12=25.75|13=3|381=257493.0|159=0.0|136=3|137=10.94|139=98|137=14.81|139=4|137=0.0|139=99|1056=1|851=2|5155=NCC|5459=Y2|6029=SUR|6636=N|7693=11866|10=179|
20220107-09:39:36.803875000 : 8=FIX.4.4|9=138|35=3|34=45|49=MU9051500001|52=20220107-09:39:36.796|56=IFIX-TC-EQ-UAT|45=44|58=Tag not defined for this message type|371=851|372=AE|373=2|10=250|
20220107-09:39:36.803925000 : 8=FIX.4.4|9=526|35=AE|49=IFIX-TC-EQ-UAT|56=MU9051500001|34=45|52=20220107-09:39:38.542301928|571=30|828=0|150=F|17=113723856|1|112311|570=N|55=AMZN-RM|236=0.0|32=1|31=256953|75=20220107|60=20220107-08:23:11|63=3|64=20220111|552=1|54=1|37=28092453999|11=lorcculqqlghzdfyxkrg|453=3|448=MC9051500000|447=D|452=1|448=2076087002|447=D|452=3|448=MU9051500001|447=D|452=12|1=L00-000012D8|336=FQBR|625=N|12=25.69|13=3|381=256953.0|159=0.0|136=3|137=10.92|139=98|137=14.77|139=4|137=0.0|139=99|1056=1|851=2|5155=NCC|5459=Y2|6029=SUR|6636=N|7693=11866|10=163|
20220107-09:39:36.810262000 : 8=FIX.4.4|9=138|35=3|34=46|49=MU9051500001|52=20220107-09:39:36.804|56=IFIX-TC-EQ-UAT|45=45|58=Tag not defined for this message type|371=851|372=AE|373=2|10=242|
20220107-09:39:36.810282000 : 8=FIX.4.4|9=526|35=AE|49=IFIX-TC-EQ-UAT|56=MU9051500001|34=46|52=20220107-09:39:38.542335355|571=31|828=0|150=F|17=113724023|1|113036|570=N|55=AMZN-RM|236=0.0|32=1|31=256953|75=20220107|60=20220107-08:30:36|63=3|64=20220111|552=1|54=1|37=28092455907|11=xmytaknqbtbwzpgmgzen|453=3|448=MC9051500000|447=D|452=1|448=2076087002|447=D|452=3|448=MU9051500001|447=D|452=12|1=L00-000012D8|336=FQBR|625=N|12=25.69|13=3|381=256953.0|159=0.0|136=3|137=10.92|139=98|137=14.77|139=4|137=0.0|139=99|1056=1|851=2|5155=NCC|5459=Y2|6029=SUR|6636=N|7693=11866|10=174|
20220107-09:39:36.818102000 : 8=FIX.4.4|9=138|35=3|34=47|49=MU9051500001|52=20220107-09:39:36.810|56=IFIX-TC-EQ-UAT|45=46|58=Tag not defined for this message type|371=851|372=AE|373=2|10=241|
20220107-09:39:36.818131000 : 8=FIX.4.4|9=525|35=AE|49=IFIX-TC-EQ-UAT|56=MU9051500001|34=47|52=20220107-09:39:38.542372165|571=32|828=0|150=F|17=113724617|1|115644|570=N|55=AMZN-RM|236=0.0|32=1|31=256414|75=20220107|60=20220107-08:56:44|63=3|64=20220111|552=1|54=1|37=28092463662|11=fdzqhrkuamxyervwajva|453=3|448=MC9051500000|447=D|452=1|448=2076087002|447=D|452=3|448=MU9051500001|447=D|452=12|1=L00-000012D8|336=FQBR|625=N|12=25.64|13=3|381=256414.0|159=0.0|136=3|137=10.9|139=98|137=14.74|139=4|137=0.0|139=99|1056=1|851=2|5155=NCC|5459=Y2|6029=SUR|6636=N|7693=11866|10=111|
20220107-09:39:36.823906000 : 8=FIX.4.4|9=138|35=3|34=48|49=MU9051500001|52=20220107-09:39:36.818|56=IFIX-TC-EQ-UAT|45=47|58=Tag not defined for this message type|371=851|372=AE|373=2|10=251|
20220107-09:39:36.823928000 : 8=FIX.4.4|9=526|35=AE|49=IFIX-TC-EQ-UAT|56=MU9051500001|34=48|52=20220107-09:39:38.542414504|571=33|828=0|150=F|17=113724700|1|120011|570=N|55=AMZN-RM|236=0.0|32=1|31=257493|75=20220107|60=20220107-09:00:11|63=3|64=20220111|552=1|54=1|37=28092464650|11=vsptabgablsetcpgnufw|453=3|448=MC9051500000|447=D|452=1|448=2076087002|447=D|452=3|448=MU9051500001|447=D|452=12|1=L00-000012D8|336=FQBR|625=N|12=25.75|13=3|381=257493.0|159=0.0|136=3|137=10.94|139=98|137=14.81|139=4|137=0.0|139=99|1056=1|851=2|5155=NCC|5459=Y2|6029=SUR|6636=N|7693=11866|10=095|
20220107-09:39:36.829399000 : 8=FIX.4.4|9=138|35=3|34=49|49=MU9051500001|52=20220107-09:39:36.823|56=IFIX-TC-EQ-UAT|45=48|58=Tag not defined for this message type|371=851|372=AE|373=2|10=249|
20220107-09:39:36.990702000 : 8=FIX.4.4|9=526|35=AE|49=IFIX-TC-EQ-UAT|56=MU9051500001|34=49|52=20220107-09:39:38.542452148|571=34|828=0|150=F|17=113724718|2|120039|570=N|55=AMZN-RM|236=0.0|32=1|31=245084|75=20220107|60=20220107-09:00:39|63=3|64=20220111|552=1|54=2|37=28092464793|11=kslhoxlvkangcvmmryle|453=3|448=MC9051500000|447=D|452=1|448=2076087002|447=D|452=3|448=MU9051500001|447=D|452=12|1=L00-000012D8|336=FQBR|625=N|12=24.51|13=3|381=245084.0|159=0.0|136=3|137=10.42|139=98|137=14.09|139=4|137=0.0|139=99|1056=1|851=2|5155=NCC|5459=Y2|6029=SUR|6636=N|7693=11866|10=145|
20220107-09:39:37.005400000 : 8=FIX.4.4|9=138|35=3|34=50|49=MU9051500001|52=20220107-09:39:36.990|56=IFIX-TC-EQ-UAT|45=49|58=Tag not defined for this message type|371=851|372=AE|373=2|10=247|
20220107-09:39:37.005431000 : 8=FIX.4.4|9=526|35=AE|49=IFIX-TC-EQ-UAT|56=MU9051500001|34=50|52=20220107-09:39:38.542490338|571=35|828=0|150=F|17=113724823|2|120443|570=N|55=AMZN-RM|236=0.0|32=1|31=244545|75=20220107|60=20220107-09:04:43|63=3|64=20220111|552=1|54=2|37=28092465967|11=fppbeaiiqyyazclbvqhe|453=3|448=MC9051500000|447=D|452=1|448=2076087002|447=D|452=3|448=MU9051500001|447=D|452=12|1=L00-000012D8|336=FQBR|625=N|12=24.45|13=3|381=244545.0|159=0.0|136=3|137=10.39|139=98|137=14.06|139=4|137=0.0|139=99|1056=1|851=2|5155=NCC|5459=Y2|6029=SUR|6636=N|7693=11866|10=108|
20220107-09:39:37.013110000 : 8=FIX.4.4|9=138|35=3|34=51|49=MU9051500001|52=20220107-09:39:37.005|56=IFIX-TC-EQ-UAT|45=50|58=Tag not defined for this message type|371=851|372=AE|373=2|10=228|
20220107-09:39:37.013135000 : 8=FIX.4.4|9=526|35=AE|49=IFIX-TC-EQ-UAT|56=MU9051500001|34=51|52=20220107-09:39:38.542527175|571=36|828=0|150=F|17=113724925|2|120744|570=N|55=AMZN-RM|236=0.0|32=1|31=244545|75=20220107|60=20220107-09:07:44|63=3|64=20220111|552=1|54=2|37=28092466847|11=hqfrtvzrwfokfazfqiwy|453=3|448=MC9051500000|447=D|452=1|448=2076087002|447=D|452=3|448=MU9051500001|447=D|452=12|1=L00-000012D8|336=FQBR|625=N|12=24.45|13=3|381=244545.0|159=0.0|136=3|137=10.39|139=98|137=14.06|139=4|137=0.0|139=99|1056=1|851=2|5155=NCC|5459=Y2|6029=SUR|6636=N|7693=11866|10=195|
20220107-09:39:37.018580000 : 8=FIX.4.4|9=138|35=3|34=52|49=MU9051500001|52=20220107-09:39:37.013|56=IFIX-TC-EQ-UAT|45=51|58=Tag not defined for this message type|371=851|372=AE|373=2|10=229|
20220107-09:40:36.251130000 : 8=FIX.4.4|9=76|35=0|49=IFIX-TC-EQ-UAT|56=MU9051500001|34=52|52=20220107-09:40:38.091967733|10=183|
20220107-09:40:37.708340000 : 8=FIX.4.4|9=70|35=0|34=53|49=MU9051500001|52=20220107-09:40:37.707|56=IFIX-TC-EQ-UAT|10=114|
20220107-09:41:36.259793000 : 8=FIX.4.4|9=76|35=0|49=IFIX-TC-EQ-UAT|56=MU9051500001|34=53|52=20220107-09:41:38.095675595|10=191|
20220107-09:41:37.657578000 : 8=FIX.4.4|9=70|35=0|34=54|49=MU9051500001|52=20220107-09:41:37.656|56=IFIX-TC-EQ-UAT|10=119|
20220107-09:42:36.356901000 : 8=FIX.4.4|9=76|35=0|49=IFIX-TC-EQ-UAT|56=MU9051500001|34=54|52=20220107-09:42:38.098374420|10=179|
20220107-09:42:37.041260000 : 8=FIX.4.4|9=70|35=0|34=55|49=MU9051500001|52=20220107-09:42:37.040|56=IFIX-TC-EQ-UAT|10=108|
20220107-09:43:36.257734000 : 8=FIX.4.4|9=76|35=0|49=IFIX-TC-EQ-UAT|56=MU9051500001|34=55|52=20220107-09:43:38.101148357|10=174|
20220107-09:43:37.582625000 : 8=FIX.4.4|9=70|35=0|34=56|49=MU9051500001|52=20220107-09:43:37.581|56=IFIX-TC-EQ-UAT|10=120|
20220107-09:44:36.264145000 : 8=FIX.4.4|9=76|35=0|49=IFIX-TC-EQ-UAT|56=MU9051500001|34=56|52=20220107-09:44:38.105935699|10=193|
20220107-09:44:37.553469000 : 8=FIX.4.4|9=70|35=0|34=57|49=MU9051500001|52=20220107-09:44:37.552|56=IFIX-TC-EQ-UAT|10=120|
20220107-09:44:51.560579000 : 8=FIX.4.4|9=91|35=A|34=58|49=MU9051500001|52=20220107-09:44:51.550|56=IFIX-TC-EQ-UAT|554=7020|98=0|108=60|10=072|
20220107-09:44:54.748578000 : 8=FIX.4.4|9=88|35=A|49=IFIX-TC-EQ-UAT|56=MU9051500001|34=57|52=20220107-09:44:56.591110304|98=0|108=60|10=219|
20220107-09:44:57.638192000 : 8=FIX.4.4|9=141|35=h|49=IFIX-TC-EQ-UAT|56=MU9051500001|34=58|52=20220107-09:44:59.481685847|336=FOND|325=Y|340=101|58=Connection to MICEX market established|10=100|
20220107-09:45:03.483812000 : 8=FIX.4.4|9=516|35=AE|49=IFIX-TC-EQ-UAT|56=MU9051500001|34=59|52=20220107-09:45:05.324250806|571=37|828=0|150=F|17=113722727|1|103700|570=N|55=AMZN-RM|236=0.0|32=1|31=256414|75=20220107|60=20220107-07:37:00|63=3|64=20220111|552=1|54=1|37=28092442643|11=2076087002/|453=3|448=MC9051500000|447=D|452=1|448=2076087002|447=D|452=3|448=MU9051500003|447=D|452=12|1=L00-000012D8|336=FQBR|625=N|12=25.64|13=3|381=256414.0|159=0.0|136=3|137=10.9|139=98|137=14.74|139=4|137=0.0|139=99|1056=1|851=2|5155=NCC|5459=Y2|6029=SUR|6636=N|7693=11866|10=238|
20220107-09:45:03.504120000 : 8=FIX.4.4|9=120|35=3|34=59|49=MU9051500001|52=20220107-09:45:03.486|56=IFIX-TC-EQ-UAT|45=59|58=Invalid tag number|371=1056|372=AE|373=0|10=069|
20220107-09:45:03.504196000 : 8=FIX.4.4|9=525|35=AE|49=IFIX-TC-EQ-UAT|56=MU9051500001|34=60|52=20220107-09:45:05.324360790|571=38|828=0|150=F|17=113723093|1|105315|570=N|55=AMZN-RM|236=0.0|32=1|31=256414|75=20220107|60=20220107-07:53:15|63=3|64=20220111|552=1|54=1|37=28092446529|11=plomcxldlkqbvekgxlco|453=3|448=MC9051500000|447=D|452=1|448=2076087002|447=D|452=3|448=MU9051500001|447=D|452=12|1=L00-000012D8|336=FQBR|625=N|12=25.64|13=3|381=256414.0|159=0.0|136=3|137=10.9|139=98|137=14.74|139=4|137=0.0|139=99|1056=1|851=2|5155=NCC|5459=Y2|6029=SUR|6636=N|7693=11866|10=054|
20220107-09:45:03.511081000 : 8=FIX.4.4|9=120|35=3|34=60|49=MU9051500001|52=20220107-09:45:03.504|56=IFIX-TC-EQ-UAT|45=60|58=Invalid tag number|371=1056|372=AE|373=0|10=044|
20220107-09:45:03.511104000 : 8=FIX.4.4|9=526|35=AE|49=IFIX-TC-EQ-UAT|56=MU9051500001|34=61|52=20220107-09:45:05.324417229|571=39|828=0|150=F|17=113723196|1|105741|570=N|55=AMZN-RM|236=0.0|32=1|31=257493|75=20220107|60=20220107-07:57:41|63=3|64=20220111|552=1|54=1|37=28092447639|11=mdrakbomrkzvsfinijlp|453=3|448=MC9051500000|447=D|452=1|448=2076087002|447=D|452=3|448=MU9051500001|447=D|452=12|1=L00-000012D8|336=FQBR|625=N|12=25.75|13=3|381=257493.0|159=0.0|136=3|137=10.94|139=98|137=14.81|139=4|137=0.0|139=99|1056=1|851=2|5155=NCC|5459=Y2|6029=SUR|6636=N|7693=11866|10=147|
20220107-09:45:03.519844000 : 8=FIX.4.4|9=120|35=3|34=61|49=MU9051500001|52=20220107-09:45:03.511|56=IFIX-TC-EQ-UAT|45=61|58=Invalid tag number|371=1056|372=AE|373=0|10=044|
20220107-09:45:03.519869000 : 8=FIX.4.4|9=525|35=AE|49=IFIX-TC-EQ-UAT|56=MU9051500001|34=62|52=20220107-09:45:05.324463477|571=40|828=0|150=F|17=113723447|1|110807|570=N|55=AMZN-RM|236=0.0|32=1|31=256414|75=20220107|60=20220107-08:08:07|63=3|64=20220111|552=1|54=1|37=28092450261|11=mtfrgystwkrkmhabdtfe|453=3|448=MC9051500000|447=D|452=1|448=2076087002|447=D|452=3|448=MU9051500001|447=D|452=12|1=L00-000012D8|336=FQBR|625=N|12=25.64|13=3|381=256414.0|159=0.0|136=3|137=10.9|139=98|137=14.74|139=4|137=0.0|139=99|1056=1|851=2|5155=NCC|5459=Y2|6029=SUR|6636=N|7693=11866|10=060|
20220107-09:45:03.527077000 : 8=FIX.4.4|9=120|35=3|34=62|49=MU9051500001|52=20220107-09:45:03.519|56=IFIX-TC-EQ-UAT|45=62|58=Invalid tag number|371=1056|372=AE|373=0|10=054|
20220107-09:45:03.527105000 : 8=FIX.4.4|9=526|35=AE|49=IFIX-TC-EQ-UAT|56=MU9051500001|34=63|52=20220107-09:45:05.324509492|571=41|828=0|150=F|17=113723517|1|111005|570=N|55=AMZN-RM|236=0.0|32=1|31=256953|75=20220107|60=20220107-08:10:05|63=3|64=20220111|552=1|54=1|37=28092450751|11=myxncjourirqogaclcnv|453=3|448=MC9051500000|447=D|452=1|448=2076087002|447=D|452=3|448=MU9051500001|447=D|452=12|1=L00-000012D8|336=FQBR|625=N|12=25.69|13=3|381=256953.0|159=0.0|136=3|137=10.92|139=98|137=14.77|139=4|137=0.0|139=99|1056=1|851=2|5155=NCC|5459=Y2|6029=SUR|6636=N|7693=11866|10=133|
20220107-09:45:03.535190000 : 8=FIX.4.4|9=120|35=3|34=63|49=MU9051500001|52=20220107-09:45:03.527|56=IFIX-TC-EQ-UAT|45=63|58=Invalid tag number|371=1056|372=AE|373=0|10=055|
20220107-09:45:03.535216000 : 8=FIX.4.4|9=526|35=AE|49=IFIX-TC-EQ-UAT|56=MU9051500001|34=64|52=20220107-09:45:05.324568808|571=42|828=0|150=F|17=113723569|1|111234|570=N|55=AMZN-RM|236=0.0|32=1|31=257493|75=20220107|60=20220107-08:12:34|63=3|64=20220111|552=1|54=1|37=28092451363|11=jmjfuvnaxphsxjxhweor|453=3|448=MC9051500000|447=D|452=1|448=2076087002|447=D|452=3|448=MU9051500001|447=D|452=12|1=L00-000012D8|336=FQBR|625=N|12=25.75|13=3|381=257493.0|159=0.0|136=3|137=10.94|139=98|137=14.81|139=4|137=0.0|139=99|1056=1|851=2|5155=NCC|5459=Y2|6029=SUR|6636=N|7693=11866|10=177|
20220107-09:45:03.542720000 : 8=FIX.4.4|9=120|35=3|34=64|49=MU9051500001|52=20220107-09:45:03.535|56=IFIX-TC-EQ-UAT|45=64|58=Invalid tag number|371=1056|372=AE|373=0|10=056|
20220107-09:45:03.542743000 : 8=FIX.4.4|9=526|35=AE|49=IFIX-TC-EQ-UAT|56=MU9051500001|34=65|52=20220107-09:45:05.324610798|571=43|828=0|150=F|17=113723625|1|111429|570=N|55=AMZN-RM|236=0.0|32=1|31=256953|75=20220107|60=20220107-08:14:29|63=3|64=20220111|552=1|54=1|37=28092451840|11=plljwlrwnbmhptnmfmpl|453=3|448=MC9051500000|447=D|452=1|448=2076087002|447=D|452=3|448=MU9051500001|447=D|452=12|1=L00-000012D8|336=FQBR|625=N|12=25.69|13=3|381=256953.0|159=0.0|136=3|137=10.92|139=98|137=14.77|139=4|137=0.0|139=99|1056=1|851=2|5155=NCC|5459=Y2|6029=SUR|6636=N|7693=11866|10=168|
20220107-09:45:03.549947000 : 8=FIX.4.4|9=120|35=3|34=65|49=MU9051500001|52=20220107-09:45:03.542|56=IFIX-TC-EQ-UAT|45=65|58=Invalid tag number|371=1056|372=AE|373=0|10=056|
20220107-09:45:03.549968000 : 8=FIX.4.4|9=525|35=AE|49=IFIX-TC-EQ-UAT|56=MU9051500001|34=66|52=20220107-09:45:05.324648625|571=44|828=0|150=F|17=113723662|1|111535|570=N|55=AMZN-RM|236=0.0|32=1|31=256414|75=20220107|60=20220107-08:15:35|63=3|64=20220111|552=1|54=1|37=28092452116|11=soixmkxfzvwsvosuryue|453=3|448=MC9051500000|447=D|452=1|448=2076087002|447=D|452=3|448=MU9051500001|447=D|452=12|1=L00-000012D8|336=FQBR|625=N|12=25.64|13=3|381=256414.0|159=0.0|136=3|137=10.9|139=98|137=14.74|139=4|137=0.0|139=99|1056=1|851=2|5155=NCC|5459=Y2|6029=SUR|6636=N|7693=11866|10=173|
20220107-09:45:03.555543000 : 8=FIX.4.4|9=120|35=3|34=66|49=MU9051500001|52=20220107-09:45:03.550|56=IFIX-TC-EQ-UAT|45=66|58=Invalid tag number|371=1056|372=AE|373=0|10=057|
20220107-09:45:03.555565000 : 8=FIX.4.4|9=526|35=AE|49=IFIX-TC-EQ-UAT|56=MU9051500001|34=67|52=20220107-09:45:05.324686738|571=45|828=0|150=F|17=113723689|1|111638|570=N|55=AMZN-RM|236=0.0|32=1|31=257493|75=20220107|60=20220107-08:16:38|63=3|64=20220111|552=1|54=1|37=28092452377|11=yeuliklwcgylpjpplzki|453=3|448=MC9051500000|447=D|452=1|448=2076087002|447=D|452=3|448=MU9051500001|447=D|452=12|1=L00-000012D8|336=FQBR|625=N|12=25.75|13=3|381=257493.0|159=0.0|136=3|137=10.94|139=98|137=14.81|139=4|137=0.0|139=99|1056=1|851=2|5155=NCC|5459=Y2|6029=SUR|6636=N|7693=11866|10=201|
20220107-09:45:03.561043000 : 8=FIX.4.4|9=120|35=3|34=67|49=MU9051500001|52=20220107-09:45:03.555|56=IFIX-TC-EQ-UAT|45=67|58=Invalid tag number|371=1056|372=AE|373=0|10=064|
20220107-09:45:03.561070000 : 8=FIX.4.4|9=525|35=AE|49=IFIX-TC-EQ-UAT|56=MU9051500001|34=68|52=20220107-09:45:05.324733857|571=46|828=0|150=F|17=113723723|1|111742|570=N|55=AMZN-RM|236=0.0|32=1|31=256414|75=20220107|60=20220107-08:17:42|63=3|64=20220111|552=1|54=1|37=28092452646|11=ewvbgrlwujxsslkybqwh|453=3|448=MC9051500000|447=D|452=1|448=2076087002|447=D|452=3|448=MU9051500001|447=D|452=12|1=L00-000012D8|336=FQBR|625=N|12=25.64|13=3|381=256414.0|159=0.0|136=3|137=10.9|139=98|137=14.74|139=4|137=0.0|139=99|1056=1|851=2|5155=NCC|5459=Y2|6029=SUR|6636=N|7693=11866|10=131|
20220107-09:45:03.566548000 : 8=FIX.4.4|9=120|35=3|34=68|49=MU9051500001|52=20220107-09:45:03.561|56=IFIX-TC-EQ-UAT|45=68|58=Invalid tag number|371=1056|372=AE|373=0|10=063|
20220107-09:45:03.566565000 : 8=FIX.4.4|9=526|35=AE|49=IFIX-TC-EQ-UAT|56=MU9051500001|34=69|52=20220107-09:45:05.324771978|571=47|828=0|150=F|17=113723808|1|112121|570=N|55=AMZN-RM|236=0.0|32=1|31=257493|75=20220107|60=20220107-08:21:21|63=3|64=20220111|552=1|54=1|37=28092453531|11=wuveoovbuicphwknjzqq|453=3|448=MC9051500000|447=D|452=1|448=2076087002|447=D|452=3|448=MU9051500001|447=D|452=12|1=L00-000012D8|336=FQBR|625=N|12=25.75|13=3|381=257493.0|159=0.0|136=3|137=10.94|139=98|137=14.81|139=4|137=0.0|139=99|1056=1|851=2|5155=NCC|5459=Y2|6029=SUR|6636=N|7693=11866|10=187|
20220107-09:45:03.571912000 : 8=FIX.4.4|9=120|35=3|34=69|49=MU9051500001|52=20220107-09:45:03.566|56=IFIX-TC-EQ-UAT|45=69|58=Invalid tag number|371=1056|372=AE|373=0|10=070|
20220107-09:45:03.571944000 : 8=FIX.4.4|9=526|35=AE|49=IFIX-TC-EQ-UAT|56=MU9051500001|34=70|52=20220107-09:45:05.324810410|571=48|828=0|150=F|17=113723856|1|112311|570=N|55=AMZN-RM|236=0.0|32=1|31=256953|75=20220107|60=20220107-08:23:11|63=3|64=20220111|552=1|54=1|37=28092453999|11=lorcculqqlghzdfyxkrg|453=3|448=MC9051500000|447=D|452=1|448=2076087002|447=D|452=3|448=MU9051500001|447=D|452=12|1=L00-000012D8|336=FQBR|625=N|12=25.69|13=3|381=256953.0|159=0.0|136=3|137=10.92|139=98|137=14.77|139=4|137=0.0|139=99|1056=1|851=2|5155=NCC|5459=Y2|6029=SUR|6636=N|7693=11866|10=150|
20220107-09:45:03.577456000 : 8=FIX.4.4|9=120|35=3|34=70|49=MU9051500001|52=20220107-09:45:03.572|56=IFIX-TC-EQ-UAT|45=70|58=Invalid tag number|371=1056|372=AE|373=0|10=051|
20220107-09:45:03.577475000 : 8=FIX.4.4|9=526|35=AE|49=IFIX-TC-EQ-UAT|56=MU9051500001|34=71|52=20220107-09:45:05.324848001|571=49|828=0|150=F|17=113724023|1|113036|570=N|55=AMZN-RM|236=0.0|32=1|31=256953|75=20220107|60=20220107-08:30:36|63=3|64=20220111|552=1|54=1|37=28092455907|11=xmytaknqbtbwzpgmgzen|453=3|448=MC9051500000|447=D|452=1|448=2076087002|447=D|452=3|448=MU9051500001|447=D|452=12|1=L00-000012D8|336=FQBR|625=N|12=25.69|13=3|381=256953.0|159=0.0|136=3|137=10.92|139=98|137=14.77|139=4|137=0.0|139=99|1056=1|851=2|5155=NCC|5459=Y2|6029=SUR|6636=N|7693=11866|10=167|
20220107-09:45:03.582778000 : 8=FIX.4.4|9=120|35=3|34=71|49=MU9051500001|52=20220107-09:45:03.577|56=IFIX-TC-EQ-UAT|45=71|58=Invalid tag number|371=1056|372=AE|373=0|10=058|
20220107-09:45:03.582807000 : 8=FIX.4.4|9=525|35=AE|49=IFIX-TC-EQ-UAT|56=MU9051500001|34=72|52=20220107-09:45:05.324887987|571=50|828=0|150=F|17=113724617|1|115644|570=N|55=AMZN-RM|236=0.0|32=1|31=256414|75=20220107|60=20220107-08:56:44|63=3|64=20220111|552=1|54=1|37=28092463662|11=fdzqhrkuamxyervwajva|453=3|448=MC9051500000|447=D|452=1|448=2076087002|447=D|452=3|448=MU9051500001|447=D|452=12|1=L00-000012D8|336=FQBR|625=N|12=25.64|13=3|381=256414.0|159=0.0|136=3|137=10.9|139=98|137=14.74|139=4|137=0.0|139=99|1056=1|851=2|5155=NCC|5459=Y2|6029=SUR|6636=N|7693=11866|10=121|
20220107-09:45:03.593920000 : 8=FIX.4.4|9=120|35=3|34=72|49=MU9051500001|52=20220107-09:45:03.582|56=IFIX-TC-EQ-UAT|45=72|58=Invalid tag number|371=1056|372=AE|373=0|10=056|
20220107-09:45:03.593977000 : 8=FIX.4.4|9=526|35=AE|49=IFIX-TC-EQ-UAT|56=MU9051500001|34=73|52=20220107-09:45:05.324925630|571=51|828=0|150=F|17=113724700|1|120011|570=N|55=AMZN-RM|236=0.0|32=1|31=257493|75=20220107|60=20220107-09:00:11|63=3|64=20220111|552=1|54=1|37=28092464650|11=vsptabgablsetcpgnufw|453=3|448=MC9051500000|447=D|452=1|448=2076087002|447=D|452=3|448=MU9051500001|447=D|452=12|1=L00-000012D8|336=FQBR|625=N|12=25.75|13=3|381=257493.0|159=0.0|136=3|137=10.94|139=98|137=14.81|139=4|137=0.0|139=99|1056=1|851=2|5155=NCC|5459=Y2|6029=SUR|6636=N|7693=11866|10=089|
20220107-09:45:03.603083000 : 8=FIX.4.4|9=120|35=3|34=73|49=MU9051500001|52=20220107-09:45:03.594|56=IFIX-TC-EQ-UAT|45=73|58=Invalid tag number|371=1056|372=AE|373=0|10=061|
20220107-09:45:03.603124000 : 8=FIX.4.4|9=526|35=AE|49=IFIX-TC-EQ-UAT|56=MU9051500001|34=74|52=20220107-09:45:05.324962779|571=52|828=0|150=F|17=113724718|2|120039|570=N|55=AMZN-RM|236=0.0|32=1|31=245084|75=20220107|60=20220107-09:00:39|63=3|64=20220111|552=1|54=2|37=28092464793|11=kslhoxlvkangcvmmryle|453=3|448=MC9051500000|447=D|452=1|448=2076087002|447=D|452=3|448=MU9051500001|447=D|452=12|1=L00-000012D8|336=FQBR|625=N|12=24.51|13=3|381=245084.0|159=0.0|136=3|137=10.42|139=98|137=14.09|139=4|137=0.0|139=99|1056=1|851=2|5155=NCC|5459=Y2|6029=SUR|6636=N|7693=11866|10=148|
20220107-09:45:03.609656000 : 8=FIX.4.4|9=120|35=3|34=74|49=MU9051500001|52=20220107-09:45:03.603|56=IFIX-TC-EQ-UAT|45=74|58=Invalid tag number|371=1056|372=AE|373=0|10=054|
20220107-09:45:03.776350000 : 8=FIX.4.4|9=526|35=AE|49=IFIX-TC-EQ-UAT|56=MU9051500001|34=75|52=20220107-09:45:05.325057264|571=53|828=0|150=F|17=113724823|2|120443|570=N|55=AMZN-RM|236=0.0|32=1|31=244545|75=20220107|60=20220107-09:04:43|63=3|64=20220111|552=1|54=2|37=28092465967|11=fppbeaiiqyyazclbvqhe|453=3|448=MC9051500000|447=D|452=1|448=2076087002|447=D|452=3|448=MU9051500001|447=D|452=12|1=L00-000012D8|336=FQBR|625=N|12=24.45|13=3|381=244545.0|159=0.0|136=3|137=10.39|139=98|137=14.06|139=4|137=0.0|139=99|1056=1|851=2|5155=NCC|5459=Y2|6029=SUR|6636=N|7693=11866|10=102|
20220107-09:45:03.784408000 : 8=FIX.4.4|9=120|35=3|34=75|49=MU9051500001|52=20220107-09:45:03.776|56=IFIX-TC-EQ-UAT|45=75|58=Invalid tag number|371=1056|372=AE|373=0|10=067|
20220107-09:45:03.784461000 : 8=FIX.4.4|9=526|35=AE|49=IFIX-TC-EQ-UAT|56=MU9051500001|34=76|52=20220107-09:45:05.325098231|571=54|828=0|150=F|17=113724925|2|120744|570=N|55=AMZN-RM|236=0.0|32=1|31=244545|75=20220107|60=20220107-09:07:44|63=3|64=20220111|552=1|54=2|37=28092466847|11=hqfrtvzrwfokfazfqiwy|453=3|448=MC9051500000|447=D|452=1|448=2076087002|447=D|452=3|448=MU9051500001|447=D|452=12|1=L00-000012D8|336=FQBR|625=N|12=24.45|13=3|381=244545.0|159=0.0|136=3|137=10.39|139=98|137=14.06|139=4|137=0.0|139=99|1056=1|851=2|5155=NCC|5459=Y2|6029=SUR|6636=N|7693=11866|10=188|
20220107-09:45:03.793161000 : 8=FIX.4.4|9=120|35=3|34=76|49=MU9051500001|52=20220107-09:45:03.784|56=IFIX-TC-EQ-UAT|45=76|58=Invalid tag number|371=1056|372=AE|373=0|10=068|
20220107-14:20:07.997347000 : 8=FIX.4.4|9=91|35=A|34=77|49=MU9051500001|52=20220107-14:20:07.982|56=IFIX-TC-EQ-UAT|554=7020|98=0|108=60|10=073|
20220107-14:20:27.358963000 : 8=FIX.4.4|9=91|35=A|34=78|49=MU9051500001|52=20220107-14:20:27.343|56=IFIX-TC-EQ-UAT|554=7020|98=0|108=60|10=067|
20220107-14:20:47.230188000 : 8=FIX.4.4|9=91|35=A|34=79|49=MU9051500001|52=20220107-14:20:47.213|56=IFIX-TC-EQ-UAT|554=7020|98=0|108=60|10=066|
20220107-14:21:07.556522000 : 8=FIX.4.4|9=91|35=A|34=80|49=MU9051500001|52=20220107-14:21:07.542|56=IFIX-TC-EQ-UAT|554=7020|98=0|108=60|10=060|
20220107-14:21:27.467172000 : 8=FIX.4.4|9=91|35=A|34=81|49=MU9051500001|52=20220107-14:21:27.455|56=IFIX-TC-EQ-UAT|554=7020|98=0|108=60|10=066|
20220107-14:21:47.902258000 : 8=FIX.4.4|9=91|35=A|34=82|49=MU9051500001|52=20220107-14:21:47.884|56=IFIX-TC-EQ-UAT|554=7020|98=0|108=60|10=075|
20220107-14:22:07.801305000 : 8=FIX.4.4|9=91|35=A|34=83|49=MU9051500001|52=20220107-14:22:07.790|56=IFIX-TC-EQ-UAT|554=7020|98=0|108=60|10=069|
20220107-14:22:27.301506000 : 8=FIX.4.4|9=91|35=A|34=84|49=MU9051500001|52=20220107-14:22:27.284|56=IFIX-TC-EQ-UAT|554=7020|98=0|108=60|10=070|
20220107-14:22:47.101328000 : 8=FIX.4.4|9=91|35=A|34=85|49=MU9051500001|52=20220107-14:22:47.083|56=IFIX-TC-EQ-UAT|554=7020|98=0|108=60|10=070|
20220107-14:23:07.142814000 : 8=FIX.4.4|9=91|35=A|34=86|49=MU9051500001|52=20220107-14:23:07.125|56=IFIX-TC-EQ-UAT|554=7020|98=0|108=60|10=065|
20220107-14:23:27.363111000 : 8=FIX.4.4|9=91|35=A|34=87|49=MU9051500001|52=20220107-14:23:27.353|56=IFIX-TC-EQ-UAT|554=7020|98=0|108=60|10=071|
20220107-14:23:47.481662000 : 8=FIX.4.4|9=91|35=A|34=88|49=MU9051500001|52=20220107-14:23:47.463|56=IFIX-TC-EQ-UAT|554=7020|98=0|108=60|10=076|
20220107-14:23:50.662216000 : 8=FIX.4.4|9=88|35=A|49=IFIX-TC-EQ-UAT|56=MU9051500001|34=77|52=20220107-14:23:52.551941257|98=0|108=60|10=225|
20220107-14:23:50.946822000 : 8=FIX.4.4|9=86|35=2|49=IFIX-TC-EQ-UAT|56=MU9051500001|34=78|52=20220107-14:23:52.552005916|7=77|16=0|10=103|
20220107-14:23:50.972839000 : 8=FIX.4.4|9=113|35=4|34=77|43=Y|49=MU9051500001|52=20220107-14:23:50.962|56=IFIX-TC-EQ-UAT|122=20220107-14:23:50.962|36=89|123=Y|10=232|
20220107-14:23:53.563139000 : 8=FIX.4.4|9=141|35=h|49=IFIX-TC-EQ-UAT|56=MU9051500001|34=79|52=20220107-14:23:55.439229154|336=FOND|325=Y|340=101|58=Connection to MICEX market established|10=080|
20220107-14:24:04.017672000 : 8=FIX.4.4|9=516|35=AE|49=IFIX-TC-EQ-UAT|56=MU9051500001|34=80|52=20220107-14:24:05.906971984|571=55|828=0|150=F|17=113722727|1|103700|570=N|55=AMZN-RM|236=0.0|32=1|31=256414|75=20220107|60=20220107-07:37:00|63=3|64=20220111|552=1|54=1|37=28092442643|11=2076087002/|453=3|448=MC9051500000|447=D|452=1|448=2076087002|447=D|452=3|448=MU9051500003|447=D|452=12|1=L00-000012D8|336=FQBR|625=N|12=25.64|13=3|381=256414.0|159=0.0|136=3|137=10.9|139=98|137=14.74|139=4|137=0.0|139=99|1056=1|851=2|5155=NCC|5459=Y2|6029=SUR|6636=N|7693=11866|10=248|
20220107-14:24:04.021770000 : 8=FIX.4.4|9=525|35=AE|49=IFIX-TC-EQ-UAT|56=MU9051500001|34=81|52=20220107-14:24:05.907070709|571=56|828=0|150=F|17=113723093|1|105315|570=N|55=AMZN-RM|236=0.0|32=1|31=256414|75=20220107|60=20220107-07:53:15|63=3|64=20220111|552=1|54=1|37=28092446529|11=plomcxldlkqbvekgxlco|453=3|448=MC9051500000|447=D|452=1|448=2076087002|447=D|452=3|448=MU9051500001|447=D|452=12|1=L00-000012D8|336=FQBR|625=N|12=25.64|13=3|381=256414.0|159=0.0|136=3|137=10.9|139=98|137=14.74|139=4|137=0.0|139=99|1056=1|851=2|5155=NCC|5459=Y2|6029=SUR|6636=N|7693=11866|10=055|
20220107-14:24:04.028888000 : 8=FIX.4.4|9=526|35=AE|49=IFIX-TC-EQ-UAT|56=MU9051500001|34=82|52=20220107-14:24:05.907109655|571=57|828=0|150=F|17=113723196|1|105741|570=N|55=AMZN-RM|236=0.0|32=1|31=257493|75=20220107|60=20220107-07:57:41|63=3|64=20220111|552=1|54=1|37=28092447639|11=mdrakbomrkzvsfinijlp|453=3|448=MC9051500000|447=D|452=1|448=2076087002|447=D|452=3|448=MU9051500001|447=D|452=12|1=L00-000012D8|336=FQBR|625=N|12=25.75|13=3|381=257493.0|159=0.0|136=3|137=10.94|139=98|137=14.81|139=4|137=0.0|139=99|1056=1|851=2|5155=NCC|5459=Y2|6029=SUR|6636=N|7693=11866|10=151|
20220107-14:24:04.032263000 : 8=FIX.4.4|9=525|35=AE|49=IFIX-TC-EQ-UAT|56=MU9051500001|34=83|52=20220107-14:24:05.907150291|571=58|828=0|150=F|17=113723447|1|110807|570=N|55=AMZN-RM|236=0.0|32=1|31=256414|75=20220107|60=20220107-08:08:07|63=3|64=20220111|552=1|54=1|37=28092450261|11=mtfrgystwkrkmhabdtfe|453=3|448=MC9051500000|447=D|452=1|448=2076087002|447=D|452=3|448=MU9051500001|447=D|452=12|1=L00-000012D8|336=FQBR|625=N|12=25.64|13=3|381=256414.0|159=0.0|136=3|137=10.9|139=98|137=14.74|139=4|137=0.0|139=99|1056=1|851=2|5155=NCC|5459=Y2|6029=SUR|6636=N|7693=11866|10=059|
20220107-14:24:04.034671000 : 8=FIX.4.4|9=526|35=AE|49=IFIX-TC-EQ-UAT|56=MU9051500001|34=84|52=20220107-14:24:05.907198313|571=59|828=0|150=F|17=113723517|1|111005|570=N|55=AMZN-RM|236=0.0|32=1|31=256953|75=20220107|60=20220107-08:10:05|63=3|64=20220111|552=1|54=1|37=28092450751|11=myxncjourirqogaclcnv|453=3|448=MC9051500000|447=D|452=1|448=2076087002|447=D|452=3|448=MU9051500001|447=D|452=12|1=L00-000012D8|336=FQBR|625=N|12=25.69|13=3|381=256953.0|159=0.0|136=3|137=10.92|139=98|137=14.77|139=4|137=0.0|139=99|1056=1|851=2|5155=NCC|5459=Y2|6029=SUR|6636=N|7693=11866|10=141|
20220107-14:24:04.036942000 : 8=FIX.4.4|9=526|35=AE|49=IFIX-TC-EQ-UAT|56=MU9051500001|34=85|52=20220107-14:24:05.907238070|571=60|828=0|150=F|17=113723569|1|111234|570=N|55=AMZN-RM|236=0.0|32=1|31=257493|75=20220107|60=20220107-08:12:34|63=3|64=20220111|552=1|54=1|37=28092451363|11=jmjfuvnaxphsxjxhweor|453=3|448=MC9051500000|447=D|452=1|448=2076087002|447=D|452=3|448=MU9051500001|447=D|452=12|1=L00-000012D8|336=FQBR|625=N|12=25.75|13=3|381=257493.0|159=0.0|136=3|137=10.94|139=98|137=14.81|139=4|137=0.0|139=99|1056=1|851=2|5155=NCC|5459=Y2|6029=SUR|6636=N|7693=11866|10=165|
20220107-14:24:04.038807000 : 8=FIX.4.4|9=526|35=AE|49=IFIX-TC-EQ-UAT|56=MU9051500001|34=86|52=20220107-14:24:05.907271495|571=61|828=0|150=F|17=113723625|1|111429|570=N|55=AMZN-RM|236=0.0|32=1|31=256953|75=20220107|60=20220107-08:14:29|63=3|64=20220111|552=1|54=1|37=28092451840|11=plljwlrwnbmhptnmfmpl|453=3|448=MC9051500000|447=D|452=1|448=2076087002|447=D|452=3|448=MU9051500001|447=D|452=12|1=L00-000012D8|336=FQBR|625=N|12=25.69|13=3|381=256953.0|159=0.0|136=3|137=10.92|139=98|137=14.77|139=4|137=0.0|139=99|1056=1|851=2|5155=NCC|5459=Y2|6029=SUR|6636=N|7693=11866|10=168|
20220107-14:24:04.040525000 : 8=FIX.4.4|9=525|35=AE|49=IFIX-TC-EQ-UAT|56=MU9051500001|34=87|52=20220107-14:24:05.907308791|571=62|828=0|150=F|17=113723662|1|111535|570=N|55=AMZN-RM|236=0.0|32=1|31=256414|75=20220107|60=20220107-08:15:35|63=3|64=20220111|552=1|54=1|37=28092452116|11=soixmkxfzvwsvosuryue|453=3|448=MC9051500000|447=D|452=1|448=2076087002|447=D|452=3|448=MU9051500001|447=D|452=12|1=L00-000012D8|336=FQBR|625=N|12=25.64|13=3|381=256414.0|159=0.0|136=3|137=10.9|139=98|137=14.74|139=4|137=0.0|139=99|1056=1|851=2|5155=NCC|5459=Y2|6029=SUR|6636=N|7693=11866|10=173|
20220107-14:24:04.041903000 : 8=FIX.4.4|9=526|35=AE|49=IFIX-TC-EQ-UAT|56=MU9051500001|34=88|52=20220107-14:24:05.907345635|571=63|828=0|150=F|17=113723689|1|111638|570=N|55=AMZN-RM|236=0.0|32=1|31=257493|75=20220107|60=20220107-08:16:38|63=3|64=20220111|552=1|54=1|37=28092452377|11=yeuliklwcgylpjpplzki|453=3|448=MC9051500000|447=D|452=1|448=2076087002|447=D|452=3|448=MU9051500001|447=D|452=12|1=L00-000012D8|336=FQBR|625=N|12=25.75|13=3|381=257493.0|159=0.0|136=3|137=10.94|139=98|137=14.81|139=4|137=0.0|139=99|1056=1|851=2|5155=NCC|5459=Y2|6029=SUR|6636=N|7693=11866|10=192|
20220107-14:24:04.043283000 : 8=FIX.4.4|9=525|35=AE|49=IFIX-TC-EQ-UAT|56=MU9051500001|34=89|52=20220107-14:24:05.907383531|571=64|828=0|150=F|17=113723723|1|111742|570=N|55=AMZN-RM|236=0.0|32=1|31=256414|75=20220107|60=20220107-08:17:42|63=3|64=20220111|552=1|54=1|37=28092452646|11=ewvbgrlwujxsslkybqwh|453=3|448=MC9051500000|447=D|452=1|448=2076087002|447=D|452=3|448=MU9051500001|447=D|452=12|1=L00-000012D8|336=FQBR|625=N|12=25.64|13=3|381=256414.0|159=0.0|136=3|137=10.9|139=98|137=14.74|139=4|137=0.0|139=99|1056=1|851=2|5155=NCC|5459=Y2|6029=SUR|6636=N|7693=11866|10=124|
20220107-14:24:04.044473000 : 8=FIX.4.4|9=526|35=AE|49=IFIX-TC-EQ-UAT|56=MU9051500001|34=90|52=20220107-14:24:05.907419684|571=65|828=0|150=F|17=113723808|1|112121|570=N|55=AMZN-RM|236=0.0|32=1|31=257493|75=20220107|60=20220107-08:21:21|63=3|64=20220111|552=1|54=1|37=28092453531|11=wuveoovbuicphwknjzqq|453=3|448=MC9051500000|447=D|452=1|448=2076087002|447=D|452=3|448=MU9051500001|447=D|452=12|1=L00-000012D8|336=FQBR|625=N|12=25.75|13=3|381=257493.0|159=0.0|136=3|137=10.94|139=98|137=14.81|139=4|137=0.0|139=99|1056=1|851=2|5155=NCC|5459=Y2|6029=SUR|6636=N|7693=11866|10=174|
20220107-14:24:04.047028000 : 8=FIX.4.4|9=526|35=AE|49=IFIX-TC-EQ-UAT|56=MU9051500001|34=91|52=20220107-14:24:05.907461353|571=66|828=0|150=F|17=113723856|1|112311|570=N|55=AMZN-RM|236=0.0|32=1|31=256953|75=20220107|60=20220107-08:23:11|63=3|64=20220111|552=1|54=1|37=28092453999|11=lorcculqqlghzdfyxkrg|453=3|448=MC9051500000|447=D|452=1|448=2076087002|447=D|452=3|448=MU9051500001|447=D|452=12|1=L00-000012D8|336=FQBR|625=N|12=25.69|13=3|381=256953.0|159=0.0|136=3|137=10.92|139=98|137=14.77|139=4|137=0.0|139=99|1056=1|851=2|5155=NCC|5459=Y2|6029=SUR|6636=N|7693=11866|10=161|
20220107-14:24:04.048410000 : 8=FIX.4.4|9=526|35=AE|49=IFIX-TC-EQ-UAT|56=MU9051500001|34=92|52=20220107-14:24:05.907498110|571=67|828=0|150=F|17=113724023|1|113036|570=N|55=AMZN-RM|236=0.0|32=1|31=256953|75=20220107|60=20220107-08:30:36|63=3|64=20220111|552=1|54=1|37=28092455907|11=xmytaknqbtbwzpgmgzen|453=3|448=MC9051500000|447=D|452=1|448=2076087002|447=D|452=3|448=MU9051500001|447=D|452=12|1=L00-000012D8|336=FQBR|625=N|12=25.69|13=3|381=256953.0|159=0.0|136=3|137=10.92|139=98|137=14.77|139=4|137=0.0|139=99|1056=1|851=2|5155=NCC|5459=Y2|6029=SUR|6636=N|7693=11866|10=172|
20220107-14:24:04.049683000 : 8=FIX.4.4|9=525|35=AE|49=IFIX-TC-EQ-UAT|56=MU9051500001|34=93|52=20220107-14:24:05.907534272|571=68|828=0|150=F|17=113724617|1|115644|570=N|55=AMZN-RM|236=0.0|32=1|31=256414|75=20220107|60=20220107-08:56:44|63=3|64=20220111|552=1|54=1|37=28092463662|11=fdzqhrkuamxyervwajva|453=3|448=MC9051500000|447=D|452=1|448=2076087002|447=D|452=3|448=MU9051500001|447=D|452=12|1=L00-000012D8|336=FQBR|625=N|12=25.64|13=3|381=256414.0|159=0.0|136=3|137=10.9|139=98|137=14.74|139=4|137=0.0|139=99|1056=1|851=2|5155=NCC|5459=Y2|6029=SUR|6636=N|7693=11866|10=109|
20220107-14:24:04.051078000 : 8=FIX.4.4|9=526|35=AE|49=IFIX-TC-EQ-UAT|56=MU9051500001|34=94|52=20220107-14:24:05.907576019|571=69|828=0|150=F|17=113724700|1|120011|570=N|55=AMZN-RM|236=0.0|32=1|31=257493|75=20220107|60=20220107-09:00:11|63=3|64=20220111|552=1|54=1|37=28092464650|11=vsptabgablsetcpgnufw|453=3|448=MC9051500000|447=D|452=1|448=2076087002|447=D|452=3|448=MU9051500001|447=D|452=12|1=L00-000012D8|336=FQBR|625=N|12=25.75|13=3|381=257493.0|159=0.0|136=3|137=10.94|139=98|137=14.81|139=4|137=0.0|139=99|1056=1|851=2|5155=NCC|5459=Y2|6029=SUR|6636=N|7693=11866|10=104|
20220107-14:24:04.052382000 : 8=FIX.4.4|9=526|35=AE|49=IFIX-TC-EQ-UAT|56=MU9051500001|34=95|52=20220107-14:24:05.907617881|571=70|828=0|150=F|17=113724718|2|120039|570=N|55=AMZN-RM|236=0.0|32=1|31=245084|75=20220107|60=20220107-09:00:39|63=3|64=20220111|552=1|54=2|37=28092464793|11=kslhoxlvkangcvmmryle|453=3|448=MC9051500000|447=D|452=1|448=2076087002|447=D|452=3|448=MU9051500001|447=D|452=12|1=L00-000012D8|336=FQBR|625=N|12=24.51|13=3|381=245084.0|159=0.0|136=3|137=10.42|139=98|137=14.09|139=4|137=0.0|139=99|1056=1|851=2|5155=NCC|5459=Y2|6029=SUR|6636=N|7693=11866|10=142|
20220107-14:24:04.053593000 : 8=FIX.4.4|9=526|35=AE|49=IFIX-TC-EQ-UAT|56=MU9051500001|34=96|52=20220107-14:24:05.907655318|571=71|828=0|150=F|17=113724823|2|120443|570=N|55=AMZN-RM|236=0.0|32=1|31=244545|75=20220107|60=20220107-09:04:43|63=3|64=20220111|552=1|54=2|37=28092465967|11=fppbeaiiqyyazclbvqhe|453=3|448=MC9051500000|447=D|452=1|448=2076087002|447=D|452=3|448=MU9051500001|447=D|452=12|1=L00-000012D8|336=FQBR|625=N|12=24.45|13=3|381=244545.0|159=0.0|136=3|137=10.39|139=98|137=14.06|139=4|137=0.0|139=99|1056=1|851=2|5155=NCC|5459=Y2|6029=SUR|6636=N|7693=11866|10=108|
20220107-14:24:04.054825000 : 8=FIX.4.4|9=526|35=AE|49=IFIX-TC-EQ-UAT|56=MU9051500001|34=97|52=20220107-14:24:05.907691795|571=72|828=0|150=F|17=113724925|2|120744|570=N|55=AMZN-RM|236=0.0|32=1|31=244545|75=20220107|60=20220107-09:07:44|63=3|64=20220111|552=1|54=2|37=28092466847|11=hqfrtvzrwfokfazfqiwy|453=3|448=MC9051500000|447=D|452=1|448=2076087002|447=D|452=3|448=MU9051500001|447=D|452=12|1=L00-000012D8|336=FQBR|625=N|12=24.45|13=3|381=244545.0|159=0.0|136=3|137=10.39|139=98|137=14.06|139=4|137=0.0|139=99|1056=1|851=2|5155=NCC|5459=Y2|6029=SUR|6636=N|7693=11866|10=204|
20220107-14:24:04.304612000 : 8=FIX.4.4|9=457|35=AE|49=IFIX-TC-EQ-UAT|56=MU9051500001|34=98|52=20220107-14:24:05.907736835|571=73|828=F|150=F|17=113730394|2|162504|570=N|55=RUB_COMM|236=0.0|32=0|31=0|75=20220107|60=20220107-13:25:04|64=20220110|552=1|54=2|37=28092522316|11=N/A|453=2|448=MC9051500000|447=D|452=1|448=MC0888800000|447=D|452=17|1=NCC+00011866|336=TRAD|625=N|12=0.0|13=3|381=194.98|159=0.0|136=3|137=0.0|139=98|137=0.0|139=4|137=0.0|139=99|1056=0|851=2|5155=NCC|6029=SUR|6636=N|7693=11866|10=049|
20220107-14:24:04.320548000 : 8=FIX.4.4|9=132|35=3|34=89|49=MU9051500001|52=20220107-14:24:04.304|56=IFIX-TC-EQ-UAT|45=98|58=Incorrect data format for value|371=828|372=AE|373=6|10=253|
20220107-14:24:04.320594000 : 8=FIX.4.4|9=457|35=AE|49=IFIX-TC-EQ-UAT|56=MU9051500001|34=99|52=20220107-14:24:05.907773819|571=74|828=F|150=F|17=113730395|2|162504|570=N|55=RUB_COMM|236=0.0|32=0|31=0|75=20220107|60=20220107-13:25:04|64=20220110|552=1|54=2|37=28092522318|11=N/A|453=2|448=MC9051500000|447=D|452=1|448=MC0888800000|447=D|452=17|1=NCC+00011866|336=TRAD|625=N|12=0.0|13=3|381=263.78|159=0.0|136=3|137=0.0|139=98|137=0.0|139=4|137=0.0|139=99|1056=0|851=2|5155=NCC|6029=SUR|6636=N|7693=11866|10=052|
20220107-14:24:04.329866000 : 8=FIX.4.4|9=132|35=3|34=90|49=MU9051500001|52=20220107-14:24:04.320|56=IFIX-TC-EQ-UAT|45=99|58=Incorrect data format for value|371=828|372=AE|373=6|10=244|
20220107-14:25:03.667098000 : 8=FIX.4.4|9=77|35=0|49=IFIX-TC-EQ-UAT|56=MU9051500001|34=100|52=20220107-14:25:05.556793402|10=215|
20220107-14:25:04.256136000 : 8=FIX.4.4|9=70|35=0|34=91|49=MU9051500001|52=20220107-14:25:04.255|56=IFIX-TC-EQ-UAT|10=107|
20220107-14:26:03.672037000 : 8=FIX.4.4|9=77|35=0|49=IFIX-TC-EQ-UAT|56=MU9051500001|34=101|52=20220107-14:26:05.560614603|10=207|
20220107-14:26:04.244262000 : 8=FIX.4.4|9=70|35=0|34=92|49=MU9051500001|52=20220107-14:26:04.243|56=IFIX-TC-EQ-UAT|10=106|
20220107-14:27:04.030384000 : 8=FIX.4.4|9=77|35=0|49=IFIX-TC-EQ-UAT|56=MU9051500001|34=102|52=20220107-14:27:05.562521509|10=213|
20220107-14:27:04.031280000 : 8=FIX.4.4|9=70|35=0|34=93|49=MU9051500001|52=20220107-14:27:04.030|56=IFIX-TC-EQ-UAT|10=102|
20220107-14:28:03.675844000 : 8=FIX.4.4|9=77|35=0|49=IFIX-TC-EQ-UAT|56=MU9051500001|34=103|52=20220107-14:28:05.565089254|10=224|
20220107-14:28:04.215617000 : 8=FIX.4.4|9=70|35=0|34=94|49=MU9051500001|52=20220107-14:28:04.214|56=IFIX-TC-EQ-UAT|10=108|
20220107-14:29:03.681219000 : 8=FIX.4.4|9=77|35=0|49=IFIX-TC-EQ-UAT|56=MU9051500001|34=104|52=20220107-14:29:05.567815962|10=231|
20220107-14:29:04.203073000 : 8=FIX.4.4|9=70|35=0|34=95|49=MU9051500001|52=20220107-14:29:04.202|56=IFIX-TC-EQ-UAT|10=107|
20220107-14:30:03.681005000 : 8=FIX.4.4|9=77|35=0|49=IFIX-TC-EQ-UAT|56=MU9051500001|34=105|52=20220107-14:30:05.571771517|10=216|
20220107-14:30:04.184330000 : 8=FIX.4.4|9=70|35=0|34=96|49=MU9051500001|52=20220107-14:30:04.183|56=IFIX-TC-EQ-UAT|10=108|
20220107-14:31:03.693262000 : 8=FIX.4.4|9=77|35=0|49=IFIX-TC-EQ-UAT|56=MU9051500001|34=106|52=20220107-14:31:05.575719727|10=227|
20220107-14:31:04.178552000 : 8=FIX.4.4|9=70|35=0|34=97|49=MU9051500001|52=20220107-14:31:04.177|56=IFIX-TC-EQ-UAT|10=113|
20220107-14:32:04.033606000 : 8=FIX.4.4|9=70|35=0|34=98|49=MU9051500001|52=20220107-14:32:04.032|56=IFIX-TC-EQ-UAT|10=105|
20220107-14:32:04.037127000 : 8=FIX.4.4|9=77|35=0|49=IFIX-TC-EQ-UAT|56=MU9051500001|34=107|52=20220107-14:32:05.577714958|10=232|
20220107-14:33:04.150256000 : 8=FIX.4.4|9=77|35=0|49=IFIX-TC-EQ-UAT|56=MU9051500001|34=108|52=20220107-14:33:05.579492199|10=236|
20220107-14:33:04.153189000 : 8=FIX.4.4|9=70|35=0|34=99|49=MU9051500001|52=20220107-14:33:04.151|56=IFIX-TC-EQ-UAT|10=109|
20220107-14:33:32.618525000 : 8=FIX.4.4|9=92|35=A|34=100|49=MU9051500001|52=20220107-14:33:32.599|56=IFIX-TC-EQ-UAT|554=7020|98=0|108=60|10=115|
20220107-14:33:35.929032000 : 8=FIX.4.4|9=89|35=A|49=IFIX-TC-EQ-UAT|56=MU9051500001|34=109|52=20220107-14:33:37.694203443|98=0|108=60|10=014|
20220107-14:33:39.005835000 : 8=FIX.4.4|9=142|35=h|49=IFIX-TC-EQ-UAT|56=MU9051500001|34=110|52=20220107-14:33:40.584437516|336=FOND|325=Y|340=101|58=Connection to MICEX market established|10=114|
20220107-14:33:44.900953000 : 8=FIX.4.4|9=517|35=AE|49=IFIX-TC-EQ-UAT|56=MU9051500001|34=111|52=20220107-14:33:46.767838419|571=75|828=0|150=F|17=113722727|1|103700|570=N|55=AMZN-RM|236=0.0|32=1|31=256414|75=20220107|60=20220107-07:37:00|63=3|64=20220111|552=1|54=1|37=28092442643|11=2076087002/|453=3|448=MC9051500000|447=D|452=1|448=2076087002|447=D|452=3|448=MU9051500003|447=D|452=12|1=L00-000012D8|336=FQBR|625=N|12=25.64|13=3|381=256414.0|159=0.0|136=3|137=10.9|139=98|137=14.74|139=4|137=0.0|139=99|1056=1|851=2|5155=NCC|5459=Y2|6029=SUR|6636=N|7693=11866|10=043|
20220107-14:33:44.904701000 : 8=FIX.4.4|9=526|35=AE|49=IFIX-TC-EQ-UAT|56=MU9051500001|34=112|52=20220107-14:33:46.767947046|571=76|828=0|150=F|17=113723093|1|105315|570=N|55=AMZN-RM|236=0.0|32=1|31=256414|75=20220107|60=20220107-07:53:15|63=3|64=20220111|552=1|54=1|37=28092446529|11=plomcxldlkqbvekgxlco|453=3|448=MC9051500000|447=D|452=1|448=2076087002|447=D|452=3|448=MU9051500001|447=D|452=12|1=L00-000012D8|336=FQBR|625=N|12=25.64|13=3|381=256414.0|159=0.0|136=3|137=10.9|139=98|137=14.74|139=4|137=0.0|139=99|1056=1|851=2|5155=NCC|5459=Y2|6029=SUR|6636=N|7693=11866|10=117|
20220107-14:33:44.909660000 : 8=FIX.4.4|9=527|35=AE|49=IFIX-TC-EQ-UAT|56=MU9051500001|34=113|52=20220107-14:33:46.767986405|571=77|828=0|150=F|17=113723196|1|105741|570=N|55=AMZN-RM|236=0.0|32=1|31=257493|75=20220107|60=20220107-07:57:41|63=3|64=20220111|552=1|54=1|37=28092447639|11=mdrakbomrkzvsfinijlp|453=3|448=MC9051500000|447=D|452=1|448=2076087002|447=D|452=3|448=MU9051500001|447=D|452=12|1=L00-000012D8|336=FQBR|625=N|12=25.75|13=3|381=257493.0|159=0.0|136=3|137=10.94|139=98|137=14.81|139=4|137=0.0|139=99|1056=1|851=2|5155=NCC|5459=Y2|6029=SUR|6636=N|7693=11866|10=212|
20220107-14:33:44.914004000 : 8=FIX.4.4|9=526|35=AE|49=IFIX-TC-EQ-UAT|56=MU9051500001|34=114|52=20220107-14:33:46.768086766|571=78|828=0|150=F|17=113723447|1|110807|570=N|55=AMZN-RM|236=0.0|32=1|31=256414|75=20220107|60=20220107-08:08:07|63=3|64=20220111|552=1|54=1|37=28092450261|11=mtfrgystwkrkmhabdtfe|453=3|448=MC9051500000|447=D|452=1|448=2076087002|447=D|452=3|448=MU9051500001|447=D|452=12|1=L00-000012D8|336=FQBR|625=N|12=25.64|13=3|381=256414.0|159=0.0|136=3|137=10.9|139=98|137=14.74|139=4|137=0.0|139=99|1056=1|851=2|5155=NCC|5459=Y2|6029=SUR|6636=N|7693=11866|10=130|
20220107-14:33:44.920355000 : 8=FIX.4.4|9=527|35=AE|49=IFIX-TC-EQ-UAT|56=MU9051500001|34=115|52=20220107-14:33:46.768129331|571=79|828=0|150=F|17=113723517|1|111005|570=N|55=AMZN-RM|236=0.0|32=1|31=256953|75=20220107|60=20220107-08:10:05|63=3|64=20220111|552=1|54=1|37=28092450751|11=myxncjourirqogaclcnv|453=3|448=MC9051500000|447=D|452=1|448=2076087002|447=D|452=3|448=MU9051500001|447=D|452=12|1=L00-000012D8|336=FQBR|625=N|12=25.69|13=3|381=256953.0|159=0.0|136=3|137=10.92|139=98|137=14.77|139=4|137=0.0|139=99|1056=1|851=2|5155=NCC|5459=Y2|6029=SUR|6636=N|7693=11866|10=191|
20220107-14:33:44.923689000 : 8=FIX.4.4|9=527|35=AE|49=IFIX-TC-EQ-UAT|56=MU9051500001|34=116|52=20220107-14:33:46.768169083|571=80|828=0|150=F|17=113723569|1|111234|570=N|55=AMZN-RM|236=0.0|32=1|31=257493|75=20220107|60=20220107-08:12:34|63=3|64=20220111|552=1|54=1|37=28092451363|11=jmjfuvnaxphsxjxhweor|453=3|448=MC9051500000|447=D|452=1|448=2076087002|447=D|452=3|448=MU9051500001|447=D|452=12|1=L00-000012D8|336=FQBR|625=N|12=25.75|13=3|381=257493.0|159=0.0|136=3|137=10.94|139=98|137=14.81|139=4|137=0.0|139=99|1056=1|851=2|5155=NCC|5459=Y2|6029=SUR|6636=N|7693=11866|10=228|
20220107-14:33:44.925904000 : 8=FIX.4.4|9=527|35=AE|49=IFIX-TC-EQ-UAT|56=MU9051500001|34=117|52=20220107-14:33:46.768207749|571=81|828=0|150=F|17=113723625|1|111429|570=N|55=AMZN-RM|236=0.0|32=1|31=256953|75=20220107|60=20220107-08:14:29|63=3|64=20220111|552=1|54=1|37=28092451840|11=plljwlrwnbmhptnmfmpl|453=3|448=MC9051500000|447=D|452=1|448=2076087002|447=D|452=3|448=MU9051500001|447=D|452=12|1=L00-000012D8|336=FQBR|625=N|12=25.69|13=3|381=256953.0|159=0.0|136=3|137=10.92|139=98|137=14.77|139=4|137=0.0|139=99|1056=1|851=2|5155=NCC|5459=Y2|6029=SUR|6636=N|7693=11866|10=225|
20220107-14:33:44.928061000 : 8=FIX.4.4|9=526|35=AE|49=IFIX-TC-EQ-UAT|56=MU9051500001|34=118|52=20220107-14:33:46.768245986|571=82|828=0|150=F|17=113723662|1|111535|570=N|55=AMZN-RM|236=0.0|32=1|31=256414|75=20220107|60=20220107-08:15:35|63=3|64=20220111|552=1|54=1|37=28092452116|11=soixmkxfzvwsvosuryue|453=3|448=MC9051500000|447=D|452=1|448=2076087002|447=D|452=3|448=MU9051500001|447=D|452=12|1=L00-000012D8|336=FQBR|625=N|12=25.64|13=3|381=256414.0|159=0.0|136=3|137=10.9|139=98|137=14.74|139=4|137=0.0|139=99|1056=1|851=2|5155=NCC|5459=Y2|6029=SUR|6636=N|7693=11866|10=235|
20220107-14:33:44.930244000 : 8=FIX.4.4|9=527|35=AE|49=IFIX-TC-EQ-UAT|56=MU9051500001|34=119|52=20220107-14:33:46.768284432|571=83|828=0|150=F|17=113723689|1|111638|570=N|55=AMZN-RM|236=0.0|32=1|31=257493|75=20220107|60=20220107-08:16:38|63=3|64=20220111|552=1|54=1|37=28092452377|11=yeuliklwcgylpjpplzki|453=3|448=MC9051500000|447=D|452=1|448=2076087002|447=D|452=3|448=MU9051500001|447=D|452=12|1=L00-000012D8|336=FQBR|625=N|12=25.75|13=3|381=257493.0|159=0.0|136=3|137=10.94|139=98|137=14.81|139=4|137=0.0|139=99|1056=1|851=2|5155=NCC|5459=Y2|6029=SUR|6636=N|7693=11866|10=245|
20220107-14:33:44.932457000 : 8=FIX.4.4|9=526|35=AE|49=IFIX-TC-EQ-UAT|56=MU9051500001|34=120|52=20220107-14:33:46.768321961|571=84|828=0|150=F|17=113723723|1|111742|570=N|55=AMZN-RM|236=0.0|32=1|31=256414|75=20220107|60=20220107-08:17:42|63=3|64=20220111|552=1|54=1|37=28092452646|11=ewvbgrlwujxsslkybqwh|453=3|448=MC9051500000|447=D|452=1|448=2076087002|447=D|452=3|448=MU9051500001|447=D|452=12|1=L00-000012D8|336=FQBR|625=N|12=25.64|13=3|381=256414.0|159=0.0|136=3|137=10.9|139=98|137=14.74|139=4|137=0.0|139=99|1056=1|851=2|5155=NCC|5459=Y2|6029=SUR|6636=N|7693=11866|10=170|
20220107-14:33:44.933899000 : 8=FIX.4.4|9=527|35=AE|49=IFIX-TC-EQ-UAT|56=MU9051500001|34=121|52=20220107-14:33:46.768364952|571=85|828=0|150=F|17=113723808|1|112121|570=N|55=AMZN-RM|236=0.0|32=1|31=257493|75=20220107|60=20220107-08:21:21|63=3|64=20220111|552=1|54=1|37=28092453531|11=wuveoovbuicphwknjzqq|453=3|448=MC9051500000|447=D|452=1|448=2076087002|447=D|452=3|448=MU9051500001|447=D|452=12|1=L00-000012D8|336=FQBR|625=N|12=25.75|13=3|381=257493.0|159=0.0|136=3|137=10.94|139=98|137=14.81|139=4|137=0.0|139=99|1056=1|851=2|5155=NCC|5459=Y2|6029=SUR|6636=N|7693=11866|10=227|
20220107-14:33:44.935375000 : 8=FIX.4.4|9=527|35=AE|49=IFIX-TC-EQ-UAT|56=MU9051500001|34=122|52=20220107-14:33:46.768403193|571=86|828=0|150=F|17=113723856|1|112311|570=N|55=AMZN-RM|236=0.0|32=1|31=256953|75=20220107|60=20220107-08:23:11|63=3|64=20220111|552=1|54=1|37=28092453999|11=lorcculqqlghzdfyxkrg|453=3|448=MC9051500000|447=D|452=1|448=2076087002|447=D|452=3|448=MU9051500001|447=D|452=12|1=L00-000012D8|336=FQBR|625=N|12=25.69|13=3|381=256953.0|159=0.0|136=3|137=10.92|139=98|137=14.77|139=4|137=0.0|139=99|1056=1|851=2|5155=NCC|5459=Y2|6029=SUR|6636=N|7693=11866|10=215|
20220107-14:33:44.937297000 : 8=FIX.4.4|9=527|35=AE|49=IFIX-TC-EQ-UAT|56=MU9051500001|34=123|52=20220107-14:33:46.768439968|571=87|828=0|150=F|17=113724023|1|113036|570=N|55=AMZN-RM|236=0.0|32=1|31=256953|75=20220107|60=20220107-08:30:36|63=3|64=20220111|552=1|54=1|37=28092455907|11=xmytaknqbtbwzpgmgzen|453=3|448=MC9051500000|447=D|452=1|448=2076087002|447=D|452=3|448=MU9051500001|447=D|452=12|1=L00-000012D8|336=FQBR|625=N|12=25.69|13=3|381=256953.0|159=0.0|136=3|137=10.92|139=98|137=14.77|139=4|137=0.0|139=99|1056=1|851=2|5155=NCC|5459=Y2|6029=SUR|6636=N|7693=11866|10=244|
20220107-14:33:44.938634000 : 8=FIX.4.4|9=526|35=AE|49=IFIX-TC-EQ-UAT|56=MU9051500001|34=124|52=20220107-14:33:46.768476356|571=88|828=0|150=F|17=113724617|1|115644|570=N|55=AMZN-RM|236=0.0|32=1|31=256414|75=20220107|60=20220107-08:56:44|63=3|64=20220111|552=1|54=1|37=28092463662|11=fdzqhrkuamxyervwajva|453=3|448=MC9051500000|447=D|452=1|448=2076087002|447=D|452=3|448=MU9051500001|447=D|452=12|1=L00-000012D8|336=FQBR|625=N|12=25.64|13=3|381=256414.0|159=0.0|136=3|137=10.9|139=98|137=14.74|139=4|137=0.0|139=99|1056=1|851=2|5155=NCC|5459=Y2|6029=SUR|6636=N|7693=11866|10=173|
20220107-14:33:44.939902000 : 8=FIX.4.4|9=527|35=AE|49=IFIX-TC-EQ-UAT|56=MU9051500001|34=125|52=20220107-14:33:46.768513231|571=89|828=0|150=F|17=113724700|1|120011|570=N|55=AMZN-RM|236=0.0|32=1|31=257493|75=20220107|60=20220107-09:00:11|63=3|64=20220111|552=1|54=1|37=28092464650|11=vsptabgablsetcpgnufw|453=3|448=MC9051500000|447=D|452=1|448=2076087002|447=D|452=3|448=MU9051500001|447=D|452=12|1=L00-000012D8|336=FQBR|625=N|12=25.75|13=3|381=257493.0|159=0.0|136=3|137=10.94|139=98|137=14.81|139=4|137=0.0|139=99|1056=1|851=2|5155=NCC|5459=Y2|6029=SUR|6636=N|7693=11866|10=147|
20220107-14:33:44.941013000 : 8=FIX.4.4|9=527|35=AE|49=IFIX-TC-EQ-UAT|56=MU9051500001|34=126|52=20220107-14:33:46.768551942|571=90|828=0|150=F|17=113724718|2|120039|570=N|55=AMZN-RM|236=0.0|32=1|31=245084|75=20220107|60=20220107-09:00:39|63=3|64=20220111|552=1|54=2|37=28092464793|11=kslhoxlvkangcvmmryle|453=3|448=MC9051500000|447=D|452=1|448=2076087002|447=D|452=3|448=MU9051500001|447=D|452=12|1=L00-000012D8|336=FQBR|625=N|12=24.51|13=3|381=245084.0|159=0.0|136=3|137=10.42|139=98|137=14.09|139=4|137=0.0|139=99|1056=1|851=2|5155=NCC|5459=Y2|6029=SUR|6636=N|7693=11866|10=193|
20220107-14:33:44.942261000 : 8=FIX.4.4|9=527|35=AE|49=IFIX-TC-EQ-UAT|56=MU9051500001|34=127|52=20220107-14:33:46.768597380|571=91|828=0|150=F|17=113724823|2|120443|570=N|55=AMZN-RM|236=0.0|32=1|31=244545|75=20220107|60=20220107-09:04:43|63=3|64=20220111|552=1|54=2|37=28092465967|11=fppbeaiiqyyazclbvqhe|453=3|448=MC9051500000|447=D|452=1|448=2076087002|447=D|452=3|448=MU9051500001|447=D|452=12|1=L00-000012D8|336=FQBR|625=N|12=24.45|13=3|381=244545.0|159=0.0|136=3|137=10.39|139=98|137=14.06|139=4|137=0.0|139=99|1056=1|851=2|5155=NCC|5459=Y2|6029=SUR|6636=N|7693=11866|10=168|
20220107-14:33:44.943472000 : 8=FIX.4.4|9=527|35=AE|49=IFIX-TC-EQ-UAT|56=MU9051500001|34=128|52=20220107-14:33:46.768643849|571=92|828=0|150=F|17=113724925|2|120744|570=N|55=AMZN-RM|236=0.0|32=1|31=244545|75=20220107|60=20220107-09:07:44|63=3|64=20220111|552=1|54=2|37=28092466847|11=hqfrtvzrwfokfazfqiwy|453=3|448=MC9051500000|447=D|452=1|448=2076087002|447=D|452=3|448=MU9051500001|447=D|452=12|1=L00-000012D8|336=FQBR|625=N|12=24.45|13=3|381=244545.0|159=0.0|136=3|137=10.39|139=98|137=14.06|139=4|137=0.0|139=99|1056=1|851=2|5155=NCC|5459=Y2|6029=SUR|6636=N|7693=11866|10=001|
20220107-14:33:45.186519000 : 8=FIX.4.4|9=458|35=AE|49=IFIX-TC-EQ-UAT|56=MU9051500001|34=129|52=20220107-14:33:46.768714068|571=93|828=F|150=F|17=113730394|2|162504|570=N|55=RUB_COMM|236=0.0|32=0|31=0|75=20220107|60=20220107-13:25:04|64=20220110|552=1|54=2|37=28092522316|11=N/A|453=2|448=MC9051500000|447=D|452=1|448=MC0888800000|447=D|452=17|1=NCC+00011866|336=TRAD|625=N|12=0.0|13=3|381=194.98|159=0.0|136=3|137=0.0|139=98|137=0.0|139=4|137=0.0|139=99|1056=0|851=2|5155=NCC|6029=SUR|6636=N|7693=11866|10=099|
20220107-14:33:45.205566000 : 8=FIX.4.4|9=134|35=3|34=101|49=MU9051500001|52=20220107-14:33:45.186|56=IFIX-TC-EQ-UAT|45=129|58=Incorrect data format for value|371=828|372=AE|373=6|10=088|
20220107-14:33:45.205667000 : 8=FIX.4.4|9=458|35=AE|49=IFIX-TC-EQ-UAT|56=MU9051500001|34=130|52=20220107-14:33:46.768752356|571=94|828=F|150=F|17=113730395|2|162504|570=N|55=RUB_COMM|236=0.0|32=0|31=0|75=20220107|60=20220107-13:25:04|64=20220110|552=1|54=2|37=28092522318|11=N/A|453=2|448=MC9051500000|447=D|452=1|448=MC0888800000|447=D|452=17|1=NCC+00011866|336=TRAD|625=N|12=0.0|13=3|381=263.78|159=0.0|136=3|137=0.0|139=98|137=0.0|139=4|137=0.0|139=99|1056=0|851=2|5155=NCC|6029=SUR|6636=N|7693=11866|10=092|
20220107-14:33:45.219882000 : 8=FIX.4.4|9=134|35=3|34=102|49=MU9051500001|52=20220107-14:33:45.205|56=IFIX-TC-EQ-UAT|45=130|58=Incorrect data format for value|371=828|372=AE|373=6|10=073|
20220107-14:34:44.806642000 : 8=FIX.4.4|9=77|35=0|49=IFIX-TC-EQ-UAT|56=MU9051500001|34=131|52=20220107-14:34:46.699178375|10=238|
20220107-14:34:45.625311000 : 8=FIX.4.4|9=71|35=0|34=103|49=MU9051500001|52=20220107-14:34:45.624|56=IFIX-TC-EQ-UAT|10=155|
20220107-14:35:44.814207000 : 8=FIX.4.4|9=77|35=0|49=IFIX-TC-EQ-UAT|56=MU9051500001|34=132|52=20220107-14:35:46.704044786|10=225|
20220107-14:35:45.618743000 : 8=FIX.4.4|9=71|35=0|34=104|49=MU9051500001|52=20220107-14:35:45.618|56=IFIX-TC-EQ-UAT|10=160|
20220107-14:35:57.664306000 : 8=FIX.4.4|9=92|35=A|34=105|49=MU9051500001|52=20220107-14:35:57.646|56=IFIX-TC-EQ-UAT|554=7020|98=0|108=60|10=122|
20220107-14:36:00.854586000 : 8=FIX.4.4|9=89|35=A|49=IFIX-TC-EQ-UAT|56=MU9051500001|34=133|52=20220107-14:36:02.744427804|98=0|108=60|10=011|
20220107-14:36:03.748832000 : 8=FIX.4.4|9=142|35=h|49=IFIX-TC-EQ-UAT|56=MU9051500001|34=134|52=20220107-14:36:05.638882476|336=FOND|325=Y|340=101|58=Connection to MICEX market established|10=133|
20220107-14:36:09.284586000 : 8=FIX.4.4|9=517|35=AE|49=IFIX-TC-EQ-UAT|56=MU9051500001|34=135|52=20220107-14:36:11.174833702|571=95|828=0|150=F|17=113722727|1|103700|570=N|55=AMZN-RM|236=0.0|32=1|31=256414|75=20220107|60=20220107-07:37:00|63=3|64=20220111|552=1|54=1|37=28092442643|11=2076087002/|453=3|448=MC9051500000|447=D|452=1|448=2076087002|447=D|452=3|448=MU9051500003|447=D|452=12|1=L00-000012D8|336=FQBR|625=N|12=25.64|13=3|381=256414.0|159=0.0|136=3|137=10.9|139=98|137=14.74|139=4|137=0.0|139=99|1056=1|851=2|5155=NCC|5459=Y2|6029=SUR|6636=N|7693=11866|10=028|
20220107-14:36:09.289580000 : 8=FIX.4.4|9=526|35=AE|49=IFIX-TC-EQ-UAT|56=MU9051500001|34=136|52=20220107-14:36:11.174915327|571=96|828=0|150=F|17=113723093|1|105315|570=N|55=AMZN-RM|236=0.0|32=1|31=256414|75=20220107|60=20220107-07:53:15|63=3|64=20220111|552=1|54=1|37=28092446529|11=plomcxldlkqbvekgxlco|453=3|448=MC9051500000|447=D|452=1|448=2076087002|447=D|452=3|448=MU9051500001|447=D|452=12|1=L00-000012D8|336=FQBR|625=N|12=25.64|13=3|381=256414.0|159=0.0|136=3|137=10.9|139=98|137=14.74|139=4|137=0.0|139=99|1056=1|851=2|5155=NCC|5459=Y2|6029=SUR|6636=N|7693=11866|10=109|
20220107-14:36:09.293356000 : 8=FIX.4.4|9=527|35=AE|49=IFIX-TC-EQ-UAT|56=MU9051500001|34=137|52=20220107-14:36:11.174957230|571=97|828=0|150=F|17=113723196|1|105741|570=N|55=AMZN-RM|236=0.0|32=1|31=257493|75=20220107|60=20220107-07:57:41|63=3|64=20220111|552=1|54=1|37=28092447639|11=mdrakbomrkzvsfinijlp|453=3|448=MC9051500000|447=D|452=1|448=2076087002|447=D|452=3|448=MU9051500001|447=D|452=12|1=L00-000012D8|336=FQBR|625=N|12=25.75|13=3|381=257493.0|159=0.0|136=3|137=10.94|139=98|137=14.81|139=4|137=0.0|139=99|1056=1|851=2|5155=NCC|5459=Y2|6029=SUR|6636=N|7693=11866|10=201|
20220107-14:36:09.296293000 : 8=FIX.4.4|9=526|35=AE|49=IFIX-TC-EQ-UAT|56=MU9051500001|34=138|52=20220107-14:36:11.175008373|571=98|828=0|150=F|17=113723447|1|110807|570=N|55=AMZN-RM|236=0.0|32=1|31=256414|75=20220107|60=20220107-08:08:07|63=3|64=20220111|552=1|54=1|37=28092450261|11=mtfrgystwkrkmhabdtfe|453=3|448=MC9051500000|447=D|452=1|448=2076087002|447=D|452=3|448=MU9051500001|447=D|452=12|1=L00-000012D8|336=FQBR|625=N|12=25.64|13=3|381=256414.0|159=0.0|136=3|137=10.9|139=98|137=14.74|139=4|137=0.0|139=99|1056=1|851=2|5155=NCC|5459=Y2|6029=SUR|6636=N|7693=11866|10=113|
20220107-14:36:09.299323000 : 8=FIX.4.4|9=527|35=AE|49=IFIX-TC-EQ-UAT|56=MU9051500001|34=139|52=20220107-14:36:11.175052479|571=99|828=0|150=F|17=113723517|1|111005|570=N|55=AMZN-RM|236=0.0|32=1|31=256953|75=20220107|60=20220107-08:10:05|63=3|64=20220111|552=1|54=1|37=28092450751|11=myxncjourirqogaclcnv|453=3|448=MC9051500000|447=D|452=1|448=2076087002|447=D|452=3|448=MU9051500001|447=D|452=12|1=L00-000012D8|336=FQBR|625=N|12=25.69|13=3|381=256953.0|159=0.0|136=3|137=10.92|139=98|137=14.77|139=4|137=0.0|139=99|1056=1|851=2|5155=NCC|5459=Y2|6029=SUR|6636=N|7693=11866|10=194|
20220107-14:36:09.303132000 : 8=FIX.4.4|9=528|35=AE|49=IFIX-TC-EQ-UAT|56=MU9051500001|34=140|52=20220107-14:36:11.175099317|571=100|828=0|150=F|17=113723569|1|111234|570=N|55=AMZN-RM|236=0.0|32=1|31=257493|75=20220107|60=20220107-08:12:34|63=3|64=20220111|552=1|54=1|37=28092451363|11=jmjfuvnaxphsxjxhweor|453=3|448=MC9051500000|447=D|452=1|448=2076087002|447=D|452=3|448=MU9051500001|447=D|452=12|1=L00-000012D8|336=FQBR|625=N|12=25.75|13=3|381=257493.0|159=0.0|136=3|137=10.94|139=98|137=14.81|139=4|137=0.0|139=99|1056=1|851=2|5155=NCC|5459=Y2|6029=SUR|6636=N|7693=11866|10=000|
20220107-14:36:09.306029000 : 8=FIX.4.4|9=528|35=AE|49=IFIX-TC-EQ-UAT|56=MU9051500001|34=141|52=20220107-14:36:11.175138423|571=101|828=0|150=F|17=113723625|1|111429|570=N|55=AMZN-RM|236=0.0|32=1|31=256953|75=20220107|60=20220107-08:14:29|63=3|64=20220111|552=1|54=1|37=28092451840|11=plljwlrwnbmhptnmfmpl|453=3|448=MC9051500000|447=D|452=1|448=2076087002|447=D|452=3|448=MU9051500001|447=D|452=12|1=L00-000012D8|336=FQBR|625=N|12=25.69|13=3|381=256953.0|159=0.0|136=3|137=10.92|139=98|137=14.77|139=4|137=0.0|139=99|1056=1|851=2|5155=NCC|5459=Y2|6029=SUR|6636=N|7693=11866|10=243|
20220107-14:36:09.307800000 : 8=FIX.4.4|9=527|35=AE|49=IFIX-TC-EQ-UAT|56=MU9051500001|34=142|52=20220107-14:36:11.175176479|571=102|828=0|150=F|17=113723662|1|111535|570=N|55=AMZN-RM|236=0.0|32=1|31=256414|75=20220107|60=20220107-08:15:35|63=3|64=20220111|552=1|54=1|37=28092452116|11=soixmkxfzvwsvosuryue|453=3|448=MC9051500000|447=D|452=1|448=2076087002|447=D|452=3|448=MU9051500001|447=D|452=12|1=L00-000012D8|336=FQBR|625=N|12=25.64|13=3|381=256414.0|159=0.0|136=3|137=10.9|139=98|137=14.74|139=4|137=0.0|139=99|1056=1|851=2|5155=NCC|5459=Y2|6029=SUR|6636=N|7693=11866|10=005|
20220107-14:36:09.309646000 : 8=FIX.4.4|9=528|35=AE|49=IFIX-TC-EQ-UAT|56=MU9051500001|34=143|52=20220107-14:36:11.175213672|571=103|828=0|150=F|17=113723689|1|111638|570=N|55=AMZN-RM|236=0.0|32=1|31=257493|75=20220107|60=20220107-08:16:38|63=3|64=20220111|552=1|54=1|37=28092452377|11=yeuliklwcgylpjpplzki|453=3|448=MC9051500000|447=D|452=1|448=2076087002|447=D|452=3|448=MU9051500001|447=D|452=12|1=L00-000012D8|336=FQBR|625=N|12=25.75|13=3|381=257493.0|159=0.0|136=3|137=10.94|139=98|137=14.81|139=4|137=0.0|139=99|1056=1|851=2|5155=NCC|5459=Y2|6029=SUR|6636=N|7693=11866|10=013|
20220107-14:36:09.311623000 : 8=FIX.4.4|9=527|35=AE|49=IFIX-TC-EQ-UAT|56=MU9051500001|34=144|52=20220107-14:36:11.175251149|571=104|828=0|150=F|17=113723723|1|111742|570=N|55=AMZN-RM|236=0.0|32=1|31=256414|75=20220107|60=20220107-08:17:42|63=3|64=20220111|552=1|54=1|37=28092452646|11=ewvbgrlwujxsslkybqwh|453=3|448=MC9051500000|447=D|452=1|448=2076087002|447=D|452=3|448=MU9051500001|447=D|452=12|1=L00-000012D8|336=FQBR|625=N|12=25.64|13=3|381=256414.0|159=0.0|136=3|137=10.9|139=98|137=14.74|139=4|137=0.0|139=99|1056=1|851=2|5155=NCC|5459=Y2|6029=SUR|6636=N|7693=11866|10=205|
20220107-14:36:09.313153000 : 8=FIX.4.4|9=528|35=AE|49=IFIX-TC-EQ-UAT|56=MU9051500001|34=145|52=20220107-14:36:11.175343915|571=105|828=0|150=F|17=113723808|1|112121|570=N|55=AMZN-RM|236=0.0|32=1|31=257493|75=20220107|60=20220107-08:21:21|63=3|64=20220111|552=1|54=1|37=28092453531|11=wuveoovbuicphwknjzqq|453=3|448=MC9051500000|447=D|452=1|448=2076087002|447=D|452=3|448=MU9051500001|447=D|452=12|1=L00-000012D8|336=FQBR|625=N|12=25.75|13=3|381=257493.0|159=0.0|136=3|137=10.94|139=98|137=14.81|139=4|137=0.0|139=99|1056=1|851=2|5155=NCC|5459=Y2|6029=SUR|6636=N|7693=11866|10=002|
20220107-14:36:09.314893000 : 8=FIX.4.4|9=528|35=AE|49=IFIX-TC-EQ-UAT|56=MU9051500001|34=146|52=20220107-14:36:11.175383740|571=106|828=0|150=F|17=113723856|1|112311|570=N|55=AMZN-RM|236=0.0|32=1|31=256953|75=20220107|60=20220107-08:23:11|63=3|64=20220111|552=1|54=1|37=28092453999|11=lorcculqqlghzdfyxkrg|453=3|448=MC9051500000|447=D|452=1|448=2076087002|447=D|452=3|448=MU9051500001|447=D|452=12|1=L00-000012D8|336=FQBR|625=N|12=25.69|13=3|381=256953.0|159=0.0|136=3|137=10.92|139=98|137=14.77|139=4|137=0.0|139=99|1056=1|851=2|5155=NCC|5459=Y2|6029=SUR|6636=N|7693=11866|10=255|
20220107-14:36:09.316310000 : 8=FIX.4.4|9=528|35=AE|49=IFIX-TC-EQ-UAT|56=MU9051500001|34=147|52=20220107-14:36:11.175422623|571=107|828=0|150=F|17=113724023|1|113036|570=N|55=AMZN-RM|236=0.0|32=1|31=256953|75=20220107|60=20220107-08:30:36|63=3|64=20220111|552=1|54=1|37=28092455907|11=xmytaknqbtbwzpgmgzen|453=3|448=MC9051500000|447=D|452=1|448=2076087002|447=D|452=3|448=MU9051500001|447=D|452=12|1=L00-000012D8|336=FQBR|625=N|12=25.69|13=3|381=256953.0|159=0.0|136=3|137=10.92|139=98|137=14.77|139=4|137=0.0|139=99|1056=1|851=2|5155=NCC|5459=Y2|6029=SUR|6636=N|7693=11866|10=003|
20220107-14:36:09.318057000 : 8=FIX.4.4|9=527|35=AE|49=IFIX-TC-EQ-UAT|56=MU9051500001|34=148|52=20220107-14:36:11.175459448|571=108|828=0|150=F|17=113724617|1|115644|570=N|55=AMZN-RM|236=0.0|32=1|31=256414|75=20220107|60=20220107-08:56:44|63=3|64=20220111|552=1|54=1|37=28092463662|11=fdzqhrkuamxyervwajva|453=3|448=MC9051500000|447=D|452=1|448=2076087002|447=D|452=3|448=MU9051500001|447=D|452=12|1=L00-000012D8|336=FQBR|625=N|12=25.64|13=3|381=256414.0|159=0.0|136=3|137=10.9|139=98|137=14.74|139=4|137=0.0|139=99|1056=1|851=2|5155=NCC|5459=Y2|6029=SUR|6636=N|7693=11866|10=211|
20220107-14:36:09.319573000 : 8=FIX.4.4|9=528|35=AE|49=IFIX-TC-EQ-UAT|56=MU9051500001|34=149|52=20220107-14:36:11.175496491|571=109|828=0|150=F|17=113724700|1|120011|570=N|55=AMZN-RM|236=0.0|32=1|31=257493|75=20220107|60=20220107-09:00:11|63=3|64=20220111|552=1|54=1|37=28092464650|11=vsptabgablsetcpgnufw|453=3|448=MC9051500000|447=D|452=1|448=2076087002|447=D|452=3|448=MU9051500001|447=D|452=12|1=L00-000012D8|336=FQBR|625=N|12=25.75|13=3|381=257493.0|159=0.0|136=3|137=10.94|139=98|137=14.81|139=4|137=0.0|139=99|1056=1|851=2|5155=NCC|5459=Y2|6029=SUR|6636=N|7693=11866|10=200|
20220107-14:36:09.320928000 : 8=FIX.4.4|9=528|35=AE|49=IFIX-TC-EQ-UAT|56=MU9051500001|34=150|52=20220107-14:36:11.175533561|571=110|828=0|150=F|17=113724718|2|120039|570=N|55=AMZN-RM|236=0.0|32=1|31=245084|75=20220107|60=20220107-09:00:39|63=3|64=20220111|552=1|54=2|37=28092464793|11=kslhoxlvkangcvmmryle|453=3|448=MC9051500000|447=D|452=1|448=2076087002|447=D|452=3|448=MU9051500001|447=D|452=12|1=L00-000012D8|336=FQBR|625=N|12=24.51|13=3|381=245084.0|159=0.0|136=3|137=10.42|139=98|137=14.09|139=4|137=0.0|139=99|1056=1|851=2|5155=NCC|5459=Y2|6029=SUR|6636=N|7693=11866|10=216|
20220107-14:36:09.322494000 : 8=FIX.4.4|9=528|35=AE|49=IFIX-TC-EQ-UAT|56=MU9051500001|34=151|52=20220107-14:36:11.175576665|571=111|828=0|150=F|17=113724823|2|120443|570=N|55=AMZN-RM|236=0.0|32=1|31=244545|75=20220107|60=20220107-09:04:43|63=3|64=20220111|552=1|54=2|37=28092465967|11=fppbeaiiqyyazclbvqhe|453=3|448=MC9051500000|447=D|452=1|448=2076087002|447=D|452=3|448=MU9051500001|447=D|452=12|1=L00-000012D8|336=FQBR|625=N|12=24.45|13=3|381=244545.0|159=0.0|136=3|137=10.39|139=98|137=14.06|139=4|137=0.0|139=99|1056=1|851=2|5155=NCC|5459=Y2|6029=SUR|6636=N|7693=11866|10=197|
20220107-14:36:09.324011000 : 8=FIX.4.4|9=528|35=AE|49=IFIX-TC-EQ-UAT|56=MU9051500001|34=152|52=20220107-14:36:11.175625024|571=112|828=0|150=F|17=113724925|2|120744|570=N|55=AMZN-RM|236=0.0|32=1|31=244545|75=20220107|60=20220107-09:07:44|63=3|64=20220111|552=1|54=2|37=28092466847|11=hqfrtvzrwfokfazfqiwy|453=3|448=MC9051500000|447=D|452=1|448=2076087002|447=D|452=3|448=MU9051500001|447=D|452=12|1=L00-000012D8|336=FQBR|625=N|12=24.45|13=3|381=244545.0|159=0.0|136=3|137=10.39|139=98|137=14.06|139=4|137=0.0|139=99|1056=1|851=2|5155=NCC|5459=Y2|6029=SUR|6636=N|7693=11866|10=012|
20220107-14:36:09.571322000 : 8=FIX.4.4|9=459|35=AE|49=IFIX-TC-EQ-UAT|56=MU9051500001|34=153|52=20220107-14:36:11.175664449|571=113|828=F|150=F|17=113730394|2|162504|570=N|55=RUB_COMM|236=0.0|32=0|31=0|75=20220107|60=20220107-13:25:04|64=20220110|552=1|54=2|37=28092522316|11=N/A|453=2|448=MC9051500000|447=D|452=1|448=MC0888800000|447=D|452=17|1=NCC+00011866|336=TRAD|625=N|12=0.0|13=3|381=194.98|159=0.0|136=3|137=0.0|139=98|137=0.0|139=4|137=0.0|139=99|1056=0|851=2|5155=NCC|6029=SUR|6636=N|7693=11866|10=132|
20220107-14:36:09.576806000 : 8=FIX.4.4|9=459|35=AE|49=IFIX-TC-EQ-UAT|56=MU9051500001|34=154|52=20220107-14:36:11.175702062|571=114|828=F|150=F|17=113730395|2|162504|570=N|55=RUB_COMM|236=0.0|32=0|31=0|75=20220107|60=20220107-13:25:04|64=20220110|552=1|54=2|37=28092522318|11=N/A|453=2|448=MC9051500000|447=D|452=1|448=MC0888800000|447=D|452=17|1=NCC+00011866|336=TRAD|625=N|12=0.0|13=3|381=263.78|159=0.0|136=3|137=0.0|139=98|137=0.0|139=4|137=0.0|139=99|1056=0|851=2|5155=NCC|6029=SUR|6636=N|7693=11866|10=116|
20220107-14:36:57.193989000 : 8=FIX.4.4|9=71|35=0|34=106|49=MU9051500001|52=20220107-14:36:57.193|56=IFIX-TC-EQ-UAT|10=164|
20220107-14:37:09.074009000 : 8=FIX.4.4|9=77|35=0|49=IFIX-TC-EQ-UAT|56=MU9051500001|34=155|52=20220107-14:37:10.748900548|10=228|
20220107-14:37:57.638810000 : 8=FIX.4.4|9=71|35=0|34=107|49=MU9051500001|52=20220107-14:37:57.638|56=IFIX-TC-EQ-UAT|10=170|
20220107-14:38:08.937770000 : 8=FIX.4.4|9=77|35=0|49=IFIX-TC-EQ-UAT|56=MU9051500001|34=156|52=20220107-14:38:10.752068743|10=227|
20220107-14:38:57.050631000 : 8=FIX.4.4|9=71|35=0|34=108|49=MU9051500001|52=20220107-14:38:57.049|56=IFIX-TC-EQ-UAT|10=168|
20220107-14:39:09.065040000 : 8=FIX.4.4|9=77|35=0|49=IFIX-TC-EQ-UAT|56=MU9051500001|34=157|52=20220107-14:39:10.755794276|10=239|
20220107-14:39:57.231170000 : 8=FIX.4.4|9=71|35=0|34=109|49=MU9051500001|52=20220107-14:39:57.230|56=IFIX-TC-EQ-UAT|10=162|
20220107-14:40:09.953071000 : 8=FIX.4.4|9=77|35=0|49=IFIX-TC-EQ-UAT|56=MU9051500001|34=158|52=20220107-14:40:10.759607442|10=224|
20220107-14:40:57.571600000 : 8=FIX.4.4|9=71|35=0|34=110|49=MU9051500001|52=20220107-14:40:57.570|56=IFIX-TC-EQ-UAT|10=153|
20220107-14:41:10.128323000 : 8=FIX.4.4|9=77|35=0|49=IFIX-TC-EQ-UAT|56=MU9051500001|34=159|52=20220107-14:41:10.762536540|10=220|
20220107-14:41:57.091237000 : 8=FIX.4.4|9=71|35=0|34=111|49=MU9051500001|52=20220107-14:41:57.090|56=IFIX-TC-EQ-UAT|10=152|
20220107-14:42:09.011822000 : 8=FIX.4.4|9=77|35=0|49=IFIX-TC-EQ-UAT|56=MU9051500001|34=160|52=20220107-14:42:10.765337803|10=217|
20220107-14:42:57.079001000 : 8=FIX.4.4|9=71|35=0|34=112|49=MU9051500001|52=20220107-14:42:57.078|56=IFIX-TC-EQ-UAT|10=160|
20220107-14:43:08.905579000 : 8=FIX.4.4|9=77|35=0|49=IFIX-TC-EQ-UAT|56=MU9051500001|34=161|52=20220107-14:43:10.768518359|10=229|
20220107-14:43:57.359532000 : 8=FIX.4.4|9=71|35=0|34=113|49=MU9051500001|52=20220107-14:43:57.358|56=IFIX-TC-EQ-UAT|10=163|
20220107-14:44:09.109909000 : 8=FIX.4.4|9=77|35=0|49=IFIX-TC-EQ-UAT|56=MU9051500001|34=162|52=20220107-14:44:10.770519682|10=224|
20220107-14:44:57.129333000 : 8=FIX.4.4|9=71|35=0|34=114|49=MU9051500001|52=20220107-14:44:57.128|56=IFIX-TC-EQ-UAT|10=160|
20220107-14:45:08.975365000 : 8=FIX.4.4|9=77|35=0|49=IFIX-TC-EQ-UAT|56=MU9051500001|34=163|52=20220107-14:45:10.774611979|10=232|
20220107-14:45:57.191517000 : 8=FIX.4.4|9=71|35=0|34=115|49=MU9051500001|52=20220107-14:45:57.190|56=IFIX-TC-EQ-UAT|10=161|
20220107-14:46:09.659576000 : 8=FIX.4.4|9=77|35=0|49=IFIX-TC-EQ-UAT|56=MU9051500001|34=164|52=20220107-14:46:10.777432082|10=223|
20220107-14:46:57.309410000 : 8=FIX.4.4|9=71|35=0|34=116|49=MU9051500001|52=20220107-14:46:57.308|56=IFIX-TC-EQ-UAT|10=164|
20220107-14:47:09.013903000 : 8=FIX.4.4|9=77|35=0|49=IFIX-TC-EQ-UAT|56=MU9051500001|34=165|52=20220107-14:47:10.779250545|10=229|
20220107-14:47:57.100829000 : 8=FIX.4.4|9=71|35=0|34=117|49=MU9051500001|52=20220107-14:47:57.100|56=IFIX-TC-EQ-UAT|10=156|
20220107-14:48:09.019187000 : 8=FIX.4.4|9=77|35=0|49=IFIX-TC-EQ-UAT|56=MU9051500001|34=166|52=20220107-14:48:10.782177199|10=238|
20220107-14:48:57.232865000 : 8=FIX.4.4|9=71|35=0|34=118|49=MU9051500001|52=20220107-14:48:57.232|56=IFIX-TC-EQ-UAT|10=164|
20220107-14:49:08.894176000 : 8=FIX.4.4|9=77|35=0|49=IFIX-TC-EQ-UAT|56=MU9051500001|34=167|52=20220107-14:49:10.786050144|10=224|
20220107-14:49:57.450752000 : 8=FIX.4.4|9=71|35=0|34=119|49=MU9051500001|52=20220107-14:49:57.449|56=IFIX-TC-EQ-UAT|10=176|
20220107-14:50:08.895888000 : 8=FIX.4.4|9=77|35=0|49=IFIX-TC-EQ-UAT|56=MU9051500001|34=168|52=20220107-14:50:10.788961562|10=234|
20220107-14:50:57.027828000 : 8=FIX.4.4|9=71|35=0|34=120|49=MU9051500001|52=20220107-14:50:57.027|56=IFIX-TC-EQ-UAT|10=152|
20220107-14:51:08.899730000 : 8=FIX.4.4|9=77|35=0|49=IFIX-TC-EQ-UAT|56=MU9051500001|34=169|52=20220107-14:51:10.792986017|10=233|
20220107-14:51:57.439342000 : 8=FIX.4.4|9=71|35=0|34=121|49=MU9051500001|52=20220107-14:51:57.438|56=IFIX-TC-EQ-UAT|10=160|
20220107-14:52:09.053701000 : 8=FIX.4.4|9=77|35=0|49=IFIX-TC-EQ-UAT|56=MU9051500001|34=170|52=20220107-14:52:10.797976113|10=227|
20220107-14:52:57.126441000 : 8=FIX.4.4|9=71|35=0|34=122|49=MU9051500001|52=20220107-14:52:57.125|56=IFIX-TC-EQ-UAT|10=155|
20220107-14:53:09.122845000 : 8=FIX.4.4|9=77|35=0|49=IFIX-TC-EQ-UAT|56=MU9051500001|34=171|52=20220107-14:53:10.802855585|10=225|
20220107-14:53:57.431965000 : 8=FIX.4.4|9=71|35=0|34=123|49=MU9051500001|52=20220107-14:53:57.431|56=IFIX-TC-EQ-UAT|10=157|
20220107-14:54:08.921708000 : 8=FIX.4.4|9=77|35=0|49=IFIX-TC-EQ-UAT|56=MU9051500001|34=172|52=20220107-14:54:10.806649908|10=231|
20220107-14:54:57.493415000 : 8=FIX.4.4|9=71|35=0|34=124|49=MU9051500001|52=20220107-14:54:57.492|56=IFIX-TC-EQ-UAT|10=166|
20220107-14:55:08.916689000 : 8=FIX.4.4|9=77|35=0|49=IFIX-TC-EQ-UAT|56=MU9051500001|34=173|52=20220107-14:55:10.810751132|10=211|
20220107-14:55:57.081058000 : 8=FIX.4.4|9=71|35=0|34=125|49=MU9051500001|52=20220107-14:55:57.080|56=IFIX-TC-EQ-UAT|10=161|
20220107-14:56:08.923020000 : 8=FIX.4.4|9=77|35=0|49=IFIX-TC-EQ-UAT|56=MU9051500001|34=174|52=20220107-14:56:10.812840464|10=222|
20220107-14:56:57.045701000 : 8=FIX.4.4|9=71|35=0|34=126|49=MU9051500001|52=20220107-14:56:57.045|56=IFIX-TC-EQ-UAT|10=164|
20220107-14:57:08.924284000 : 8=FIX.4.4|9=77|35=0|49=IFIX-TC-EQ-UAT|56=MU9051500001|34=175|52=20220107-14:57:10.816741668|10=234|
20220107-14:57:57.156625000 : 8=FIX.4.4|9=71|35=0|34=127|49=MU9051500001|52=20220107-14:57:57.155|56=IFIX-TC-EQ-UAT|10=168|
20220107-14:58:08.927078000 : 8=FIX.4.4|9=77|35=0|49=IFIX-TC-EQ-UAT|56=MU9051500001|34=176|52=20220107-14:58:10.820592042|10=221|
20220107-14:58:57.423916000 : 8=FIX.4.4|9=71|35=0|34=128|49=MU9051500001|52=20220107-14:58:57.423|56=IFIX-TC-EQ-UAT|10=168|
20220107-14:59:09.071682000 : 8=FIX.4.4|9=77|35=0|49=IFIX-TC-EQ-UAT|56=MU9051500001|34=177|52=20220107-14:59:10.824846241|10=230|
20220107-14:59:57.448413000 : 8=FIX.4.4|9=71|35=0|34=129|49=MU9051500001|52=20220107-14:59:57.447|56=IFIX-TC-EQ-UAT|10=176|
20220107-15:00:08.936625000 : 8=FIX.4.4|9=77|35=0|49=IFIX-TC-EQ-UAT|56=MU9051500001|34=178|52=20220107-15:00:10.829627505|10=223|
20220107-15:00:57.289492000 : 8=FIX.4.4|9=71|35=0|34=130|49=MU9051500001|52=20220107-15:00:57.288|56=IFIX-TC-EQ-UAT|10=158|
20220107-15:01:08.940771000 : 8=FIX.4.4|9=77|35=0|49=IFIX-TC-EQ-UAT|56=MU9051500001|34=179|52=20220107-15:01:10.833470535|10=219|
20220107-15:01:57.385342000 : 8=FIX.4.4|9=71|35=0|34=131|49=MU9051500001|52=20220107-15:01:57.384|56=IFIX-TC-EQ-UAT|10=157|
20220107-15:02:17.688564000 : 8=FIX.4.4|9=92|35=A|34=132|49=MU9051500001|52=20220107-15:02:17.673|56=IFIX-TC-EQ-UAT|554=7020|98=0|108=60|10=113|
20220107-15:02:20.889084000 : 8=FIX.4.4|9=89|35=A|49=IFIX-TC-EQ-UAT|56=MU9051500001|34=181|52=20220107-15:02:22.775642522|98=0|108=60|10=010|
20220107-15:02:20.915299000 : 8=FIX.4.4|9=82|35=2|34=133|49=MU9051500001|52=20220107-15:02:20.906|56=IFIX-TC-EQ-UAT|7=180|16=0|10=125|
20220107-15:02:21.189441000 : 8=FIX.4.4|9=88|35=2|49=IFIX-TC-EQ-UAT|56=MU9051500001|34=182|52=20220107-15:02:22.775703641|7=131|16=0|10=190|
20220107-15:02:21.224111000 : 8=FIX.4.4|9=115|35=4|34=131|43=Y|49=MU9051500001|52=20220107-15:02:21.209|56=IFIX-TC-EQ-UAT|122=20220107-15:02:21.209|36=134|123=Y|10=036|
20220107-15:02:21.485486000 : 8=FIX.4.4|9=127|35=4|49=IFIX-TC-EQ-UAT|56=MU9051500001|34=180|43=Y|52=20220107-15:02:23.101286181|122=20220107-15:02:23.101286181|123=Y|36=183|10=149|
20220107-15:02:21.501794000 : 8=FIX.4.4|9=88|35=2|49=IFIX-TC-EQ-UAT|56=MU9051500001|34=183|52=20220107-15:02:23.101352530|7=131|16=0|10=172|
20220107-15:02:21.517940000 : 8=FIX.4.4|9=115|35=4|34=131|43=Y|49=MU9051500001|52=20220107-15:02:21.510|56=IFIX-TC-EQ-UAT|122=20220107-15:02:21.510|36=134|123=Y|10=026|
20220107-15:02:23.769398000 : 8=FIX.4.4|9=142|35=h|49=IFIX-TC-EQ-UAT|56=MU9051500001|34=184|52=20220107-15:02:25.664840449|336=FOND|325=Y|340=101|58=Connection to MICEX market established|10=127|
20220107-15:02:31.069175000 : 8=FIX.4.4|9=518|35=AE|49=IFIX-TC-EQ-UAT|56=MU9051500001|34=185|52=20220107-15:02:32.962356660|571=115|828=0|150=F|17=113722727|1|103700|570=N|55=AMZN-RM|236=0.0|32=1|31=256414|75=20220107|60=20220107-07:37:00|63=3|64=20220111|552=1|54=1|37=28092442643|11=2076087002/|453=3|448=MC9051500000|447=D|452=1|448=2076087002|447=D|452=3|448=MU9051500003|447=D|452=12|1=L00-000012D8|336=FQBR|625=N|12=25.64|13=3|381=256414.0|159=0.0|136=3|137=10.9|139=98|137=14.74|139=4|137=0.0|139=99|1056=1|851=2|5155=NCC|5459=Y2|6029=SUR|6636=N|7693=11866|10=080|
20220107-15:02:31.076061000 : 8=FIX.4.4|9=527|35=AE|49=IFIX-TC-EQ-UAT|56=MU9051500001|34=186|52=20220107-15:02:32.962465687|571=116|828=0|150=F|17=113723093|1|105315|570=N|55=AMZN-RM|236=0.0|32=1|31=256414|75=20220107|60=20220107-07:53:15|63=3|64=20220111|552=1|54=1|37=28092446529|11=plomcxldlkqbvekgxlco|453=3|448=MC9051500000|447=D|452=1|448=2076087002|447=D|452=3|448=MU9051500001|447=D|452=12|1=L00-000012D8|336=FQBR|625=N|12=25.64|13=3|381=256414.0|159=0.0|136=3|137=10.9|139=98|137=14.74|139=4|137=0.0|139=99|1056=1|851=2|5155=NCC|5459=Y2|6029=SUR|6636=N|7693=11866|10=167|
20220107-15:02:31.080211000 : 8=FIX.4.4|9=528|35=AE|49=IFIX-TC-EQ-UAT|56=MU9051500001|34=187|52=20220107-15:02:32.962503269|571=117|828=0|150=F|17=113723196|1|105741|570=N|55=AMZN-RM|236=0.0|32=1|31=257493|75=20220107|60=20220107-07:57:41|63=3|64=20220111|552=1|54=1|37=28092447639|11=mdrakbomrkzvsfinijlp|453=3|448=MC9051500000|447=D|452=1|448=2076087002|447=D|452=3|448=MU9051500001|447=D|452=12|1=L00-000012D8|336=FQBR|625=N|12=25.75|13=3|381=257493.0|159=0.0|136=3|137=10.94|139=98|137=14.81|139=4|137=0.0|139=99|1056=1|851=2|5155=NCC|5459=Y2|6029=SUR|6636=N|7693=11866|10=249|
20220107-15:02:31.084096000 : 8=FIX.4.4|9=527|35=AE|49=IFIX-TC-EQ-UAT|56=MU9051500001|34=188|52=20220107-15:02:32.962544113|571=118|828=0|150=F|17=113723447|1|110807|570=N|55=AMZN-RM|236=0.0|32=1|31=256414|75=20220107|60=20220107-08:08:07|63=3|64=20220111|552=1|54=1|37=28092450261|11=mtfrgystwkrkmhabdtfe|453=3|448=MC9051500000|447=D|452=1|448=2076087002|447=D|452=3|448=MU9051500001|447=D|452=12|1=L00-000012D8|336=FQBR|625=N|12=25.64|13=3|381=256414.0|159=0.0|136=3|137=10.9|139=98|137=14.74|139=4|137=0.0|139=99|1056=1|851=2|5155=NCC|5459=Y2|6029=SUR|6636=N|7693=11866|10=158|
20220107-15:02:31.086732000 : 8=FIX.4.4|9=528|35=AE|49=IFIX-TC-EQ-UAT|56=MU9051500001|34=189|52=20220107-15:02:32.962599416|571=119|828=0|150=F|17=113723517|1|111005|570=N|55=AMZN-RM|236=0.0|32=1|31=256953|75=20220107|60=20220107-08:10:05|63=3|64=20220111|552=1|54=1|37=28092450751|11=myxncjourirqogaclcnv|453=3|448=MC9051500000|447=D|452=1|448=2076087002|447=D|452=3|448=MU9051500001|447=D|452=12|1=L00-000012D8|336=FQBR|625=N|12=25.69|13=3|381=256953.0|159=0.0|136=3|137=10.92|139=98|137=14.77|139=4|137=0.0|139=99|1056=1|851=2|5155=NCC|5459=Y2|6029=SUR|6636=N|7693=11866|10=249|
