20220107-18:31:16.487183000 : 8=FIX.4.4|9=90|35=A|34=1|49=MU9051500002|52=20220107-18:31:16.475|56=IFIX-TC-EQ-UAT|554=7020|98=0|108=60|10=015|
20220107-18:31:19.728456000 : 8=FIX.4.4|9=87|35=A|49=IFIX-TC-EQ-UAT|56=MU9051500002|34=1|52=20220107-18:31:21.661105161|98=0|108=60|10=151|
20220107-18:31:22.612179000 : 8=FIX.4.4|9=140|35=h|49=IFIX-TC-EQ-UAT|56=MU9051500002|34=2|52=20220107-18:31:24.551996577|336=FOND|325=Y|340=101|58=Connection to MICEX market established|10=032|
20220107-18:31:27.092519000 : 8=FIX.4.4|9=516|35=AE|49=IFIX-TC-EQ-UAT|56=MU9051500002|34=3|52=20220107-18:31:29.033353744|571=177|828=0|150=F|17=113722727|1|103700|570=N|55=AMZN-RM|236=0.0|32=1|31=256414|75=20220107|60=20220107-07:37:00|63=3|64=20220111|552=1|54=1|37=28092442643|11=2076087002/|453=3|448=MC9051500000|447=D|452=1|448=2076087002|447=D|452=3|448=MU9051500003|447=D|452=12|1=L00-000012D8|336=FQBR|625=N|12=25.64|13=3|381=256414.0|159=0.0|136=3|137=10.9|139=98|137=14.74|139=4|137=0.0|139=99|1056=1|851=2|5155=NCC|5459=Y2|6029=SUR|6636=N|7693=11866|10=236|
20220107-18:31:27.102499000 : 8=FIX.4.4|9=525|35=AE|49=IFIX-TC-EQ-UAT|56=MU9051500002|34=4|52=20220107-18:31:29.033436236|571=178|828=0|150=F|17=113723093|1|105315|570=N|55=AMZN-RM|236=0.0|32=1|31=256414|75=20220107|60=20220107-07:53:15|63=3|64=20220111|552=1|54=1|37=28092446529|11=plomcxldlkqbvekgxlco|453=3|448=MC9051500000|447=D|452=1|448=2076087002|447=D|452=3|448=MU9051500001|447=D|452=12|1=L00-000012D8|336=FQBR|625=N|12=25.64|13=3|381=256414.0|159=0.0|136=3|137=10.9|139=98|137=14.74|139=4|137=0.0|139=99|1056=1|851=2|5155=NCC|5459=Y2|6029=SUR|6636=N|7693=11866|10=055|
20220107-18:31:27.108619000 : 8=FIX.4.4|9=526|35=AE|49=IFIX-TC-EQ-UAT|56=MU9051500002|34=5|52=20220107-18:31:29.033478080|571=179|828=0|150=F|17=113723196|1|105741|570=N|55=AMZN-RM|236=0.0|32=1|31=257493|75=20220107|60=20220107-07:57:41|63=3|64=20220111|552=1|54=1|37=28092447639|11=mdrakbomrkzvsfinijlp|453=3|448=MC9051500000|447=D|452=1|448=2076087002|447=D|452=3|448=MU9051500001|447=D|452=12|1=L00-000012D8|336=FQBR|625=N|12=25.75|13=3|381=257493.0|159=0.0|136=3|137=10.94|139=98|137=14.81|139=4|137=0.0|139=99|1056=1|851=2|5155=NCC|5459=Y2|6029=SUR|6636=N|7693=11866|10=151|
20220107-18:31:27.114967000 : 8=FIX.4.4|9=525|35=AE|49=IFIX-TC-EQ-UAT|56=MU9051500002|34=6|52=20220107-18:31:29.033525487|571=180|828=0|150=F|17=113723447|1|110807|570=N|55=AMZN-RM|236=0.0|32=1|31=256414|75=20220107|60=20220107-08:08:07|63=3|64=20220111|552=1|54=1|37=28092450261|11=mtfrgystwkrkmhabdtfe|453=3|448=MC9051500000|447=D|452=1|448=2076087002|447=D|452=3|448=MU9051500001|447=D|452=12|1=L00-000012D8|336=FQBR|625=N|12=25.64|13=3|381=256414.0|159=0.0|136=3|137=10.9|139=98|137=14.74|139=4|137=0.0|139=99|1056=1|851=2|5155=NCC|5459=Y2|6029=SUR|6636=N|7693=11866|10=062|
20220107-18:31:27.121342000 : 8=FIX.4.4|9=526|35=AE|49=IFIX-TC-EQ-UAT|56=MU9051500002|34=7|52=20220107-18:31:29.033571449|571=181|828=0|150=F|17=113723517|1|111005|570=N|55=AMZN-RM|236=0.0|32=1|31=256953|75=20220107|60=20220107-08:10:05|63=3|64=20220111|552=1|54=1|37=28092450751|11=myxncjourirqogaclcnv|453=3|448=MC9051500000|447=D|452=1|448=2076087002|447=D|452=3|448=MU9051500001|447=D|452=12|1=L00-000012D8|336=FQBR|625=N|12=25.69|13=3|381=256953.0|159=0.0|136=3|137=10.92|139=98|137=14.77|139=4|137=0.0|139=99|1056=1|851=2|5155=NCC|5459=Y2|6029=SUR|6636=N|7693=11866|10=136|
20220107-18:31:27.128410000 : 8=FIX.4.4|9=526|35=AE|49=IFIX-TC-EQ-UAT|56=MU9051500002|34=8|52=20220107-18:31:29.033612180|571=182|828=0|150=F|17=113723569|1|111234|570=N|55=AMZN-RM|236=0.0|32=1|31=257493|75=20220107|60=20220107-08:12:34|63=3|64=20220111|552=1|54=1|37=28092451363|11=jmjfuvnaxphsxjxhweor|453=3|448=MC9051500000|447=D|452=1|448=2076087002|447=D|452=3|448=MU9051500001|447=D|452=12|1=L00-000012D8|336=FQBR|625=N|12=25.75|13=3|381=257493.0|159=0.0|136=3|137=10.94|139=98|137=14.81|139=4|137=0.0|139=99|1056=1|851=2|5155=NCC|5459=Y2|6029=SUR|6636=N|7693=11866|10=162|
20220107-18:31:27.134399000 : 8=FIX.4.4|9=526|35=AE|49=IFIX-TC-EQ-UAT|56=MU9051500002|34=9|52=20220107-18:31:29.033650049|571=183|828=0|150=F|17=113723625|1|111429|570=N|55=AMZN-RM|236=0.0|32=1|31=256953|75=20220107|60=20220107-08:14:29|63=3|64=20220111|552=1|54=1|37=28092451840|11=plljwlrwnbmhptnmfmpl|453=3|448=MC9051500000|447=D|452=1|448=2076087002|447=D|452=3|448=MU9051500001|447=D|452=12|1=L00-000012D8|336=FQBR|625=N|12=25.69|13=3|381=256953.0|159=0.0|136=3|137=10.92|139=98|137=14.77|139=4|137=0.0|139=99|1056=1|851=2|5155=NCC|5459=Y2|6029=SUR|6636=N|7693=11866|10=163|
20220107-18:31:27.141712000 : 8=FIX.4.4|9=526|35=AE|49=IFIX-TC-EQ-UAT|56=MU9051500002|34=10|52=20220107-18:31:29.033701848|571=184|828=0|150=F|17=113723662|1|111535|570=N|55=AMZN-RM|236=0.0|32=1|31=256414|75=20220107|60=20220107-08:15:35|63=3|64=20220111|552=1|54=1|37=28092452116|11=soixmkxfzvwsvosuryue|453=3|448=MC9051500000|447=D|452=1|448=2076087002|447=D|452=3|448=MU9051500001|447=D|452=12|1=L00-000012D8|336=FQBR|625=N|12=25.64|13=3|381=256414.0|159=0.0|136=3|137=10.9|139=98|137=14.74|139=4|137=0.0|139=99|1056=1|851=2|5155=NCC|5459=Y2|6029=SUR|6636=N|7693=11866|10=212|
20220107-18:31:27.147658000 : 8=FIX.4.4|9=527|35=AE|49=IFIX-TC-EQ-UAT|56=MU9051500002|34=11|52=20220107-18:31:29.033739932|571=185|828=0|150=F|17=113723689|1|111638|570=N|55=AMZN-RM|236=0.0|32=1|31=257493|75=20220107|60=20220107-08:16:38|63=3|64=20220111|552=1|54=1|37=28092452377|11=yeuliklwcgylpjpplzki|453=3|448=MC9051500000|447=D|452=1|448=2076087002|447=D|452=3|448=MU9051500001|447=D|452=12|1=L00-000012D8|336=FQBR|625=N|12=25.75|13=3|381=257493.0|159=0.0|136=3|137=10.94|139=98|137=14.81|139=4|137=0.0|139=99|1056=1|851=2|5155=NCC|5459=Y2|6029=SUR|6636=N|7693=11866|10=238|
20220107-18:31:27.153558000 : 8=FIX.4.4|9=526|35=AE|49=IFIX-TC-EQ-UAT|56=MU9051500002|34=12|52=20220107-18:31:29.033776937|571=186|828=0|150=F|17=113723723|1|111742|570=N|55=AMZN-RM|236=0.0|32=1|31=256414|75=20220107|60=20220107-08:17:42|63=3|64=20220111|552=1|54=1|37=28092452646|11=ewvbgrlwujxsslkybqwh|453=3|448=MC9051500000|447=D|452=1|448=2076087002|447=D|452=3|448=MU9051500001|447=D|452=12|1=L00-000012D8|336=FQBR|625=N|12=25.64|13=3|381=256414.0|159=0.0|136=3|137=10.9|139=98|137=14.74|139=4|137=0.0|139=99|1056=1|851=2|5155=NCC|5459=Y2|6029=SUR|6636=N|7693=11866|10=179|
20220107-18:31:27.160692000 : 8=FIX.4.4|9=527|35=AE|49=IFIX-TC-EQ-UAT|56=MU9051500002|34=13|52=20220107-18:31:29.033813911|571=187|828=0|150=F|17=113723808|1|112121|570=N|55=AMZN-RM|236=0.0|32=1|31=257493|75=20220107|60=20220107-08:21:21|63=3|64=20220111|552=1|54=1|37=28092453531|11=wuveoovbuicphwknjzqq|453=3|448=MC9051500000|447=D|452=1|448=2076087002|447=D|452=3|448=MU9051500001|447=D|452=12|1=L00-000012D8|336=FQBR|625=N|12=25.75|13=3|381=257493.0|159=0.0|136=3|137=10.94|139=98|137=14.81|139=4|137=0.0|139=99|1056=1|851=2|5155=NCC|5459=Y2|6029=SUR|6636=N|7693=11866|10=213|
20220107-18:31:27.168865000 : 8=FIX.4.4|9=527|35=AE|49=IFIX-TC-EQ-UAT|56=MU9051500002|34=14|52=20220107-18:31:29.033851018|571=188|828=0|150=F|17=113723856|1|112311|570=N|55=AMZN-RM|236=0.0|32=1|31=256953|75=20220107|60=20220107-08:23:11|63=3|64=20220111|552=1|54=1|37=28092453999|11=lorcculqqlghzdfyxkrg|453=3|448=MC9051500000|447=D|452=1|448=2076087002|447=D|452=3|448=MU9051500001|447=D|452=12|1=L00-000012D8|336=FQBR|625=N|12=25.69|13=3|381=256953.0|159=0.0|136=3|137=10.92|139=98|137=14.77|139=4|137=0.0|139=99|1056=1|851=2|5155=NCC|5459=Y2|6029=SUR|6636=N|7693=11866|10=210|
20220107-18:31:27.176440000 : 8=FIX.4.4|9=527|35=AE|49=IFIX-TC-EQ-UAT|56=MU9051500002|34=15|52=20220107-18:31:29.033887800|571=189|828=0|150=F|17=113724023|1|113036|570=N|55=AMZN-RM|236=0.0|32=1|31=256953|75=20220107|60=20220107-08:30:36|63=3|64=20220111|552=1|54=1|37=28092455907|11=xmytaknqbtbwzpgmgzen|453=3|448=MC9051500000|447=D|452=1|448=2076087002|447=D|452=3|448=MU9051500001|447=D|452=12|1=L00-000012D8|336=FQBR|625=N|12=25.69|13=3|381=256953.0|159=0.0|136=3|137=10.92|139=98|137=14.77|139=4|137=0.0|139=99|1056=1|851=2|5155=NCC|5459=Y2|6029=SUR|6636=N|7693=11866|10=228|
20220107-18:31:27.183655000 : 8=FIX.4.4|9=526|35=AE|49=IFIX-TC-EQ-UAT|56=MU9051500002|34=16|52=20220107-18:31:29.033924345|571=190|828=0|150=F|17=113724617|1|115644|570=N|55=AMZN-RM|236=0.0|32=1|31=256414|75=20220107|60=20220107-08:56:44|63=3|64=20220111|552=1|54=1|37=28092463662|11=fdzqhrkuamxyervwajva|453=3|448=MC9051500000|447=D|452=1|448=2076087002|447=D|452=3|448=MU9051500001|447=D|452=12|1=L00-000012D8|336=FQBR|625=N|12=25.64|13=3|381=256414.0|159=0.0|136=3|137=10.9|139=98|137=14.74|139=4|137=0.0|139=99|1056=1|851=2|5155=NCC|5459=Y2|6029=SUR|6636=N|7693=11866|10=152|
20220107-18:31:27.189326000 : 8=FIX.4.4|9=527|35=AE|49=IFIX-TC-EQ-UAT|56=MU9051500002|34=17|52=20220107-18:31:29.033965424|571=191|828=0|150=F|17=113724700|1|120011|570=N|55=AMZN-RM|236=0.0|32=1|31=257493|75=20220107|60=20220107-09:00:11|63=3|64=20220111|552=1|54=1|37=28092464650|11=vsptabgablsetcpgnufw|453=3|448=MC9051500000|447=D|452=1|448=2076087002|447=D|452=3|448=MU9051500001|447=D|452=12|1=L00-000012D8|336=FQBR|625=N|12=25.75|13=3|381=257493.0|159=0.0|136=3|137=10.94|139=98|137=14.81|139=4|137=0.0|139=99|1056=1|851=2|5155=NCC|5459=Y2|6029=SUR|6636=N|7693=11866|10=145|
20220107-18:31:27.195781000 : 8=FIX.4.4|9=527|35=AE|49=IFIX-TC-EQ-UAT|56=MU9051500002|34=18|52=20220107-18:31:29.034002726|571=192|828=0|150=F|17=113724718|2|120039|570=N|55=AMZN-RM|236=0.0|32=1|31=245084|75=20220107|60=20220107-09:00:39|63=3|64=20220111|552=1|54=2|37=28092464793|11=kslhoxlvkangcvmmryle|453=3|448=MC9051500000|447=D|452=1|448=2076087002|447=D|452=3|448=MU9051500001|447=D|452=12|1=L00-000012D8|336=FQBR|625=N|12=24.51|13=3|381=245084.0|159=0.0|136=3|137=10.42|139=98|137=14.09|139=4|137=0.0|139=99|1056=1|851=2|5155=NCC|5459=Y2|6029=SUR|6636=N|7693=11866|10=177|
20220107-18:31:27.201772000 : 8=FIX.4.4|9=527|35=AE|49=IFIX-TC-EQ-UAT|56=MU9051500002|34=19|52=20220107-18:31:29.034039671|571=193|828=0|150=F|17=113724823|2|120443|570=N|55=AMZN-RM|236=0.0|32=1|31=244545|75=20220107|60=20220107-09:04:43|63=3|64=20220111|552=1|54=2|37=28092465967|11=fppbeaiiqyyazclbvqhe|453=3|448=MC9051500000|447=D|452=1|448=2076087002|447=D|452=3|448=MU9051500001|447=D|452=12|1=L00-000012D8|336=FQBR|625=N|12=24.45|13=3|381=244545.0|159=0.0|136=3|137=10.39|139=98|137=14.06|139=4|137=0.0|139=99|1056=1|851=2|5155=NCC|5459=Y2|6029=SUR|6636=N|7693=11866|10=155|
20220107-18:31:27.208914000 : 8=FIX.4.4|9=527|35=AE|49=IFIX-TC-EQ-UAT|56=MU9051500002|34=20|52=20220107-18:31:29.034086989|571=194|828=0|150=F|17=113724925|2|120744|570=N|55=AMZN-RM|236=0.0|32=1|31=244545|75=20220107|60=20220107-09:07:44|63=3|64=20220111|552=1|54=2|37=28092466847|11=hqfrtvzrwfokfazfqiwy|453=3|448=MC9051500000|447=D|452=1|448=2076087002|447=D|452=3|448=MU9051500001|447=D|452=12|1=L00-000012D8|336=FQBR|625=N|12=24.45|13=3|381=244545.0|159=0.0|136=3|137=10.39|139=98|137=14.06|139=4|137=0.0|139=99|1056=1|851=2|5155=NCC|5459=Y2|6029=SUR|6636=N|7693=11866|10=247|
20220107-18:31:27.216119000 : 8=FIX.4.4|9=458|35=AE|49=IFIX-TC-EQ-UAT|56=MU9051500002|34=21|52=20220107-18:31:29.034125655|571=195|828=F|150=F|17=113730394|2|162504|570=N|55=RUB_COMM|236=0.0|32=0|31=0|75=20220107|60=20220107-13:25:04|64=20220110|552=1|54=2|37=28092522316|11=N/A|453=2|448=MC9051500000|447=D|452=1|448=MC0888800000|447=D|452=17|1=NCC+00011866|336=TRAD|625=N|12=0.0|13=3|381=194.98|159=0.0|136=3|137=0.0|139=98|137=0.0|139=4|137=0.0|139=99|1056=0|851=2|5155=NCC|6029=SUR|6636=N|7693=11866|10=081|
20220107-18:31:27.226831000 : 8=FIX.4.4|9=458|35=AE|49=IFIX-TC-EQ-UAT|56=MU9051500002|34=22|52=20220107-18:31:29.034162213|571=196|828=F|150=F|17=113730395|2|162504|570=N|55=RUB_COMM|236=0.0|32=0|31=0|75=20220107|60=20220107-13:25:04|64=20220110|552=1|54=2|37=28092522318|11=N/A|453=2|448=MC9051500000|447=D|452=1|448=MC0888800000|447=D|452=17|1=NCC+00011866|336=TRAD|625=N|12=0.0|13=3|381=263.78|159=0.0|136=3|137=0.0|139=98|137=0.0|139=4|137=0.0|139=99|1056=0|851=2|5155=NCC|6029=SUR|6636=N|7693=11866|10=072|
20220107-18:31:27.235653000 : 8=FIX.4.4|9=517|35=AE|49=IFIX-TC-EQ-UAT|56=MU9051500002|34=23|52=20220107-18:31:29.034199216|571=197|828=0|150=F|17=113731453|1|205347|570=N|55=AMZN-RM|236=0.0|32=1|31=256414|75=20220107|60=20220107-17:53:47|63=3|64=20220111|552=1|54=1|37=28092528709|11=2076087002/|453=3|448=MC9051500000|447=D|452=1|448=2076087002|447=D|452=3|448=MU9051500001|447=D|452=12|1=L00-000012D8|336=FQBR|625=N|12=25.64|13=3|381=256414.0|159=0.0|136=3|137=10.9|139=98|137=14.74|139=4|137=0.0|139=99|1056=1|851=2|5155=NCC|5459=Y2|6029=SUR|6636=N|7693=11866|10=058|
20220107-18:31:27.395756000 : 8=FIX.4.4|9=517|35=AE|49=IFIX-TC-EQ-UAT|56=MU9051500002|34=24|52=20220107-18:31:29.034242345|571=198|828=0|150=F|17=113731454|1|211106|570=N|55=AMZN-RM|236=0.0|32=1|31=256414|75=20220107|60=20220107-18:11:06|63=3|64=20220111|552=1|54=1|37=28092528710|11=2076087002/|453=3|448=MC9051500000|447=D|452=1|448=2076087002|447=D|452=3|448=MU9051500001|447=D|452=12|1=L00-000012D8|336=FQBR|625=N|12=25.64|13=3|381=256414.0|159=0.0|136=3|137=10.9|139=98|137=14.74|139=4|137=0.0|139=99|1056=1|851=2|5155=NCC|5459=Y2|6029=SUR|6636=N|7693=11866|10=025|
20220107-18:32:16.492644000 : 8=FIX.4.4|9=69|35=0|34=2|49=MU9051500002|52=20220107-18:32:16.492|56=IFIX-TC-EQ-UAT|10=068|
20220107-18:32:26.724360000 : 8=FIX.4.4|9=76|35=0|49=IFIX-TC-EQ-UAT|56=MU9051500002|34=25|52=20220107-18:32:28.664991949|10=196|
20220107-18:33:16.482844000 : 8=FIX.4.4|9=69|35=0|34=3|49=MU9051500002|52=20220107-18:33:16.482|56=IFIX-TC-EQ-UAT|10=069|
20220107-18:33:26.727727000 : 8=FIX.4.4|9=76|35=0|49=IFIX-TC-EQ-UAT|56=MU9051500002|34=26|52=20220107-18:33:28.669315302|10=176|
20220107-18:34:16.356046000 : 8=FIX.4.4|9=69|35=0|34=4|49=MU9051500002|52=20220107-18:34:16.355|56=IFIX-TC-EQ-UAT|10=070|
20220107-18:34:26.731233000 : 8=FIX.4.4|9=76|35=0|49=IFIX-TC-EQ-UAT|56=MU9051500002|34=27|52=20220107-18:34:28.672420899|10=190|
20220107-18:35:16.356822000 : 8=FIX.4.4|9=69|35=0|34=5|49=MU9051500002|52=20220107-18:35:16.356|56=IFIX-TC-EQ-UAT|10=073|
20220107-18:35:26.734540000 : 8=FIX.4.4|9=76|35=0|49=IFIX-TC-EQ-UAT|56=MU9051500002|34=28|52=20220107-18:35:28.676826362|10=191|
20220107-18:36:16.066649000 : 8=FIX.4.4|9=69|35=0|34=6|49=MU9051500002|52=20220107-18:36:16.065|56=IFIX-TC-EQ-UAT|10=072|
20220107-18:36:26.746507000 : 8=FIX.4.4|9=76|35=0|49=IFIX-TC-EQ-UAT|56=MU9051500002|34=29|52=20220107-18:36:28.681203983|10=187|
20220107-18:37:16.008137000 : 8=FIX.4.4|9=69|35=0|34=7|49=MU9051500002|52=20220107-18:37:16.007|56=IFIX-TC-EQ-UAT|10=070|
20220107-18:37:26.748480000 : 8=FIX.4.4|9=76|35=0|49=IFIX-TC-EQ-UAT|56=MU9051500002|34=30|52=20220107-18:37:28.683386478|10=193|
20220107-18:37:53.547532000 : 8=FIX.4.4|9=526|35=AE|49=IFIX-TC-EQ-UAT|56=MU9051500002|34=31|52=20220107-18:37:55.487333343|571=199|828=0|150=F|17=113731455|1|213755|570=N|55=AMZN-RM|236=0.0|32=1|31=256414|75=20220107|60=20220107-18:37:55|63=3|64=20220111|552=1|54=1|37=28092528711|11=jgqjwxdcnsakpwujpciq|453=3|448=MC9051500000|447=D|452=1|448=2076087002|447=D|452=3|448=MU9051500001|447=D|452=12|1=L00-000012D8|336=FQBR|625=N|12=25.64|13=3|381=256414.0|159=0.0|136=3|137=10.9|139=98|137=14.74|139=4|137=0.0|139=99|1056=1|851=2|5155=NCC|5459=Y2|6029=SUR|6636=N|7693=11866|10=149|
20220107-18:38:16.564982000 : 8=FIX.4.4|9=69|35=0|34=8|49=MU9051500002|52=20220107-18:38:16.564|56=IFIX-TC-EQ-UAT|10=080|
20220107-18:38:52.749985000 : 8=FIX.4.4|9=76|35=0|49=IFIX-TC-EQ-UAT|56=MU9051500002|34=32|52=20220107-18:38:54.687441681|10=187|
20220107-18:39:16.362952000 : 8=FIX.4.4|9=69|35=0|34=9|49=MU9051500002|52=20220107-18:39:16.362|56=IFIX-TC-EQ-UAT|10=078|
20220107-18:39:52.746983000 : 8=FIX.4.4|9=76|35=0|49=IFIX-TC-EQ-UAT|56=MU9051500002|34=33|52=20220107-18:39:54.689743466|10=197|
20220107-18:40:16.602075000 : 8=FIX.4.4|9=70|35=0|34=10|49=MU9051500002|52=20220107-18:40:16.601|56=IFIX-TC-EQ-UAT|10=098|
20220107-18:40:52.758775000 : 8=FIX.4.4|9=76|35=0|49=IFIX-TC-EQ-UAT|56=MU9051500002|34=34|52=20220107-18:40:54.694067714|10=181|
20220107-18:41:16.035686000 : 8=FIX.4.4|9=70|35=0|34=11|49=MU9051500002|52=20220107-18:41:16.034|56=IFIX-TC-EQ-UAT|10=100|
20220107-18:41:52.762468000 : 8=FIX.4.4|9=76|35=0|49=IFIX-TC-EQ-UAT|56=MU9051500002|34=35|52=20220107-18:41:54.698302731|10=178|
20220107-18:42:16.038087000 : 8=FIX.4.4|9=70|35=0|34=12|49=MU9051500002|52=20220107-18:42:16.037|56=IFIX-TC-EQ-UAT|10=105|
20220107-18:42:52.760607000 : 8=FIX.4.4|9=76|35=0|49=IFIX-TC-EQ-UAT|56=MU9051500002|34=36|52=20220107-18:42:54.701597968|10=193|
20220107-18:43:16.204941000 : 8=FIX.4.4|9=70|35=0|34=13|49=MU9051500002|52=20220107-18:43:16.204|56=IFIX-TC-EQ-UAT|10=103|
20220107-18:43:52.782572000 : 8=FIX.4.4|9=76|35=0|49=IFIX-TC-EQ-UAT|56=MU9051500002|34=37|52=20220107-18:43:54.704812713|10=176|
20220107-18:44:16.239408000 : 8=FIX.4.4|9=70|35=0|34=14|49=MU9051500002|52=20220107-18:44:16.238|56=IFIX-TC-EQ-UAT|10=112|
20220107-18:44:52.819082000 : 8=FIX.4.4|9=76|35=0|49=IFIX-TC-EQ-UAT|56=MU9051500002|34=38|52=20220107-18:44:54.708943529|10=192|
20220107-18:45:16.289158000 : 8=FIX.4.4|9=70|35=0|34=15|49=MU9051500002|52=20220107-18:45:16.288|56=IFIX-TC-EQ-UAT|10=119|
20220107-18:45:52.770292000 : 8=FIX.4.4|9=76|35=0|49=IFIX-TC-EQ-UAT|56=MU9051500002|34=39|52=20220107-18:45:54.711103841|10=173|
20220107-18:46:16.095445000 : 8=FIX.4.4|9=70|35=0|34=16|49=MU9051500002|52=20220107-18:46:16.095|56=IFIX-TC-EQ-UAT|10=117|
20220107-18:46:52.778615000 : 8=FIX.4.4|9=76|35=0|49=IFIX-TC-EQ-UAT|56=MU9051500002|34=40|52=20220107-18:46:54.715300189|10=174|
20220107-18:47:16.046019000 : 8=FIX.4.4|9=70|35=0|34=17|49=MU9051500002|52=20220107-18:47:16.045|56=IFIX-TC-EQ-UAT|10=114|
20220107-18:47:52.778038000 : 8=FIX.4.4|9=76|35=0|49=IFIX-TC-EQ-UAT|56=MU9051500002|34=41|52=20220107-18:47:54.718488036|10=187|
20220107-18:48:16.044820000 : 8=FIX.4.4|9=70|35=0|34=18|49=MU9051500002|52=20220107-18:48:16.044|56=IFIX-TC-EQ-UAT|10=115|
20220107-18:48:52.778124000 : 8=FIX.4.4|9=76|35=0|49=IFIX-TC-EQ-UAT|56=MU9051500002|34=42|52=20220107-18:48:54.720887366|10=191|
20220107-18:49:16.348350000 : 8=FIX.4.4|9=70|35=0|34=19|49=MU9051500002|52=20220107-18:49:16.347|56=IFIX-TC-EQ-UAT|10=123|
20220107-18:49:52.783744000 : 8=FIX.4.4|9=76|35=0|49=IFIX-TC-EQ-UAT|56=MU9051500002|34=43|52=20220107-18:49:54.724223988|10=191|
20220107-18:50:16.405840000 : 8=FIX.4.4|9=70|35=0|34=20|49=MU9051500002|52=20220107-18:50:16.405|56=IFIX-TC-EQ-UAT|10=102|
20220107-18:50:52.878099000 : 8=FIX.4.4|9=76|35=0|49=IFIX-TC-EQ-UAT|56=MU9051500002|34=44|52=20220107-18:50:54.727468363|10=185|
20220107-18:51:16.879297000 : 8=FIX.4.4|9=70|35=0|34=21|49=MU9051500002|52=20220107-18:51:16.878|56=IFIX-TC-EQ-UAT|10=118|
20220107-18:51:52.788533000 : 8=FIX.4.4|9=76|35=0|49=IFIX-TC-EQ-UAT|56=MU9051500002|34=45|52=20220107-18:51:54.729690416|10=185|
20220107-18:52:16.687714000 : 8=FIX.4.4|9=70|35=0|34=22|49=MU9051500002|52=20220107-18:52:16.687|56=IFIX-TC-EQ-UAT|10=118|
20220107-18:52:52.794312000 : 8=FIX.4.4|9=76|35=0|49=IFIX-TC-EQ-UAT|56=MU9051500002|34=46|52=20220107-18:52:54.732867680|10=190|
20220107-18:53:16.177489000 : 8=FIX.4.4|9=70|35=0|34=23|49=MU9051500002|52=20220107-18:53:16.176|56=IFIX-TC-EQ-UAT|10=113|
20220107-18:53:52.792872000 : 8=FIX.4.4|9=76|35=0|49=IFIX-TC-EQ-UAT|56=MU9051500002|34=47|52=20220107-18:53:54.737064956|10=192|
20220107-18:54:16.127641000 : 8=FIX.4.4|9=70|35=0|34=24|49=MU9051500002|52=20220107-18:54:16.127|56=IFIX-TC-EQ-UAT|10=111|
20220107-18:54:52.798685000 : 8=FIX.4.4|9=76|35=0|49=IFIX-TC-EQ-UAT|56=MU9051500002|34=48|52=20220107-18:54:54.740195369|10=191|
20220107-18:55:16.140524000 : 8=FIX.4.4|9=70|35=0|34=25|49=MU9051500002|52=20220107-18:55:16.140|56=IFIX-TC-EQ-UAT|10=108|
20220107-18:55:52.798655000 : 8=FIX.4.4|9=76|35=0|49=IFIX-TC-EQ-UAT|56=MU9051500002|34=49|52=20220107-18:55:54.743498516|10=196|
20220107-18:56:16.144682000 : 8=FIX.4.4|9=70|35=0|34=26|49=MU9051500002|52=20220107-18:56:16.143|56=IFIX-TC-EQ-UAT|10=113|
20220107-18:56:52.799814000 : 8=FIX.4.4|9=76|35=0|49=IFIX-TC-EQ-UAT|56=MU9051500002|34=50|52=20220107-18:56:54.746794792|10=197|
20220107-18:57:16.313619000 : 8=FIX.4.4|9=70|35=0|34=27|49=MU9051500002|52=20220107-18:57:16.313|56=IFIX-TC-EQ-UAT|10=114|
20220107-18:57:52.805171000 : 8=FIX.4.4|9=76|35=0|49=IFIX-TC-EQ-UAT|56=MU9051500002|34=51|52=20220107-18:57:54.749821713|10=186|
20220107-18:58:16.003340000 : 8=FIX.4.4|9=70|35=0|34=28|49=MU9051500002|52=20220107-18:58:16.002|56=IFIX-TC-EQ-UAT|10=111|
20220107-18:58:52.805466000 : 8=FIX.4.4|9=76|35=0|49=IFIX-TC-EQ-UAT|56=MU9051500002|34=52|52=20220107-18:58:54.753151742|10=181|
20220107-18:59:16.525833000 : 8=FIX.4.4|9=70|35=0|34=29|49=MU9051500002|52=20220107-18:59:16.525|56=IFIX-TC-EQ-UAT|10=123|
20220107-18:59:52.811508000 : 8=FIX.4.4|9=76|35=0|49=IFIX-TC-EQ-UAT|56=MU9051500002|34=53|52=20220107-18:59:54.757462252|10=188|
20220107-19:00:16.163483000 : 8=FIX.4.4|9=70|35=0|34=30|49=MU9051500002|52=20220107-19:00:16.162|56=IFIX-TC-EQ-UAT|10=099|
20220107-19:00:52.814873000 : 8=FIX.4.4|9=76|35=0|49=IFIX-TC-EQ-UAT|56=MU9051500002|34=54|52=20220107-19:00:54.759680185|10=185|
20220107-19:01:16.416395000 : 8=FIX.4.4|9=70|35=0|34=31|49=MU9051500002|52=20220107-19:01:16.415|56=IFIX-TC-EQ-UAT|10=102|
20220107-19:01:27.817379000 : 8=FIX.4.4|9=98|35=1|49=IFIX-TC-EQ-UAT|56=MU9051500002|34=55|52=20220107-19:01:29.762179183|112=20220107-19:01:29|10=244|
20220107-19:01:27.826927000 : 8=FIX.4.4|9=92|35=0|34=32|49=MU9051500002|52=20220107-19:01:27.826|56=IFIX-TC-EQ-UAT|112=20220107-19:01:29|10=170|
20220107-19:02:27.014744000 : 8=FIX.4.4|9=70|35=0|34=33|49=MU9051500002|52=20220107-19:02:27.014|56=IFIX-TC-EQ-UAT|10=102|
20220107-19:02:39.327240000 : 8=FIX.4.4|9=79|35=1|34=34|49=MU9051500002|52=20220107-19:02:39.315|56=IFIX-TC-EQ-UAT|112=TEST|10=138|
20220107-19:02:39.819626000 : 8=FIX.4.4|9=76|35=0|49=IFIX-TC-EQ-UAT|56=MU9051500002|34=56|52=20220107-19:02:29.766406878|10=194|
20220107-19:02:56.781107000 : 8=FIX.4.4|9=91|35=A|34=35|49=MU9051500002|52=20220107-19:02:56.768|56=IFIX-TC-EQ-UAT|554=7020|98=0|108=60|10=079|
20220107-19:02:59.969411000 : 8=FIX.4.4|9=88|35=A|49=IFIX-TC-EQ-UAT|56=MU9051500002|34=57|52=20220107-19:03:01.910607222|98=0|108=60|10=211|
20220107-19:03:00.247751000 : 8=FIX.4.4|9=86|35=2|49=IFIX-TC-EQ-UAT|56=MU9051500002|34=58|52=20220107-19:03:01.910686881|7=31|16=0|10=103|
20220107-19:03:00.264739000 : 8=FIX.4.4|9=113|35=4|34=31|43=Y|49=MU9051500002|52=20220107-19:03:00.256|56=IFIX-TC-EQ-UAT|122=20220107-19:03:00.256|36=36|123=Y|10=203|
20220107-19:03:02.848875000 : 8=FIX.4.4|9=141|35=h|49=IFIX-TC-EQ-UAT|56=MU9051500002|34=59|52=20220107-19:03:04.799906577|336=FOND|325=Y|340=101|58=Connection to MICEX market established|10=096|
20220107-19:03:09.624605000 : 8=FIX.4.4|9=517|35=AE|49=IFIX-TC-EQ-UAT|56=MU9051500002|34=60|52=20220107-19:03:11.574176507|571=200|828=0|150=F|17=113722727|1|103700|570=N|55=AMZN-RM|236=0.0|32=1|31=256414|75=20220107|60=20220107-07:37:00|63=3|64=20220111|552=1|54=1|37=28092442643|11=2076087002/|453=3|448=MC9051500000|447=D|452=1|448=2076087002|447=D|452=3|448=MU9051500003|447=D|452=12|1=L00-000012D8|336=FQBR|625=N|12=25.64|13=3|381=256414.0|159=0.0|136=3|137=10.9|139=98|137=14.74|139=4|137=0.0|139=99|1056=1|851=2|5155=NCC|5459=Y2|6029=SUR|6636=N|7693=11866|10=020|
20220107-19:03:09.637729000 : 8=FIX.4.4|9=526|35=AE|49=IFIX-TC-EQ-UAT|56=MU9051500002|34=61|52=20220107-19:03:11.574285975|571=201|828=0|150=F|17=113723093|1|105315|570=N|55=AMZN-RM|236=0.0|32=1|31=256414|75=20220107|60=20220107-07:53:15|63=3|64=20220111|552=1|54=1|37=28092446529|11=plomcxldlkqbvekgxlco|453=3|448=MC9051500000|447=D|452=1|448=2076087002|447=D|452=3|448=MU9051500001|447=D|452=12|1=L00-000012D8|336=FQBR|625=N|12=25.64|13=3|381=256414.0|159=0.0|136=3|137=10.9|139=98|137=14.74|139=4|137=0.0|139=99|1056=1|851=2|5155=NCC|5459=Y2|6029=SUR|6636=N|7693=11866|10=107|
20220107-19:03:09.647090000 : 8=FIX.4.4|9=527|35=AE|49=IFIX-TC-EQ-UAT|56=MU9051500002|34=62|52=20220107-19:03:11.574325517|571=202|828=0|150=F|17=113723196|1|105741|570=N|55=AMZN-RM|236=0.0|32=1|31=257493|75=20220107|60=20220107-07:57:41|63=3|64=20220111|552=1|54=1|37=28092447639|11=mdrakbomrkzvsfinijlp|453=3|448=MC9051500000|447=D|452=1|448=2076087002|447=D|452=3|448=MU9051500001|447=D|452=12|1=L00-000012D8|336=FQBR|625=N|12=25.75|13=3|381=257493.0|159=0.0|136=3|137=10.94|139=98|137=14.81|139=4|137=0.0|139=99|1056=1|851=2|5155=NCC|5459=Y2|6029=SUR|6636=N|7693=11866|10=187|
20220107-19:03:09.655301000 : 8=FIX.4.4|9=526|35=AE|49=IFIX-TC-EQ-UAT|56=MU9051500002|34=63|52=20220107-19:03:11.574376263|571=203|828=0|150=F|17=113723447|1|110807|570=N|55=AMZN-RM|236=0.0|32=1|31=256414|75=20220107|60=20220107-08:08:07|63=3|64=20220111|552=1|54=1|37=28092450261|11=mtfrgystwkrkmhabdtfe|453=3|448=MC9051500000|447=D|452=1|448=2076087002|447=D|452=3|448=MU9051500001|447=D|452=12|1=L00-000012D8|336=FQBR|625=N|12=25.64|13=3|381=256414.0|159=0.0|136=3|137=10.9|139=98|137=14.74|139=4|137=0.0|139=99|1056=1|851=2|5155=NCC|5459=Y2|6029=SUR|6636=N|7693=11866|10=107|
20220107-19:03:09.663135000 : 8=FIX.4.4|9=527|35=AE|49=IFIX-TC-EQ-UAT|56=MU9051500002|34=64|52=20220107-19:03:11.574427259|571=204|828=0|150=F|17=113723517|1|111005|570=N|55=AMZN-RM|236=0.0|32=1|31=256953|75=20220107|60=20220107-08:10:05|63=3|64=20220111|552=1|54=1|37=28092450751|11=myxncjourirqogaclcnv|453=3|448=MC9051500000|447=D|452=1|448=2076087002|447=D|452=3|448=MU9051500001|447=D|452=12|1=L00-000012D8|336=FQBR|625=N|12=25.69|13=3|381=256953.0|159=0.0|136=3|137=10.92|139=98|137=14.77|139=4|137=0.0|139=99|1056=1|851=2|5155=NCC|5459=Y2|6029=SUR|6636=N|7693=11866|10=184|
20220107-19:03:09.671430000 : 8=FIX.4.4|9=527|35=AE|49=IFIX-TC-EQ-UAT|56=MU9051500002|34=65|52=20220107-19:03:11.574487826|571=205|828=0|150=F|17=113723569|1|111234|570=N|55=AMZN-RM|236=0.0|32=1|31=257493|75=20220107|60=20220107-08:12:34|63=3|64=20220111|552=1|54=1|37=28092451363|11=jmjfuvnaxphsxjxhweor|453=3|448=MC9051500000|447=D|452=1|448=2076087002|447=D|452=3|448=MU9051500001|447=D|452=12|1=L00-000012D8|336=FQBR|625=N|12=25.75|13=3|381=257493.0|159=0.0|136=3|137=10.94|139=98|137=14.81|139=4|137=0.0|139=99|1056=1|851=2|5155=NCC|5459=Y2|6029=SUR|6636=N|7693=11866|10=228|
20220107-19:03:09.677728000 : 8=FIX.4.4|9=527|35=AE|49=IFIX-TC-EQ-UAT|56=MU9051500002|34=66|52=20220107-19:03:11.574529449|571=206|828=0|150=F|17=113723625|1|111429|570=N|55=AMZN-RM|236=0.0|32=1|31=256953|75=20220107|60=20220107-08:14:29|63=3|64=20220111|552=1|54=1|37=28092451840|11=plljwlrwnbmhptnmfmpl|453=3|448=MC9051500000|447=D|452=1|448=2076087002|447=D|452=3|448=MU9051500001|447=D|452=12|1=L00-000012D8|336=FQBR|625=N|12=25.69|13=3|381=256953.0|159=0.0|136=3|137=10.92|139=98|137=14.77|139=4|137=0.0|139=99|1056=1|851=2|5155=NCC|5459=Y2|6029=SUR|6636=N|7693=11866|10=221|
20220107-19:03:09.683786000 : 8=FIX.4.4|9=526|35=AE|49=IFIX-TC-EQ-UAT|56=MU9051500002|34=67|52=20220107-19:03:11.574573003|571=207|828=0|150=F|17=113723662|1|111535|570=N|55=AMZN-RM|236=0.0|32=1|31=256414|75=20220107|60=20220107-08:15:35|63=3|64=20220111|552=1|54=1|37=28092452116|11=soixmkxfzvwsvosuryue|453=3|448=MC9051500000|447=D|452=1|448=2076087002|447=D|452=3|448=MU9051500001|447=D|452=12|1=L00-000012D8|336=FQBR|625=N|12=25.64|13=3|381=256414.0|159=0.0|136=3|137=10.9|139=98|137=14.74|139=4|137=0.0|139=99|1056=1|851=2|5155=NCC|5459=Y2|6029=SUR|6636=N|7693=11866|10=211|
20220107-19:03:09.690013000 : 8=FIX.4.4|9=527|35=AE|49=IFIX-TC-EQ-UAT|56=MU9051500002|34=68|52=20220107-19:03:11.574612173|571=208|828=0|150=F|17=113723689|1|111638|570=N|55=AMZN-RM|236=0.0|32=1|31=257493|75=20220107|60=20220107-08:16:38|63=3|64=20220111|552=1|54=1|37=28092452377|11=yeuliklwcgylpjpplzki|453=3|448=MC9051500000|447=D|452=1|448=2076087002|447=D|452=3|448=MU9051500001|447=D|452=12|1=L00-000012D8|336=FQBR|625=N|12=25.75|13=3|381=257493.0|159=0.0|136=3|137=10.94|139=98|137=14.81|139=4|137=0.0|139=99|1056=1|851=2|5155=NCC|5459=Y2|6029=SUR|6636=N|7693=11866|10=234|
20220107-19:03:09.696039000 : 8=FIX.4.4|9=526|35=AE|49=IFIX-TC-EQ-UAT|56=MU9051500002|34=69|52=20220107-19:03:11.574649867|571=209|828=0|150=F|17=113723723|1|111742|570=N|55=AMZN-RM|236=0.0|32=1|31=256414|75=20220107|60=20220107-08:17:42|63=3|64=20220111|552=1|54=1|37=28092452646|11=ewvbgrlwujxsslkybqwh|453=3|448=MC9051500000|447=D|452=1|448=2076087002|447=D|452=3|448=MU9051500001|447=D|452=12|1=L00-000012D8|336=FQBR|625=N|12=25.64|13=3|381=256414.0|159=0.0|136=3|137=10.9|139=98|137=14.74|139=4|137=0.0|139=99|1056=1|851=2|5155=NCC|5459=Y2|6029=SUR|6636=N|7693=11866|10=189|
20220107-19:03:09.701781000 : 8=FIX.4.4|9=527|35=AE|49=IFIX-TC-EQ-UAT|56=MU9051500002|34=70|52=20220107-19:03:11.574698498|571=210|828=0|150=F|17=113723808|1|112121|570=N|55=AMZN-RM|236=0.0|32=1|31=257493|75=20220107|60=20220107-08:21:21|63=3|64=20220111|552=1|54=1|37=28092453531|11=wuveoovbuicphwknjzqq|453=3|448=MC9051500000|447=D|452=1|448=2076087002|447=D|452=3|448=MU9051500001|447=D|452=12|1=L00-000012D8|336=FQBR|625=N|12=25.75|13=3|381=257493.0|159=0.0|136=3|137=10.94|139=98|137=14.81|139=4|137=0.0|139=99|1056=1|851=2|5155=NCC|5459=Y2|6029=SUR|6636=N|7693=11866|10=225|
20220107-19:03:09.708903000 : 8=FIX.4.4|9=527|35=AE|49=IFIX-TC-EQ-UAT|56=MU9051500002|34=71|52=20220107-19:03:11.574738484|571=211|828=0|150=F|17=113723856|1|112311|570=N|55=AMZN-RM|236=0.0|32=1|31=256953|75=20220107|60=20220107-08:23:11|63=3|64=20220111|552=1|54=1|37=28092453999|11=lorcculqqlghzdfyxkrg|453=3|448=MC9051500000|447=D|452=1|448=2076087002|447=D|452=3|448=MU9051500001|447=D|452=12|1=L00-000012D8|336=FQBR|625=N|12=25.69|13=3|381=256953.0|159=0.0|136=3|137=10.92|139=98|137=14.77|139=4|137=0.0|139=99|1056=1|851=2|5155=NCC|5459=Y2|6029=SUR|6636=N|7693=11866|10=212|
20220107-19:03:09.716602000 : 8=FIX.4.4|9=527|35=AE|49=IFIX-TC-EQ-UAT|56=MU9051500002|34=72|52=20220107-19:03:11.574785876|571=212|828=0|150=F|17=113724023|1|113036|570=N|55=AMZN-RM|236=0.0|32=1|31=256953|75=20220107|60=20220107-08:30:36|63=3|64=20220111|552=1|54=1|37=28092455907|11=xmytaknqbtbwzpgmgzen|453=3|448=MC9051500000|447=D|452=1|448=2076087002|447=D|452=3|448=MU9051500001|447=D|452=12|1=L00-000012D8|336=FQBR|625=N|12=25.69|13=3|381=256953.0|159=0.0|136=3|137=10.92|139=98|137=14.77|139=4|137=0.0|139=99|1056=1|851=2|5155=NCC|5459=Y2|6029=SUR|6636=N|7693=11866|10=229|
20220107-19:03:09.723799000 : 8=FIX.4.4|9=526|35=AE|49=IFIX-TC-EQ-UAT|56=MU9051500002|34=73|52=20220107-19:03:11.574824996|571=213|828=0|150=F|17=113724617|1|115644|570=N|55=AMZN-RM|236=0.0|32=1|31=256414|75=20220107|60=20220107-08:56:44|63=3|64=20220111|552=1|54=1|37=28092463662|11=fdzqhrkuamxyervwajva|453=3|448=MC9051500000|447=D|452=1|448=2076087002|447=D|452=3|448=MU9051500001|447=D|452=12|1=L00-000012D8|336=FQBR|625=N|12=25.64|13=3|381=256414.0|159=0.0|136=3|137=10.9|139=98|137=14.74|139=4|137=0.0|139=99|1056=1|851=2|5155=NCC|5459=Y2|6029=SUR|6636=N|7693=11866|10=163|
20220107-19:03:09.730830000 : 8=FIX.4.4|9=527|35=AE|49=IFIX-TC-EQ-UAT|56=MU9051500002|34=74|52=20220107-19:03:11.574862644|571=214|828=0|150=F|17=113724700|1|120011|570=N|55=AMZN-RM|236=0.0|32=1|31=257493|75=20220107|60=20220107-09:00:11|63=3|64=20220111|552=1|54=1|37=28092464650|11=vsptabgablsetcpgnufw|453=3|448=MC9051500000|447=D|452=1|448=2076087002|447=D|452=3|448=MU9051500001|447=D|452=12|1=L00-000012D8|336=FQBR|625=N|12=25.75|13=3|381=257493.0|159=0.0|136=3|137=10.94|139=98|137=14.81|139=4|137=0.0|139=99|1056=1|851=2|5155=NCC|5459=Y2|6029=SUR|6636=N|7693=11866|10=145|
20220107-19:03:09.736967000 : 8=FIX.4.4|9=527|35=AE|49=IFIX-TC-EQ-UAT|56=MU9051500002|34=75|52=20220107-19:03:11.574899634|571=215|828=0|150=F|17=113724718|2|120039|570=N|55=AMZN-RM|236=0.0|32=1|31=245084|75=20220107|60=20220107-09:00:39|63=3|64=20220111|552=1|54=2|37=28092464793|11=kslhoxlvkangcvmmryle|453=3|448=MC9051500000|447=D|452=1|448=2076087002|447=D|452=3|448=MU9051500001|447=D|452=12|1=L00-000012D8|336=FQBR|625=N|12=24.51|13=3|381=245084.0|159=0.0|136=3|137=10.42|139=98|137=14.09|139=4|137=0.0|139=99|1056=1|851=2|5155=NCC|5459=Y2|6029=SUR|6636=N|7693=11866|10=198|
20220107-19:03:09.744777000 : 8=FIX.4.4|9=527|35=AE|49=IFIX-TC-EQ-UAT|56=MU9051500002|34=76|52=20220107-19:03:11.574936600|571=216|828=0|150=F|17=113724823|2|120443|570=N|55=AMZN-RM|236=0.0|32=1|31=244545|75=20220107|60=20220107-09:04:43|63=3|64=20220111|552=1|54=2|37=28092465967|11=fppbeaiiqyyazclbvqhe|453=3|448=MC9051500000|447=D|452=1|448=2076087002|447=D|452=3|448=MU9051500001|447=D|452=12|1=L00-000012D8|336=FQBR|625=N|12=24.45|13=3|381=244545.0|159=0.0|136=3|137=10.39|139=98|137=14.06|139=4|137=0.0|139=99|1056=1|851=2|5155=NCC|5459=Y2|6029=SUR|6636=N|7693=11866|10=152|
20220107-19:03:09.750359000 : 8=FIX.4.4|9=527|35=AE|49=IFIX-TC-EQ-UAT|56=MU9051500002|34=77|52=20220107-19:03:11.574975586|571=217|828=0|150=F|17=113724925|2|120744|570=N|55=AMZN-RM|236=0.0|32=1|31=244545|75=20220107|60=20220107-09:07:44|63=3|64=20220111|552=1|54=2|37=28092466847|11=hqfrtvzrwfokfazfqiwy|453=3|448=MC9051500000|447=D|452=1|448=2076087002|447=D|452=3|448=MU9051500001|447=D|452=12|1=L00-000012D8|336=FQBR|625=N|12=24.45|13=3|381=244545.0|159=0.0|136=3|137=10.39|139=98|137=14.06|139=4|137=0.0|139=99|1056=1|851=2|5155=NCC|5459=Y2|6029=SUR|6636=N|7693=11866|10=255|
20220107-19:03:09.756619000 : 8=FIX.4.4|9=458|35=AE|49=IFIX-TC-EQ-UAT|56=MU9051500002|34=78|52=20220107-19:03:11.575012834|571=218|828=F|150=F|17=113730394|2|162504|570=N|55=RUB_COMM|236=0.0|32=0|31=0|75=20220107|60=20220107-13:25:04|64=20220110|552=1|54=2|37=28092522316|11=N/A|453=2|448=MC9051500000|447=D|452=1|448=MC0888800000|447=D|452=17|1=NCC+00011866|336=TRAD|625=N|12=0.0|13=3|381=194.98|159=0.0|136=3|137=0.0|139=98|137=0.0|139=4|137=0.0|139=99|1056=0|851=2|5155=NCC|6029=SUR|6636=N|7693=11866|10=084|
20220107-19:03:09.763077000 : 8=FIX.4.4|9=458|35=AE|49=IFIX-TC-EQ-UAT|56=MU9051500002|34=79|52=20220107-19:03:11.575055407|571=219|828=F|150=F|17=113730395|2|162504|570=N|55=RUB_COMM|236=0.0|32=0|31=0|75=20220107|60=20220107-13:25:04|64=20220110|552=1|54=2|37=28092522318|11=N/A|453=2|448=MC9051500000|447=D|452=1|448=MC0888800000|447=D|452=17|1=NCC+00011866|336=TRAD|625=N|12=0.0|13=3|381=263.78|159=0.0|136=3|137=0.0|139=98|137=0.0|139=4|137=0.0|139=99|1056=0|851=2|5155=NCC|6029=SUR|6636=N|7693=11866|10=087|
20220107-19:03:09.768499000 : 8=FIX.4.4|9=517|35=AE|49=IFIX-TC-EQ-UAT|56=MU9051500002|34=80|52=20220107-19:03:11.575092579|571=220|828=0|150=F|17=113731453|1|205347|570=N|55=AMZN-RM|236=0.0|32=1|31=256414|75=20220107|60=20220107-17:53:47|63=3|64=20220111|552=1|54=1|37=28092528709|11=2076087002/|453=3|448=MC9051500000|447=D|452=1|448=2076087002|447=D|452=3|448=MU9051500001|447=D|452=12|1=L00-000012D8|336=FQBR|625=N|12=25.64|13=3|381=256414.0|159=0.0|136=3|137=10.9|139=98|137=14.74|139=4|137=0.0|139=99|1056=1|851=2|5155=NCC|5459=Y2|6029=SUR|6636=N|7693=11866|10=053|
20220107-19:03:09.775778000 : 8=FIX.4.4|9=517|35=AE|49=IFIX-TC-EQ-UAT|56=MU9051500002|34=81|52=20220107-19:03:11.575129869|571=221|828=0|150=F|17=113731454|1|211106|570=N|55=AMZN-RM|236=0.0|32=1|31=256414|75=20220107|60=20220107-18:11:06|63=3|64=20220111|552=1|54=1|37=28092528710|11=2076087002/|453=3|448=MC9051500000|447=D|452=1|448=2076087002|447=D|452=3|448=MU9051500001|447=D|452=12|1=L00-000012D8|336=FQBR|625=N|12=25.64|13=3|381=256414.0|159=0.0|136=3|137=10.9|139=98|137=14.74|139=4|137=0.0|139=99|1056=1|851=2|5155=NCC|5459=Y2|6029=SUR|6636=N|7693=11866|10=031|
20220107-19:03:09.903951000 : 8=FIX.4.4|9=526|35=AE|49=IFIX-TC-EQ-UAT|56=MU9051500002|34=82|52=20220107-19:03:11.575166531|571=222|828=0|150=F|17=113731455|1|213755|570=N|55=AMZN-RM|236=0.0|32=1|31=256414|75=20220107|60=20220107-18:37:55|63=3|64=20220111|552=1|54=1|37=28092528711|11=jgqjwxdcnsakpwujpciq|453=3|448=MC9051500000|447=D|452=1|448=2076087002|447=D|452=3|448=MU9051500001|447=D|452=12|1=L00-000012D8|336=FQBR|625=N|12=25.64|13=3|381=256414.0|159=0.0|136=3|137=10.9|139=98|137=14.74|139=4|137=0.0|139=99|1056=1|851=2|5155=NCC|5459=Y2|6029=SUR|6636=N|7693=11866|10=129|
20220107-19:13:49.508364000 : 8=FIX.4.4|9=91|35=A|34=36|49=MU9051500002|52=20220107-19:13:49.500|56=IFIX-TC-EQ-UAT|98=0|108=60|554=7020|10=068|
20220107-19:13:52.791835000 : 8=FIX.4.4|9=88|35=A|49=IFIX-TC-EQ-UAT|56=MU9051500002|34=83|52=20220107-19:13:54.734616502|98=0|108=60|10=224|
20220107-19:13:55.677401000 : 8=FIX.4.4|9=141|35=h|49=IFIX-TC-EQ-UAT|56=MU9051500002|34=84|52=20220107-19:13:57.630804579|336=FOND|325=Y|340=101|58=Connection to MICEX market established|10=086|
20220107-19:14:03.718597000 : 8=FIX.4.4|9=517|35=AE|49=IFIX-TC-EQ-UAT|56=MU9051500002|34=85|52=20220107-19:14:05.668077771|571=223|828=0|150=F|17=113722727|1|103700|570=N|55=AMZN-RM|236=0.0|32=1|31=256414|75=20220107|60=20220107-07:37:00|63=3|64=20220111|552=1|54=1|37=28092442643|11=2076087002/|453=3|448=MC9051500000|447=D|452=1|448=2076087002|447=D|452=3|448=MU9051500003|447=D|452=12|1=L00-000012D8|336=FQBR|625=N|12=25.64|13=3|381=256414.0|159=0.0|136=3|137=10.9|139=98|137=14.74|139=4|137=0.0|139=99|1056=1|851=2|5155=NCC|5459=Y2|6029=SUR|6636=N|7693=11866|10=044|
20220107-19:14:03.728716000 : 8=FIX.4.4|9=526|35=AE|49=IFIX-TC-EQ-UAT|56=MU9051500002|34=86|52=20220107-19:14:05.668210607|571=224|828=0|150=F|17=113723093|1|105315|570=N|55=AMZN-RM|236=0.0|32=1|31=256414|75=20220107|60=20220107-07:53:15|63=3|64=20220111|552=1|54=1|37=28092446529|11=plomcxldlkqbvekgxlco|453=3|448=MC9051500000|447=D|452=1|448=2076087002|447=D|452=3|448=MU9051500001|447=D|452=12|1=L00-000012D8|336=FQBR|625=N|12=25.64|13=3|381=256414.0|159=0.0|136=3|137=10.9|139=98|137=14.74|139=4|137=0.0|139=99|1056=1|851=2|5155=NCC|5459=Y2|6029=SUR|6636=N|7693=11866|10=108|
20220107-19:14:03.735321000 : 8=FIX.4.4|9=527|35=AE|49=IFIX-TC-EQ-UAT|56=MU9051500002|34=87|52=20220107-19:14:05.668250594|571=225|828=0|150=F|17=113723196|1|105741|570=N|55=AMZN-RM|236=0.0|32=1|31=257493|75=20220107|60=20220107-07:57:41|63=3|64=20220111|552=1|54=1|37=28092447639|11=mdrakbomrkzvsfinijlp|453=3|448=MC9051500000|447=D|452=1|448=2076087002|447=D|452=3|448=MU9051500001|447=D|452=12|1=L00-000012D8|336=FQBR|625=N|12=25.75|13=3|381=257493.0|159=0.0|136=3|137=10.94|139=98|137=14.81|139=4|137=0.0|139=99|1056=1|851=2|5155=NCC|5459=Y2|6029=SUR|6636=N|7693=11866|10=210|
20220107-19:14:03.741497000 : 8=FIX.4.4|9=526|35=AE|49=IFIX-TC-EQ-UAT|56=MU9051500002|34=88|52=20220107-19:14:05.668358888|571=226|828=0|150=F|17=113723447|1|110807|570=N|55=AMZN-RM|236=0.0|32=1|31=256414|75=20220107|60=20220107-08:08:07|63=3|64=20220111|552=1|54=1|37=28092450261|11=mtfrgystwkrkmhabdtfe|453=3|448=MC9051500000|447=D|452=1|448=2076087002|447=D|452=3|448=MU9051500001|447=D|452=12|1=L00-000012D8|336=FQBR|625=N|12=25.64|13=3|381=256414.0|159=0.0|136=3|137=10.9|139=98|137=14.74|139=4|137=0.0|139=99|1056=1|851=2|5155=NCC|5459=Y2|6029=SUR|6636=N|7693=11866|10=141|
20220107-19:14:03.748767000 : 8=FIX.4.4|9=527|35=AE|49=IFIX-TC-EQ-UAT|56=MU9051500002|34=89|52=20220107-19:14:05.668404962|571=227|828=0|150=F|17=113723517|1|111005|570=N|55=AMZN-RM|236=0.0|32=1|31=256953|75=20220107|60=20220107-08:10:05|63=3|64=20220111|552=1|54=1|37=28092450751|11=myxncjourirqogaclcnv|453=3|448=MC9051500000|447=D|452=1|448=2076087002|447=D|452=3|448=MU9051500001|447=D|452=12|1=L00-000012D8|336=FQBR|625=N|12=25.69|13=3|381=256953.0|159=0.0|136=3|137=10.92|139=98|137=14.77|139=4|137=0.0|139=99|1056=1|851=2|5155=NCC|5459=Y2|6029=SUR|6636=N|7693=11866|10=201|
20220107-19:14:03.755738000 : 8=FIX.4.4|9=527|35=AE|49=IFIX-TC-EQ-UAT|56=MU9051500002|34=90|52=20220107-19:14:05.668460015|571=228|828=0|150=F|17=113723569|1|111234|570=N|55=AMZN-RM|236=0.0|32=1|31=257493|75=20220107|60=20220107-08:12:34|63=3|64=20220111|552=1|54=1|37=28092451363|11=jmjfuvnaxphsxjxhweor|453=3|448=MC9051500000|447=D|452=1|448=2076087002|447=D|452=3|448=MU9051500001|447=D|452=12|1=L00-000012D8|336=FQBR|625=N|12=25.75|13=3|381=257493.0|159=0.0|136=3|137=10.94|139=98|137=14.81|139=4|137=0.0|139=99|1056=1|851=2|5155=NCC|5459=Y2|6029=SUR|6636=N|7693=11866|10=221|
20220107-19:14:03.762607000 : 8=FIX.4.4|9=527|35=AE|49=IFIX-TC-EQ-UAT|56=MU9051500002|34=91|52=20220107-19:14:05.668501541|571=229|828=0|150=F|17=113723625|1|111429|570=N|55=AMZN-RM|236=0.0|32=1|31=256953|75=20220107|60=20220107-08:14:29|63=3|64=20220111|552=1|54=1|37=28092451840|11=plljwlrwnbmhptnmfmpl|453=3|448=MC9051500000|447=D|452=1|448=2076087002|447=D|452=3|448=MU9051500001|447=D|452=12|1=L00-000012D8|336=FQBR|625=N|12=25.69|13=3|381=256953.0|159=0.0|136=3|137=10.92|139=98|137=14.77|139=4|137=0.0|139=99|1056=1|851=2|5155=NCC|5459=Y2|6029=SUR|6636=N|7693=11866|10=216|
20220107-19:14:03.768900000 : 8=FIX.4.4|9=526|35=AE|49=IFIX-TC-EQ-UAT|56=MU9051500002|34=92|52=20220107-19:14:05.668541720|571=230|828=0|150=F|17=113723662|1|111535|570=N|55=AMZN-RM|236=0.0|32=1|31=256414|75=20220107|60=20220107-08:15:35|63=3|64=20220111|552=1|54=1|37=28092452116|11=soixmkxfzvwsvosuryue|453=3|448=MC9051500000|447=D|452=1|448=2076087002|447=D|452=3|448=MU9051500001|447=D|452=12|1=L00-000012D8|336=FQBR|625=N|12=25.64|13=3|381=256414.0|159=0.0|136=3|137=10.9|139=98|137=14.74|139=4|137=0.0|139=99|1056=1|851=2|5155=NCC|5459=Y2|6029=SUR|6636=N|7693=11866|10=215|
20220107-19:14:03.776032000 : 8=FIX.4.4|9=527|35=AE|49=IFIX-TC-EQ-UAT|56=MU9051500002|34=93|52=20220107-19:14:05.668586812|571=231|828=0|150=F|17=113723689|1|111638|570=N|55=AMZN-RM|236=0.0|32=1|31=257493|75=20220107|60=20220107-08:16:38|63=3|64=20220111|552=1|54=1|37=28092452377|11=yeuliklwcgylpjpplzki|453=3|448=MC9051500000|447=D|452=1|448=2076087002|447=D|452=3|448=MU9051500001|447=D|452=12|1=L00-000012D8|336=FQBR|625=N|12=25.75|13=3|381=257493.0|159=0.0|136=3|137=10.94|139=98|137=14.81|139=4|137=0.0|139=99|1056=1|851=2|5155=NCC|5459=Y2|6029=SUR|6636=N|7693=11866|10=247|
20220107-19:14:03.782186000 : 8=FIX.4.4|9=526|35=AE|49=IFIX-TC-EQ-UAT|56=MU9051500002|34=94|52=20220107-19:14:05.668626509|571=232|828=0|150=F|17=113723723|1|111742|570=N|55=AMZN-RM|236=0.0|32=1|31=256414|75=20220107|60=20220107-08:17:42|63=3|64=20220111|552=1|54=1|37=28092452646|11=ewvbgrlwujxsslkybqwh|453=3|448=MC9051500000|447=D|452=1|448=2076087002|447=D|452=3|448=MU9051500001|447=D|452=12|1=L00-000012D8|336=FQBR|625=N|12=25.64|13=3|381=256414.0|159=0.0|136=3|137=10.9|139=98|137=14.74|139=4|137=0.0|139=99|1056=1|851=2|5155=NCC|5459=Y2|6029=SUR|6636=N|7693=11866|10=180|
20220107-19:14:03.788336000 : 8=FIX.4.4|9=527|35=AE|49=IFIX-TC-EQ-UAT|56=MU9051500002|34=95|52=20220107-19:14:05.668673135|571=233|828=0|150=F|17=113723808|1|112121|570=N|55=AMZN-RM|236=0.0|32=1|31=257493|75=20220107|60=20220107-08:21:21|63=3|64=20220111|552=1|54=1|37=28092453531|11=wuveoovbuicphwknjzqq|453=3|448=MC9051500000|447=D|452=1|448=2076087002|447=D|452=3|448=MU9051500001|447=D|452=12|1=L00-000012D8|336=FQBR|625=N|12=25.75|13=3|381=257493.0|159=0.0|136=3|137=10.94|139=98|137=14.81|139=4|137=0.0|139=99|1056=1|851=2|5155=NCC|5459=Y2|6029=SUR|6636=N|7693=11866|10=227|
20220107-19:14:03.797379000 : 8=FIX.4.4|9=527|35=AE|49=IFIX-TC-EQ-UAT|56=MU9051500002|34=96|52=20220107-19:14:05.668717264|571=234|828=0|150=F|17=113723856|1|112311|570=N|55=AMZN-RM|236=0.0|32=1|31=256953|75=20220107|60=20220107-08:23:11|63=3|64=20220111|552=1|54=1|37=28092453999|11=lorcculqqlghzdfyxkrg|453=3|448=MC9051500000|447=D|452=1|448=2076087002|447=D|452=3|448=MU9051500001|447=D|452=12|1=L00-000012D8|336=FQBR|625=N|12=25.69|13=3|381=256953.0|159=0.0|136=3|137=10.92|139=98|137=14.77|139=4|137=0.0|139=99|1056=1|851=2|5155=NCC|5459=Y2|6029=SUR|6636=N|7693=11866|10=226|
20220107-19:14:03.805300000 : 8=FIX.4.4|9=527|35=AE|49=IFIX-TC-EQ-UAT|56=MU9051500002|34=97|52=20220107-19:14:05.668757542|571=235|828=0|150=F|17=113724023|1|113036|570=N|55=AMZN-RM|236=0.0|32=1|31=256953|75=20220107|60=20220107-08:30:36|63=3|64=20220111|552=1|54=1|37=28092455907|11=xmytaknqbtbwzpgmgzen|453=3|448=MC9051500000|447=D|452=1|448=2076087002|447=D|452=3|448=MU9051500001|447=D|452=12|1=L00-000012D8|336=FQBR|625=N|12=25.69|13=3|381=256953.0|159=0.0|136=3|137=10.92|139=98|137=14.77|139=4|137=0.0|139=99|1056=1|851=2|5155=NCC|5459=Y2|6029=SUR|6636=N|7693=11866|10=239|
20220107-19:14:03.811559000 : 8=FIX.4.4|9=526|35=AE|49=IFIX-TC-EQ-UAT|56=MU9051500002|34=98|52=20220107-19:14:05.668794415|571=236|828=0|150=F|17=113724617|1|115644|570=N|55=AMZN-RM|236=0.0|32=1|31=256414|75=20220107|60=20220107-08:56:44|63=3|64=20220111|552=1|54=1|37=28092463662|11=fdzqhrkuamxyervwajva|453=3|448=MC9051500000|447=D|452=1|448=2076087002|447=D|452=3|448=MU9051500001|447=D|452=12|1=L00-000012D8|336=FQBR|625=N|12=25.64|13=3|381=256414.0|159=0.0|136=3|137=10.9|139=98|137=14.74|139=4|137=0.0|139=99|1056=1|851=2|5155=NCC|5459=Y2|6029=SUR|6636=N|7693=11866|10=176|
20220107-19:14:03.821368000 : 8=FIX.4.4|9=527|35=AE|49=IFIX-TC-EQ-UAT|56=MU9051500002|34=99|52=20220107-19:14:05.668831224|571=237|828=0|150=F|17=113724700|1|120011|570=N|55=AMZN-RM|236=0.0|32=1|31=257493|75=20220107|60=20220107-09:00:11|63=3|64=20220111|552=1|54=1|37=28092464650|11=vsptabgablsetcpgnufw|453=3|448=MC9051500000|447=D|452=1|448=2076087002|447=D|452=3|448=MU9051500001|447=D|452=12|1=L00-000012D8|336=FQBR|625=N|12=25.75|13=3|381=257493.0|159=0.0|136=3|137=10.94|139=98|137=14.81|139=4|137=0.0|139=99|1056=1|851=2|5155=NCC|5459=Y2|6029=SUR|6636=N|7693=11866|10=156|
20220107-19:14:03.828352000 : 8=FIX.4.4|9=528|35=AE|49=IFIX-TC-EQ-UAT|56=MU9051500002|34=100|52=20220107-19:14:05.668868245|571=238|828=0|150=F|17=113724718|2|120039|570=N|55=AMZN-RM|236=0.0|32=1|31=245084|75=20220107|60=20220107-09:00:39|63=3|64=20220111|552=1|54=2|37=28092464793|11=kslhoxlvkangcvmmryle|453=3|448=MC9051500000|447=D|452=1|448=2076087002|447=D|452=3|448=MU9051500001|447=D|452=12|1=L00-000012D8|336=FQBR|625=N|12=24.51|13=3|381=245084.0|159=0.0|136=3|137=10.42|139=98|137=14.09|139=4|137=0.0|139=99|1056=1|851=2|5155=NCC|5459=Y2|6029=SUR|6636=N|7693=11866|10=244|
20220107-19:14:03.835603000 : 8=FIX.4.4|9=528|35=AE|49=IFIX-TC-EQ-UAT|56=MU9051500002|34=101|52=20220107-19:14:05.668905445|571=239|828=0|150=F|17=113724823|2|120443|570=N|55=AMZN-RM|236=0.0|32=1|31=244545|75=20220107|60=20220107-09:04:43|63=3|64=20220111|552=1|54=2|37=28092465967|11=fppbeaiiqyyazclbvqhe|453=3|448=MC9051500000|447=D|452=1|448=2076087002|447=D|452=3|448=MU9051500001|447=D|452=12|1=L00-000012D8|336=FQBR|625=N|12=24.45|13=3|381=244545.0|159=0.0|136=3|137=10.39|139=98|137=14.06|139=4|137=0.0|139=99|1056=1|851=2|5155=NCC|5459=Y2|6029=SUR|6636=N|7693=11866|10=207|
20220107-19:14:03.841180000 : 8=FIX.4.4|9=528|35=AE|49=IFIX-TC-EQ-UAT|56=MU9051500002|34=102|52=20220107-19:14:05.668950043|571=240|828=0|150=F|17=113724925|2|120744|570=N|55=AMZN-RM|236=0.0|32=1|31=244545|75=20220107|60=20220107-09:07:44|63=3|64=20220111|552=1|54=2|37=28092466847|11=hqfrtvzrwfokfazfqiwy|453=3|448=MC9051500000|447=D|452=1|448=2076087002|447=D|452=3|448=MU9051500001|447=D|452=12|1=L00-000012D8|336=FQBR|625=N|12=24.45|13=3|381=244545.0|159=0.0|136=3|137=10.39|139=98|137=14.06|139=4|137=0.0|139=99|1056=1|851=2|5155=NCC|5459=Y2|6029=SUR|6636=N|7693=11866|10=023|
20220107-19:14:03.848369000 : 8=FIX.4.4|9=459|35=AE|49=IFIX-TC-EQ-UAT|56=MU9051500002|34=103|52=20220107-19:14:05.668988836|571=241|828=F|150=F|17=113730394|2|162504|570=N|55=RUB_COMM|236=0.0|32=0|31=0|75=20220107|60=20220107-13:25:04|64=20220110|552=1|54=2|37=28092522316|11=N/A|453=2|448=MC9051500000|447=D|452=1|448=MC0888800000|447=D|452=17|1=NCC+00011866|336=TRAD|625=N|12=0.0|13=3|381=194.98|159=0.0|136=3|137=0.0|139=98|137=0.0|139=4|137=0.0|139=99|1056=0|851=2|5155=NCC|6029=SUR|6636=N|7693=11866|10=150|
20220107-19:14:03.854628000 : 8=FIX.4.4|9=459|35=AE|49=IFIX-TC-EQ-UAT|56=MU9051500002|34=104|52=20220107-19:14:05.669025759|571=242|828=F|150=F|17=113730395|2|162504|570=N|55=RUB_COMM|236=0.0|32=0|31=0|75=20220107|60=20220107-13:25:04|64=20220110|552=1|54=2|37=28092522318|11=N/A|453=2|448=MC9051500000|447=D|452=1|448=MC0888800000|447=D|452=17|1=NCC+00011866|336=TRAD|625=N|12=0.0|13=3|381=263.78|159=0.0|136=3|137=0.0|139=98|137=0.0|139=4|137=0.0|139=99|1056=0|851=2|5155=NCC|6029=SUR|6636=N|7693=11866|10=137|
20220107-19:14:03.860858000 : 8=FIX.4.4|9=518|35=AE|49=IFIX-TC-EQ-UAT|56=MU9051500002|34=105|52=20220107-19:14:05.669063701|571=243|828=0|150=F|17=113731453|1|205347|570=N|55=AMZN-RM|236=0.0|32=1|31=256414|75=20220107|60=20220107-17:53:47|63=3|64=20220111|552=1|54=1|37=28092528709|11=2076087002/|453=3|448=MC9051500000|447=D|452=1|448=2076087002|447=D|452=3|448=MU9051500001|447=D|452=12|1=L00-000012D8|336=FQBR|625=N|12=25.64|13=3|381=256414.0|159=0.0|136=3|137=10.9|139=98|137=14.74|139=4|137=0.0|139=99|1056=1|851=2|5155=NCC|5459=Y2|6029=SUR|6636=N|7693=11866|10=099|
20220107-19:14:03.867882000 : 8=FIX.4.4|9=518|35=AE|49=IFIX-TC-EQ-UAT|56=MU9051500002|34=106|52=20220107-19:14:05.669100883|571=244|828=0|150=F|17=113731454|1|211106|570=N|55=AMZN-RM|236=0.0|32=1|31=256414|75=20220107|60=20220107-18:11:06|63=3|64=20220111|552=1|54=1|37=28092528710|11=2076087002/|453=3|448=MC9051500000|447=D|452=1|448=2076087002|447=D|452=3|448=MU9051500001|447=D|452=12|1=L00-000012D8|336=FQBR|625=N|12=25.64|13=3|381=256414.0|159=0.0|136=3|137=10.9|139=98|137=14.74|139=4|137=0.0|139=99|1056=1|851=2|5155=NCC|5459=Y2|6029=SUR|6636=N|7693=11866|10=077|
20220107-19:14:03.996913000 : 8=FIX.4.4|9=527|35=AE|49=IFIX-TC-EQ-UAT|56=MU9051500002|34=107|52=20220107-19:14:05.669137887|571=245|828=0|150=F|17=113731455|1|213755|570=N|55=AMZN-RM|236=0.0|32=1|31=256414|75=20220107|60=20220107-18:37:55|63=3|64=20220111|552=1|54=1|37=28092528711|11=jgqjwxdcnsakpwujpciq|453=3|448=MC9051500000|447=D|452=1|448=2076087002|447=D|452=3|448=MU9051500001|447=D|452=12|1=L00-000012D8|336=FQBR|625=N|12=25.64|13=3|381=256414.0|159=0.0|136=3|137=10.9|139=98|137=14.74|139=4|137=0.0|139=99|1056=1|851=2|5155=NCC|5459=Y2|6029=SUR|6636=N|7693=11866|10=202|
20220107-19:14:18.355004000 : 8=FIX.4.4|9=527|35=AE|49=IFIX-TC-EQ-UAT|56=MU9051500002|34=108|52=20220107-19:14:20.308604947|571=246|828=0|150=F|17=113731456|1|221420|570=N|55=AMZN-RM|236=0.0|32=1|31=256414|75=20220107|60=20220107-19:14:20|63=3|64=20220111|552=1|54=1|37=28092528712|11=flzixeirzyislaohxqzx|453=3|448=MC9051500000|447=D|452=1|448=2076087002|447=D|452=3|448=MU9051500001|447=D|452=12|1=L00-000012D8|336=FQBR|625=N|12=25.64|13=3|381=256414.0|159=0.0|136=3|137=10.9|139=98|137=14.74|139=4|137=0.0|139=99|1056=1|851=2|5155=NCC|5459=Y2|6029=SUR|6636=N|7693=11866|10=222|
20220107-19:14:49.637001000 : 8=FIX.4.4|9=70|35=0|34=37|49=MU9051500002|52=20220107-19:14:49.636|56=IFIX-TC-EQ-UAT|10=123|
20220107-19:15:17.787249000 : 8=FIX.4.4|9=77|35=0|49=IFIX-TC-EQ-UAT|56=MU9051500002|34=109|52=20220107-19:15:19.740764072|10=230|
20220107-19:15:49.187739000 : 8=FIX.4.4|9=70|35=0|34=38|49=MU9051500002|52=20220107-19:15:49.187|56=IFIX-TC-EQ-UAT|10=126|
20220107-19:16:17.844608000 : 8=FIX.4.4|9=77|35=0|49=IFIX-TC-EQ-UAT|56=MU9051500002|34=110|52=20220107-19:16:19.798406077|10=234|
20220107-19:16:49.279035000 : 8=FIX.4.4|9=70|35=0|34=39|49=MU9051500002|52=20220107-19:16:49.278|56=IFIX-TC-EQ-UAT|10=129|
20220107-19:17:19.623104000 : 8=FIX.4.4|9=77|35=0|49=IFIX-TC-EQ-UAT|56=MU9051500002|34=111|52=20220107-19:17:21.572874522|10=223|
20220107-19:17:49.009992000 : 8=FIX.4.4|9=70|35=0|34=40|49=MU9051500002|52=20220107-19:17:49.009|56=IFIX-TC-EQ-UAT|10=114|
20220107-19:18:19.623063000 : 8=FIX.4.4|9=77|35=0|49=IFIX-TC-EQ-UAT|56=MU9051500002|34=112|52=20220107-19:18:21.576367572|10=231|
20220107-19:18:49.343623000 : 8=FIX.4.4|9=70|35=0|34=41|49=MU9051500002|52=20220107-19:18:49.342|56=IFIX-TC-EQ-UAT|10=116|
20220107-19:19:25.643274000 : 8=FIX.4.4|9=91|35=A|34=42|49=MU9051500002|52=20220107-19:19:25.632|56=IFIX-TC-EQ-UAT|98=0|108=60|554=7020|10=071|
20220107-19:19:28.822046000 : 8=FIX.4.4|9=89|35=A|49=IFIX-TC-EQ-UAT|56=MU9051500002|34=113|52=20220107-19:19:30.772649759|98=0|108=60|10=033|
20220107-19:19:31.708974000 : 8=FIX.4.4|9=142|35=h|49=IFIX-TC-EQ-UAT|56=MU9051500002|34=114|52=20220107-19:19:33.661663616|336=FOND|325=Y|340=101|58=Connection to MICEX market established|10=128|
20220107-19:19:38.696096000 : 8=FIX.4.4|9=518|35=AE|49=IFIX-TC-EQ-UAT|56=MU9051500002|34=115|52=20220107-19:19:40.646633000|571=271|828=0|150=F|17=113722727|1|103700|570=N|55=AMZN-RM|236=0.0|32=1|31=256414|75=20220107|60=20220107-07:37:00|63=3|64=20220111|552=1|54=1|37=28092442643|11=2076087002/|453=3|448=MC9051500000|447=D|452=1|448=2076087002|447=D|452=3|448=MU9051500003|447=D|452=12|1=L00-000012D8|336=FQBR|625=N|12=25.64|13=3|381=256414.0|159=0.0|136=3|137=10.9|139=98|137=14.74|139=4|137=0.0|139=99|1056=1|851=2|5155=NCC|5459=Y2|6029=SUR|6636=N|7693=11866|10=073|
20220107-19:19:38.705943000 : 8=FIX.4.4|9=527|35=AE|49=IFIX-TC-EQ-UAT|56=MU9051500002|34=116|52=20220107-19:19:40.646730896|571=272|828=0|150=F|17=113723093|1|105315|570=N|55=AMZN-RM|236=0.0|32=1|31=256414|75=20220107|60=20220107-07:53:15|63=3|64=20220111|552=1|54=1|37=28092446529|11=plomcxldlkqbvekgxlco|453=3|448=MC9051500000|447=D|452=1|448=2076087002|447=D|452=3|448=MU9051500001|447=D|452=12|1=L00-000012D8|336=FQBR|625=N|12=25.64|13=3|381=256414.0|159=0.0|136=3|137=10.9|139=98|137=14.74|139=4|137=0.0|139=99|1056=1|851=2|5155=NCC|5459=Y2|6029=SUR|6636=N|7693=11866|10=171|
20220107-19:19:38.711868000 : 8=FIX.4.4|9=528|35=AE|49=IFIX-TC-EQ-UAT|56=MU9051500002|34=117|52=20220107-19:19:40.646797547|571=273|828=0|150=F|17=113723196|1|105741|570=N|55=AMZN-RM|236=0.0|32=1|31=257493|75=20220107|60=20220107-07:57:41|63=3|64=20220111|552=1|54=1|37=28092447639|11=mdrakbomrkzvsfinijlp|453=3|448=MC9051500000|447=D|452=1|448=2076087002|447=D|452=3|448=MU9051500001|447=D|452=12|1=L00-000012D8|336=FQBR|625=N|12=25.75|13=3|381=257493.0|159=0.0|136=3|137=10.94|139=98|137=14.81|139=4|137=0.0|139=99|1056=1|851=2|5155=NCC|5459=Y2|6029=SUR|6636=N|7693=11866|10=014|
20220107-19:19:38.719529000 : 8=FIX.4.4|9=527|35=AE|49=IFIX-TC-EQ-UAT|56=MU9051500002|34=118|52=20220107-19:19:40.646839642|571=274|828=0|150=F|17=113723447|1|110807|570=N|55=AMZN-RM|236=0.0|32=1|31=256414|75=20220107|60=20220107-08:08:07|63=3|64=20220111|552=1|54=1|37=28092450261|11=mtfrgystwkrkmhabdtfe|453=3|448=MC9051500000|447=D|452=1|448=2076087002|447=D|452=3|448=MU9051500001|447=D|452=12|1=L00-000012D8|336=FQBR|625=N|12=25.64|13=3|381=256414.0|159=0.0|136=3|137=10.9|139=98|137=14.74|139=4|137=0.0|139=99|1056=1|851=2|5155=NCC|5459=Y2|6029=SUR|6636=N|7693=11866|10=179|
20220107-19:19:38.728039000 : 8=FIX.4.4|9=528|35=AE|49=IFIX-TC-EQ-UAT|56=MU9051500002|34=119|52=20220107-19:19:40.646879803|571=275|828=0|150=F|17=113723517|1|111005|570=N|55=AMZN-RM|236=0.0|32=1|31=256953|75=20220107|60=20220107-08:10:05|63=3|64=20220111|552=1|54=1|37=28092450751|11=myxncjourirqogaclcnv|453=3|448=MC9051500000|447=D|452=1|448=2076087002|447=D|452=3|448=MU9051500001|447=D|452=12|1=L00-000012D8|336=FQBR|625=N|12=25.69|13=3|381=256953.0|159=0.0|136=3|137=10.92|139=98|137=14.77|139=4|137=0.0|139=99|1056=1|851=2|5155=NCC|5459=Y2|6029=SUR|6636=N|7693=11866|10=001|
20220107-19:19:38.733802000 : 8=FIX.4.4|9=528|35=AE|49=IFIX-TC-EQ-UAT|56=MU9051500002|34=120|52=20220107-19:19:40.646918667|571=276|828=0|150=F|17=113723569|1|111234|570=N|55=AMZN-RM|236=0.0|32=1|31=257493|75=20220107|60=20220107-08:12:34|63=3|64=20220111|552=1|54=1|37=28092451363|11=jmjfuvnaxphsxjxhweor|453=3|448=MC9051500000|447=D|452=1|448=2076087002|447=D|452=3|448=MU9051500001|447=D|452=12|1=L00-000012D8|336=FQBR|625=N|12=25.75|13=3|381=257493.0|159=0.0|136=3|137=10.94|139=98|137=14.81|139=4|137=0.0|139=99|1056=1|851=2|5155=NCC|5459=Y2|6029=SUR|6636=N|7693=11866|10=032|
20220107-19:19:38.739892000 : 8=FIX.4.4|9=528|35=AE|49=IFIX-TC-EQ-UAT|56=MU9051500002|34=121|52=20220107-19:19:40.647015781|571=277|828=0|150=F|17=113723625|1|111429|570=N|55=AMZN-RM|236=0.0|32=1|31=256953|75=20220107|60=20220107-08:14:29|63=3|64=20220111|552=1|54=1|37=28092451840|11=plljwlrwnbmhptnmfmpl|453=3|448=MC9051500000|447=D|452=1|448=2076087002|447=D|452=3|448=MU9051500001|447=D|452=12|1=L00-000012D8|336=FQBR|625=N|12=25.69|13=3|381=256953.0|159=0.0|136=3|137=10.92|139=98|137=14.77|139=4|137=0.0|139=99|1056=1|851=2|5155=NCC|5459=Y2|6029=SUR|6636=N|7693=11866|10=013|
20220107-19:19:38.748787000 : 8=FIX.4.4|9=527|35=AE|49=IFIX-TC-EQ-UAT|56=MU9051500002|34=122|52=20220107-19:19:40.647055969|571=278|828=0|150=F|17=113723662|1|111535|570=N|55=AMZN-RM|236=0.0|32=1|31=256414|75=20220107|60=20220107-08:15:35|63=3|64=20220111|552=1|54=1|37=28092452116|11=soixmkxfzvwsvosuryue|453=3|448=MC9051500000|447=D|452=1|448=2076087002|447=D|452=3|448=MU9051500001|447=D|452=12|1=L00-000012D8|336=FQBR|625=N|12=25.64|13=3|381=256414.0|159=0.0|136=3|137=10.9|139=98|137=14.74|139=4|137=0.0|139=99|1056=1|851=2|5155=NCC|5459=Y2|6029=SUR|6636=N|7693=11866|10=030|
20220107-19:19:38.757120000 : 8=FIX.4.4|9=528|35=AE|49=IFIX-TC-EQ-UAT|56=MU9051500002|34=123|52=20220107-19:19:40.647093733|571=279|828=0|150=F|17=113723689|1|111638|570=N|55=AMZN-RM|236=0.0|32=1|31=257493|75=20220107|60=20220107-08:16:38|63=3|64=20220111|552=1|54=1|37=28092452377|11=yeuliklwcgylpjpplzki|453=3|448=MC9051500000|447=D|452=1|448=2076087002|447=D|452=3|448=MU9051500001|447=D|452=12|1=L00-000012D8|336=FQBR|625=N|12=25.75|13=3|381=257493.0|159=0.0|136=3|137=10.94|139=98|137=14.81|139=4|137=0.0|139=99|1056=1|851=2|5155=NCC|5459=Y2|6029=SUR|6636=N|7693=11866|10=042|
20220107-19:19:38.763442000 : 8=FIX.4.4|9=527|35=AE|49=IFIX-TC-EQ-UAT|56=MU9051500002|34=124|52=20220107-19:19:40.647135250|571=280|828=0|150=F|17=113723723|1|111742|570=N|55=AMZN-RM|236=0.0|32=1|31=256414|75=20220107|60=20220107-08:17:42|63=3|64=20220111|552=1|54=1|37=28092452646|11=ewvbgrlwujxsslkybqwh|453=3|448=MC9051500000|447=D|452=1|448=2076087002|447=D|452=3|448=MU9051500001|447=D|452=12|1=L00-000012D8|336=FQBR|625=N|12=25.64|13=3|381=256414.0|159=0.0|136=3|137=10.9|139=98|137=14.74|139=4|137=0.0|139=99|1056=1|851=2|5155=NCC|5459=Y2|6029=SUR|6636=N|7693=11866|10=215|
20220107-19:19:38.769280000 : 8=FIX.4.4|9=528|35=AE|49=IFIX-TC-EQ-UAT|56=MU9051500002|34=125|52=20220107-19:19:40.647177005|571=281|828=0|150=F|17=113723808|1|112121|570=N|55=AMZN-RM|236=0.0|32=1|31=257493|75=20220107|60=20220107-08:21:21|63=3|64=20220111|552=1|54=1|37=28092453531|11=wuveoovbuicphwknjzqq|453=3|448=MC9051500000|447=D|452=1|448=2076087002|447=D|452=3|448=MU9051500001|447=D|452=12|1=L00-000012D8|336=FQBR|625=N|12=25.75|13=3|381=257493.0|159=0.0|136=3|137=10.94|139=98|137=14.81|139=4|137=0.0|139=99|1056=1|851=2|5155=NCC|5459=Y2|6029=SUR|6636=N|7693=11866|10=013|
20220107-19:19:38.776923000 : 8=FIX.4.4|9=528|35=AE|49=IFIX-TC-EQ-UAT|56=MU9051500002|34=126|52=20220107-19:19:40.647215070|571=282|828=0|150=F|17=113723856|1|112311|570=N|55=AMZN-RM|236=0.0|32=1|31=256953|75=20220107|60=20220107-08:23:11|63=3|64=20220111|552=1|54=1|37=28092453999|11=lorcculqqlghzdfyxkrg|453=3|448=MC9051500000|447=D|452=1|448=2076087002|447=D|452=3|448=MU9051500001|447=D|452=12|1=L00-000012D8|336=FQBR|625=N|12=25.69|13=3|381=256953.0|159=0.0|136=3|137=10.92|139=98|137=14.77|139=4|137=0.0|139=99|1056=1|851=2|5155=NCC|5459=Y2|6029=SUR|6636=N|7693=11866|10=005|
20220107-19:19:38.784065000 : 8=FIX.4.4|9=528|35=AE|49=IFIX-TC-EQ-UAT|56=MU9051500002|34=127|52=20220107-19:19:40.647251978|571=283|828=0|150=F|17=113724023|1|113036|570=N|55=AMZN-RM|236=0.0|32=1|31=256953|75=20220107|60=20220107-08:30:36|63=3|64=20220111|552=1|54=1|37=28092455907|11=xmytaknqbtbwzpgmgzen|453=3|448=MC9051500000|447=D|452=1|448=2076087002|447=D|452=3|448=MU9051500001|447=D|452=12|1=L00-000012D8|336=FQBR|625=N|12=25.69|13=3|381=256953.0|159=0.0|136=3|137=10.92|139=98|137=14.77|139=4|137=0.0|139=99|1056=1|851=2|5155=NCC|5459=Y2|6029=SUR|6636=N|7693=11866|10=032|
20220107-19:19:38.792723000 : 8=FIX.4.4|9=527|35=AE|49=IFIX-TC-EQ-UAT|56=MU9051500002|34=128|52=20220107-19:19:40.647295354|571=284|828=0|150=F|17=113724617|1|115644|570=N|55=AMZN-RM|236=0.0|32=1|31=256414|75=20220107|60=20220107-08:56:44|63=3|64=20220111|552=1|54=1|37=28092463662|11=fdzqhrkuamxyervwajva|453=3|448=MC9051500000|447=D|452=1|448=2076087002|447=D|452=3|448=MU9051500001|447=D|452=12|1=L00-000012D8|336=FQBR|625=N|12=25.64|13=3|381=256414.0|159=0.0|136=3|137=10.9|139=98|137=14.74|139=4|137=0.0|139=99|1056=1|851=2|5155=NCC|5459=Y2|6029=SUR|6636=N|7693=11866|10=221|
20220107-19:19:38.799435000 : 8=FIX.4.4|9=528|35=AE|49=IFIX-TC-EQ-UAT|56=MU9051500002|34=129|52=20220107-19:19:40.647364574|571=285|828=0|150=F|17=113724700|1|120011|570=N|55=AMZN-RM|236=0.0|32=1|31=257493|75=20220107|60=20220107-09:00:11|63=3|64=20220111|552=1|54=1|37=28092464650|11=vsptabgablsetcpgnufw|453=3|448=MC9051500000|447=D|452=1|448=2076087002|447=D|452=3|448=MU9051500001|447=D|452=12|1=L00-000012D8|336=FQBR|625=N|12=25.75|13=3|381=257493.0|159=0.0|136=3|137=10.94|139=98|137=14.81|139=4|137=0.0|139=99|1056=1|851=2|5155=NCC|5459=Y2|6029=SUR|6636=N|7693=11866|10=212|
20220107-19:19:38.806719000 : 8=FIX.4.4|9=528|35=AE|49=IFIX-TC-EQ-UAT|56=MU9051500002|34=130|52=20220107-19:19:40.647403862|571=286|828=0|150=F|17=113724718|2|120039|570=N|55=AMZN-RM|236=0.0|32=1|31=245084|75=20220107|60=20220107-09:00:39|63=3|64=20220111|552=1|54=2|37=28092464793|11=kslhoxlvkangcvmmryle|453=3|448=MC9051500000|447=D|452=1|448=2076087002|447=D|452=3|448=MU9051500001|447=D|452=12|1=L00-000012D8|336=FQBR|625=N|12=24.51|13=3|381=245084.0|159=0.0|136=3|137=10.42|139=98|137=14.09|139=4|137=0.0|139=99|1056=1|851=2|5155=NCC|5459=Y2|6029=SUR|6636=N|7693=11866|10=241|
20220107-19:19:38.813492000 : 8=FIX.4.4|9=528|35=AE|49=IFIX-TC-EQ-UAT|56=MU9051500002|34=131|52=20220107-19:19:40.647444408|571=287|828=0|150=F|17=113724823|2|120443|570=N|55=AMZN-RM|236=0.0|32=1|31=244545|75=20220107|60=20220107-09:04:43|63=3|64=20220111|552=1|54=2|37=28092465967|11=fppbeaiiqyyazclbvqhe|453=3|448=MC9051500000|447=D|452=1|448=2076087002|447=D|452=3|448=MU9051500001|447=D|452=12|1=L00-000012D8|336=FQBR|625=N|12=24.45|13=3|381=244545.0|159=0.0|136=3|137=10.39|139=98|137=14.06|139=4|137=0.0|139=99|1056=1|851=2|5155=NCC|5459=Y2|6029=SUR|6636=N|7693=11866|10=211|
20220107-19:19:38.822304000 : 8=FIX.4.4|9=528|35=AE|49=IFIX-TC-EQ-UAT|56=MU9051500002|34=132|52=20220107-19:19:40.647482132|571=288|828=0|150=F|17=113724925|2|120744|570=N|55=AMZN-RM|236=0.0|32=1|31=244545|75=20220107|60=20220107-09:07:44|63=3|64=20220111|552=1|54=2|37=28092466847|11=hqfrtvzrwfokfazfqiwy|453=3|448=MC9051500000|447=D|452=1|448=2076087002|447=D|452=3|448=MU9051500001|447=D|452=12|1=L00-000012D8|336=FQBR|625=N|12=24.45|13=3|381=244545.0|159=0.0|136=3|137=10.39|139=98|137=14.06|139=4|137=0.0|139=99|1056=1|851=2|5155=NCC|5459=Y2|6029=SUR|6636=N|7693=11866|10=038|
20220107-19:19:38.829180000 : 8=FIX.4.4|9=459|35=AE|49=IFIX-TC-EQ-UAT|56=MU9051500002|34=133|52=20220107-19:19:40.647521178|571=289|828=F|150=F|17=113730394|2|162504|570=N|55=RUB_COMM|236=0.0|32=0|31=0|75=20220107|60=20220107-13:25:04|64=20220110|552=1|54=2|37=28092522316|11=N/A|453=2|448=MC9051500000|447=D|452=1|448=MC0888800000|447=D|452=17|1=NCC+00011866|336=TRAD|625=N|12=0.0|13=3|381=194.98|159=0.0|136=3|137=0.0|139=98|137=0.0|139=4|137=0.0|139=99|1056=0|851=2|5155=NCC|6029=SUR|6636=N|7693=11866|10=148|
20220107-19:19:38.835959000 : 8=FIX.4.4|9=459|35=AE|49=IFIX-TC-EQ-UAT|56=MU9051500002|34=134|52=20220107-19:19:40.647559254|571=290|828=F|150=F|17=113730395|2|162504|570=N|55=RUB_COMM|236=0.0|32=0|31=0|75=20220107|60=20220107-13:25:04|64=20220110|552=1|54=2|37=28092522318|11=N/A|453=2|448=MC9051500000|447=D|452=1|448=MC0888800000|447=D|452=17|1=NCC+00011866|336=TRAD|625=N|12=0.0|13=3|381=263.78|159=0.0|136=3|137=0.0|139=98|137=0.0|139=4|137=0.0|139=99|1056=0|851=2|5155=NCC|6029=SUR|6636=N|7693=11866|10=145|
20220107-19:19:38.841906000 : 8=FIX.4.4|9=518|35=AE|49=IFIX-TC-EQ-UAT|56=MU9051500002|34=135|52=20220107-19:19:40.647613363|571=291|828=0|150=F|17=113731453|1|205347|570=N|55=AMZN-RM|236=0.0|32=1|31=256414|75=20220107|60=20220107-17:53:47|63=3|64=20220111|552=1|54=1|37=28092528709|11=2076087002/|453=3|448=MC9051500000|447=D|452=1|448=2076087002|447=D|452=3|448=MU9051500001|447=D|452=12|1=L00-000012D8|336=FQBR|625=N|12=25.64|13=3|381=256414.0|159=0.0|136=3|137=10.9|139=98|137=14.74|139=4|137=0.0|139=99|1056=1|851=2|5155=NCC|5459=Y2|6029=SUR|6636=N|7693=11866|10=110|
20220107-19:19:38.976795000 : 8=FIX.4.4|9=518|35=AE|49=IFIX-TC-EQ-UAT|56=MU9051500002|34=136|52=20220107-19:19:40.647652574|571=292|828=0|150=F|17=113731454|1|211106|570=N|55=AMZN-RM|236=0.0|32=1|31=256414|75=20220107|60=20220107-18:11:06|63=3|64=20220111|552=1|54=1|37=28092528710|11=2076087002/|453=3|448=MC9051500000|447=D|452=1|448=2076087002|447=D|452=3|448=MU9051500001|447=D|452=12|1=L00-000012D8|336=FQBR|625=N|12=25.64|13=3|381=256414.0|159=0.0|136=3|137=10.9|139=98|137=14.74|139=4|137=0.0|139=99|1056=1|851=2|5155=NCC|5459=Y2|6029=SUR|6636=N|7693=11866|10=092|
20220107-19:19:38.984598000 : 8=FIX.4.4|9=527|35=AE|49=IFIX-TC-EQ-UAT|56=MU9051500002|34=137|52=20220107-19:19:40.647693681|571=293|828=0|150=F|17=113731455|1|213755|570=N|55=AMZN-RM|236=0.0|32=1|31=256414|75=20220107|60=20220107-18:37:55|63=3|64=20220111|552=1|54=1|37=28092528711|11=jgqjwxdcnsakpwujpciq|453=3|448=MC9051500000|447=D|452=1|448=2076087002|447=D|452=3|448=MU9051500001|447=D|452=12|1=L00-000012D8|336=FQBR|625=N|12=25.64|13=3|381=256414.0|159=0.0|136=3|137=10.9|139=98|137=14.74|139=4|137=0.0|139=99|1056=1|851=2|5155=NCC|5459=Y2|6029=SUR|6636=N|7693=11866|10=207|
20220107-19:19:38.991159000 : 8=FIX.4.4|9=527|35=AE|49=IFIX-TC-EQ-UAT|56=MU9051500002|34=138|52=20220107-19:19:40.647732410|571=294|828=0|150=F|17=113731456|1|221420|570=N|55=AMZN-RM|236=0.0|32=1|31=256414|75=20220107|60=20220107-19:14:20|63=3|64=20220111|552=1|54=1|37=28092528712|11=flzixeirzyislaohxqzx|453=3|448=MC9051500000|447=D|452=1|448=2076087002|447=D|452=3|448=MU9051500001|447=D|452=12|1=L00-000012D8|336=FQBR|625=N|12=25.64|13=3|381=256414.0|159=0.0|136=3|137=10.9|139=98|137=14.74|139=4|137=0.0|139=99|1056=1|851=2|5155=NCC|5459=Y2|6029=SUR|6636=N|7693=11866|10=228|
20220107-19:20:25.033321000 : 8=FIX.4.4|9=70|35=0|34=43|49=MU9051500002|52=20220107-19:20:25.032|56=IFIX-TC-EQ-UAT|10=101|
20220107-19:20:37.832638000 : 8=FIX.4.4|9=77|35=0|49=IFIX-TC-EQ-UAT|56=MU9051500002|34=139|52=20220107-19:20:39.776671716|10=242|
20220107-19:21:25.006637000 : 8=FIX.4.4|9=70|35=0|34=44|49=MU9051500002|52=20220107-19:21:25.006|56=IFIX-TC-EQ-UAT|10=104|
20220107-19:21:37.828192000 : 8=FIX.4.4|9=77|35=0|49=IFIX-TC-EQ-UAT|56=MU9051500002|34=140|52=20220107-19:21:39.780937679|10=243|
20220107-19:22:25.857280000 : 8=FIX.4.4|9=70|35=0|34=45|49=MU9051500002|52=20220107-19:22:25.856|56=IFIX-TC-EQ-UAT|10=119|
20220107-19:22:28.048316000 : 8=FIX.4.4|9=527|35=AE|49=IFIX-TC-EQ-UAT|56=MU9051500002|34=141|52=20220107-19:22:29.999680017|571=295|828=0|150=F|17=113731457|1|222229|570=N|55=AMZN-RM|236=0.0|32=1|31=256414|75=20220107|60=20220107-19:22:29|63=3|64=20220111|552=1|54=1|37=28092528713|11=bjdnihwigyffpyvpdiag|453=3|448=MC9051500000|447=D|452=1|448=2076087002|447=D|452=3|448=MU9051500001|447=D|452=12|1=L00-000012D8|336=FQBR|625=N|12=25.64|13=3|381=256414.0|159=0.0|136=3|137=10.9|139=98|137=14.74|139=4|137=0.0|139=99|1056=1|851=2|5155=NCC|5459=Y2|6029=SUR|6636=N|7693=11866|10=165|
20220107-19:23:25.756804000 : 8=FIX.4.4|9=70|35=0|34=46|49=MU9051500002|52=20220107-19:23:25.755|56=IFIX-TC-EQ-UAT|10=119|
20220107-19:23:27.832323000 : 8=FIX.4.4|9=77|35=0|49=IFIX-TC-EQ-UAT|56=MU9051500002|34=142|52=20220107-19:23:29.784607718|10=238|
20220107-19:24:25.566997000 : 8=FIX.4.4|9=70|35=0|34=47|49=MU9051500002|52=20220107-19:24:25.566|56=IFIX-TC-EQ-UAT|10=121|
20220107-19:24:27.840591000 : 8=FIX.4.4|9=77|35=0|49=IFIX-TC-EQ-UAT|56=MU9051500002|34=143|52=20220107-19:24:29.787810782|10=240|
20220107-19:25:25.759901000 : 8=FIX.4.4|9=70|35=0|34=48|49=MU9051500002|52=20220107-19:25:25.548|56=IFIX-TC-EQ-UAT|10=123|
20220107-19:25:27.843862000 : 8=FIX.4.4|9=77|35=0|49=IFIX-TC-EQ-UAT|56=MU9051500002|34=144|52=20220107-19:25:29.791985742|10=246|
20220107-19:26:25.849684000 : 8=FIX.4.4|9=70|35=0|34=49|49=MU9051500002|52=20220107-19:26:25.848|56=IFIX-TC-EQ-UAT|10=128|
20220107-19:26:27.841973000 : 8=FIX.4.4|9=77|35=0|49=IFIX-TC-EQ-UAT|56=MU9051500002|34=145|52=20220107-19:26:29.796146096|10=244|
20220107-19:27:25.660045000 : 8=FIX.4.4|9=70|35=0|34=50|49=MU9051500002|52=20220107-19:27:25.658|56=IFIX-TC-EQ-UAT|10=120|
20220107-19:27:27.852537000 : 8=FIX.4.4|9=77|35=0|49=IFIX-TC-EQ-UAT|56=MU9051500002|34=146|52=20220107-19:27:29.800462024|10=224|
20220107-19:28:14.477155000 : 8=FIX.4.4|9=70|35=5|34=51|49=MU9051500002|52=20220107-19:28:14.465|56=IFIX-TC-EQ-UAT|10=121|
20220107-19:28:14.758923000 : 8=FIX.4.4|9=103|35=5|49=IFIX-TC-EQ-UAT|56=MU9051500002|34=147|52=20220107-19:28:16.711466461|58=The confirming Logout.|10=243|
