20220106-06:36:43.719471000 : 8=FIX.4.4|9=87|35=A|34=1|49=MU9051500001|52=20220106-06:36:43.708|56=IFIX-EQ-UAT|554=7020|98=0|108=60|10=080|
20220106-06:36:45.980680000 : 8=FIX.4.4|9=84|35=A|49=IFIX-EQ-UAT|56=MU9051500001|34=1|52=20220106-06:36:46.921954128|98=0|108=60|10=229|
20220106-06:37:43.341450000 : 8=FIX.4.4|9=66|35=0|34=2|49=MU9051500001|52=20220106-06:37:43.323|56=IFIX-EQ-UAT|10=118|
20220106-06:37:57.388500000 : 8=FIX.4.4|9=75|35=1|34=3|49=MU9051500001|52=20220106-06:37:57.372|56=IFIX-EQ-UAT|112=TEST|10=147|
20220106-06:37:57.720795000 : 8=FIX.4.4|9=81|35=0|49=IFIX-EQ-UAT|56=MU9051500001|34=2|52=20220106-06:37:58.710654921|112=TEST|10=198|
20220106-06:38:57.059478000 : 8=FIX.4.4|9=66|35=0|34=4|49=MU9051500001|52=20220106-06:38:57.045|56=IFIX-EQ-UAT|10=127|
20220106-06:39:09.508642000 : 8=FIX.4.4|9=75|35=1|34=5|49=MU9051500001|52=20220106-06:39:09.497|56=IFIX-EQ-UAT|112=TEST|10=156|
20220106-06:39:09.833833000 : 8=FIX.4.4|9=81|35=0|49=IFIX-EQ-UAT|56=MU9051500001|34=3|52=20220106-06:39:10.828551632|112=TEST|10=194|
20220106-06:40:09.320995000 : 8=FIX.4.4|9=66|35=0|34=6|49=MU9051500001|52=20220106-06:40:09.305|56=IFIX-EQ-UAT|10=118|
20220106-06:40:15.924633000 : 8=FIX.4.4|9=72|35=0|49=IFIX-EQ-UAT|56=MU9051500001|34=4|52=20220106-06:40:16.913035942|10=171|
20220106-06:41:09.065481000 : 8=FIX.4.4|9=66|35=0|34=7|49=MU9051500001|52=20220106-06:41:09.044|56=IFIX-EQ-UAT|10=120|
20220106-06:41:15.981093000 : 8=FIX.4.4|9=72|35=0|49=IFIX-EQ-UAT|56=MU9051500001|34=5|52=20220106-06:41:16.918653243|10=178|
20220106-06:42:09.394293000 : 8=FIX.4.4|9=66|35=0|34=8|49=MU9051500001|52=20220106-06:42:09.385|56=IFIX-EQ-UAT|10=130|
20220106-06:42:16.113663000 : 8=FIX.4.4|9=72|35=0|49=IFIX-EQ-UAT|56=MU9051500001|34=6|52=20220106-06:42:16.922540671|10=175|
20220106-06:43:09.320548000 : 8=FIX.4.4|9=66|35=0|34=9|49=MU9051500001|52=20220106-06:43:09.308|56=IFIX-EQ-UAT|10=127|
20220106-06:43:15.981168000 : 8=FIX.4.4|9=72|35=0|49=IFIX-EQ-UAT|56=MU9051500001|34=7|52=20220106-06:43:16.923077383|10=183|
20220106-06:44:09.086122000 : 8=FIX.4.4|9=67|35=0|34=10|49=MU9051500001|52=20220106-06:44:09.069|56=IFIX-EQ-UAT|10=173|
20220106-06:44:15.946785000 : 8=FIX.4.4|9=72|35=0|49=IFIX-EQ-UAT|56=MU9051500001|34=8|52=20220106-06:44:16.926300242|10=171|
20220106-06:45:09.107914000 : 8=FIX.4.4|9=67|35=0|34=11|49=MU9051500001|52=20220106-06:45:09.100|56=IFIX-EQ-UAT|10=161|
20220106-06:45:15.977879000 : 8=FIX.4.4|9=72|35=0|49=IFIX-EQ-UAT|56=MU9051500001|34=9|52=20220106-06:45:16.932759247|10=193|
20220106-06:46:09.232091000 : 8=FIX.4.4|9=67|35=0|34=12|49=MU9051500001|52=20220106-06:46:09.220|56=IFIX-EQ-UAT|10=166|
20220106-06:46:16.014716000 : 8=FIX.4.4|9=73|35=0|49=IFIX-EQ-UAT|56=MU9051500001|34=10|52=20220106-06:46:16.937103294|10=225|
20220106-06:47:09.158797000 : 8=FIX.4.4|9=67|35=0|34=13|49=MU9051500001|52=20220106-06:47:09.149|56=IFIX-EQ-UAT|10=178|
20220106-06:47:16.052463000 : 8=FIX.4.4|9=73|35=0|49=IFIX-EQ-UAT|56=MU9051500001|34=11|52=20220106-06:47:16.937749283|10=241|
20220106-06:48:09.104755000 : 8=FIX.4.4|9=67|35=0|34=14|49=MU9051500001|52=20220106-06:48:09.090|56=IFIX-EQ-UAT|10=175|
20220106-06:48:15.975561000 : 8=FIX.4.4|9=73|35=0|49=IFIX-EQ-UAT|56=MU9051500001|34=12|52=20220106-06:48:16.942966357|10=242|
20220106-06:49:09.949218000 : 8=FIX.4.4|9=67|35=0|34=15|49=MU9051500001|52=20220106-06:49:09.933|56=IFIX-EQ-UAT|10=183|
20220106-06:49:16.027026000 : 8=FIX.4.4|9=73|35=0|49=IFIX-EQ-UAT|56=MU9051500001|34=13|52=20220106-06:49:16.947152296|10=238|
20220106-06:50:09.753509000 : 8=FIX.4.4|9=67|35=0|34=16|49=MU9051500001|52=20220106-06:50:09.739|56=IFIX-EQ-UAT|10=180|
20220106-06:50:15.954197000 : 8=FIX.4.4|9=73|35=0|49=IFIX-EQ-UAT|56=MU9051500001|34=14|52=20220106-06:50:16.951672218|10=227|
20220106-06:51:09.494885000 : 8=FIX.4.4|9=67|35=0|34=17|49=MU9051500001|52=20220106-06:51:09.480|56=IFIX-EQ-UAT|10=175|
20220106-06:51:16.111172000 : 8=FIX.4.4|9=73|35=0|49=IFIX-EQ-UAT|56=MU9051500001|34=15|52=20220106-06:51:17.108154944|10=225|
20220106-06:52:09.263124000 : 8=FIX.4.4|9=67|35=0|34=18|49=MU9051500001|52=20220106-06:52:09.244|56=IFIX-EQ-UAT|10=175|
20220106-06:52:16.119776000 : 8=FIX.4.4|9=73|35=0|49=IFIX-EQ-UAT|56=MU9051500001|34=16|52=20220106-06:52:17.113596984|10=237|
20220106-06:53:09.220112000 : 8=FIX.4.4|9=67|35=0|34=19|49=MU9051500001|52=20220106-06:53:09.205|56=IFIX-EQ-UAT|10=174|
20220106-06:53:16.125959000 : 8=FIX.4.4|9=73|35=0|49=IFIX-EQ-UAT|56=MU9051500001|34=17|52=20220106-06:53:17.117889286|10=243|
20220106-06:58:28.297409000 : 8=FIX.4.4|9=88|35=A|34=20|49=MU9051500001|52=20220106-06:58:28.278|56=IFIX-EQ-UAT|554=7020|98=0|108=60|10=139|
20220106-06:58:30.734952000 : 8=FIX.4.4|9=85|35=A|49=IFIX-EQ-UAT|56=MU9051500001|34=18|52=20220106-06:58:31.505029232|98=0|108=60|10=015|
20220106-06:59:28.662609000 : 8=FIX.4.4|9=67|35=0|34=21|49=MU9051500001|52=20220106-06:59:28.645|56=IFIX-EQ-UAT|10=182|
20220106-06:59:28.665369000 : 8=FIX.4.4|9=73|35=0|49=IFIX-EQ-UAT|56=MU9051500001|34=19|52=20220106-06:59:29.509891538|10=252|
20220106-07:00:28.382885000 : 8=FIX.4.4|9=67|35=0|34=22|49=MU9051500001|52=20220106-07:00:28.374|56=IFIX-EQ-UAT|10=169|
20220106-07:00:29.256672000 : 8=FIX.4.4|9=73|35=0|49=IFIX-EQ-UAT|56=MU9051500001|34=20|52=20220106-07:00:30.212870682|10=211|
20220106-07:00:30.887314000 : 8=FIX.4.4|9=150|35=D|34=23|49=MU9051500001|52=20220106-07:00:30.872|56=IFIX-EQ-UAT|1=L00-000012D8|11=0|38=1|40=1|54=1|55=SBER|60=20220106-06:59:52.077|336=TQBR|386=1|10=239|
20220106-07:00:31.262995000 : 8=FIX.4.4|9=275|35=3|49=IFIX-EQ-UAT|56=MU9051500001|34=21|52=20220106-07:00:32.212062482|45=23|371=386|372=D|373=14|58=Last tag in the message root is not CheckSum. Tag out of order. Expected: 10. In fact: 386. Parsing stopped at column: 173 in tag 386 in message D with sequence number 23.|10=110|
20220106-07:01:30.215323000 : 8=FIX.4.4|9=73|35=0|49=IFIX-EQ-UAT|56=MU9051500001|34=22|52=20220106-07:01:31.214082077|10=210|
20220106-07:01:30.227545000 : 8=FIX.4.4|9=67|35=0|34=24|49=MU9051500001|52=20220106-07:01:30.216|56=IFIX-EQ-UAT|10=160|
20220106-07:02:30.216007000 : 8=FIX.4.4|9=73|35=0|49=IFIX-EQ-UAT|56=MU9051500001|34=23|52=20220106-07:02:31.217614898|10=227|
20220106-07:02:30.235441000 : 8=FIX.4.4|9=67|35=0|34=25|49=MU9051500001|52=20220106-07:02:30.216|56=IFIX-EQ-UAT|10=162|
20220106-07:03:30.217644000 : 8=FIX.4.4|9=73|35=0|49=IFIX-EQ-UAT|56=MU9051500001|34=24|52=20220106-07:03:31.218938453|10=226|
20220106-07:03:30.232031000 : 8=FIX.4.4|9=67|35=0|34=26|49=MU9051500001|52=20220106-07:03:30.218|56=IFIX-EQ-UAT|10=166|
20220106-07:04:30.226275000 : 8=FIX.4.4|9=73|35=0|49=IFIX-EQ-UAT|56=MU9051500001|34=25|52=20220106-07:04:31.222759671|10=226|
20220106-07:04:30.239040000 : 8=FIX.4.4|9=67|35=0|34=27|49=MU9051500001|52=20220106-07:04:30.226|56=IFIX-EQ-UAT|10=167|
20220106-07:05:30.223409000 : 8=FIX.4.4|9=73|35=0|49=IFIX-EQ-UAT|56=MU9051500001|34=26|52=20220106-07:05:31.225513714|10=217|
20220106-07:05:30.238289000 : 8=FIX.4.4|9=67|35=0|34=28|49=MU9051500001|52=20220106-07:05:30.224|56=IFIX-EQ-UAT|10=167|
20220106-07:06:30.223712000 : 8=FIX.4.4|9=73|35=0|49=IFIX-EQ-UAT|56=MU9051500001|34=27|52=20220106-07:06:31.225215800|10=214|
20220106-07:06:30.244498000 : 8=FIX.4.4|9=67|35=0|34=29|49=MU9051500001|52=20220106-07:06:30.224|56=IFIX-EQ-UAT|10=169|
20220106-07:07:30.226184000 : 8=FIX.4.4|9=73|35=0|49=IFIX-EQ-UAT|56=MU9051500001|34=28|52=20220106-07:07:31.229024633|10=222|
20220106-07:07:30.237294000 : 8=FIX.4.4|9=67|35=0|34=30|49=MU9051500001|52=20220106-07:07:30.226|56=IFIX-EQ-UAT|10=164|
20220106-07:08:30.089032000 : 8=FIX.4.4|9=67|35=0|34=31|49=MU9051500001|52=20220106-07:08:30.069|56=IFIX-EQ-UAT|10=171|
20220106-07:08:30.229110000 : 8=FIX.4.4|9=73|35=0|49=IFIX-EQ-UAT|56=MU9051500001|34=29|52=20220106-07:08:31.231693397|10=236|
20220106-07:09:30.231589000 : 8=FIX.4.4|9=73|35=0|49=IFIX-EQ-UAT|56=MU9051500001|34=30|52=20220106-07:09:31.234886809|10=234|
20220106-07:09:30.243216000 : 8=FIX.4.4|9=67|35=0|34=32|49=MU9051500001|52=20220106-07:09:30.232|56=IFIX-EQ-UAT|10=165|
20220106-07:10:30.236195000 : 8=FIX.4.4|9=73|35=0|49=IFIX-EQ-UAT|56=MU9051500001|34=31|52=20220106-07:10:31.239599618|10=231|
20220106-07:10:30.255308000 : 8=FIX.4.4|9=67|35=0|34=33|49=MU9051500001|52=20220106-07:10:30.237|56=IFIX-EQ-UAT|10=163|
20220106-07:11:30.037465000 : 8=FIX.4.4|9=67|35=0|34=34|49=MU9051500001|52=20220106-07:11:30.029|56=IFIX-EQ-UAT|10=164|
20220106-07:11:30.244297000 : 8=FIX.4.4|9=73|35=0|49=IFIX-EQ-UAT|56=MU9051500001|34=32|52=20220106-07:11:31.243637198|10=224|
20220106-07:12:30.129262000 : 8=FIX.4.4|9=67|35=0|34=35|49=MU9051500001|52=20220106-07:12:30.113|56=IFIX-EQ-UAT|10=160|
20220106-07:12:30.242349000 : 8=FIX.4.4|9=73|35=0|49=IFIX-EQ-UAT|56=MU9051500001|34=33|52=20220106-07:12:31.245432691|10=219|
20220106-07:13:30.246524000 : 8=FIX.4.4|9=73|35=0|49=IFIX-EQ-UAT|56=MU9051500001|34=34|52=20220106-07:13:31.250884240|10=218|
20220106-07:13:30.260534000 : 8=FIX.4.4|9=67|35=0|34=36|49=MU9051500001|52=20220106-07:13:30.247|56=IFIX-EQ-UAT|10=170|
20220106-07:14:30.100970000 : 8=FIX.4.4|9=67|35=0|34=37|49=MU9051500001|52=20220106-07:14:30.083|56=IFIX-EQ-UAT|10=170|
20220106-07:14:30.249151000 : 8=FIX.4.4|9=73|35=0|49=IFIX-EQ-UAT|56=MU9051500001|34=35|52=20220106-07:14:31.253624878|10=232|
20220106-07:15:30.207802000 : 8=FIX.4.4|9=67|35=0|34=38|49=MU9051500001|52=20220106-07:15:30.189|56=IFIX-EQ-UAT|10=179|
20220106-07:15:30.471216000 : 8=FIX.4.4|9=73|35=0|49=IFIX-EQ-UAT|56=MU9051500001|34=36|52=20220106-07:15:31.470738788|10=241|
20220106-07:16:30.170987000 : 8=FIX.4.4|9=67|35=0|34=39|49=MU9051500001|52=20220106-07:16:30.161|56=IFIX-EQ-UAT|10=171|
20220106-07:16:31.121843000 : 8=FIX.4.4|9=73|35=0|49=IFIX-EQ-UAT|56=MU9051500001|34=37|52=20220106-07:16:32.057548996|10=245|
20220106-07:17:30.072254000 : 8=FIX.4.4|9=67|35=0|34=40|49=MU9051500001|52=20220106-07:17:30.056|56=IFIX-EQ-UAT|10=167|
20220106-07:17:31.929149000 : 8=FIX.4.4|9=73|35=0|49=IFIX-EQ-UAT|56=MU9051500001|34=38|52=20220106-07:17:32.787059002|10=232|
20220106-07:18:30.110809000 : 8=FIX.4.4|9=67|35=0|34=41|49=MU9051500001|52=20220106-07:18:30.095|56=IFIX-EQ-UAT|10=172|
20220106-07:18:31.799846000 : 8=FIX.4.4|9=73|35=0|49=IFIX-EQ-UAT|56=MU9051500001|34=39|52=20220106-07:18:32.791963706|10=244|
20220106-07:19:30.121404000 : 8=FIX.4.4|9=67|35=0|34=42|49=MU9051500001|52=20220106-07:19:30.106|56=IFIX-EQ-UAT|10=167|
20220106-07:19:32.079861000 : 8=FIX.4.4|9=73|35=0|49=IFIX-EQ-UAT|56=MU9051500001|34=40|52=20220106-07:19:32.799602338|10=236|
20220106-07:20:30.022969000 : 8=FIX.4.4|9=67|35=0|34=43|49=MU9051500001|52=20220106-07:20:30.012|56=IFIX-EQ-UAT|10=156|
20220106-07:20:32.060204000 : 8=FIX.4.4|9=73|35=0|49=IFIX-EQ-UAT|56=MU9051500001|34=41|52=20220106-07:20:32.803113427|10=211|
20220106-07:21:30.383140000 : 8=FIX.4.4|9=67|35=0|34=44|49=MU9051500001|52=20220106-07:21:30.373|56=IFIX-EQ-UAT|10=168|
20220106-07:21:31.970176000 : 8=FIX.4.4|9=73|35=0|49=IFIX-EQ-UAT|56=MU9051500001|34=42|52=20220106-07:21:32.806064344|10=219|
20220106-07:22:30.100064000 : 8=FIX.4.4|9=67|35=0|34=45|49=MU9051500001|52=20220106-07:22:30.084|56=IFIX-EQ-UAT|10=169|
20220106-07:22:31.800462000 : 8=FIX.4.4|9=73|35=0|49=IFIX-EQ-UAT|56=MU9051500001|34=43|52=20220106-07:22:32.807551622|10=222|
20220106-07:23:30.565549000 : 8=FIX.4.4|9=67|35=0|34=46|49=MU9051500001|52=20220106-07:23:30.550|56=IFIX-EQ-UAT|10=169|
20220106-07:23:31.802061000 : 8=FIX.4.4|9=73|35=0|49=IFIX-EQ-UAT|56=MU9051500001|34=44|52=20220106-07:23:32.808683989|10=247|
20220106-07:24:30.443717000 : 8=FIX.4.4|9=67|35=0|34=47|49=MU9051500001|52=20220106-07:24:30.425|56=IFIX-EQ-UAT|10=172|
20220106-07:24:31.804838000 : 8=FIX.4.4|9=73|35=0|49=IFIX-EQ-UAT|56=MU9051500001|34=45|52=20220106-07:24:32.811431884|10=228|
20220106-07:25:30.833786000 : 8=FIX.4.4|9=67|35=0|34=48|49=MU9051500001|52=20220106-07:25:30.815|56=IFIX-EQ-UAT|10=177|
20220106-07:25:31.898545000 : 8=FIX.4.4|9=73|35=0|49=IFIX-EQ-UAT|56=MU9051500001|34=46|52=20220106-07:25:32.814492149|10=234|
20220106-07:26:30.625131000 : 8=FIX.4.4|9=67|35=0|34=49|49=MU9051500001|52=20220106-07:26:30.617|56=IFIX-EQ-UAT|10=179|
20220106-07:26:31.822324000 : 8=FIX.4.4|9=73|35=0|49=IFIX-EQ-UAT|56=MU9051500001|34=47|52=20220106-07:26:32.816781427|10=238|
20220106-07:27:30.630266000 : 8=FIX.4.4|9=67|35=0|34=50|49=MU9051500001|52=20220106-07:27:30.615|56=IFIX-EQ-UAT|10=170|
20220106-07:27:31.813116000 : 8=FIX.4.4|9=73|35=0|49=IFIX-EQ-UAT|56=MU9051500001|34=48|52=20220106-07:27:32.821172344|10=228|
20220106-07:28:30.518101000 : 8=FIX.4.4|9=67|35=0|34=51|49=MU9051500001|52=20220106-07:28:30.504|56=IFIX-EQ-UAT|10=169|
20220106-07:28:31.824056000 : 8=FIX.4.4|9=73|35=0|49=IFIX-EQ-UAT|56=MU9051500001|34=49|52=20220106-07:28:32.830237526|10=234|
20220106-07:29:30.060406000 : 8=FIX.4.4|9=67|35=0|34=52|49=MU9051500001|52=20220106-07:29:30.042|56=IFIX-EQ-UAT|10=168|
20220106-07:29:31.825687000 : 8=FIX.4.4|9=73|35=0|49=IFIX-EQ-UAT|56=MU9051500001|34=50|52=20220106-07:29:32.833900976|10=236|
20220106-07:30:30.239838000 : 8=FIX.4.4|9=67|35=0|34=53|49=MU9051500001|52=20220106-07:30:30.230|56=IFIX-EQ-UAT|10=160|
20220106-07:30:31.831817000 : 8=FIX.4.4|9=73|35=0|49=IFIX-EQ-UAT|56=MU9051500001|34=51|52=20220106-07:30:32.839391814|10=230|
20220106-07:31:30.541377000 : 8=FIX.4.4|9=67|35=0|34=54|49=MU9051500001|52=20220106-07:31:30.527|56=IFIX-EQ-UAT|10=171|
20220106-07:31:31.831726000 : 8=FIX.4.4|9=73|35=0|49=IFIX-EQ-UAT|56=MU9051500001|34=52|52=20220106-07:31:32.840783244|10=226|
20220106-07:32:30.059177000 : 8=FIX.4.4|9=67|35=0|34=55|49=MU9051500001|52=20220106-07:32:30.047|56=IFIX-EQ-UAT|10=170|
20220106-07:32:31.835146000 : 8=FIX.4.4|9=73|35=0|49=IFIX-EQ-UAT|56=MU9051500001|34=53|52=20220106-07:32:32.844731552|10=227|
20220106-07:33:30.548336000 : 8=FIX.4.4|9=67|35=0|34=56|49=MU9051500001|52=20220106-07:33:30.531|56=IFIX-EQ-UAT|10=170|
20220106-07:33:31.839965000 : 8=FIX.4.4|9=73|35=0|49=IFIX-EQ-UAT|56=MU9051500001|34=54|52=20220106-07:33:32.846222354|10=226|
20220106-07:34:30.044875000 : 8=FIX.4.4|9=67|35=0|34=57|49=MU9051500001|52=20220106-07:34:30.027|56=IFIX-EQ-UAT|10=172|
20220106-07:34:31.841964000 : 8=FIX.4.4|9=73|35=0|49=IFIX-EQ-UAT|56=MU9051500001|34=55|52=20220106-07:34:32.849042829|10=238|
20220106-07:35:30.058779000 : 8=FIX.4.4|9=67|35=0|34=58|49=MU9051500001|52=20220106-07:35:30.040|56=IFIX-EQ-UAT|10=169|
20220106-07:35:31.844808000 : 8=FIX.4.4|9=73|35=0|49=IFIX-EQ-UAT|56=MU9051500001|34=56|52=20220106-07:35:32.854638355|10=241|
20220106-07:36:30.108327000 : 8=FIX.4.4|9=67|35=0|34=59|49=MU9051500001|52=20220106-07:36:30.091|56=IFIX-EQ-UAT|10=177|
20220106-07:36:31.964504000 : 8=FIX.4.4|9=73|35=0|49=IFIX-EQ-UAT|56=MU9051500001|34=57|52=20220106-07:36:32.857816756|10=249|
20220106-07:37:30.659740000 : 8=FIX.4.4|9=67|35=0|34=60|49=MU9051500001|52=20220106-07:37:30.641|56=IFIX-EQ-UAT|10=171|
20220106-07:37:31.936894000 : 8=FIX.4.4|9=73|35=0|49=IFIX-EQ-UAT|56=MU9051500001|34=58|52=20220106-07:37:32.859730206|10=238|
20220106-07:38:30.023005000 : 8=FIX.4.4|9=67|35=0|34=61|49=MU9051500001|52=20220106-07:38:30.014|56=IFIX-EQ-UAT|10=167|
20220106-07:38:31.853956000 : 8=FIX.4.4|9=73|35=0|49=IFIX-EQ-UAT|56=MU9051500001|34=59|52=20220106-07:38:32.863575119|10=245|
20220106-07:39:30.406286000 : 8=FIX.4.4|9=67|35=0|34=62|49=MU9051500001|52=20220106-07:39:30.393|56=IFIX-EQ-UAT|10=179|
20220106-07:39:31.856045000 : 8=FIX.4.4|9=73|35=0|49=IFIX-EQ-UAT|56=MU9051500001|34=60|52=20220106-07:39:32.867385269|10=247|
20220106-07:40:30.704231000 : 8=FIX.4.4|9=67|35=0|34=63|49=MU9051500001|52=20220106-07:40:30.689|56=IFIX-EQ-UAT|10=180|
20220106-07:40:31.924636000 : 8=FIX.4.4|9=73|35=0|49=IFIX-EQ-UAT|56=MU9051500001|34=61|52=20220106-07:40:32.871088565|10=234|
20220106-07:41:30.019960000 : 8=FIX.4.4|9=67|35=0|34=64|49=MU9051500001|52=20220106-07:41:30.003|56=IFIX-EQ-UAT|10=162|
20220106-07:41:31.862898000 : 8=FIX.4.4|9=73|35=0|49=IFIX-EQ-UAT|56=MU9051500001|34=62|52=20220106-07:41:32.874648021|10=228|
20220106-07:44:53.821345000 : 8=FIX.4.4|9=88|35=A|34=65|49=MU9051500001|52=20220106-07:44:53.821|56=IFIX-EQ-UAT|554=7020|98=0|108=60|10=136|
20220106-07:44:56.449969000 : 8=FIX.4.4|9=85|35=A|49=IFIX-EQ-UAT|56=MU9051500001|34=63|52=20220106-07:44:57.037680017|98=0|108=60|10=023|
20220106-07:45:53.548721000 : 8=FIX.4.4|9=67|35=0|34=66|49=MU9051500001|52=20220106-07:45:53.548|56=IFIX-EQ-UAT|10=187|
20220106-07:45:54.575886000 : 8=FIX.4.4|9=73|35=0|49=IFIX-EQ-UAT|56=MU9051500001|34=64|52=20220106-07:45:55.398359849|10=001|
20220106-07:46:11.791981000 : 8=FIX.4.4|9=67|35=D|34=67|49=MU9051500001|52=20220106-07:46:11.791|56=IFIX-EQ-UAT|10=203|
20220106-07:46:12.277842000 : 8=FIX.4.4|9=118|35=3|49=IFIX-EQ-UAT|56=MU9051500001|34=65|52=20220106-07:46:13.127525558|45=67|371=11|372=D|373=1|58=ClOrdID required|10=036|
20220106-07:47:11.219897000 : 8=FIX.4.4|9=67|35=0|34=68|49=MU9051500001|52=20220106-07:47:11.219|56=IFIX-EQ-UAT|10=180|
20220106-07:47:11.762334000 : 8=FIX.4.4|9=73|35=0|49=IFIX-EQ-UAT|56=MU9051500001|34=66|52=20220106-07:47:12.404999108|10=240|
20220106-07:48:11.100059000 : 8=FIX.4.4|9=67|35=0|34=69|49=MU9051500001|52=20220106-07:48:11.099|56=IFIX-EQ-UAT|10=188|
20220106-07:48:11.396791000 : 8=FIX.4.4|9=73|35=0|49=IFIX-EQ-UAT|56=MU9051500001|34=67|52=20220106-07:48:12.407120266|10=226|
20220106-07:49:11.152185000 : 8=FIX.4.4|9=67|35=0|34=70|49=MU9051500001|52=20220106-07:49:11.151|56=IFIX-EQ-UAT|10=170|
20220106-07:49:11.401255000 : 8=FIX.4.4|9=73|35=0|49=IFIX-EQ-UAT|56=MU9051500001|34=68|52=20220106-07:49:12.411395957|10=244|
20220106-07:50:11.203964000 : 8=FIX.4.4|9=67|35=0|34=71|49=MU9051500001|52=20220106-07:50:11.203|56=IFIX-EQ-UAT|10=161|
20220106-07:50:11.532384000 : 8=FIX.4.4|9=73|35=0|49=IFIX-EQ-UAT|56=MU9051500001|34=69|52=20220106-07:50:12.414552478|10=233|
20220106-07:51:11.261973000 : 8=FIX.4.4|9=67|35=0|34=72|49=MU9051500001|52=20220106-07:51:11.261|56=IFIX-EQ-UAT|10=167|
20220106-07:51:11.409685000 : 8=FIX.4.4|9=73|35=0|49=IFIX-EQ-UAT|56=MU9051500001|34=70|52=20220106-07:51:12.417665906|10=230|
20220106-07:52:11.251514000 : 8=FIX.4.4|9=67|35=0|34=73|49=MU9051500001|52=20220106-07:52:11.251|56=IFIX-EQ-UAT|10=168|
20220106-07:52:11.409328000 : 8=FIX.4.4|9=73|35=0|49=IFIX-EQ-UAT|56=MU9051500001|34=71|52=20220106-07:52:12.420825809|10=226|
20220106-07:53:03.594927000 : 8=FIX.4.4|9=67|35=D|34=74|49=MU9051500001|52=20220106-07:53:03.594|56=IFIX-EQ-UAT|10=201|
20220106-07:53:03.918845000 : 8=FIX.4.4|9=118|35=3|49=IFIX-EQ-UAT|56=MU9051500001|34=72|52=20220106-07:53:04.931076829|45=74|371=11|372=D|373=1|58=ClOrdID required|10=035|
20220106-07:53:30.577662000 : 8=FIX.4.4|9=72|35=D|34=75|49=MU9051500001|52=20220106-07:53:30.577|56=IFIX-EQ-UAT|11=0|10=151|
20220106-07:53:30.903661000 : 8=FIX.4.4|9=207|35=8|49=IFIX-EQ-UAT|56=MU9051500001|34=73|52=20220106-07:53:31.914644678|37=NONE|11=0|17=0|8|NONE|150=8|39=8|103=11|151=0|14=0|6=0|60=20220106-07:53:31|58=OrdType is invalid|5979=20220106-07:53:31.914543125|10=155|
20220106-07:53:30.904012000 : 8=FIX.4.4|9=116|35=3|34=76|49=MU9051500001|52=20220106-07:53:30.903|56=IFIX-EQ-UAT|45=73|58=Required tag missing|371=54|372=8|373=1|10=178|
20220106-07:54:15.347489000 : 8=FIX.4.4|9=76|35=1|34=77|49=MU9051500001|52=20220106-07:54:15.347|56=IFIX-EQ-UAT|112=TEST|10=203|
20220106-07:54:15.671740000 : 8=FIX.4.4|9=82|35=0|49=IFIX-EQ-UAT|56=MU9051500001|34=74|52=20220106-07:54:16.684274177|112=TEST|10=005|
20220106-07:55:15.420844000 : 8=FIX.4.4|9=73|35=0|49=IFIX-EQ-UAT|56=MU9051500001|34=75|52=20220106-07:55:16.433191704|10=231|
20220106-07:55:15.421260000 : 8=FIX.4.4|9=67|35=0|34=78|49=MU9051500001|52=20220106-07:55:15.421|56=IFIX-EQ-UAT|10=179|
20220106-07:56:15.424093000 : 8=FIX.4.4|9=73|35=0|49=IFIX-EQ-UAT|56=MU9051500001|34=76|52=20220106-07:56:16.437395918|10=250|
20220106-07:56:15.424432000 : 8=FIX.4.4|9=67|35=0|34=79|49=MU9051500001|52=20220106-07:56:15.424|56=IFIX-EQ-UAT|10=184|
20220106-07:57:15.035152000 : 8=FIX.4.4|9=67|35=0|34=80|49=MU9051500001|52=20220106-07:57:15.034|56=IFIX-EQ-UAT|10=174|
20220106-07:57:15.426626000 : 8=FIX.4.4|9=73|35=0|49=IFIX-EQ-UAT|56=MU9051500001|34=77|52=20220106-07:57:16.440260220|10=223|
20220106-07:58:15.021123000 : 8=FIX.4.4|9=67|35=0|34=81|49=MU9051500001|52=20220106-07:58:15.020|56=IFIX-EQ-UAT|10=171|
20220106-07:58:15.440544000 : 8=FIX.4.4|9=73|35=0|49=IFIX-EQ-UAT|56=MU9051500001|34=78|52=20220106-07:58:16.444546654|10=247|
20220106-07:59:15.436289000 : 8=FIX.4.4|9=73|35=0|49=IFIX-EQ-UAT|56=MU9051500001|34=79|52=20220106-07:59:16.447668771|10=001|
20220106-07:59:15.436617000 : 8=FIX.4.4|9=67|35=0|34=82|49=MU9051500001|52=20220106-07:59:15.436|56=IFIX-EQ-UAT|10=184|
20220106-08:00:15.203502000 : 8=FIX.4.4|9=67|35=0|34=83|49=MU9051500001|52=20220106-08:00:15.203|56=IFIX-EQ-UAT|10=164|
20220106-08:00:15.436263000 : 8=FIX.4.4|9=73|35=0|49=IFIX-EQ-UAT|56=MU9051500001|34=80|52=20220106-08:00:16.449798412|10=234|
20220106-08:01:15.300093000 : 8=FIX.4.4|9=67|35=0|34=84|49=MU9051500001|52=20220106-08:01:15.299|56=IFIX-EQ-UAT|10=181|
20220106-08:01:15.499422000 : 8=FIX.4.4|9=73|35=0|49=IFIX-EQ-UAT|56=MU9051500001|34=81|52=20220106-08:01:16.452948952|10=236|
20220106-08:01:30.577802000 : 8=FIX.4.4|9=77|35=D|34=85|49=MU9051500001|52=20220106-08:01:30.577|56=IFIX-EQ-UAT|11=0|40=1|10=106|
20220106-08:01:30.982289000 : 8=FIX.4.4|9=247|35=8|49=IFIX-EQ-UAT|56=MU9051500001|34=82|52=20220106-08:01:31.916434632|37=NONE|11=0|17=0|8|NONE|150=8|39=8|103=99|40=1|151=0|14=0|6=0|60=20220106-08:01:31|58=TradingSessions group should contain only one element|5979=20220106-08:01:31.916320025|10=011|
20220106-08:01:30.982692000 : 8=FIX.4.4|9=116|35=3|34=86|49=MU9051500001|52=20220106-08:01:30.982|56=IFIX-EQ-UAT|45=82|58=Required tag missing|371=54|372=8|373=1|10=180|
20220106-08:02:22.882794000 : 8=FIX.4.4|9=83|35=D|34=87|49=MU9051500001|52=20220106-08:02:22.882|56=IFIX-EQ-UAT|11=0|40=1|386=1|10=122|
20220106-08:02:23.206434000 : 8=FIX.4.4|9=275|35=3|49=IFIX-EQ-UAT|56=MU9051500001|34=83|52=20220106-08:02:24.220804347|45=87|371=386|372=D|373=14|58=Last tag in the message root is not CheckSum. Tag out of order. Expected: 10. In fact: 386. Parsing stopped at column: 105 in tag 386 in message D with sequence number 87.|10=140|
20220106-08:02:42.828171000 : 8=FIX.4.4|9=95|35=1|49=IFIX-EQ-UAT|56=MU9051500001|34=84|52=20220106-08:02:43.818247768|112=20220106-08:02:43|10=041|
20220106-08:02:42.828628000 : 8=FIX.4.4|9=89|35=0|34=88|49=MU9051500001|52=20220106-08:02:42.828|56=IFIX-EQ-UAT|112=20220106-08:02:43|10=237|
20220106-08:03:26.224314000 : 8=FIX.4.4|9=98|35=D|34=89|49=MU9051500001|52=20220106-08:03:26.224|56=IFIX-EQ-UAT|11=0|40=1|386=1|336=TQBR|386=1|10=160|
20220106-08:03:26.560074000 : 8=FIX.4.4|9=275|35=3|49=IFIX-EQ-UAT|56=MU9051500001|34=85|52=20220106-08:03:27.563903822|45=89|371=386|372=D|373=14|58=Last tag in the message root is not CheckSum. Tag out of order. Expected: 10. In fact: 386. Parsing stopped at column: 120 in tag 386 in message D with sequence number 89.|10=155|
20220106-08:03:54.901052000 : 8=FIX.4.4|9=95|35=1|49=IFIX-EQ-UAT|56=MU9051500001|34=86|52=20220106-08:03:55.823353028|112=20220106-08:03:55|10=034|
20220106-08:03:54.901610000 : 8=FIX.4.4|9=89|35=0|34=90|49=MU9051500001|52=20220106-08:03:54.901|56=IFIX-EQ-UAT|112=20220106-08:03:55|10=230|
20220106-08:04:54.009754000 : 8=FIX.4.4|9=67|35=0|34=91|49=MU9051500001|52=20220106-08:04:54.009|56=IFIX-EQ-UAT|10=174|
20220106-08:04:54.816519000 : 8=FIX.4.4|9=73|35=0|49=IFIX-EQ-UAT|56=MU9051500001|34=87|52=20220106-08:04:55.824498223|10=242|
20220106-08:05:54.034810000 : 8=FIX.4.4|9=67|35=0|34=92|49=MU9051500001|52=20220106-08:05:54.034|56=IFIX-EQ-UAT|10=174|
20220106-08:05:54.817667000 : 8=FIX.4.4|9=73|35=0|49=IFIX-EQ-UAT|56=MU9051500001|34=88|52=20220106-08:05:55.828025488|10=247|
20220106-08:06:54.286430000 : 8=FIX.4.4|9=67|35=0|34=93|49=MU9051500001|52=20220106-08:06:54.286|56=IFIX-EQ-UAT|10=185|
20220106-08:06:54.815739000 : 8=FIX.4.4|9=73|35=0|49=IFIX-EQ-UAT|56=MU9051500001|34=89|52=20220106-08:06:55.830477390|10=245|
20220106-08:07:54.363662000 : 8=FIX.4.4|9=67|35=0|34=94|49=MU9051500001|52=20220106-08:07:54.363|56=IFIX-EQ-UAT|10=183|
20220106-08:07:54.819247000 : 8=FIX.4.4|9=73|35=0|49=IFIX-EQ-UAT|56=MU9051500001|34=90|52=20220106-08:07:55.834802405|10=231|
20220106-08:08:54.065354000 : 8=FIX.4.4|9=67|35=0|34=95|49=MU9051500001|52=20220106-08:08:54.065|56=IFIX-EQ-UAT|10=184|
20220106-08:08:54.822194000 : 8=FIX.4.4|9=73|35=0|49=IFIX-EQ-UAT|56=MU9051500001|34=91|52=20220106-08:08:55.838006211|10=228|
20220106-08:09:54.081672000 : 8=FIX.4.4|9=67|35=0|34=96|49=MU9051500001|52=20220106-08:09:54.081|56=IFIX-EQ-UAT|10=184|
20220106-08:09:54.825173000 : 8=FIX.4.4|9=73|35=0|49=IFIX-EQ-UAT|56=MU9051500001|34=92|52=20220106-08:09:55.841545454|10=241|
20220106-08:10:54.048663000 : 8=FIX.4.4|9=67|35=0|34=97|49=MU9051500001|52=20220106-08:10:54.048|56=IFIX-EQ-UAT|10=180|
20220106-08:10:54.829157000 : 8=FIX.4.4|9=73|35=0|49=IFIX-EQ-UAT|56=MU9051500001|34=93|52=20220106-08:10:55.844916068|10=240|
20220106-08:11:54.134769000 : 8=FIX.4.4|9=67|35=0|34=98|49=MU9051500001|52=20220106-08:11:54.134|56=IFIX-EQ-UAT|10=178|
20220106-08:11:54.849825000 : 8=FIX.4.4|9=73|35=0|49=IFIX-EQ-UAT|56=MU9051500001|34=94|52=20220106-08:11:55.848686161|10=244|
20220106-08:12:54.145247000 : 8=FIX.4.4|9=67|35=0|34=99|49=MU9051500001|52=20220106-08:12:54.145|56=IFIX-EQ-UAT|10=182|
20220106-08:12:54.836928000 : 8=FIX.4.4|9=73|35=0|49=IFIX-EQ-UAT|56=MU9051500001|34=95|52=20220106-08:12:55.851923779|10=249|
20220106-08:13:54.138827000 : 8=FIX.4.4|9=68|35=0|34=100|49=MU9051500001|52=20220106-08:13:54.138|56=IFIX-EQ-UAT|10=217|
20220106-08:13:54.849538000 : 8=FIX.4.4|9=73|35=0|49=IFIX-EQ-UAT|56=MU9051500001|34=96|52=20220106-08:13:55.857616331|10=240|
20220106-08:14:54.081477000 : 8=FIX.4.4|9=68|35=0|34=101|49=MU9051500001|52=20220106-08:14:54.081|56=IFIX-EQ-UAT|10=216|
20220106-08:14:54.845347000 : 8=FIX.4.4|9=73|35=0|49=IFIX-EQ-UAT|56=MU9051500001|34=97|52=20220106-08:14:55.862925375|10=249|
20220106-08:15:54.015671000 : 8=FIX.4.4|9=68|35=0|34=102|49=MU9051500001|52=20220106-08:15:54.015|56=IFIX-EQ-UAT|10=215|
20220106-08:15:54.848680000 : 8=FIX.4.4|9=73|35=0|49=IFIX-EQ-UAT|56=MU9051500001|34=98|52=20220106-08:15:55.866098268|10=001|
20220106-08:16:54.167491000 : 8=FIX.4.4|9=68|35=0|34=103|49=MU9051500001|52=20220106-08:16:54.167|56=IFIX-EQ-UAT|10=225|
20220106-08:16:54.872657000 : 8=FIX.4.4|9=73|35=0|49=IFIX-EQ-UAT|56=MU9051500001|34=99|52=20220106-08:16:55.871939773|10=004|
20220106-08:17:54.355421000 : 8=FIX.4.4|9=68|35=0|34=104|49=MU9051500001|52=20220106-08:17:54.355|56=IFIX-EQ-UAT|10=226|
20220106-08:17:54.856317000 : 8=FIX.4.4|9=74|35=0|49=IFIX-EQ-UAT|56=MU9051500001|34=100|52=20220106-08:17:55.875193460|10=026|
20220106-08:18:54.029779000 : 8=FIX.4.4|9=68|35=0|34=105|49=MU9051500001|52=20220106-08:18:54.029|56=IFIX-EQ-UAT|10=226|
20220106-08:18:55.014966000 : 8=FIX.4.4|9=74|35=0|49=IFIX-EQ-UAT|56=MU9051500001|34=101|52=20220106-08:18:55.877453016|10=026|
20220106-08:19:11.401937000 : 8=FIX.4.4|9=93|35=D|34=106|49=MU9051500001|52=20220106-08:19:11.401|56=IFIX-EQ-UAT|11=0|40=1|386=1|336=TQBR|10=175|
20220106-08:19:11.725132000 : 8=FIX.4.4|9=219|35=8|49=IFIX-EQ-UAT|56=MU9051500001|34=102|52=20220106-08:19:12.743723545|37=NONE|11=0|17=0|8|NONE|150=8|39=8|103=1|40=1|336=TQBR|151=0|14=0|6=0|60=20220106-08:19:12|58=unknown security|5979=20220106-08:19:12.743598379|10=108|
20220106-08:19:11.725448000 : 8=FIX.4.4|9=118|35=3|34=107|49=MU9051500001|52=20220106-08:19:11.725|56=IFIX-EQ-UAT|45=102|58=Required tag missing|371=54|372=8|373=1|10=012|
20220106-08:20:07.081623000 : 8=FIX.4.4|9=77|35=1|34=108|49=MU9051500001|52=20220106-08:20:07.081|56=IFIX-EQ-UAT|112=TEST|10=237|
20220106-08:20:07.405642000 : 8=FIX.4.4|9=83|35=0|49=IFIX-EQ-UAT|56=MU9051500001|34=103|52=20220106-08:20:08.424183748|112=TEST|10=037|
20220106-08:20:45.489162000 : 8=FIX.4.4|9=101|35=D|34=109|49=MU9051500001|52=20220106-08:20:45.489|56=IFIX-EQ-UAT|11=0|40=1|55=SBER|386=1|336=TQBR|10=187|
20220106-08:20:45.815576000 : 8=FIX.4.4|9=260|35=8|49=IFIX-EQ-UAT|56=MU9051500001|34=104|52=20220106-08:20:46.833123950|37=NONE|11=0|17=0|8|NONE|150=8|39=8|103=15|55=SBER|40=1|336=TQBR|151=0|14=0|6=0|60=20220106-08:20:46|58=ERROR: (145) Invalid trading account|5979=20220106-08:20:46.832040975|9412=832583|10=200|
20220106-08:20:45.815946000 : 8=FIX.4.4|9=118|35=3|34=110|49=MU9051500001|52=20220106-08:20:45.815|56=IFIX-EQ-UAT|45=104|58=Required tag missing|371=54|372=8|373=1|10=007|
20220106-08:21:19.184246000 : 8=FIX.4.4|9=77|35=1|34=111|49=MU9051500001|52=20220106-08:21:19.184|56=IFIX-EQ-UAT|112=TEST|10=239|
20220106-08:21:19.511480000 : 8=FIX.4.4|9=83|35=0|49=IFIX-EQ-UAT|56=MU9051500001|34=105|52=20220106-08:21:20.530346920|112=TEST|10=025|
20220106-08:21:30.923009000 : 8=FIX.4.4|9=116|35=D|34=112|49=MU9051500001|52=20220106-08:21:30.922|56=IFIX-EQ-UAT|1=L00-000012D8|11=0|40=1|55=SBER|386=1|336=TQBR|10=149|
20220106-08:21:31.270633000 : 8=FIX.4.4|9=257|35=8|49=IFIX-EQ-UAT|56=MU9051500001|34=106|52=20220106-08:21:32.266718147|37=NONE|11=0|17=0|8|NONE|150=8|39=8|103=6|1=L00-000012D8|55=SBER|40=1|336=TQBR|151=0|14=0|6=0|60=20220106-08:21:32|58=Duplicate ClOrdID (11) received|5979=20220106-08:21:32.266627401|10=190|
20220106-08:21:31.271070000 : 8=FIX.4.4|9=118|35=3|34=113|49=MU9051500001|52=20220106-08:21:31.270|56=IFIX-EQ-UAT|45=106|58=Required tag missing|371=54|372=8|373=1|10=003|
20220106-08:22:30.896474000 : 8=FIX.4.4|9=74|35=0|49=IFIX-EQ-UAT|56=MU9051500001|34=107|52=20220106-08:22:31.891496733|10=030|
20220106-08:22:31.601727000 : 8=FIX.4.4|9=68|35=0|34=114|49=MU9051500001|52=20220106-08:22:31.601|56=IFIX-EQ-UAT|10=212|
20220106-08:22:37.767708000 : 8=FIX.4.4|9=116|35=D|34=115|49=MU9051500001|52=20220106-08:22:37.767|56=IFIX-EQ-UAT|1=L00-000012D8|11=0|40=1|55=SBER|386=1|336=TQBR|10=167|
20220106-08:22:38.196056000 : 8=FIX.4.4|9=257|35=8|49=IFIX-EQ-UAT|56=MU9051500001|34=108|52=20220106-08:22:39.111255000|37=NONE|11=0|17=0|8|NONE|150=8|39=8|103=6|1=L00-000012D8|55=SBER|40=1|336=TQBR|151=0|14=0|6=0|60=20220106-08:22:39|58=Duplicate ClOrdID (11) received|5979=20220106-08:22:39.111153632|10=178|
20220106-08:22:38.196404000 : 8=FIX.4.4|9=118|35=3|34=116|49=MU9051500001|52=20220106-08:22:38.196|56=IFIX-EQ-UAT|45=108|58=Required tag missing|371=54|372=8|373=1|10=023|
20220106-08:23:24.472939000 : 8=FIX.4.4|9=116|35=D|34=117|49=MU9051500001|52=20220106-08:23:24.472|56=IFIX-EQ-UAT|1=L00-000012D8|11=1|40=1|55=SBER|386=1|336=TQBR|10=160|
20220106-08:23:24.797766000 : 8=FIX.4.4|9=281|35=8|49=IFIX-EQ-UAT|56=MU9051500001|34=109|52=20220106-08:23:25.817065471|37=NONE|11=1|17=1|8|NONE|150=8|39=8|103=99|1=L00-000012D8|55=SBER|40=1|336=TQBR|151=0|14=0|6=0|60=20220106-08:23:25|58=ERROR: (140) Invalid buy or sell indicator|5979=20220106-08:23:25.816068094|9412=816569|10=215|
20220106-08:23:24.798226000 : 8=FIX.4.4|9=118|35=3|34=118|49=MU9051500001|52=20220106-08:23:24.797|56=IFIX-EQ-UAT|45=109|58=Required tag missing|371=54|372=8|373=1|10=029|
20220106-08:23:42.342226000 : 8=FIX.4.4|9=77|35=1|34=119|49=MU9051500001|52=20220106-08:23:42.342|56=IFIX-EQ-UAT|112=TEST|10=241|
20220106-08:23:42.691099000 : 8=FIX.4.4|9=83|35=0|49=IFIX-EQ-UAT|56=MU9051500001|34=110|52=20220106-08:23:43.685592649|112=TEST|10=050|
20220106-08:23:50.206383000 : 8=FIX.4.4|9=121|35=D|34=120|49=MU9051500001|52=20220106-08:23:50.205|56=IFIX-EQ-UAT|1=L00-000012D8|11=2|40=1|54=1|55=SBER|386=1|336=TQBR|10=104|
20220106-08:23:50.533515000 : 8=FIX.4.4|9=273|35=8|49=IFIX-EQ-UAT|56=MU9051500001|34=111|52=20220106-08:23:51.550709199|37=NONE|11=2|17=2|8|NONE|150=8|39=8|103=13|1=L00-000012D8|55=SBER|54=1|40=1|336=TQBR|151=0|14=0|6=0|60=20220106-08:23:51|58=ERROR: (144) Invalid quantity|5979=20220106-08:23:51.549724899|9412=550195|10=042|
20220106-08:23:50.534017000 : 8=FIX.4.4|9=118|35=3|34=121|49=MU9051500001|52=20220106-08:23:50.533|56=IFIX-EQ-UAT|45=111|58=Invalid tag number|371=5979|372=8|373=0|10=140|
20220106-08:24:05.291370000 : 8=FIX.4.4|9=126|35=D|34=122|49=MU9051500001|52=20220106-08:24:05.291|56=IFIX-EQ-UAT|1=L00-000012D8|11=3|38=1|40=1|54=1|55=SBER|386=1|336=TQBR|10=080|
20220106-08:24:05.849238000 : 8=FIX.4.4|9=281|35=8|49=IFIX-EQ-UAT|56=MU9051500001|34=112|52=20220106-08:24:06.637641546|37=NONE|11=3|17=3|8|NONE|150=8|39=8|103=99|1=L00-000012D8|55=SBER|54=1|38=1|40=1|336=TQBR|151=0|14=0|6=0|60=20220106-08:24:06|58=ERROR: (533) Invalid client code|5979=20220106-08:24:06.636585190|9412=637093|10=198|
20220106-08:24:05.849637000 : 8=FIX.4.4|9=118|35=3|34=123|49=MU9051500001|52=20220106-08:24:05.849|56=IFIX-EQ-UAT|45=112|58=Invalid tag number|371=5979|372=8|373=0|10=154|
20220106-08:24:54.523451000 : 8=FIX.4.4|9=77|35=1|34=124|49=MU9051500001|52=20220106-08:24:54.523|56=IFIX-EQ-UAT|112=TEST|10=242|
20220106-08:24:54.849700000 : 8=FIX.4.4|9=83|35=0|49=IFIX-EQ-UAT|56=MU9051500001|34=113|52=20220106-08:24:55.866797823|112=TEST|10=059|
20220106-08:25:53.991245000 : 8=FIX.4.4|9=74|35=0|49=IFIX-EQ-UAT|56=MU9051500001|34=114|52=20220106-08:25:54.906124119|10=019|
20220106-08:25:54.503281000 : 8=FIX.4.4|9=68|35=0|34=125|49=MU9051500001|52=20220106-08:25:54.503|56=IFIX-EQ-UAT|10=223|
20220106-08:26:53.892899000 : 8=FIX.4.4|9=74|35=0|49=IFIX-EQ-UAT|56=MU9051500001|34=115|52=20220106-08:26:54.908593325|10=032|
20220106-08:26:54.392357000 : 8=FIX.4.4|9=68|35=0|34=126|49=MU9051500001|52=20220106-08:26:54.392|56=IFIX-EQ-UAT|10=231|
20220106-08:27:53.898950000 : 8=FIX.4.4|9=74|35=0|49=IFIX-EQ-UAT|56=MU9051500001|34=116|52=20220106-08:27:54.911026148|10=022|
20220106-08:27:54.385080000 : 8=FIX.4.4|9=68|35=0|34=127|49=MU9051500001|52=20220106-08:27:54.384|56=IFIX-EQ-UAT|10=234|
20220106-08:28:53.680698000 : 8=FIX.4.4|9=141|35=D|34=128|49=MU9051500001|52=20220106-08:28:53.680|56=IFIX-EQ-UAT|1=L00-000012D8|11=0|38=1|40=1|54=1|55=SBER|386=1|336=TQBR|526=2076087002|10=052|
20220106-08:28:53.893045000 : 8=FIX.4.4|9=74|35=0|49=IFIX-EQ-UAT|56=MU9051500001|34=117|52=20220106-08:28:54.913490179|10=035|
20220106-08:28:54.007120000 : 8=FIX.4.4|9=282|35=8|49=IFIX-EQ-UAT|56=MU9051500001|34=118|52=20220106-08:28:55.026670988|37=NONE|526=2076087002|11=0|17=0|8|NONE|150=8|39=8|103=6|1=L00-000012D8|55=SBER|54=1|38=1|40=1|336=TQBR|151=0|14=0|6=0|60=20220106-08:28:55|58=Duplicate ClOrdID (11) received|5979=20220106-08:28:55.026550309|10=112|
20220106-08:28:54.007475000 : 8=FIX.4.4|9=118|35=3|34=129|49=MU9051500001|52=20220106-08:28:54.007|56=IFIX-EQ-UAT|45=118|58=Invalid tag number|371=5979|372=8|373=0|10=160|
20220106-08:29:30.561840000 : 8=FIX.4.4|9=141|35=D|34=130|49=MU9051500001|52=20220106-08:29:30.561|56=IFIX-EQ-UAT|1=L00-000012D8|11=1|38=1|40=1|54=1|55=SBER|386=1|336=TQBR|526=2076087002|10=040|
20220106-08:29:30.891792000 : 8=FIX.4.4|9=282|35=8|49=IFIX-EQ-UAT|56=MU9051500001|34=119|52=20220106-08:29:31.910107432|37=NONE|526=2076087002|11=1|17=1|8|NONE|150=8|39=8|103=6|1=L00-000012D8|55=SBER|54=1|38=1|40=1|336=TQBR|151=0|14=0|6=0|60=20220106-08:29:31|58=Duplicate ClOrdID (11) received|5979=20220106-08:29:31.909998969|10=119|
20220106-08:29:30.892024000 : 8=FIX.4.4|9=118|35=3|34=131|49=MU9051500001|52=20220106-08:29:30.891|56=IFIX-EQ-UAT|45=119|58=Invalid tag number|371=5979|372=8|373=0|10=160|
20220106-08:29:40.090578000 : 8=FIX.4.4|9=141|35=D|34=132|49=MU9051500001|52=20220106-08:29:40.090|56=IFIX-EQ-UAT|1=L00-000012D8|11=2|38=1|40=1|54=1|55=SBER|386=1|336=TQBR|526=2076087002|10=041|
20220106-08:29:40.414090000 : 8=FIX.4.4|9=282|35=8|49=IFIX-EQ-UAT|56=MU9051500001|34=120|52=20220106-08:29:41.435029976|37=NONE|526=2076087002|11=2|17=2|8|NONE|150=8|39=8|103=6|1=L00-000012D8|55=SBER|54=1|38=1|40=1|336=TQBR|151=0|14=0|6=0|60=20220106-08:29:41|58=Duplicate ClOrdID (11) received|5979=20220106-08:29:41.434962093|10=106|
20220106-08:29:40.414455000 : 8=FIX.4.4|9=118|35=3|34=133|49=MU9051500001|52=20220106-08:29:40.414|56=IFIX-EQ-UAT|45=120|58=Invalid tag number|371=5979|372=8|373=0|10=146|
20220106-08:30:05.313121000 : 8=FIX.4.4|9=77|35=1|34=134|49=MU9051500001|52=20220106-08:30:05.313|56=IFIX-EQ-UAT|112=TEST|10=233|
20220106-08:30:05.638058000 : 8=FIX.4.4|9=83|35=0|49=IFIX-EQ-UAT|56=MU9051500001|34=121|52=20220106-08:30:06.659381071|112=TEST|10=035|
20220106-08:31:04.897194000 : 8=FIX.4.4|9=74|35=0|49=IFIX-EQ-UAT|56=MU9051500001|34=122|52=20220106-08:31:05.918349604|10=022|
20220106-08:31:05.210036000 : 8=FIX.4.4|9=68|35=0|34=135|49=MU9051500001|52=20220106-08:31:05.209|56=IFIX-EQ-UAT|10=220|
20220106-08:32:04.905590000 : 8=FIX.4.4|9=74|35=0|49=IFIX-EQ-UAT|56=MU9051500001|34=123|52=20220106-08:32:05.925658070|10=022|
20220106-08:32:05.200163000 : 8=FIX.4.4|9=68|35=0|34=136|49=MU9051500001|52=20220106-08:32:05.199|56=IFIX-EQ-UAT|10=230|
20220106-08:33:04.907231000 : 8=FIX.4.4|9=74|35=0|49=IFIX-EQ-UAT|56=MU9051500001|34=124|52=20220106-08:33:05.927824528|10=029|
20220106-08:33:05.085032000 : 8=FIX.4.4|9=68|35=0|34=137|49=MU9051500001|52=20220106-08:33:05.084|56=IFIX-EQ-UAT|10=225|
20220106-08:33:07.542698000 : 8=FIX.4.4|9=160|35=D|34=138|49=MU9051500001|52=20220106-08:33:07.541|56=IFIX-EQ-UAT|1=L00-000012D8|11=euhs ejxvilkahjlrljw|38=1|40=1|54=1|55=SBER|386=1|336=TQBR|526=2076087002|10=045|
20220106-08:33:07.868648000 : 8=FIX.4.4|9=334|35=8|49=IFIX-EQ-UAT|56=MU9051500001|34=125|52=20220106-08:33:08.888644033|37=NONE|526=2076087002|11=euhs ejxvilkahjlrljw|17=euhs ejxvilkahjlrljw|8|NONE|150=8|39=8|103=99|1=L00-000012D8|55=SBER|54=1|38=1|40=1|336=TQBR|151=0|14=0|6=0|60=20220106-08:33:08|58=ERROR: (533) Invalid client code|5979=20220106-08:33:08.887570695|9412=888191|10=185|
20220106-08:33:07.868996000 : 8=FIX.4.4|9=118|35=3|34=139|49=MU9051500001|52=20220106-08:33:07.868|56=IFIX-EQ-UAT|45=125|58=Invalid tag number|371=5979|372=8|373=0|10=168|
20220106-08:34:06.910061000 : 8=FIX.4.4|9=74|35=0|49=IFIX-EQ-UAT|56=MU9051500001|34=126|52=20220106-08:34:07.931531292|10=022|
20220106-08:34:07.030176000 : 8=FIX.4.4|9=68|35=0|34=140|49=MU9051500001|52=20220106-08:34:07.029|56=IFIX-EQ-UAT|10=221|
20220106-08:34:22.904305000 : 8=FIX.4.4|9=160|35=D|34=141|49=MU9051500001|52=20220106-08:34:22.904|56=IFIX-EQ-UAT|1=L00-000012D8|11=tsutflulumguouctulfl|38=1|40=1|54=1|55=SBER|386=1|336=TQBR|526=2076087002|10=167|
20220106-08:34:23.274162000 : 8=FIX.4.4|9=334|35=8|49=IFIX-EQ-UAT|56=MU9051500001|34=127|52=20220106-08:34:24.250843891|37=NONE|526=2076087002|11=tsutflulumguouctulfl|17=tsutflulumguouctulfl|8|NONE|150=8|39=8|103=99|1=L00-000012D8|55=SBER|54=1|38=1|40=1|336=TQBR|151=0|14=0|6=0|60=20220106-08:34:24|58=ERROR: (533) Invalid client code|5979=20220106-08:34:24.249655994|9412=250244|10=158|
20220106-08:34:23.274820000 : 8=FIX.4.4|9=118|35=3|34=142|49=MU9051500001|52=20220106-08:34:23.274|56=IFIX-EQ-UAT|45=127|58=Invalid tag number|371=5979|372=8|373=0|10=154|
20220106-08:34:54.574488000 : 8=FIX.4.4|9=145|35=D|34=143|49=MU9051500001|52=20220106-08:34:54.574|56=IFIX-EQ-UAT|1=L00-000012D8|11=twsclqclsixrzucnzjhl|38=1|40=1|54=1|55=SBER|386=1|336=TQBR|10=213|
20220106-08:34:54.899701000 : 8=FIX.4.4|9=319|35=8|49=IFIX-EQ-UAT|56=MU9051500001|34=128|52=20220106-08:34:55.922325650|37=NONE|11=twsclqclsixrzucnzjhl|17=twsclqclsixrzucnzjhl|8|NONE|150=8|39=8|103=99|1=L00-000012D8|55=SBER|54=1|38=1|40=1|336=TQBR|151=0|14=0|6=0|60=20220106-08:34:55|58=ERROR: (533) Invalid client code|5979=20220106-08:34:55.921351514|9412=921855|10=188|
20220106-08:34:54.900085000 : 8=FIX.4.4|9=118|35=3|34=144|49=MU9051500001|52=20220106-08:34:54.899|56=IFIX-EQ-UAT|45=128|58=Invalid tag number|371=5979|372=8|373=0|10=174|
20220106-08:35:18.093761000 : 8=FIX.4.4|9=77|35=1|34=145|49=MU9051500001|52=20220106-08:35:18.093|56=IFIX-EQ-UAT|112=TEST|10=249|
20220106-08:35:18.501884000 : 8=FIX.4.4|9=83|35=0|49=IFIX-EQ-UAT|56=MU9051500001|34=129|52=20220106-08:35:19.440600218|112=TEST|10=037|
20220106-08:36:17.917778000 : 8=FIX.4.4|9=74|35=0|49=IFIX-EQ-UAT|56=MU9051500001|34=130|52=20220106-08:36:18.940326910|10=020|
20220106-08:36:18.874105000 : 8=FIX.4.4|9=68|35=0|34=146|49=MU9051500001|52=20220106-08:36:18.873|56=IFIX-EQ-UAT|10=238|
20220106-08:37:17.921166000 : 8=FIX.4.4|9=74|35=0|49=IFIX-EQ-UAT|56=MU9051500001|34=131|52=20220106-08:37:18.943613409|10=027|
20220106-08:37:18.806159000 : 8=FIX.4.4|9=68|35=0|34=147|49=MU9051500001|52=20220106-08:37:18.805|56=IFIX-EQ-UAT|10=235|
20220106-08:38:02.553316000 : 8=FIX.4.4|9=89|35=A|34=148|49=MU9051500001|52=20220106-08:38:02.534|56=IFIX-EQ-UAT|554=7020|98=0|108=60|10=186|
20220106-08:38:04.781797000 : 8=FIX.4.4|9=86|35=A|49=IFIX-EQ-UAT|56=MU9051500001|34=132|52=20220106-08:38:05.804014691|98=0|108=60|10=067|
20220106-08:41:06.993240000 : 8=FIX.4.4|9=89|35=A|34=149|49=MU9051500001|52=20220106-08:41:06.973|56=IFIX-EQ-UAT|554=7020|98=0|108=60|10=192|
20220106-08:41:09.202225000 : 8=FIX.4.4|9=86|35=A|49=IFIX-EQ-UAT|56=MU9051500001|34=133|52=20220106-08:41:10.226194750|98=0|108=60|10=061|
20220106-08:41:36.573150000 : 8=FIX.4.4|9=145|35=D|34=150|49=MU9051500001|52=20220106-08:41:36.570|56=IFIX-EQ-UAT|1=L00-000012D8|11=wuzkhcmosygpbmtwwwrq|38=1|40=1|54=1|55=SBER|386=1|336=TQBR|10=232|
20220106-08:41:36.897296000 : 8=FIX.4.4|9=319|35=8|49=IFIX-EQ-UAT|56=MU9051500001|34=134|52=20220106-08:41:37.921550594|37=NONE|11=wuzkhcmosygpbmtwwwrq|17=wuzkhcmosygpbmtwwwrq|8|NONE|150=8|39=8|103=99|1=L00-000012D8|55=SBER|54=1|38=1|40=1|336=TQBR|151=0|14=0|6=0|60=20220106-08:41:37|58=ERROR: (533) Invalid client code|5979=20220106-08:41:37.920621749|9412=921139|10=243|
20220106-08:41:36.914074000 : 8=FIX.4.4|9=118|35=3|34=151|49=MU9051500001|52=20220106-08:41:36.897|56=IFIX-EQ-UAT|45=134|58=Invalid tag number|371=5979|372=8|373=0|10=165|
20220106-08:41:55.284126000 : 8=FIX.4.4|9=145|35=D|34=152|49=MU9051500001|52=20220106-08:41:55.281|56=IFIX-EQ-UAT|1=L00-000012D8|11=wuzkhcmosygpbmtwwwrq|38=1|40=1|54=1|55=SBER|386=1|336=TQBR|10=234|
20220106-08:41:55.609235000 : 8=FIX.4.4|9=305|35=8|49=IFIX-EQ-UAT|56=MU9051500001|34=135|52=20220106-08:41:56.630931032|37=NONE|11=wuzkhcmosygpbmtwwwrq|17=wuzkhcmosygpbmtwwwrq|8|NONE|150=8|39=8|103=6|1=L00-000012D8|55=SBER|54=1|38=1|40=1|336=TQBR|151=0|14=0|6=0|60=20220106-08:41:56|58=Duplicate ClOrdID (11) received|5979=20220106-08:41:56.630854324|10=162|
20220106-08:41:55.624203000 : 8=FIX.4.4|9=118|35=3|34=153|49=MU9051500001|52=20220106-08:41:55.609|56=IFIX-EQ-UAT|45=135|58=Invalid tag number|371=5979|372=8|373=0|10=160|
20220106-08:42:21.464935000 : 8=FIX.4.4|9=77|35=1|34=154|49=MU9051500001|52=20220106-08:42:21.447|56=IFIX-EQ-UAT|112=TEST|10=244|
20220106-08:42:21.788122000 : 8=FIX.4.4|9=83|35=0|49=IFIX-EQ-UAT|56=MU9051500001|34=136|52=20220106-08:42:22.812852483|112=TEST|10=043|
20220106-08:43:21.050701000 : 8=FIX.4.4|9=68|35=0|34=155|49=MU9051500001|52=20220106-08:43:21.035|56=IFIX-EQ-UAT|10=220|
20220106-08:43:21.212926000 : 8=FIX.4.4|9=74|35=0|49=IFIX-EQ-UAT|56=MU9051500001|34=137|52=20220106-08:43:22.230486585|10=027|
20220106-08:44:21.228326000 : 8=FIX.4.4|9=68|35=0|34=156|49=MU9051500001|52=20220106-08:44:21.208|56=IFIX-EQ-UAT|10=224|
20220106-08:44:21.228409000 : 8=FIX.4.4|9=74|35=0|49=IFIX-EQ-UAT|56=MU9051500001|34=138|52=20220106-08:44:22.234183610|10=016|
20220106-08:45:21.177388000 : 8=FIX.4.4|9=68|35=0|34=157|49=MU9051500001|52=20220106-08:45:21.160|56=IFIX-EQ-UAT|10=223|
20220106-08:45:21.211088000 : 8=FIX.4.4|9=74|35=0|49=IFIX-EQ-UAT|56=MU9051500001|34=139|52=20220106-08:45:22.236354641|10=024|
20220106-08:46:21.204918000 : 8=FIX.4.4|9=68|35=0|34=158|49=MU9051500001|52=20220106-08:46:21.186|56=IFIX-EQ-UAT|10=233|
20220106-08:46:21.216432000 : 8=FIX.4.4|9=74|35=0|49=IFIX-EQ-UAT|56=MU9051500001|34=140|52=20220106-08:46:22.239837640|10=025|
20220106-08:47:21.192154000 : 8=FIX.4.4|9=68|35=0|34=159|49=MU9051500001|52=20220106-08:47:21.174|56=IFIX-EQ-UAT|10=232|
20220106-08:47:21.219013000 : 8=FIX.4.4|9=74|35=0|49=IFIX-EQ-UAT|56=MU9051500001|34=141|52=20220106-08:47:22.245923006|10=016|
20220106-08:48:21.039494000 : 8=FIX.4.4|9=68|35=0|34=160|49=MU9051500001|52=20220106-08:48:21.026|56=IFIX-EQ-UAT|10=221|
20220106-08:48:21.222645000 : 8=FIX.4.4|9=74|35=0|49=IFIX-EQ-UAT|56=MU9051500001|34=142|52=20220106-08:48:22.248917139|10=031|
20220106-08:48:43.144137000 : 8=FIX.4.4|9=89|35=A|34=161|49=MU9051500001|52=20220106-08:48:43.130|56=IFIX-EQ-UAT|554=7020|98=0|108=60|10=179|
20220106-08:48:45.354510000 : 8=FIX.4.4|9=86|35=A|49=IFIX-EQ-UAT|56=MU9051500001|34=143|52=20220106-08:48:46.381010599|98=0|108=60|10=078|
20220106-08:49:01.228073000 : 8=FIX.4.4|9=145|35=D|34=162|49=MU9051500001|52=20220106-08:49:01.214|56=IFIX-EQ-UAT|1=L00-000012D8|11=hkipfcckwwombodfkysx|38=1|40=1|54=1|55=SBER|386=1|336=TQBR|10=151|
20220106-08:49:01.549863000 : 8=FIX.4.4|9=319|35=8|49=IFIX-EQ-UAT|56=MU9051500001|34=144|52=20220106-08:49:02.577429991|37=NONE|11=hkipfcckwwombodfkysx|17=hkipfcckwwombodfkysx|8|NONE|150=8|39=8|103=99|1=L00-000012D8|55=SBER|54=1|38=1|40=1|336=TQBR|151=0|14=0|6=0|60=20220106-08:49:02|58=ERROR: (533) Invalid client code|5979=20220106-08:49:02.576382985|9412=577031|10=110|
20220106-08:49:01.567104000 : 8=FIX.4.4|9=118|35=3|34=163|49=MU9051500001|52=20220106-08:49:01.550|56=IFIX-EQ-UAT|45=144|58=Invalid tag number|371=5979|372=8|373=0|10=155|
20220106-08:49:57.700926000 : 8=FIX.4.4|9=77|35=1|34=164|49=MU9051500001|52=20220106-08:49:57.684|56=IFIX-EQ-UAT|112=TEST|10=008|
20220106-08:49:58.127678000 : 8=FIX.4.4|9=83|35=0|49=IFIX-EQ-UAT|56=MU9051500001|34=145|52=20220106-08:49:59.049546839|112=TEST|10=067|
20220106-08:50:21.823358000 : 8=FIX.4.4|9=145|35=D|34=165|49=MU9051500001|52=20220106-08:50:21.808|56=IFIX-EQ-UAT|1=L00-000012D8|11=ylhhvbbzutvqcdqdtaer|38=1|40=1|54=1|55=SBER|386=1|336=TQBR|10=167|
20220106-08:50:22.214598000 : 8=FIX.4.4|9=319|35=8|49=IFIX-EQ-UAT|56=MU9051500001|34=146|52=20220106-08:50:23.174286148|37=NONE|11=ylhhvbbzutvqcdqdtaer|17=ylhhvbbzutvqcdqdtaer|8|NONE|150=8|39=8|103=99|1=L00-000012D8|55=SBER|54=1|38=1|40=1|336=TQBR|151=0|14=0|6=0|60=20220106-08:50:23|58=ERROR: (533) Invalid client code|5979=20220106-08:50:23.172998205|9412=173640|10=093|
20220106-08:50:22.228343000 : 8=FIX.4.4|9=118|35=3|34=166|49=MU9051500001|52=20220106-08:50:22.215|56=IFIX-EQ-UAT|45=146|58=Invalid tag number|371=5979|372=8|373=0|10=153|
20220106-08:51:10.091295000 : 8=FIX.4.4|9=77|35=1|34=167|49=MU9051500001|52=20220106-08:51:10.075|56=IFIX-EQ-UAT|112=TEST|10=243|
20220106-08:51:10.580976000 : 8=FIX.4.4|9=83|35=0|49=IFIX-EQ-UAT|56=MU9051500001|34=147|52=20220106-08:51:11.441738191|112=TEST|10=040|
20220106-08:52:10.365472000 : 8=FIX.4.4|9=68|35=0|34=168|49=MU9051500001|52=20220106-08:52:10.350|56=IFIX-EQ-UAT|10=222|
20220106-08:52:10.421995000 : 8=FIX.4.4|9=74|35=0|49=IFIX-EQ-UAT|56=MU9051500001|34=148|52=20220106-08:52:11.388599394|10=044|
20220106-08:52:30.757526000 : 8=FIX.4.4|9=145|35=D|34=169|49=MU9051500001|52=20220106-08:52:30.746|56=IFIX-EQ-UAT|1=L00-000012D8|11=ngcaqxgvonqhbqwjequj|38=1|40=1|54=1|55=SBER|386=1|336=TQBR|10=171|
20220106-08:52:31.184237000 : 8=FIX.4.4|9=319|35=8|49=IFIX-EQ-UAT|56=MU9051500001|34=149|52=20220106-08:52:32.109539401|37=NONE|11=ngcaqxgvonqhbqwjequj|17=ngcaqxgvonqhbqwjequj|8|NONE|150=8|39=8|103=99|1=L00-000012D8|55=SBER|54=1|38=1|40=1|336=TQBR|151=0|14=0|6=0|60=20220106-08:52:32|58=ERROR: (533) Invalid client code|5979=20220106-08:52:32.108417940|9412=109162|10=076|
20220106-08:52:31.195772000 : 8=FIX.4.4|9=118|35=3|34=170|49=MU9051500001|52=20220106-08:52:31.184|56=IFIX-EQ-UAT|45=149|58=Invalid tag number|371=5979|372=8|373=0|10=158|
20220106-08:53:22.022228000 : 8=FIX.4.4|9=77|35=1|34=171|49=MU9051500001|52=20220106-08:53:22.003|56=IFIX-EQ-UAT|112=TEST|10=234|
20220106-08:53:22.491168000 : 8=FIX.4.4|9=83|35=0|49=IFIX-EQ-UAT|56=MU9051500001|34=150|52=20220106-08:53:23.372414887|112=TEST|10=045|
20220106-08:54:21.369431000 : 8=FIX.4.4|9=74|35=0|49=IFIX-EQ-UAT|56=MU9051500001|34=151|52=20220106-08:54:22.398390752|10=030|
20220106-08:54:22.134343000 : 8=FIX.4.4|9=68|35=0|34=172|49=MU9051500001|52=20220106-08:54:22.123|56=IFIX-EQ-UAT|10=220|
20220106-08:55:21.378156000 : 8=FIX.4.4|9=74|35=0|49=IFIX-EQ-UAT|56=MU9051500001|34=152|52=20220106-08:55:22.403150435|10=011|
20220106-08:55:22.029176000 : 8=FIX.4.4|9=68|35=0|34=173|49=MU9051500001|52=20220106-08:55:22.021|56=IFIX-EQ-UAT|10=219|
20220106-08:56:21.378433000 : 8=FIX.4.4|9=74|35=0|49=IFIX-EQ-UAT|56=MU9051500001|34=153|52=20220106-08:56:22.406343273|10=020|
20220106-08:56:22.106264000 : 8=FIX.4.4|9=68|35=0|34=174|49=MU9051500001|52=20220106-08:56:22.092|56=IFIX-EQ-UAT|10=229|
20220106-08:57:21.479645000 : 8=FIX.4.4|9=74|35=0|49=IFIX-EQ-UAT|56=MU9051500001|34=154|52=20220106-08:57:22.406482523|10=024|
20220106-08:57:22.137282000 : 8=FIX.4.4|9=68|35=0|34=175|49=MU9051500001|52=20220106-08:57:22.120|56=IFIX-EQ-UAT|10=223|
20220106-08:58:21.485489000 : 8=FIX.4.4|9=74|35=0|49=IFIX-EQ-UAT|56=MU9051500001|34=155|52=20220106-08:58:22.410499693|10=037|
20220106-08:58:22.026939000 : 8=FIX.4.4|9=68|35=0|34=176|49=MU9051500001|52=20220106-08:58:22.016|56=IFIX-EQ-UAT|10=229|
20220106-08:58:24.675413000 : 8=FIX.4.4|9=132|35=D|34=177|49=MU9051500001|52=20220106-08:58:24.661|56=IFIX-EQ-UAT|1=L00-000012D8|11=1231231|38=1|40=1|54=1|55=SBER|386=1|336=TQBR|10=138|
20220106-08:58:25.161550000 : 8=FIX.4.4|9=293|35=8|49=IFIX-EQ-UAT|56=MU9051500001|34=156|52=20220106-08:58:26.027903668|37=NONE|11=1231231|17=1231231|8|NONE|150=8|39=8|103=99|1=L00-000012D8|55=SBER|54=1|38=1|40=1|336=TQBR|151=0|14=0|6=0|60=20220106-08:58:26|58=ERROR: (533) Invalid client code|5979=20220106-08:58:26.026658396|9412=027459|10=064|
20220106-08:58:25.178941000 : 8=FIX.4.4|9=118|35=3|34=178|49=MU9051500001|52=20220106-08:58:25.161|56=IFIX-EQ-UAT|45=156|58=Invalid tag number|371=5979|372=8|373=0|10=168|
20220106-08:59:24.504966000 : 8=FIX.4.4|9=74|35=0|49=IFIX-EQ-UAT|56=MU9051500001|34=157|52=20220106-08:59:25.410220943|10=023|
20220106-08:59:25.487432000 : 8=FIX.4.4|9=68|35=0|34=179|49=MU9051500001|52=20220106-08:59:25.470|56=IFIX-EQ-UAT|10=240|
20220106-09:00:24.386713000 : 8=FIX.4.4|9=74|35=0|49=IFIX-EQ-UAT|56=MU9051500001|34=158|52=20220106-09:00:25.412424741|10=015|
20220106-09:00:25.338386000 : 8=FIX.4.4|9=68|35=0|34=180|49=MU9051500001|52=20220106-09:00:25.320|56=IFIX-EQ-UAT|10=213|
20220106-09:01:24.384551000 : 8=FIX.4.4|9=74|35=0|49=IFIX-EQ-UAT|56=MU9051500001|34=159|52=20220106-09:01:25.413897697|10=042|
20220106-09:01:25.301890000 : 8=FIX.4.4|9=68|35=0|34=181|49=MU9051500001|52=20220106-09:01:25.286|56=IFIX-EQ-UAT|10=226|
20220106-09:02:24.386779000 : 8=FIX.4.4|9=74|35=0|49=IFIX-EQ-UAT|56=MU9051500001|34=160|52=20220106-09:02:25.417933617|10=022|
20220106-09:02:25.275157000 : 8=FIX.4.4|9=68|35=0|34=182|49=MU9051500001|52=20220106-09:02:25.259|56=IFIX-EQ-UAT|10=228|
20220106-09:03:24.390818000 : 8=FIX.4.4|9=74|35=0|49=IFIX-EQ-UAT|56=MU9051500001|34=161|52=20220106-09:03:25.420248517|10=016|
20220106-09:03:25.252237000 : 8=FIX.4.4|9=68|35=0|34=183|49=MU9051500001|52=20220106-09:03:25.233|56=IFIX-EQ-UAT|10=222|
20220106-09:04:24.392395000 : 8=FIX.4.4|9=74|35=0|49=IFIX-EQ-UAT|56=MU9051500001|34=162|52=20220106-09:04:25.423355457|10=023|
20220106-09:04:25.219676000 : 8=FIX.4.4|9=68|35=0|34=184|49=MU9051500001|52=20220106-09:04:25.202|56=IFIX-EQ-UAT|10=220|
20220106-09:05:24.395602000 : 8=FIX.4.4|9=74|35=0|49=IFIX-EQ-UAT|56=MU9051500001|34=163|52=20220106-09:05:25.427197707|10=031|
20220106-09:05:25.193165000 : 8=FIX.4.4|9=68|35=0|34=185|49=MU9051500001|52=20220106-09:05:25.175|56=IFIX-EQ-UAT|10=231|
20220106-09:06:24.399927000 : 8=FIX.4.4|9=74|35=0|49=IFIX-EQ-UAT|56=MU9051500001|34=164|52=20220106-09:06:25.432148501|10=017|
20220106-09:06:25.163587000 : 8=FIX.4.4|9=68|35=0|34=186|49=MU9051500001|52=20220106-09:06:25.147|56=IFIX-EQ-UAT|10=232|
20220106-09:07:24.402530000 : 8=FIX.4.4|9=74|35=0|49=IFIX-EQ-UAT|56=MU9051500001|34=165|52=20220106-09:07:25.434070916|10=025|
20220106-09:07:25.132856000 : 8=FIX.4.4|9=68|35=0|34=187|49=MU9051500001|52=20220106-09:07:25.119|56=IFIX-EQ-UAT|10=233|
20220106-09:08:01.780907000 : 8=FIX.4.4|9=89|35=A|34=188|49=MU9051500001|52=20220106-09:08:01.760|56=IFIX-EQ-UAT|554=7020|98=0|108=60|10=188|
20220106-09:08:03.990136000 : 8=FIX.4.4|9=86|35=A|49=IFIX-EQ-UAT|56=MU9051500001|34=166|52=20220106-09:08:05.018526452|98=0|108=60|10=072|
20220106-09:08:15.754822000 : 8=FIX.4.4|9=132|35=D|34=189|49=MU9051500001|52=20220106-09:08:15.740|56=IFIX-EQ-UAT|1=L00-000012D8|11=1231231|38=1|40=1|54=1|55=SBER|386=1|336=TQBR|10=135|
20220106-09:08:16.077200000 : 8=FIX.4.4|9=279|35=8|49=IFIX-EQ-UAT|56=MU9051500001|34=167|52=20220106-09:08:17.107635283|37=NONE|11=1231231|17=1231231|8|NONE|150=8|39=8|103=6|1=L00-000012D8|55=SBER|54=1|38=1|40=1|336=TQBR|151=0|14=0|6=0|60=20220106-09:08:17|58=Duplicate ClOrdID (11) received|5979=20220106-09:08:17.107523250|10=224|
20220106-09:09:15.397584000 : 8=FIX.4.4|9=68|35=0|34=190|49=MU9051500001|52=20220106-09:09:15.380|56=IFIX-EQ-UAT|10=228|
20220106-09:09:15.990541000 : 8=FIX.4.4|9=74|35=0|49=IFIX-EQ-UAT|56=MU9051500001|34=168|52=20220106-09:09:17.021221790|10=021|
20220106-09:10:15.498145000 : 8=FIX.4.4|9=68|35=0|34=191|49=MU9051500001|52=20220106-09:10:15.479|56=IFIX-EQ-UAT|10=230|
20220106-09:10:15.994498000 : 8=FIX.4.4|9=74|35=0|49=IFIX-EQ-UAT|56=MU9051500001|34=169|52=20220106-09:10:17.025187362|10=024|
20220106-09:11:15.411238000 : 8=FIX.4.4|9=68|35=0|34=192|49=MU9051500001|52=20220106-09:11:15.393|56=IFIX-EQ-UAT|10=227|
20220106-09:11:15.995574000 : 8=FIX.4.4|9=74|35=0|49=IFIX-EQ-UAT|56=MU9051500001|34=170|52=20220106-09:11:17.028156251|10=013|
20220106-09:12:08.851975000 : 8=FIX.4.4|9=133|35=D|34=193|49=MU9051500001|52=20220106-09:12:08.836|56=IFIX-EQ-UAT|1=L00-000012D8|11=12312315|38=1|40=1|54=1|55=SBER|386=1|336=TQBR|10=187|
20220106-09:12:09.173193000 : 8=FIX.4.4|9=295|35=8|49=IFIX-EQ-UAT|56=MU9051500001|34=171|52=20220106-09:12:10.206368286|37=NONE|11=12312315|17=12312315|8|NONE|150=8|39=8|103=99|1=L00-000012D8|55=SBER|54=1|38=1|40=1|336=TQBR|151=0|14=0|6=0|60=20220106-09:12:10|58=ERROR: (533) Invalid client code|5979=20220106-09:12:10.205316185|9412=206140|10=093|
20220106-09:12:09.192549000 : 8=FIX.4.4|9=118|35=3|34=194|49=MU9051500001|52=20220106-09:12:09.173|56=IFIX-EQ-UAT|45=171|58=Invalid tag number|371=9412|372=8|373=0|10=145|
20220106-09:12:27.570962000 : 8=FIX.4.4|9=77|35=1|34=195|49=MU9051500001|52=20220106-09:12:27.555|56=IFIX-EQ-UAT|112=TEST|10=253|
20220106-09:12:27.892987000 : 8=FIX.4.4|9=83|35=0|49=IFIX-EQ-UAT|56=MU9051500001|34=172|52=20220106-09:12:28.925090607|112=TEST|10=044|
20220106-09:13:27.006354000 : 8=FIX.4.4|9=74|35=0|49=IFIX-EQ-UAT|56=MU9051500001|34=173|52=20220106-09:13:28.039114845|10=025|
20220106-09:13:27.022005000 : 8=FIX.4.4|9=68|35=0|34=196|49=MU9051500001|52=20220106-09:13:27.007|56=IFIX-EQ-UAT|10=228|
20220106-09:14:27.008506000 : 8=FIX.4.4|9=74|35=0|49=IFIX-EQ-UAT|56=MU9051500001|34=174|52=20220106-09:14:28.042203591|10=018|
20220106-09:14:27.031447000 : 8=FIX.4.4|9=68|35=0|34=197|49=MU9051500001|52=20220106-09:14:27.009|56=IFIX-EQ-UAT|10=232|
20220106-09:15:27.020367000 : 8=FIX.4.4|9=74|35=0|49=IFIX-EQ-UAT|56=MU9051500001|34=175|52=20220106-09:15:28.045598599|10=048|
20220106-09:15:27.031326000 : 8=FIX.4.4|9=68|35=0|34=198|49=MU9051500001|52=20220106-09:15:27.020|56=IFIX-EQ-UAT|10=227|
20220106-09:16:27.017087000 : 8=FIX.4.4|9=74|35=0|49=IFIX-EQ-UAT|56=MU9051500001|34=176|52=20220106-09:16:28.049194784|10=042|
20220106-09:16:27.035532000 : 8=FIX.4.4|9=68|35=0|34=199|49=MU9051500001|52=20220106-09:16:27.017|56=IFIX-EQ-UAT|10=235|
20220106-09:17:27.020215000 : 8=FIX.4.4|9=74|35=0|49=IFIX-EQ-UAT|56=MU9051500001|34=177|52=20220106-09:17:28.054521768|10=036|
20220106-09:17:27.035627000 : 8=FIX.4.4|9=68|35=0|34=200|49=MU9051500001|52=20220106-09:17:27.020|56=IFIX-EQ-UAT|10=213|
20220106-09:18:27.022852000 : 8=FIX.4.4|9=74|35=0|49=IFIX-EQ-UAT|56=MU9051500001|34=178|52=20220106-09:18:28.055372327|10=034|
20220106-09:18:27.040371000 : 8=FIX.4.4|9=68|35=0|34=201|49=MU9051500001|52=20220106-09:18:27.023|56=IFIX-EQ-UAT|10=218|
20220106-09:19:27.028384000 : 8=FIX.4.4|9=74|35=0|49=IFIX-EQ-UAT|56=MU9051500001|34=179|52=20220106-09:19:28.060545997|10=047|
20220106-09:19:27.039646000 : 8=FIX.4.4|9=68|35=0|34=202|49=MU9051500001|52=20220106-09:19:27.029|56=IFIX-EQ-UAT|10=226|
20220106-09:20:27.031235000 : 8=FIX.4.4|9=74|35=0|49=IFIX-EQ-UAT|56=MU9051500001|34=180|52=20220106-09:20:28.065814640|10=020|
20220106-09:20:27.049420000 : 8=FIX.4.4|9=68|35=0|34=203|49=MU9051500001|52=20220106-09:20:27.031|56=IFIX-EQ-UAT|10=212|
20220106-09:21:27.034373000 : 8=FIX.4.4|9=74|35=0|49=IFIX-EQ-UAT|56=MU9051500001|34=181|52=20220106-09:21:28.068986006|10=031|
20220106-09:21:27.054440000 : 8=FIX.4.4|9=68|35=0|34=204|49=MU9051500001|52=20220106-09:21:27.035|56=IFIX-EQ-UAT|10=218|
20220106-09:22:27.185824000 : 8=FIX.4.4|9=68|35=0|34=205|49=MU9051500001|52=20220106-09:22:27.173|56=IFIX-EQ-UAT|10=223|
20220106-09:22:27.185908000 : 8=FIX.4.4|9=74|35=0|49=IFIX-EQ-UAT|56=MU9051500001|34=182|52=20220106-09:22:28.076227836|10=031|
20220106-09:23:27.077031000 : 8=FIX.4.4|9=68|35=0|34=206|49=MU9051500001|52=20220106-09:23:27.069|56=IFIX-EQ-UAT|10=229|
20220106-09:23:27.080150000 : 8=FIX.4.4|9=74|35=0|49=IFIX-EQ-UAT|56=MU9051500001|34=183|52=20220106-09:23:28.079689074|10=042|
20220106-09:24:27.048156000 : 8=FIX.4.4|9=74|35=0|49=IFIX-EQ-UAT|56=MU9051500001|34=184|52=20220106-09:24:28.083436799|10=043|
20220106-09:24:27.067110000 : 8=FIX.4.4|9=68|35=0|34=207|49=MU9051500001|52=20220106-09:24:27.049|56=IFIX-EQ-UAT|10=229|
20220106-09:25:27.075958000 : 8=FIX.4.4|9=74|35=0|49=IFIX-EQ-UAT|56=MU9051500001|34=185|52=20220106-09:25:28.086866937|10=049|
20220106-09:25:27.089052000 : 8=FIX.4.4|9=68|35=0|34=208|49=MU9051500001|52=20220106-09:25:27.076|56=IFIX-EQ-UAT|10=231|
20220106-09:26:27.089646000 : 8=FIX.4.4|9=68|35=0|34=209|49=MU9051500001|52=20220106-09:26:27.070|56=IFIX-EQ-UAT|10=227|
20220106-09:26:27.096965000 : 8=FIX.4.4|9=74|35=0|49=IFIX-EQ-UAT|56=MU9051500001|34=186|52=20220106-09:26:28.089849467|10=053|
20220106-09:27:27.116694000 : 8=FIX.4.4|9=68|35=0|34=210|49=MU9051500001|52=20220106-09:27:27.098|56=IFIX-EQ-UAT|10=230|
20220106-09:27:27.121351000 : 8=FIX.4.4|9=74|35=0|49=IFIX-EQ-UAT|56=MU9051500001|34=187|52=20220106-09:27:28.096168418|10=043|
20220106-09:28:27.064735000 : 8=FIX.4.4|9=74|35=0|49=IFIX-EQ-UAT|56=MU9051500001|34=188|52=20220106-09:28:28.097998399|10=065|
20220106-09:28:27.092008000 : 8=FIX.4.4|9=68|35=0|34=211|49=MU9051500001|52=20220106-09:28:27.067|56=IFIX-EQ-UAT|10=228|
20220106-09:29:27.069306000 : 8=FIX.4.4|9=74|35=0|49=IFIX-EQ-UAT|56=MU9051500001|34=189|52=20220106-09:29:28.103777678|10=050|
20220106-09:29:27.088899000 : 8=FIX.4.4|9=68|35=0|34=212|49=MU9051500001|52=20220106-09:29:27.070|56=IFIX-EQ-UAT|10=224|
20220106-09:30:27.098307000 : 8=FIX.4.4|9=74|35=0|49=IFIX-EQ-UAT|56=MU9051500001|34=190|52=20220106-09:30:28.109572129|10=024|
20220106-09:30:27.123639000 : 8=FIX.4.4|9=68|35=0|34=213|49=MU9051500001|52=20220106-09:30:27.099|56=IFIX-EQ-UAT|10=228|
20220106-09:31:27.342169000 : 8=FIX.4.4|9=74|35=0|49=IFIX-EQ-UAT|56=MU9051500001|34=191|52=20220106-09:31:28.112487993|10=034|
20220106-09:31:27.364224000 : 8=FIX.4.4|9=68|35=0|34=214|49=MU9051500001|52=20220106-09:31:27.345|56=IFIX-EQ-UAT|10=224|
20220106-09:32:27.152081000 : 8=FIX.4.4|9=74|35=0|49=IFIX-EQ-UAT|56=MU9051500001|34=192|52=20220106-09:32:28.114830526|10=022|
20220106-09:32:27.175039000 : 8=FIX.4.4|9=68|35=0|34=215|49=MU9051500001|52=20220106-09:32:27.153|56=IFIX-EQ-UAT|10=223|
20220106-09:33:27.094144000 : 8=FIX.4.4|9=74|35=0|49=IFIX-EQ-UAT|56=MU9051500001|34=193|52=20220106-09:33:28.120754173|10=024|
20220106-09:33:27.123139000 : 8=FIX.4.4|9=68|35=0|34=216|49=MU9051500001|52=20220106-09:33:27.094|56=IFIX-EQ-UAT|10=229|
20220106-09:34:27.090307000 : 8=FIX.4.4|9=74|35=0|49=IFIX-EQ-UAT|56=MU9051500001|34=194|52=20220106-09:34:28.124571766|10=035|
20220106-09:34:27.116008000 : 8=FIX.4.4|9=68|35=0|34=217|49=MU9051500001|52=20220106-09:34:27.092|56=IFIX-EQ-UAT|10=229|
20220106-09:35:27.088739000 : 8=FIX.4.4|9=74|35=0|49=IFIX-EQ-UAT|56=MU9051500001|34=195|52=20220106-09:35:28.124940112|10=022|
20220106-09:35:27.114251000 : 8=FIX.4.4|9=68|35=0|34=218|49=MU9051500001|52=20220106-09:35:27.089|56=IFIX-EQ-UAT|10=237|
20220106-09:36:27.093026000 : 8=FIX.4.4|9=74|35=0|49=IFIX-EQ-UAT|56=MU9051500001|34=196|52=20220106-09:36:28.130247485|10=034|
20220106-09:36:27.121085000 : 8=FIX.4.4|9=68|35=0|34=219|49=MU9051500001|52=20220106-09:36:27.094|56=IFIX-EQ-UAT|10=235|
20220106-09:37:27.098992000 : 8=FIX.4.4|9=74|35=0|49=IFIX-EQ-UAT|56=MU9051500001|34=197|52=20220106-09:37:28.136428199|10=045|
20220106-09:37:27.128978000 : 8=FIX.4.4|9=68|35=0|34=220|49=MU9051500001|52=20220106-09:37:27.100|56=IFIX-EQ-UAT|10=216|
20220106-09:38:27.100474000 : 8=FIX.4.4|9=74|35=0|49=IFIX-EQ-UAT|56=MU9051500001|34=198|52=20220106-09:38:28.137414965|10=044|
20220106-09:38:27.131249000 : 8=FIX.4.4|9=68|35=0|34=221|49=MU9051500001|52=20220106-09:38:27.101|56=IFIX-EQ-UAT|10=219|
20220106-09:39:27.104608000 : 8=FIX.4.4|9=74|35=0|49=IFIX-EQ-UAT|56=MU9051500001|34=199|52=20220106-09:39:28.140376862|10=043|
20220106-09:39:27.128943000 : 8=FIX.4.4|9=68|35=0|34=222|49=MU9051500001|52=20220106-09:39:27.105|56=IFIX-EQ-UAT|10=225|
20220106-09:40:27.141298000 : 8=FIX.4.4|9=74|35=0|49=IFIX-EQ-UAT|56=MU9051500001|34=200|52=20220106-09:40:28.142948878|10=032|
20220106-09:40:27.162830000 : 8=FIX.4.4|9=68|35=0|34=223|49=MU9051500001|52=20220106-09:40:27.141|56=IFIX-EQ-UAT|10=218|
20220106-09:41:27.061080000 : 8=FIX.4.4|9=68|35=0|34=224|49=MU9051500001|52=20220106-09:41:27.041|56=IFIX-EQ-UAT|10=219|
20220106-09:41:27.171682000 : 8=FIX.4.4|9=74|35=0|49=IFIX-EQ-UAT|56=MU9051500001|34=201|52=20220106-09:41:28.142839421|10=017|
20220106-09:42:27.376917000 : 8=FIX.4.4|9=68|35=0|34=225|49=MU9051500001|52=20220106-09:42:27.354|56=IFIX-EQ-UAT|10=228|
20220106-09:42:27.377005000 : 8=FIX.4.4|9=74|35=0|49=IFIX-EQ-UAT|56=MU9051500001|34=202|52=20220106-09:42:28.148928276|10=032|
20220106-09:45:59.162605000 : 8=FIX.4.4|9=89|35=A|34=226|49=MU9051500001|52=20220106-09:45:59.137|56=IFIX-EQ-UAT|554=7020|98=0|108=60|10=193|
20220106-09:46:01.692869000 : 8=FIX.4.4|9=86|35=A|49=IFIX-EQ-UAT|56=MU9051500001|34=203|52=20220106-09:46:02.403930025|98=0|108=60|10=056|
20220106-09:46:51.086458000 : 8=FIX.4.4|9=133|35=D|34=227|49=MU9051500001|52=20220106-09:46:51.065|56=IFIX-EQ-UAT|1=L00-000012D8|11=12312315|38=1|40=1|54=1|55=SBER|386=1|336=TQBR|10=184|
20220106-09:46:51.406481000 : 8=FIX.4.4|9=281|35=8|49=IFIX-EQ-UAT|56=MU9051500001|34=204|52=20220106-09:46:52.446474981|37=NONE|11=12312315|17=12312315|8|NONE|150=8|39=8|103=6|1=L00-000012D8|55=SBER|54=1|38=1|40=1|336=TQBR|151=0|14=0|6=0|60=20220106-09:46:52|58=Duplicate ClOrdID (11) received|5979=20220106-09:46:52.446375427|10=091|
20220106-09:47:01.218898000 : 8=FIX.4.4|9=134|35=D|34=228|49=MU9051500001|52=20220106-09:47:01.206|56=IFIX-EQ-UAT|1=L00-000012D8|11=123123152|38=1|40=1|54=1|55=SBER|386=1|336=TQBR|10=229|
20220106-09:47:01.547915000 : 8=FIX.4.4|9=297|35=8|49=IFIX-EQ-UAT|56=MU9051500001|34=205|52=20220106-09:47:02.580020107|37=NONE|11=123123152|17=123123152|8|NONE|150=8|39=8|103=99|1=L00-000012D8|55=SBER|54=1|38=1|40=1|336=TQBR|151=0|14=0|6=0|60=20220106-09:47:02|58=ERROR: (533) Invalid client code|5979=20220106-09:47:02.578685267|9412=579398|10=253|
20220106-09:48:01.323659000 : 8=FIX.4.4|9=68|35=0|34=229|49=MU9051500001|52=20220106-09:48:01.312|56=IFIX-EQ-UAT|10=224|
20220106-09:48:01.672134000 : 8=FIX.4.4|9=74|35=0|49=IFIX-EQ-UAT|56=MU9051500001|34=206|52=20220106-09:48:02.410061084|10=011|
20220106-09:49:01.082719000 : 8=FIX.4.4|9=68|35=0|34=230|49=MU9051500001|52=20220106-09:49:01.063|56=IFIX-EQ-UAT|10=220|
20220106-09:49:01.413759000 : 8=FIX.4.4|9=74|35=0|49=IFIX-EQ-UAT|56=MU9051500001|34=207|52=20220106-09:49:02.414827137|10=026|
20220106-09:50:01.446698000 : 8=FIX.4.4|9=74|35=0|49=IFIX-EQ-UAT|56=MU9051500001|34=208|52=20220106-09:50:02.415898506|10=028|
20220106-09:50:01.471379000 : 8=FIX.4.4|9=68|35=0|34=231|49=MU9051500001|52=20220106-09:50:01.447|56=IFIX-EQ-UAT|10=219|
20220106-09:51:01.457578000 : 8=FIX.4.4|9=68|35=0|34=232|49=MU9051500001|52=20220106-09:51:01.439|56=IFIX-EQ-UAT|10=222|
20220106-09:51:01.460195000 : 8=FIX.4.4|9=74|35=0|49=IFIX-EQ-UAT|56=MU9051500001|34=209|52=20220106-09:51:02.420296681|10=022|
20220106-09:52:01.383306000 : 8=FIX.4.4|9=74|35=0|49=IFIX-EQ-UAT|56=MU9051500001|34=210|52=20220106-09:52:02.424388363|10=018|
20220106-09:52:01.401539000 : 8=FIX.4.4|9=68|35=0|34=233|49=MU9051500001|52=20220106-09:52:01.384|56=IFIX-EQ-UAT|10=223|
20220106-09:53:01.113098000 : 8=FIX.4.4|9=68|35=0|34=234|49=MU9051500001|52=20220106-09:53:01.093|56=IFIX-EQ-UAT|10=222|
20220106-09:53:01.385445000 : 8=FIX.4.4|9=74|35=0|49=IFIX-EQ-UAT|56=MU9051500001|34=211|52=20220106-09:53:02.426766039|10=022|
20220106-09:54:01.200659000 : 8=FIX.4.4|9=68|35=0|34=235|49=MU9051500001|52=20220106-09:54:01.179|56=IFIX-EQ-UAT|10=229|
20220106-09:54:01.389196000 : 8=FIX.4.4|9=74|35=0|49=IFIX-EQ-UAT|56=MU9051500001|34=212|52=20220106-09:54:02.429960403|10=018|
20220106-09:55:01.369780000 : 8=FIX.4.4|9=68|35=0|34=236|49=MU9051500001|52=20220106-09:55:01.354|56=IFIX-EQ-UAT|10=226|
20220106-09:55:01.421959000 : 8=FIX.4.4|9=74|35=0|49=IFIX-EQ-UAT|56=MU9051500001|34=213|52=20220106-09:55:02.433313453|10=012|
20220106-09:56:01.252819000 : 8=FIX.4.4|9=68|35=0|34=237|49=MU9051500001|52=20220106-09:56:01.235|56=IFIX-EQ-UAT|10=226|
20220106-09:56:01.474431000 : 8=FIX.4.4|9=74|35=0|49=IFIX-EQ-UAT|56=MU9051500001|34=214|52=20220106-09:56:02.438665578|10=037|
20220106-09:57:01.077342000 : 8=FIX.4.4|9=68|35=0|34=238|49=MU9051500001|52=20220106-09:57:01.056|56=IFIX-EQ-UAT|10=229|
20220106-09:57:01.447048000 : 8=FIX.4.4|9=74|35=0|49=IFIX-EQ-UAT|56=MU9051500001|34=215|52=20220106-09:57:02.442918012|10=018|
20220106-09:58:01.048545000 : 8=FIX.4.4|9=68|35=0|34=239|49=MU9051500001|52=20220106-09:58:01.030|56=IFIX-EQ-UAT|10=223|
20220106-09:58:01.551338000 : 8=FIX.4.4|9=74|35=0|49=IFIX-EQ-UAT|56=MU9051500001|34=216|52=20220106-09:58:02.446033898|10=034|
20220107-07:26:34.270003000 : 8=FIX.4.4|9=87|35=A|34=1|49=MU9051500001|52=20220107-07:26:34.251|56=IFIX-EQ-UAT|554=7020|98=0|108=60|10=074|
20220107-07:26:36.451738000 : 8=FIX.4.4|9=84|35=A|49=IFIX-EQ-UAT|56=MU9051500001|34=1|52=20220107-07:26:38.261438141|98=0|108=60|10=220|
20220107-07:27:34.747486000 : 8=FIX.4.4|9=66|35=0|34=2|49=MU9051500001|52=20220107-07:27:34.731|56=IFIX-EQ-UAT|10=122|
20220107-07:27:48.513152000 : 8=FIX.4.4|9=75|35=1|34=3|49=MU9051500001|52=20220107-07:27:48.505|56=IFIX-EQ-UAT|112=TEST|10=146|
20220107-07:27:48.809494000 : 8=FIX.4.4|9=81|35=0|49=IFIX-EQ-UAT|56=MU9051500001|34=2|52=20220107-07:27:50.619039013|112=TEST|10=188|
20220107-07:28:48.262457000 : 8=FIX.4.4|9=66|35=0|34=4|49=MU9051500001|52=20220107-07:28:48.243|56=IFIX-EQ-UAT|10=128|
20220107-07:29:00.515536000 : 8=FIX.4.4|9=75|35=1|34=5|49=MU9051500001|52=20220107-07:29:00.506|56=IFIX-EQ-UAT|112=TEST|10=139|
20220107-07:29:00.812264000 : 8=FIX.4.4|9=81|35=0|49=IFIX-EQ-UAT|56=MU9051500001|34=3|52=20220107-07:29:02.623428422|112=TEST|10=189|
20220107-07:30:00.737821000 : 8=FIX.4.4|9=66|35=0|34=6|49=MU9051500001|52=20220107-07:30:00.718|56=IFIX-EQ-UAT|10=118|
20220107-07:30:12.372500000 : 8=FIX.4.4|9=75|35=1|34=7|49=MU9051500001|52=20220107-07:30:12.357|56=IFIX-EQ-UAT|112=TEST|10=140|
20220107-07:30:12.674375000 : 8=FIX.4.4|9=81|35=0|49=IFIX-EQ-UAT|56=MU9051500001|34=4|52=20220107-07:30:14.479459914|112=TEST|10=204|
20220107-07:31:12.152250000 : 8=FIX.4.4|9=66|35=0|34=8|49=MU9051500001|52=20220107-07:31:12.135|56=IFIX-EQ-UAT|10=117|
20220107-07:31:24.653219000 : 8=FIX.4.4|9=75|35=1|34=9|49=MU9051500001|52=20220107-07:31:24.637|56=IFIX-EQ-UAT|112=TEST|10=147|
20220107-07:31:24.951634000 : 8=FIX.4.4|9=81|35=0|49=IFIX-EQ-UAT|56=MU9051500001|34=5|52=20220107-07:31:26.761721659|112=TEST|10=201|
20220107-07:32:24.395711000 : 8=FIX.4.4|9=67|35=0|34=10|49=MU9051500001|52=20220107-07:32:24.378|56=IFIX-EQ-UAT|10=172|
20220107-07:32:36.044957000 : 8=FIX.4.4|9=76|35=1|34=11|49=MU9051500001|52=20220107-07:32:36.029|56=IFIX-EQ-UAT|112=TEST|10=188|
20220107-07:32:36.344196000 : 8=FIX.4.4|9=81|35=0|49=IFIX-EQ-UAT|56=MU9051500001|34=6|52=20220107-07:32:38.151738544|112=TEST|10=200|
20220107-07:33:09.621823000 : 8=FIX.4.4|9=88|35=A|34=12|49=MU9051500001|52=20220107-07:33:09.602|56=IFIX-EQ-UAT|554=7020|98=0|108=60|10=125|
20220107-07:33:11.804913000 : 8=FIX.4.4|9=84|35=A|49=IFIX-EQ-UAT|56=MU9051500001|34=7|52=20220107-07:33:13.609075291|98=0|108=60|10=226|
20220107-07:33:45.696830000 : 8=FIX.4.4|9=133|35=D|34=13|49=MU9051500001|52=20220107-07:33:45.678|56=IFIX-EQ-UAT|1=L00-000012D8|11=123123152|38=1|40=1|54=1|55=SBER|386=1|336=TQBR|10=187|
20220107-07:33:45.995385000 : 8=FIX.4.4|9=307|35=8|49=IFIX-EQ-UAT|56=MU9051500001|34=8|52=20220107-07:33:47.806712592|37=NONE|11=123123152|17=123123152|8|NONE|150=8|39=8|103=99|1=L00-000012D8|55=SBER|54=1|38=1|40=1|336=TQBR|151=0|14=0|6=0|60=20220107-07:33:47|58=ERROR: (134) Trading in security is finished|5979=20220107-07:33:47.805629985|9412=806451|10=055|
20220107-07:34:45.157735000 : 8=FIX.4.4|9=67|35=0|34=14|49=MU9051500001|52=20220107-07:34:45.156|56=IFIX-EQ-UAT|10=175|
20220107-07:34:57.550748000 : 8=FIX.4.4|9=76|35=1|34=15|49=MU9051500001|52=20220107-07:34:57.535|56=IFIX-EQ-UAT|112=TEST|10=199|
20220107-07:34:57.852323000 : 8=FIX.4.4|9=81|35=0|49=IFIX-EQ-UAT|56=MU9051500001|34=9|52=20220107-07:34:59.662115553|112=TEST|10=204|
20220107-07:35:57.763321000 : 8=FIX.4.4|9=67|35=0|34=16|49=MU9051500001|52=20220107-07:35:57.762|56=IFIX-EQ-UAT|10=184|
20220107-07:36:09.636440000 : 8=FIX.4.4|9=76|35=1|34=17|49=MU9051500001|52=20220107-07:36:09.621|56=IFIX-EQ-UAT|112=TEST|10=196|
20220107-07:36:09.931779000 : 8=FIX.4.4|9=82|35=0|49=IFIX-EQ-UAT|56=MU9051500001|34=10|52=20220107-07:36:11.743851653|112=TEST|10=243|
20220107-07:37:09.598822000 : 8=FIX.4.4|9=67|35=0|34=18|49=MU9051500001|52=20220107-07:37:09.598|56=IFIX-EQ-UAT|10=192|
20220107-07:37:21.700919000 : 8=FIX.4.4|9=76|35=1|34=19|49=MU9051500001|52=20220107-07:37:21.692|56=IFIX-EQ-UAT|112=TEST|10=201|
20220107-07:37:22.000107000 : 8=FIX.4.4|9=82|35=0|49=IFIX-EQ-UAT|56=MU9051500001|34=11|52=20220107-07:37:23.808792786|112=TEST|10=005|
20220107-07:38:21.683969000 : 8=FIX.4.4|9=67|35=0|34=20|49=MU9051500001|52=20220107-07:38:21.683|56=IFIX-EQ-UAT|10=175|
20220107-07:38:34.057082000 : 8=FIX.4.4|9=76|35=1|34=21|49=MU9051500001|52=20220107-07:38:34.036|56=IFIX-EQ-UAT|112=TEST|10=191|
20220107-07:38:34.353378000 : 8=FIX.4.4|9=82|35=0|49=IFIX-EQ-UAT|56=MU9051500001|34=12|52=20220107-07:38:36.164709548|112=TEST|10=000|
20220107-07:39:34.207492000 : 8=FIX.4.4|9=67|35=0|34=22|49=MU9051500001|52=20220107-07:39:34.206|56=IFIX-EQ-UAT|10=173|
20220107-07:39:46.569639000 : 8=FIX.4.4|9=76|35=1|34=23|49=MU9051500001|52=20220107-07:39:46.554|56=IFIX-EQ-UAT|112=TEST|10=202|
20220107-07:39:46.866596000 : 8=FIX.4.4|9=82|35=0|49=IFIX-EQ-UAT|56=MU9051500001|34=13|52=20220107-07:39:48.678197913|112=TEST|10=012|
20220107-07:40:46.186079000 : 8=FIX.4.4|9=67|35=0|34=24|49=MU9051500001|52=20220107-07:40:46.185|56=IFIX-EQ-UAT|10=176|
20220107-07:40:58.539524000 : 8=FIX.4.4|9=76|35=1|34=25|49=MU9051500001|52=20220107-07:40:58.526|56=IFIX-EQ-UAT|112=TEST|10=198|
20220107-07:40:58.834630000 : 8=FIX.4.4|9=82|35=0|49=IFIX-EQ-UAT|56=MU9051500001|34=14|52=20220107-07:41:00.648213256|112=TEST|10=236|
20220107-07:41:21.329739000 : 8=FIX.4.4|9=136|35=D|34=26|49=MU9051500001|52=20220107-07:41:21.314|56=IFIX-EQ-UAT|1=L00-000012D8|11=123123152|38=1|40=1|54=1|55=AMZN-RM|386=1|336=FBQR|10=118|
20220107-07:41:21.627650000 : 8=FIX.4.4|9=285|35=8|49=IFIX-EQ-UAT|56=MU9051500001|34=15|52=20220107-07:41:23.438738335|37=NONE|11=123123152|17=123123152|8|NONE|150=8|39=8|103=6|1=L00-000012D8|55=AMZN-RM|54=1|38=1|40=1|336=FBQR|151=0|14=0|6=0|60=20220107-07:41:23|58=Duplicate ClOrdID (11) received|5979=20220107-07:41:23.438606319|10=062|
20220107-07:41:45.693150000 : 8=FIX.4.4|9=147|35=D|34=27|49=MU9051500001|52=20220107-07:41:45.681|56=IFIX-EQ-UAT|1=L00-000012D8|11=zwlgraigxwwcftrgjzvh|38=1|40=1|54=1|55=AMZN-RM|386=1|336=FBQR|10=103|
20220107-07:41:45.989970000 : 8=FIX.4.4|9=292|35=8|49=IFIX-EQ-UAT|56=MU9051500001|34=16|52=20220107-07:41:47.802041546|37=NONE|11=zwlgraigxwwcftrgjzvh|17=zwlgraigxwwcftrgjzvh|8|NONE|150=8|39=8|103=1|1=L00-000012D8|55=AMZN-RM|54=1|38=1|40=1|336=FBQR|151=0|14=0|6=0|60=20220107-07:41:47|58=unknown security|5979=20220107-07:41:47.801912962|10=078|
20220107-07:42:30.491959000 : 8=FIX.4.4|9=147|35=D|34=28|49=MU9051500001|52=20220107-07:42:30.475|56=IFIX-EQ-UAT|1=L00-000012D8|11=ykveulmbccwhgsqydcsz|38=1|40=1|54=1|55=AMZN-RM|386=1|336=FQBR|10=075|
20220107-07:42:30.791488000 : 8=FIX.4.4|9=321|35=8|49=IFIX-EQ-UAT|56=MU9051500001|34=17|52=20220107-07:42:32.604347488|37=NONE|11=ykveulmbccwhgsqydcsz|17=ykveulmbccwhgsqydcsz|8|NONE|150=8|39=8|103=99|1=L00-000012D8|55=AMZN-RM|54=1|38=1|40=1|336=FQBR|151=0|14=0|6=0|60=20220107-07:42:32|58=ERROR: (533) Invalid client code|5979=20220107-07:42:32.603244263|9412=604044|10=247|
20220107-07:43:30.127454000 : 8=FIX.4.4|9=67|35=0|34=29|49=MU9051500001|52=20220107-07:43:30.126|56=IFIX-EQ-UAT|10=172|
20220107-07:43:42.287907000 : 8=FIX.4.4|9=76|35=1|34=30|49=MU9051500001|52=20220107-07:43:42.270|56=IFIX-EQ-UAT|112=TEST|10=186|
20220107-07:43:42.583220000 : 8=FIX.4.4|9=82|35=0|49=IFIX-EQ-UAT|56=MU9051500001|34=18|52=20220107-07:43:44.397180668|112=TEST|10=005|
20220107-07:44:42.330355000 : 8=FIX.4.4|9=67|35=0|34=31|49=MU9051500001|52=20220107-07:44:42.329|56=IFIX-EQ-UAT|10=174|
20220107-07:44:54.073108000 : 8=FIX.4.4|9=76|35=1|34=32|49=MU9051500001|52=20220107-07:44:54.057|56=IFIX-EQ-UAT|112=TEST|10=195|
20220107-07:44:54.369622000 : 8=FIX.4.4|9=82|35=0|49=IFIX-EQ-UAT|56=MU9051500001|34=19|52=20220107-07:44:56.182899034|112=TEST|10=006|
20220107-07:45:54.123204000 : 8=FIX.4.4|9=67|35=0|34=33|49=MU9051500001|52=20220107-07:45:54.122|56=IFIX-EQ-UAT|10=171|
20220107-07:46:06.058028000 : 8=FIX.4.4|9=76|35=1|34=34|49=MU9051500001|52=20220107-07:46:06.039|56=IFIX-EQ-UAT|112=TEST|10=196|
20220107-07:46:06.355957000 : 8=FIX.4.4|9=82|35=0|49=IFIX-EQ-UAT|56=MU9051500001|34=20|52=20220107-07:46:08.167889861|112=TEST|10=007|
20220107-07:47:06.215150000 : 8=FIX.4.4|9=67|35=0|34=35|49=MU9051500001|52=20220107-07:47:06.214|56=IFIX-EQ-UAT|10=174|
20220107-07:47:18.237877000 : 8=FIX.4.4|9=76|35=1|34=36|49=MU9051500001|52=20220107-07:47:18.220|56=IFIX-EQ-UAT|112=TEST|10=194|
20220107-07:47:18.533808000 : 8=FIX.4.4|9=82|35=0|49=IFIX-EQ-UAT|56=MU9051500001|34=21|52=20220107-07:47:20.347798073|112=TEST|10=253|
20220107-07:48:18.040281000 : 8=FIX.4.4|9=67|35=0|34=37|49=MU9051500001|52=20220107-07:48:18.039|56=IFIX-EQ-UAT|10=185|
20220107-07:48:30.201895000 : 8=FIX.4.4|9=76|35=1|34=38|49=MU9051500001|52=20220107-07:48:30.184|56=IFIX-EQ-UAT|112=TEST|10=200|
20220107-07:48:30.498776000 : 8=FIX.4.4|9=82|35=0|49=IFIX-EQ-UAT|56=MU9051500001|34=22|52=20220107-07:48:32.313686920|112=TEST|10=248|
20220107-07:49:30.035775000 : 8=FIX.4.4|9=67|35=0|34=39|49=MU9051500001|52=20220107-07:49:30.034|56=IFIX-EQ-UAT|10=177|
20220107-07:49:42.650529000 : 8=FIX.4.4|9=76|35=1|34=40|49=MU9051500001|52=20220107-07:49:42.634|56=IFIX-EQ-UAT|112=TEST|10=197|
20220107-07:49:42.948675000 : 8=FIX.4.4|9=82|35=0|49=IFIX-EQ-UAT|56=MU9051500001|34=23|52=20220107-07:49:44.761356839|112=TEST|10=007|
20220107-07:50:42.030784000 : 8=FIX.4.4|9=67|35=0|34=41|49=MU9051500001|52=20220107-07:50:42.030|56=IFIX-EQ-UAT|10=161|
20220107-07:50:54.415699000 : 8=FIX.4.4|9=76|35=1|34=42|49=MU9051500001|52=20220107-07:50:54.398|56=IFIX-EQ-UAT|112=TEST|10=201|
20220107-07:50:54.710922000 : 8=FIX.4.4|9=82|35=0|49=IFIX-EQ-UAT|56=MU9051500001|34=24|52=20220107-07:50:56.526347508|112=TEST|10=251|
20220107-07:51:54.326692000 : 8=FIX.4.4|9=67|35=0|34=43|49=MU9051500001|52=20220107-07:51:54.325|56=IFIX-EQ-UAT|10=174|
20220107-07:52:06.173452000 : 8=FIX.4.4|9=76|35=1|34=44|49=MU9051500001|52=20220107-07:52:06.157|56=IFIX-EQ-UAT|112=TEST|10=195|
20220107-07:52:06.499654000 : 8=FIX.4.4|9=82|35=0|49=IFIX-EQ-UAT|56=MU9051500001|34=25|52=20220107-07:52:08.313110120|112=TEST|10=223|
20220107-07:53:06.098576000 : 8=FIX.4.4|9=67|35=0|34=45|49=MU9051500001|52=20220107-07:53:06.097|56=IFIX-EQ-UAT|10=181|
20220107-07:53:13.472516000 : 8=FIX.4.4|9=180|35=D|34=46|49=MU9051500001|52=20220107-07:53:13.457|56=IFIX-EQ-UAT|1=L00-000012D8|11=plomcxldlkqbvekgxlco|38=1|40=1|54=1|55=AMZN-RM|386=1|336=FQBR|453=1|452=3|447=D|448=2076087002|10=069|
20220107-07:53:13.771468000 : 8=FIX.4.4|9=388|35=8|49=IFIX-EQ-UAT|56=MU9051500001|34=26|52=20220107-07:53:15.587831671|37=28092446529|11=plomcxldlkqbvekgxlco|453=1|448=2076087002|447=D|452=3|17=plomcxldlkqbvekgxlco|0|28092446529|150=0|39=0|1=L00-000012D8|55=AMZN-RM|54=1|38=1|40=1|336=FQBR|151=1|14=0|6=0|60=20220107-07:53:15|58=(162) Buy order #28092446529 accepted (1 matched)|278=25243|5979=20220107-07:53:15.585153062|9412=586151|10=128|
20220107-07:53:13.788389000 : 8=FIX.4.4|9=134|35=3|34=47|49=MU9051500001|52=20220107-07:53:13.774|56=IFIX-EQ-UAT|45=26|58=Tag not defined for this message type|371=278|372=8|373=2|10=218|
20220107-07:53:13.788442000 : 8=FIX.4.4|9=439|35=8|49=IFIX-EQ-UAT|56=MU9051500001|34=27|52=20220107-07:53:15.597642606|37=28092446529|11=plomcxldlkqbvekgxlco|453=2|448=MC9051500000|447=D|452=1|448=2076087002|447=D|452=3|17=113723093|B|105315|150=F|39=2|1=L00-000012D8|64=20220111|55=AMZN-RM|54=1|38=1|40=1|32=1|31=256414|336=FQBR|625=NORM|151=0|14=1|6=0|60=20220107-07:53:15|236=0.0|159=0.0|851=2|5020=20220111|5459=Y2|6029=SUR|5155=NCC|7693=11866|278=25243|18181=0|6636=N|9412=586151|10=065|
20220107-07:53:13.796440000 : 8=FIX.4.4|9=134|35=3|34=48|49=MU9051500001|52=20220107-07:53:13.788|56=IFIX-EQ-UAT|45=27|58=Tag not defined for this message type|371=278|372=8|373=2|10=225|
20220107-07:53:18.158010000 : 8=FIX.4.4|9=76|35=1|34=49|49=MU9051500001|52=20220107-07:53:18.150|56=IFIX-EQ-UAT|112=TEST|10=197|
20220107-07:53:18.452849000 : 8=FIX.4.4|9=82|35=0|49=IFIX-EQ-UAT|56=MU9051500001|34=28|52=20220107-07:53:20.268674348|112=TEST|10=001|
20220107-07:54:18.032585000 : 8=FIX.4.4|9=67|35=0|34=50|49=MU9051500001|52=20220107-07:54:18.031|56=IFIX-EQ-UAT|10=169|
20220107-07:54:30.179042000 : 8=FIX.4.4|9=76|35=1|34=51|49=MU9051500001|52=20220107-07:54:30.165|56=IFIX-EQ-UAT|112=TEST|10=191|
20220107-07:54:30.475309000 : 8=FIX.4.4|9=82|35=0|49=IFIX-EQ-UAT|56=MU9051500001|34=29|52=20220107-07:54:32.290355816|112=TEST|10=253|
20220107-07:55:30.101970000 : 8=FIX.4.4|9=67|35=0|34=52|49=MU9051500001|52=20220107-07:55:30.101|56=IFIX-EQ-UAT|10=164|
20220107-07:55:42.149361000 : 8=FIX.4.4|9=76|35=1|34=53|49=MU9051500001|52=20220107-07:55:42.140|56=IFIX-EQ-UAT|112=TEST|10=190|
20220107-07:55:42.445164000 : 8=FIX.4.4|9=82|35=0|49=IFIX-EQ-UAT|56=MU9051500001|34=30|52=20220107-07:55:44.261268338|112=TEST|10=249|
20220107-07:56:42.120395000 : 8=FIX.4.4|9=67|35=0|34=54|49=MU9051500001|52=20220107-07:56:42.118|56=IFIX-EQ-UAT|10=178|
20220107-07:56:54.110591000 : 8=FIX.4.4|9=76|35=1|34=55|49=MU9051500001|52=20220107-07:56:54.096|56=IFIX-EQ-UAT|112=TEST|10=206|
20220107-07:56:54.405899000 : 8=FIX.4.4|9=82|35=0|49=IFIX-EQ-UAT|56=MU9051500001|34=31|52=20220107-07:56:56.222756882|112=TEST|10=001|
20220107-07:57:26.919469000 : 8=FIX.4.4|9=88|35=A|34=56|49=MU9051500001|52=20220107-07:57:26.908|56=IFIX-EQ-UAT|554=7020|98=0|108=60|10=147|
20220107-07:57:29.100014000 : 8=FIX.4.4|9=85|35=A|49=IFIX-EQ-UAT|56=MU9051500001|34=32|52=20220107-07:57:30.915327862|98=0|108=60|10=026|
20220107-07:57:38.894890000 : 8=FIX.4.4|9=180|35=D|34=57|49=MU9051500001|52=20220107-07:57:38.880|56=IFIX-EQ-UAT|1=L00-000012D8|11=mdrakbomrkzvsfinijlp|38=1|40=1|54=1|55=AMZN-RM|386=1|336=FQBR|453=1|452=3|447=D|448=2076087002|10=091|
20220107-07:57:39.197091000 : 8=FIX.4.4|9=388|35=8|49=IFIX-EQ-UAT|56=MU9051500001|34=33|52=20220107-07:57:41.010073172|37=28092447639|11=mdrakbomrkzvsfinijlp|453=1|448=2076087002|447=D|452=3|17=mdrakbomrkzvsfinijlp|0|28092447639|150=0|39=0|1=L00-000012D8|55=AMZN-RM|54=1|38=1|40=1|336=FQBR|151=1|14=0|6=0|60=20220107-07:57:41|58=(162) Buy order #28092447639 accepted (1 matched)|278=25820|5979=20220107-07:57:41.008184073|9412=008920|10=127|
20220107-07:57:39.213403000 : 8=FIX.4.4|9=439|35=8|49=IFIX-EQ-UAT|56=MU9051500001|34=34|52=20220107-07:57:41.016515613|37=28092447639|11=mdrakbomrkzvsfinijlp|453=2|448=MC9051500000|447=D|452=1|448=2076087002|447=D|452=3|17=113723196|B|105741|150=F|39=2|1=L00-000012D8|64=20220111|55=AMZN-RM|54=1|38=1|40=1|32=1|31=257493|336=FQBR|625=NORM|151=0|14=1|6=0|60=20220107-07:57:41|236=0.0|159=0.0|851=2|5020=20220111|5459=Y2|6029=SUR|5155=NCC|7693=11866|278=25820|18181=0|6636=N|9412=008920|10=073|
20220107-07:58:38.488686000 : 8=FIX.4.4|9=67|35=0|34=58|49=MU9051500001|52=20220107-07:58:38.487|56=IFIX-EQ-UAT|10=198|
20220107-07:58:51.089177000 : 8=FIX.4.4|9=76|35=1|34=59|49=MU9051500001|52=20220107-07:58:51.071|56=IFIX-EQ-UAT|112=TEST|10=202|
20220107-07:58:51.383360000 : 8=FIX.4.4|9=82|35=0|49=IFIX-EQ-UAT|56=MU9051500001|34=35|52=20220107-07:58:53.201706785|112=TEST|10=254|
20220107-07:59:51.310989000 : 8=FIX.4.4|9=67|35=0|34=60|49=MU9051500001|52=20220107-07:59:51.310|56=IFIX-EQ-UAT|10=172|
20220107-08:00:03.351105000 : 8=FIX.4.4|9=76|35=1|34=61|49=MU9051500001|52=20220107-08:00:03.334|56=IFIX-EQ-UAT|112=TEST|10=182|
20220107-08:00:03.646729000 : 8=FIX.4.4|9=82|35=0|49=IFIX-EQ-UAT|56=MU9051500001|34=36|52=20220107-08:00:05.464093458|112=TEST|10=247|
20220107-08:01:03.299631000 : 8=FIX.4.4|9=67|35=0|34=62|49=MU9051500001|52=20220107-08:01:03.299|56=IFIX-EQ-UAT|10=175|
20220107-08:01:15.259503000 : 8=FIX.4.4|9=76|35=1|34=63|49=MU9051500001|52=20220107-08:01:15.251|56=IFIX-EQ-UAT|112=TEST|10=186|
20220107-08:01:15.555453000 : 8=FIX.4.4|9=82|35=0|49=IFIX-EQ-UAT|56=MU9051500001|34=37|52=20220107-08:01:17.372368172|112=TEST|10=248|
20220107-08:02:15.095868000 : 8=FIX.4.4|9=67|35=0|34=64|49=MU9051500001|52=20220107-08:02:15.095|56=IFIX-EQ-UAT|10=175|
20220107-08:02:27.042225000 : 8=FIX.4.4|9=76|35=1|34=65|49=MU9051500001|52=20220107-08:02:27.026|56=IFIX-EQ-UAT|112=TEST|10=192|
20220107-08:02:27.342977000 : 8=FIX.4.4|9=82|35=0|49=IFIX-EQ-UAT|56=MU9051500001|34=38|52=20220107-08:02:29.155967312|112=TEST|10=253|
20220107-08:03:26.538284000 : 8=FIX.4.4|9=73|35=0|49=IFIX-EQ-UAT|56=MU9051500001|34=39|52=20220107-08:03:28.356891631|10=239|
20220107-08:03:27.183116000 : 8=FIX.4.4|9=67|35=0|34=66|49=MU9051500001|52=20220107-08:03:27.182|56=IFIX-EQ-UAT|10=178|
20220107-08:04:26.543680000 : 8=FIX.4.4|9=73|35=0|49=IFIX-EQ-UAT|56=MU9051500001|34=40|52=20220107-08:04:28.361954317|10=229|
20220107-08:04:27.046208000 : 8=FIX.4.4|9=67|35=0|34=67|49=MU9051500001|52=20220107-08:04:27.045|56=IFIX-EQ-UAT|10=178|
20220107-08:05:26.544556000 : 8=FIX.4.4|9=73|35=0|49=IFIX-EQ-UAT|56=MU9051500001|34=41|52=20220107-08:05:28.363811777|10=235|
20220107-08:05:27.002606000 : 8=FIX.4.4|9=67|35=0|34=68|49=MU9051500001|52=20220107-08:05:27.002|56=IFIX-EQ-UAT|10=173|
20220107-08:06:26.553824000 : 8=FIX.4.4|9=73|35=0|49=IFIX-EQ-UAT|56=MU9051500001|34=42|52=20220107-08:06:28.366470096|10=235|
20220107-08:06:27.549879000 : 8=FIX.4.4|9=67|35=0|34=69|49=MU9051500001|52=20220107-08:06:27.548|56=IFIX-EQ-UAT|10=190|
20220107-08:07:26.549275000 : 8=FIX.4.4|9=73|35=0|49=IFIX-EQ-UAT|56=MU9051500001|34=43|52=20220107-08:07:28.368445348|10=241|
20220107-08:07:27.530625000 : 8=FIX.4.4|9=67|35=0|34=70|49=MU9051500001|52=20220107-08:07:27.529|56=IFIX-EQ-UAT|10=182|
20220107-08:08:05.060616000 : 8=FIX.4.4|9=180|35=D|34=71|49=MU9051500001|52=20220107-08:08:05.049|56=IFIX-EQ-UAT|1=L00-000012D8|11=mtfrgystwkrkmhabdtfe|38=1|40=1|54=1|55=AMZN-RM|386=1|336=FQBR|453=1|452=3|447=D|448=2076087002|10=076|
20220107-08:08:05.359455000 : 8=FIX.4.4|9=388|35=8|49=IFIX-EQ-UAT|56=MU9051500001|34=44|52=20220107-08:08:07.179964489|37=28092450261|11=mtfrgystwkrkmhabdtfe|453=1|448=2076087002|447=D|452=3|17=mtfrgystwkrkmhabdtfe|0|28092450261|150=0|39=0|1=L00-000012D8|55=AMZN-RM|54=1|38=1|40=1|336=FQBR|151=1|14=0|6=0|60=20220107-08:08:07|58=(162) Buy order #28092450261 accepted (1 matched)|278=27204|5979=20220107-08:08:07.178179505|9412=179045|10=136|
20220107-08:08:05.371089000 : 8=FIX.4.4|9=439|35=8|49=IFIX-EQ-UAT|56=MU9051500001|34=45|52=20220107-08:08:07.184065743|37=28092450261|11=mtfrgystwkrkmhabdtfe|453=2|448=MC9051500000|447=D|452=1|448=2076087002|447=D|452=3|17=113723447|B|110807|150=F|39=2|1=L00-000012D8|64=20220111|55=AMZN-RM|54=1|38=1|40=1|32=1|31=256414|336=FQBR|625=NORM|151=0|14=1|6=0|60=20220107-08:08:07|236=0.0|159=0.0|851=2|5020=20220111|5459=Y2|6029=SUR|5155=NCC|7693=11866|278=27204|18181=0|6636=N|9412=179045|10=064|
20220107-08:09:04.556203000 : 8=FIX.4.4|9=73|35=0|49=IFIX-EQ-UAT|56=MU9051500001|34=46|52=20220107-08:09:06.376128154|10=234|
20220107-08:09:05.382517000 : 8=FIX.4.4|9=67|35=0|34=72|49=MU9051500001|52=20220107-08:09:05.381|56=IFIX-EQ-UAT|10=178|
20220107-08:09:52.867651000 : 8=FIX.4.4|9=88|35=A|34=73|49=MU9051500001|52=20220107-08:09:52.851|56=IFIX-EQ-UAT|554=7020|98=0|108=60|10=140|
20220107-08:09:55.052194000 : 8=FIX.4.4|9=85|35=A|49=IFIX-EQ-UAT|56=MU9051500001|34=47|52=20220107-08:09:56.873160085|98=0|108=60|10=033|
20220107-08:10:02.938978000 : 8=FIX.4.4|9=180|35=D|34=74|49=MU9051500001|52=20220107-08:10:02.923|56=IFIX-EQ-UAT|1=L00-000012D8|11=myxncjourirqogaclcnv|38=1|40=1|54=1|55=AMZN-RM|386=1|336=FQBR|453=1|452=3|447=D|448=2076087002|10=084|
20220107-08:10:03.234128000 : 8=FIX.4.4|9=388|35=8|49=IFIX-EQ-UAT|56=MU9051500001|34=48|52=20220107-08:10:05.055445197|37=28092450751|11=myxncjourirqogaclcnv|453=1|448=2076087002|447=D|452=3|17=myxncjourirqogaclcnv|0|28092450751|150=0|39=0|1=L00-000012D8|55=AMZN-RM|54=1|38=1|40=1|336=FQBR|151=1|14=0|6=0|60=20220107-08:10:05|58=(162) Buy order #28092450751 accepted (1 matched)|278=27456|5979=20220107-08:10:05.053601481|9412=054416|10=124|
20220107-08:10:03.251883000 : 8=FIX.4.4|9=439|35=8|49=IFIX-EQ-UAT|56=MU9051500001|34=49|52=20220107-08:10:05.058550648|37=28092450751|11=myxncjourirqogaclcnv|453=2|448=MC9051500000|447=D|452=1|448=2076087002|447=D|452=3|17=113723517|B|111005|150=F|39=2|1=L00-000012D8|64=20220111|55=AMZN-RM|54=1|38=1|40=1|32=1|31=256953|336=FQBR|625=NORM|151=0|14=1|6=0|60=20220107-08:10:05|236=0.0|159=0.0|851=2|5020=20220111|5459=Y2|6029=SUR|5155=NCC|7693=11866|278=27456|18181=0|6636=N|9412=054416|10=071|
20220107-08:11:02.301987000 : 8=FIX.4.4|9=67|35=0|34=75|49=MU9051500001|52=20220107-08:11:02.301|56=IFIX-EQ-UAT|10=163|
20220107-08:11:03.055191000 : 8=FIX.4.4|9=73|35=0|49=IFIX-EQ-UAT|56=MU9051500001|34=50|52=20220107-08:11:04.875738999|10=248|
20220107-08:12:02.344832000 : 8=FIX.4.4|9=67|35=0|34=76|49=MU9051500001|52=20220107-08:12:02.344|56=IFIX-EQ-UAT|10=172|
20220107-08:12:03.057276000 : 8=FIX.4.4|9=73|35=0|49=IFIX-EQ-UAT|56=MU9051500001|34=51|52=20220107-08:12:04.879608181|10=233|
20220107-08:12:19.489130000 : 8=FIX.4.4|9=180|35=D|34=77|49=MU9051500001|52=20220107-08:12:19.475|56=IFIX-EQ-UAT|1=L00-000012D8|11=myxncjourirqogaclcnv|38=1|40=1|54=1|55=AMZN-RM|386=1|336=FQBR|453=1|452=3|447=D|448=2076087002|10=099|
20220107-08:12:19.785755000 : 8=FIX.4.4|9=340|35=8|49=IFIX-EQ-UAT|56=MU9051500001|34=52|52=20220107-08:12:21.606128379|37=NONE|11=myxncjourirqogaclcnv|453=1|448=2076087002|447=D|452=3|17=myxncjourirqogaclcnv|8|NONE|150=8|39=8|103=6|1=L00-000012D8|55=AMZN-RM|54=1|38=1|40=1|336=FQBR|151=0|14=0|6=0|60=20220107-08:12:21|58=Duplicate ClOrdID (11) received|5979=20220107-08:12:21.606025710|10=189|
20220107-08:12:32.127831000 : 8=FIX.4.4|9=180|35=D|34=78|49=MU9051500001|52=20220107-08:12:32.112|56=IFIX-EQ-UAT|1=L00-000012D8|11=jmjfuvnaxphsxjxhweor|38=1|40=1|54=1|55=AMZN-RM|386=1|336=FQBR|453=1|452=3|447=D|448=2076087002|10=110|
20220107-08:12:32.423546000 : 8=FIX.4.4|9=388|35=8|49=IFIX-EQ-UAT|56=MU9051500001|34=53|52=20220107-08:12:34.245019083|37=28092451363|11=jmjfuvnaxphsxjxhweor|453=1|448=2076087002|447=D|452=3|17=jmjfuvnaxphsxjxhweor|0|28092451363|150=0|39=0|1=L00-000012D8|55=AMZN-RM|54=1|38=1|40=1|336=FQBR|151=1|14=0|6=0|60=20220107-08:12:34|58=(162) Buy order #28092451363 accepted (1 matched)|278=27779|5979=20220107-08:12:34.243002000|9412=243638|10=175|
20220107-08:12:32.436857000 : 8=FIX.4.4|9=439|35=8|49=IFIX-EQ-UAT|56=MU9051500001|34=54|52=20220107-08:12:34.246412250|37=28092451363|11=jmjfuvnaxphsxjxhweor|453=2|448=MC9051500000|447=D|452=1|448=2076087002|447=D|452=3|17=113723569|B|111234|150=F|39=2|1=L00-000012D8|64=20220111|55=AMZN-RM|54=1|38=1|40=1|32=1|31=257493|336=FQBR|625=NORM|151=0|14=1|6=0|60=20220107-08:12:34|236=0.0|159=0.0|851=2|5020=20220111|5459=Y2|6029=SUR|5155=NCC|7693=11866|278=27779|18181=0|6636=N|9412=243638|10=112|
20220107-08:12:42.644884000 : 8=FIX.4.4|9=180|35=D|34=79|49=MU9051500001|52=20220107-08:12:42.630|56=IFIX-EQ-UAT|1=L00-000012D8|11=jmjfuvnaxphsxjxhweor|38=1|40=1|54=1|55=AMZN-RM|386=1|336=FQBR|453=1|452=3|447=D|448=2076087002|10=117|
20220107-08:12:42.939058000 : 8=FIX.4.4|9=340|35=8|49=IFIX-EQ-UAT|56=MU9051500001|34=55|52=20220107-08:12:44.759896691|37=NONE|11=jmjfuvnaxphsxjxhweor|453=1|448=2076087002|447=D|452=3|17=jmjfuvnaxphsxjxhweor|8|NONE|150=8|39=8|103=6|1=L00-000012D8|55=AMZN-RM|54=1|38=1|40=1|336=FQBR|151=0|14=0|6=0|60=20220107-08:12:44|58=Duplicate ClOrdID (11) received|5979=20220107-08:12:44.759822579|10=050|
20220107-08:13:42.064932000 : 8=FIX.4.4|9=73|35=0|49=IFIX-EQ-UAT|56=MU9051500001|34=56|52=20220107-08:13:43.883780391|10=241|
20220107-08:13:42.066952000 : 8=FIX.4.4|9=67|35=0|34=80|49=MU9051500001|52=20220107-08:13:42.065|56=IFIX-EQ-UAT|10=172|
20220107-08:14:17.001511000 : 8=FIX.4.4|9=88|35=A|34=81|49=MU9051500001|52=20220107-08:14:16.982|56=IFIX-EQ-UAT|554=7020|98=0|108=60|10=140|
20220107-08:14:19.192030000 : 8=FIX.4.4|9=85|35=A|49=IFIX-EQ-UAT|56=MU9051500001|34=57|52=20220107-08:14:21.009145024|98=0|108=60|10=009|
20220107-08:14:27.298918000 : 8=FIX.4.4|9=180|35=D|34=82|49=MU9051500001|52=20220107-08:14:27.283|56=IFIX-EQ-UAT|1=L00-000012D8|11=plljwlrwnbmhptnmfmpl|38=1|40=1|54=1|55=AMZN-RM|386=1|336=FQBR|453=1|452=3|447=D|448=2076087002|10=102|
20220107-08:14:27.595783000 : 8=FIX.4.4|9=388|35=8|49=IFIX-EQ-UAT|56=MU9051500001|34=58|52=20220107-08:14:29.416365536|37=28092451840|11=plljwlrwnbmhptnmfmpl|453=1|448=2076087002|447=D|452=3|17=plljwlrwnbmhptnmfmpl|0|28092451840|150=0|39=0|1=L00-000012D8|55=AMZN-RM|54=1|38=1|40=1|336=FQBR|151=1|14=0|6=0|60=20220107-08:14:29|58=(162) Buy order #28092451840 accepted (1 matched)|278=28037|5979=20220107-08:14:29.413927835|9412=415185|10=186|
20220107-08:14:27.611529000 : 8=FIX.4.4|9=439|35=8|49=IFIX-EQ-UAT|56=MU9051500001|34=59|52=20220107-08:14:29.421268603|37=28092451840|11=plljwlrwnbmhptnmfmpl|453=2|448=MC9051500000|447=D|452=1|448=2076087002|447=D|452=3|17=113723625|B|111429|150=F|39=2|1=L00-000012D8|64=20220111|55=AMZN-RM|54=1|38=1|40=1|32=1|31=256953|336=FQBR|625=NORM|151=0|14=1|6=0|60=20220107-08:14:29|236=0.0|159=0.0|851=2|5020=20220111|5459=Y2|6029=SUR|5155=NCC|7693=11866|278=28037|18181=0|6636=N|9412=415185|10=102|
20220107-08:15:29.071106000 : 8=FIX.4.4|9=88|35=A|34=83|49=MU9051500001|52=20220107-08:15:29.052|56=IFIX-EQ-UAT|554=7020|98=0|108=60|10=135|
20220107-08:15:31.257912000 : 8=FIX.4.4|9=85|35=A|49=IFIX-EQ-UAT|56=MU9051500001|34=60|52=20220107-08:15:33.079593320|98=0|108=60|10=020|
20220107-08:15:32.936946000 : 8=FIX.4.4|9=180|35=D|34=84|49=MU9051500001|52=20220107-08:15:32.922|56=IFIX-EQ-UAT|1=L00-000012D8|11=soixmkxfzvwsvosuryue|38=1|40=1|54=1|55=AMZN-RM|386=1|336=FQBR|453=1|452=3|447=D|448=2076087002|10=185|
20220107-08:15:33.233573000 : 8=FIX.4.4|9=388|35=8|49=IFIX-EQ-UAT|56=MU9051500001|34=61|52=20220107-08:15:35.053664625|37=28092452116|11=soixmkxfzvwsvosuryue|453=1|448=2076087002|447=D|452=3|17=soixmkxfzvwsvosuryue|0|28092452116|150=0|39=0|1=L00-000012D8|55=AMZN-RM|54=1|38=1|40=1|336=FQBR|151=1|14=0|6=0|60=20220107-08:15:35|58=(162) Buy order #28092452116 accepted (1 matched)|278=28173|5979=20220107-08:15:35.051691113|9412=052347|10=058|
20220107-08:15:33.248443000 : 8=FIX.4.4|9=439|35=8|49=IFIX-EQ-UAT|56=MU9051500001|34=62|52=20220107-08:15:35.055319792|37=28092452116|11=soixmkxfzvwsvosuryue|453=2|448=MC9051500000|447=D|452=1|448=2076087002|447=D|452=3|17=113723662|B|111535|150=F|39=2|1=L00-000012D8|64=20220111|55=AMZN-RM|54=1|38=1|40=1|32=1|31=256414|336=FQBR|625=NORM|151=0|14=1|6=0|60=20220107-08:15:35|236=0.0|159=0.0|851=2|5020=20220111|5459=Y2|6029=SUR|5155=NCC|7693=11866|278=28173|18181=0|6636=N|9412=052347|10=171|
20220107-08:16:30.703643000 : 8=FIX.4.4|9=88|35=A|34=85|49=MU9051500001|52=20220107-08:16:30.683|56=IFIX-EQ-UAT|554=7020|98=0|108=60|10=140|
20220107-08:16:32.880187000 : 8=FIX.4.4|9=85|35=A|49=IFIX-EQ-UAT|56=MU9051500001|34=63|52=20220107-08:16:34.703505875|98=0|108=60|10=027|
20220107-08:16:36.385630000 : 8=FIX.4.4|9=180|35=D|34=86|49=MU9051500001|52=20220107-08:16:36.373|56=IFIX-EQ-UAT|1=L00-000012D8|11=yeuliklwcgylpjpplzki|38=1|40=1|54=1|55=AMZN-RM|386=1|336=FQBR|453=1|452=3|447=D|448=2076087002|10=116|
20220107-08:16:36.679886000 : 8=FIX.4.4|9=388|35=8|49=IFIX-EQ-UAT|56=MU9051500001|34=64|52=20220107-08:16:38.503310151|37=28092452377|11=yeuliklwcgylpjpplzki|453=1|448=2076087002|447=D|452=3|17=yeuliklwcgylpjpplzki|0|28092452377|150=0|39=0|1=L00-000012D8|55=AMZN-RM|54=1|38=1|40=1|336=FQBR|151=1|14=0|6=0|60=20220107-08:16:38|58=(162) Buy order #28092452377 accepted (1 matched)|278=28306|5979=20220107-08:16:38.501024692|9412=501691|10=187|
20220107-08:16:36.698213000 : 8=FIX.4.4|9=439|35=8|49=IFIX-EQ-UAT|56=MU9051500001|34=65|52=20220107-08:16:38.510145180|37=28092452377|11=yeuliklwcgylpjpplzki|453=2|448=MC9051500000|447=D|452=1|448=2076087002|447=D|452=3|17=113723689|B|111638|150=F|39=2|1=L00-000012D8|64=20220111|55=AMZN-RM|54=1|38=1|40=1|32=1|31=257493|336=FQBR|625=NORM|151=0|14=1|6=0|60=20220107-08:16:38|236=0.0|159=0.0|851=2|5020=20220111|5459=Y2|6029=SUR|5155=NCC|7693=11866|278=28306|18181=0|6636=N|9412=501691|10=119|
20220107-08:17:37.892619000 : 8=FIX.4.4|9=88|35=A|34=87|49=MU9051500001|52=20220107-08:17:37.873|56=IFIX-EQ-UAT|554=7020|98=0|108=60|10=151|
20220107-08:17:40.083286000 : 8=FIX.4.4|9=85|35=A|49=IFIX-EQ-UAT|56=MU9051500001|34=66|52=20220107-08:17:41.905498104|98=0|108=60|10=029|
20220107-08:17:40.098255000 : 8=FIX.4.4|9=77|35=2|34=88|49=MU9051500001|52=20220107-08:17:40.091|56=IFIX-EQ-UAT|7=65|16=0|10=109|
20220107-08:17:40.416881000 : 8=FIX.4.4|9=476|35=8|49=IFIX-EQ-UAT|56=MU9051500001|34=65|43=Y|52=20220107-08:17:42.213898767|122=20220107-08:16:38.510145180|37=28092452377|11=yeuliklwcgylpjpplzki|453=2|448=MC9051500000|447=D|452=1|448=2076087002|447=D|452=3|17=113723689|B|111638|150=F|39=2|1=L00-000012D8|64=20220111|55=AMZN-RM|54=1|38=1|40=1|32=1|31=257493|336=FQBR|625=NORM|151=0|14=1|6=0|60=20220107-08:16:38|236=0.0|159=0.0|851=2|5020=20220111|5459=Y2|6029=SUR|5155=NCC|7693=11866|278=28306|18181=0|6636=N|9412=501691|10=191|
20220107-08:17:40.433344000 : 8=FIX.4.4|9=122|35=4|49=IFIX-EQ-UAT|56=MU9051500001|34=66|43=Y|52=20220107-08:17:42.213924749|122=20220107-08:17:42.213924749|123=Y|36=67|10=156|
20220107-08:17:40.715343000 : 8=FIX.4.4|9=180|35=D|34=89|49=MU9051500001|52=20220107-08:17:40.701|56=IFIX-EQ-UAT|1=L00-000012D8|11=ewvbgrlwujxsslkybqwh|38=1|40=1|54=1|55=AMZN-RM|386=1|336=FQBR|453=1|452=3|447=D|448=2076087002|10=132|
20220107-08:17:41.018235000 : 8=FIX.4.4|9=388|35=8|49=IFIX-EQ-UAT|56=MU9051500001|34=67|52=20220107-08:17:42.839449424|37=28092452646|11=ewvbgrlwujxsslkybqwh|453=1|448=2076087002|447=D|452=3|17=ewvbgrlwujxsslkybqwh|0|28092452646|150=0|39=0|1=L00-000012D8|55=AMZN-RM|54=1|38=1|40=1|336=FQBR|151=1|14=0|6=0|60=20220107-08:17:42|58=(162) Buy order #28092452646 accepted (1 matched)|278=28458|5979=20220107-08:17:42.837623321|9412=838268|10=018|
20220107-08:17:41.034785000 : 8=FIX.4.4|9=439|35=8|49=IFIX-EQ-UAT|56=MU9051500001|34=68|52=20220107-08:17:42.845847113|37=28092452646|11=ewvbgrlwujxsslkybqwh|453=2|448=MC9051500000|447=D|452=1|448=2076087002|447=D|452=3|17=113723723|B|111742|150=F|39=2|1=L00-000012D8|64=20220111|55=AMZN-RM|54=1|38=1|40=1|32=1|31=256414|336=FQBR|625=NORM|151=0|14=1|6=0|60=20220107-08:17:42|236=0.0|159=0.0|851=2|5020=20220111|5459=Y2|6029=SUR|5155=NCC|7693=11866|278=28458|18181=0|6636=N|9412=838268|10=149|
20220107-08:18:40.083338000 : 8=FIX.4.4|9=67|35=0|34=90|49=MU9051500001|52=20220107-08:18:40.081|56=IFIX-EQ-UAT|10=174|
20220107-08:18:40.086730000 : 8=FIX.4.4|9=73|35=0|49=IFIX-EQ-UAT|56=MU9051500001|34=69|52=20220107-08:18:41.907908436|10=247|
20220107-08:19:40.054701000 : 8=FIX.4.4|9=67|35=0|34=91|49=MU9051500001|52=20220107-08:19:40.054|56=IFIX-EQ-UAT|10=176|
20220107-08:19:40.091149000 : 8=FIX.4.4|9=73|35=0|49=IFIX-EQ-UAT|56=MU9051500001|34=70|52=20220107-08:19:41.912959166|10=242|
20220107-08:20:40.006943000 : 8=FIX.4.4|9=67|35=0|34=92|49=MU9051500001|52=20220107-08:20:40.006|56=IFIX-EQ-UAT|10=166|
20220107-08:20:40.096430000 : 8=FIX.4.4|9=73|35=0|49=IFIX-EQ-UAT|56=MU9051500001|34=71|52=20220107-08:20:41.914910905|10=225|
20220107-08:21:17.052240000 : 8=FIX.4.4|9=88|35=A|34=93|49=MU9051500001|52=20220107-08:21:17.033|56=IFIX-EQ-UAT|554=7020|98=0|108=60|10=129|
20220107-08:21:19.229360000 : 8=FIX.4.4|9=85|35=A|49=IFIX-EQ-UAT|56=MU9051500001|34=72|52=20220107-08:21:21.050503988|98=0|108=60|10=017|
20220107-08:21:19.635254000 : 8=FIX.4.4|9=180|35=D|34=94|49=MU9051500001|52=20220107-08:21:19.621|56=IFIX-EQ-UAT|1=L00-000012D8|11=wuveoovbuicphwknjzqq|38=1|40=1|54=1|55=AMZN-RM|386=1|336=FQBR|453=1|452=3|447=D|448=2076087002|10=127|
20220107-08:21:19.932809000 : 8=FIX.4.4|9=388|35=8|49=IFIX-EQ-UAT|56=MU9051500001|34=73|52=20220107-08:21:21.754687406|37=28092453531|11=wuveoovbuicphwknjzqq|453=1|448=2076087002|447=D|452=3|17=wuveoovbuicphwknjzqq|0|28092453531|150=0|39=0|1=L00-000012D8|55=AMZN-RM|54=1|38=1|40=1|336=FQBR|151=1|14=0|6=0|60=20220107-08:21:21|58=(162) Buy order #28092453531 accepted (1 matched)|278=28924|5979=20220107-08:21:21.752800857|9412=753386|10=225|
20220107-08:21:19.949356000 : 8=FIX.4.4|9=439|35=8|49=IFIX-EQ-UAT|56=MU9051500001|34=74|52=20220107-08:21:21.764505308|37=28092453531|11=wuveoovbuicphwknjzqq|453=2|448=MC9051500000|447=D|452=1|448=2076087002|447=D|452=3|17=113723808|B|112121|150=F|39=2|1=L00-000012D8|64=20220111|55=AMZN-RM|54=1|38=1|40=1|32=1|31=257493|336=FQBR|625=NORM|151=0|14=1|6=0|60=20220107-08:21:21|236=0.0|159=0.0|851=2|5020=20220111|5459=Y2|6029=SUR|5155=NCC|7693=11866|278=28924|18181=0|6636=N|9412=753386|10=117|
20220107-08:22:19.242125000 : 8=FIX.4.4|9=73|35=0|49=IFIX-EQ-UAT|56=MU9051500001|34=75|52=20220107-08:22:21.057088887|10=242|
20220107-08:22:19.244566000 : 8=FIX.4.4|9=67|35=0|34=95|49=MU9051500001|52=20220107-08:22:19.243|56=IFIX-EQ-UAT|10=180|
20220107-08:22:50.602567000 : 8=FIX.4.4|9=88|35=A|34=96|49=MU9051500001|52=20220107-08:22:50.583|56=IFIX-EQ-UAT|554=7020|98=0|108=60|10=140|
20220107-08:22:52.777218000 : 8=FIX.4.4|9=85|35=A|49=IFIX-EQ-UAT|56=MU9051500001|34=76|52=20220107-08:22:54.601450267|98=0|108=60|10=021|
20220107-08:23:09.221303000 : 8=FIX.4.4|9=180|35=D|34=97|49=MU9051500001|52=20220107-08:23:09.205|56=IFIX-EQ-UAT|1=L00-000012D8|11=lorcculqqlghzdfyxkrg|38=1|40=1|54=1|55=AMZN-RM|386=1|336=FQBR|453=1|452=3|447=D|448=2076087002|10=095|
20220107-08:23:09.524755000 : 8=FIX.4.4|9=388|35=8|49=IFIX-EQ-UAT|56=MU9051500001|34=77|52=20220107-08:23:11.338873467|37=28092453999|11=lorcculqqlghzdfyxkrg|453=1|448=2076087002|447=D|452=3|17=lorcculqqlghzdfyxkrg|0|28092453999|150=0|39=0|1=L00-000012D8|55=AMZN-RM|54=1|38=1|40=1|336=FQBR|151=1|14=0|6=0|60=20220107-08:23:11|58=(162) Buy order #28092453999 accepted (1 matched)|278=29209|5979=20220107-08:23:11.336914641|9412=337676|10=212|
20220107-08:23:09.541753000 : 8=FIX.4.4|9=439|35=8|49=IFIX-EQ-UAT|56=MU9051500001|34=78|52=20220107-08:23:11.342073850|37=28092453999|11=lorcculqqlghzdfyxkrg|453=2|448=MC9051500000|447=D|452=1|448=2076087002|447=D|452=3|17=113723856|B|112311|150=F|39=2|1=L00-000012D8|64=20220111|55=AMZN-RM|54=1|38=1|40=1|32=1|31=256953|336=FQBR|625=NORM|151=0|14=1|6=0|60=20220107-08:23:11|236=0.0|159=0.0|851=2|5020=20220111|5459=Y2|6029=SUR|5155=NCC|7693=11866|278=29209|18181=0|6636=N|9412=337676|10=102|
20220107-08:24:08.931209000 : 8=FIX.4.4|9=73|35=0|49=IFIX-EQ-UAT|56=MU9051500001|34=79|52=20220107-08:24:10.604698985|10=250|
20220107-08:24:09.073080000 : 8=FIX.4.4|9=67|35=0|34=98|49=MU9051500001|52=20220107-08:24:09.071|56=IFIX-EQ-UAT|10=183|
20220107-08:25:08.860256000 : 8=FIX.4.4|9=73|35=0|49=IFIX-EQ-UAT|56=MU9051500001|34=80|52=20220107-08:25:10.609668528|10=238|
20220107-08:25:09.048136000 : 8=FIX.4.4|9=67|35=0|34=99|49=MU9051500001|52=20220107-08:25:09.047|56=IFIX-EQ-UAT|10=188|
