20220107-19:16:00.795474000 : 8=FIX.4.4|9=90|35=A|34=1|49=MU9051500003|52=20220107-19:16:00.784|56=IFIX-TC-EQ-UAT|98=0|108=60|554=7020|10=016|
20220107-19:16:20.673096000 : 8=FIX.4.4|9=90|35=A|34=2|49=MU9051500003|52=20220107-19:16:20.662|56=IFIX-TC-EQ-UAT|98=0|108=60|554=7020|10=014|
