8=FIX.4.4|9=90|35=A|34=1|49=MU9051500001|52=20220107-09:11:03.213|56=IFIX-DC-EQ-UAT|554=7020|98=0|108=60|10=238|8=FIX.4.4|9=90|35=A|34=2|49=MU9051500001|52=20220107-09:11:23.894|56=IFIX-DC-EQ-UAT|554=7020|98=0|108=60|10=000|8=FIX.4.4|9=90|35=A|34=3|49=MU9051500001|52=20220107-09:11:43.853|56=IFIX-DC-EQ-UAT|554=7020|98=0|108=60|10=254|8=FIX.4.4|9=90|35=A|34=4|49=MU9051500001|52=20220107-09:12:46.204|56=IFIX-DC-EQ-UAT|554=7020|98=0|108=60|10=249|8=FIX.4.4|9=69|35=0|34=5|49=MU9051500001|52=20220107-09:13:49.156|56=IFIX-DC-EQ-UAT|10=056|8=FIX.4.4|9=69|35=0|34=6|49=MU9051500001|52=20220107-09:14:49.263|56=IFIX-DC-EQ-UAT|10=057|8=FIX.4.4|9=69|35=0|34=7|49=MU9051500001|52=20220107-09:15:49.423|56=IFIX-DC-EQ-UAT|10=057|8=FIX.4.4|9=69|35=0|34=8|49=MU9051500001|52=20220107-09:16:49.078|56=IFIX-DC-EQ-UAT|10=065|8=FIX.4.4|9=69|35=0|34=9|49=MU9051500001|52=20220107-09:17:49.386|56=IFIX-DC-EQ-UAT|10=069|8=FIX.4.4|9=70|35=0|34=10|49=MU9051500001|52=20220107-09:18:49.170|56=IFIX-DC-EQ-UAT|10=093|8=FIX.4.4|9=70|35=0|34=11|49=MU9051500001|52=20220107-09:19:49.241|56=IFIX-DC-EQ-UAT|10=094|8=FIX.4.4|9=70|35=0|34=12|49=MU9051500001|52=20220107-09:20:49.019|56=IFIX-DC-EQ-UAT|10=090|8=FIX.4.4|9=70|35=0|34=13|49=MU9051500001|52=20220107-09:21:49.128|56=IFIX-DC-EQ-UAT|10=093|8=FIX.4.4|9=70|35=0|34=14|49=MU9051500001|52=20220107-09:22:49.261|56=IFIX-DC-EQ-UAT|10=093|8=FIX.4.4|9=70|35=0|34=15|49=MU9051500001|52=20220107-09:23:49.473|56=IFIX-DC-EQ-UAT|10=100|8=FIX.4.4|9=70|35=0|34=16|49=MU9051500001|52=20220107-09:24:49.281|56=IFIX-DC-EQ-UAT|10=099|8=FIX.4.4|9=70|35=0|34=17|49=MU9051500001|52=20220107-09:25:49.353|56=IFIX-DC-EQ-UAT|10=101|8=FIX.4.4|9=70|35=0|34=18|49=MU9051500001|52=20220107-09:26:49.314|56=IFIX-DC-EQ-UAT|10=100|8=FIX.4.4|9=70|35=0|34=19|49=MU9051500001|52=20220107-09:27:49.401|56=IFIX-DC-EQ-UAT|10=099|