8=FIX.4.4|9=90|35=A|34=1|49=MU9051500004|52=20220107-19:16:39.431|56=IFIX-TC-EQ-UAT|98=0|108=60|554=7020|10=018|8=FIX.4.4|9=69|35=0|34=2|49=MU9051500004|52=20220107-19:17:39.442|56=IFIX-TC-EQ-UAT|10=074|8=FIX.4.4|9=69|35=0|34=3|49=MU9051500004|52=20220107-19:18:39.048|56=IFIX-TC-EQ-UAT|10=078|