8=FIX.4.4|9=90|35=A|34=1|49=MU9051500001|52=20220107-09:11:03.240|56=IFIX-TC-EQ-UAT|554=7020|98=0|108=60|10=254|8=FIX.4.4|9=90|35=A|34=2|49=MU9051500001|52=20220107-09:11:23.903|56=IFIX-TC-EQ-UAT|554=7020|98=0|108=60|10=007|8=FIX.4.4|9=90|35=A|34=3|49=MU9051500001|52=20220107-09:11:43.863|56=IFIX-TC-EQ-UAT|554=7020|98=0|108=60|10=015|8=FIX.4.4|9=90|35=A|34=4|49=MU9051500001|52=20220107-09:28:20.480|56=IFIX-TC-EQ-UAT|554=7020|98=0|108=60|10=014|8=FIX.4.4|9=144|35=3|34=5|49=MU9051500001|52=20220107-09:28:26.583|56=IFIX-TC-EQ-UAT|45=3|58=Value is incorrect (out of range) for this tag|371=340|372=h|373=5|10=041|8=FIX.4.4|9=136|35=3|34=6|49=MU9051500001|52=20220107-09:28:32.707|56=IFIX-TC-EQ-UAT|45=4|58=Tag not defined for this message type|371=851|372=AE|373=2|10=131|8=FIX.4.4|9=136|35=3|34=7|49=MU9051500001|52=20220107-09:28:32.724|56=IFIX-TC-EQ-UAT|45=5|58=Tag not defined for this message type|371=851|372=AE|373=2|10=132|8=FIX.4.4|9=136|35=3|34=8|49=MU9051500001|52=20220107-09:28:32.732|56=IFIX-TC-EQ-UAT|45=6|58=Tag not defined for this message type|371=851|372=AE|373=2|10=133|8=FIX.4.4|9=136|35=3|34=9|49=MU9051500001|52=20220107-09:28:32.740|56=IFIX-TC-EQ-UAT|45=7|58=Tag not defined for this message type|371=851|372=AE|373=2|10=134|8=FIX.4.4|9=137|35=3|34=10|49=MU9051500001|52=20220107-09:28:32.746|56=IFIX-TC-EQ-UAT|45=8|58=Tag not defined for this message type|371=851|372=AE|373=2|10=182|8=FIX.4.4|9=137|35=3|34=11|49=MU9051500001|52=20220107-09:28:32.754|56=IFIX-TC-EQ-UAT|45=9|58=Tag not defined for this message type|371=851|372=AE|373=2|10=183|8=FIX.4.4|9=138|35=3|34=12|49=MU9051500001|52=20220107-09:28:32.761|56=IFIX-TC-EQ-UAT|45=10|58=Tag not defined for this message type|371=851|372=AE|373=2|10=223|8=FIX.4.4|9=138|35=3|34=13|49=MU9051500001|52=20220107-09:28:32.768|56=IFIX-TC-EQ-UAT|45=11|58=Tag not defined for this message type|371=851|372=AE|373=2|10=232|8=FIX.4.4|9=138|35=3|34=14|49=MU9051500001|52=20220107-09:28:32.775|56=IFIX-TC-EQ-UAT|45=12|58=Tag not defined for this message type|371=851|372=AE|373=2|10=232|8=FIX.4.4|9=138|35=3|34=15|49=MU9051500001|52=20220107-09:28:32.785|56=IFIX-TC-EQ-UAT|45=13|58=Tag not defined for this message type|371=851|372=AE|373=2|10=235|8=FIX.4.4|9=138|35=3|34=16|49=MU9051500001|52=20220107-09:28:32.790|56=IFIX-TC-EQ-UAT|45=14|58=Tag not defined for this message type|371=851|372=AE|373=2|10=233|8=FIX.4.4|9=138|35=3|34=17|49=MU9051500001|52=20220107-09:28:32.800|56=IFIX-TC-EQ-UAT|45=15|58=Tag not defined for this message type|371=851|372=AE|373=2|10=227|8=FIX.4.4|9=138|35=3|34=18|49=MU9051500001|52=20220107-09:28:32.808|56=IFIX-TC-EQ-UAT|45=16|58=Tag not defined for this message type|371=851|372=AE|373=2|10=237|8=FIX.4.4|9=138|35=3|34=19|49=MU9051500001|52=20220107-09:28:32.815|56=IFIX-TC-EQ-UAT|45=17|58=Tag not defined for this message type|371=851|372=AE|373=2|10=237|8=FIX.4.4|9=138|35=3|34=20|49=MU9051500001|52=20220107-09:28:32.821|56=IFIX-TC-EQ-UAT|45=18|58=Tag not defined for this message type|371=851|372=AE|373=2|10=227|8=FIX.4.4|9=138|35=3|34=21|49=MU9051500001|52=20220107-09:28:32.828|56=IFIX-TC-EQ-UAT|45=19|58=Tag not defined for this message type|371=851|372=AE|373=2|10=236|8=FIX.4.4|9=138|35=3|34=22|49=MU9051500001|52=20220107-09:28:33.000|56=IFIX-TC-EQ-UAT|45=20|58=Tag not defined for this message type|371=851|372=AE|373=2|10=212|8=FIX.4.4|9=138|35=3|34=23|49=MU9051500001|52=20220107-09:28:33.010|56=IFIX-TC-EQ-UAT|45=21|58=Tag not defined for this message type|371=851|372=AE|373=2|10=215|8=FIX.4.4|9=70|35=0|34=24|49=MU9051500001|52=20220107-09:29:33.416|56=IFIX-TC-EQ-UAT|10=112|8=FIX.4.4|9=70|35=0|34=25|49=MU9051500001|52=20220107-09:30:33.492|56=IFIX-TC-EQ-UAT|10=109|8=FIX.4.4|9=70|35=0|34=26|49=MU9051500001|52=20220107-09:31:33.575|56=IFIX-TC-EQ-UAT|10=113|8=FIX.4.4|9=70|35=0|34=27|49=MU9051500001|52=20220107-09:32:33.293|56=IFIX-TC-EQ-UAT|10=112|8=FIX.4.4|9=70|35=0|34=28|49=MU9051500001|52=20220107-09:33:33.072|56=IFIX-TC-EQ-UAT|10=109|8=FIX.4.4|9=70|35=0|34=29|49=MU9051500001|52=20220107-09:34:33.228|56=IFIX-TC-EQ-UAT|10=114|8=FIX.4.4|9=70|35=0|34=30|49=MU9051500001|52=20220107-09:35:33.154|56=IFIX-TC-EQ-UAT|10=105|8=FIX.4.4|9=70|35=0|34=31|49=MU9051500001|52=20220107-09:36:33.107|56=IFIX-TC-EQ-UAT|10=105|8=FIX.4.4|9=70|35=0|34=32|49=MU9051500001|52=20220107-09:37:33.062|56=IFIX-TC-EQ-UAT|10=107|8=FIX.4.4|9=70|35=0|34=33|49=MU9051500001|52=20220107-09:38:33.711|56=IFIX-TC-EQ-UAT|10=110|8=FIX.4.4|9=91|35=A|34=34|49=MU9051500001|52=20220107-09:39:24.039|56=IFIX-TC-EQ-UAT|554=7020|98=0|108=60|10=072|8=FIX.4.4|9=138|35=3|34=35|49=MU9051500001|52=20220107-09:39:36.700|56=IFIX-TC-EQ-UAT|45=34|58=Tag not defined for this message type|371=851|372=AE|373=2|10=233|8=FIX.4.4|9=138|35=3|34=36|49=MU9051500001|52=20220107-09:39:36.718|56=IFIX-TC-EQ-UAT|45=35|58=Tag not defined for this message type|371=851|372=AE|373=2|10=244|8=FIX.4.4|9=138|35=3|34=37|49=MU9051500001|52=20220107-09:39:36.731|56=IFIX-TC-EQ-UAT|45=36|58=Tag not defined for this message type|371=851|372=AE|373=2|10=241|8=FIX.4.4|9=138|35=3|34=38|49=MU9051500001|52=20220107-09:39:36.739|56=IFIX-TC-EQ-UAT|45=37|58=Tag not defined for this message type|371=851|372=AE|373=2|10=251|8=FIX.4.4|9=138|35=3|34=39|49=MU9051500001|52=20220107-09:39:36.749|56=IFIX-TC-EQ-UAT|45=38|58=Tag not defined for this message type|371=851|372=AE|373=2|10=254|8=FIX.4.4|9=138|35=3|34=40|49=MU9051500001|52=20220107-09:39:36.757|56=IFIX-TC-EQ-UAT|45=39|58=Tag not defined for this message type|371=851|372=AE|373=2|10=246|8=FIX.4.4|9=138|35=3|34=41|49=MU9051500001|52=20220107-09:39:36.765|56=IFIX-TC-EQ-UAT|45=40|58=Tag not defined for this message type|371=851|372=AE|373=2|10=238|8=FIX.4.4|9=138|35=3|34=42|49=MU9051500001|52=20220107-09:39:36.771|56=IFIX-TC-EQ-UAT|45=41|58=Tag not defined for this message type|371=851|372=AE|373=2|10=237|8=FIX.4.4|9=138|35=3|34=43|49=MU9051500001|52=20220107-09:39:36.779|56=IFIX-TC-EQ-UAT|45=42|58=Tag not defined for this message type|371=851|372=AE|373=2|10=247|8=FIX.4.4|9=138|35=3|34=44|49=MU9051500001|52=20220107-09:39:36.786|56=IFIX-TC-EQ-UAT|45=43|58=Tag not defined for this message type|371=851|372=AE|373=2|10=247|8=FIX.4.4|9=138|35=3|34=45|49=MU9051500001|52=20220107-09:39:36.796|56=IFIX-TC-EQ-UAT|45=44|58=Tag not defined for this message type|371=851|372=AE|373=2|10=250|8=FIX.4.4|9=138|35=3|34=46|49=MU9051500001|52=20220107-09:39:36.804|56=IFIX-TC-EQ-UAT|45=45|58=Tag not defined for this message type|371=851|372=AE|373=2|10=242|8=FIX.4.4|9=138|35=3|34=47|49=MU9051500001|52=20220107-09:39:36.810|56=IFIX-TC-EQ-UAT|45=46|58=Tag not defined for this message type|371=851|372=AE|373=2|10=241|8=FIX.4.4|9=138|35=3|34=48|49=MU9051500001|52=20220107-09:39:36.818|56=IFIX-TC-EQ-UAT|45=47|58=Tag not defined for this message type|371=851|372=AE|373=2|10=251|8=FIX.4.4|9=138|35=3|34=49|49=MU9051500001|52=20220107-09:39:36.823|56=IFIX-TC-EQ-UAT|45=48|58=Tag not defined for this message type|371=851|372=AE|373=2|10=249|8=FIX.4.4|9=138|35=3|34=50|49=MU9051500001|52=20220107-09:39:36.990|56=IFIX-TC-EQ-UAT|45=49|58=Tag not defined for this message type|371=851|372=AE|373=2|10=247|8=FIX.4.4|9=138|35=3|34=51|49=MU9051500001|52=20220107-09:39:37.005|56=IFIX-TC-EQ-UAT|45=50|58=Tag not defined for this message type|371=851|372=AE|373=2|10=228|8=FIX.4.4|9=138|35=3|34=52|49=MU9051500001|52=20220107-09:39:37.013|56=IFIX-TC-EQ-UAT|45=51|58=Tag not defined for this message type|371=851|372=AE|373=2|10=229|8=FIX.4.4|9=70|35=0|34=53|49=MU9051500001|52=20220107-09:40:37.707|56=IFIX-TC-EQ-UAT|10=114|8=FIX.4.4|9=70|35=0|34=54|49=MU9051500001|52=20220107-09:41:37.656|56=IFIX-TC-EQ-UAT|10=119|8=FIX.4.4|9=70|35=0|34=55|49=MU9051500001|52=20220107-09:42:37.040|56=IFIX-TC-EQ-UAT|10=108|8=FIX.4.4|9=70|35=0|34=56|49=MU9051500001|52=20220107-09:43:37.581|56=IFIX-TC-EQ-UAT|10=120|8=FIX.4.4|9=70|35=0|34=57|49=MU9051500001|52=20220107-09:44:37.552|56=IFIX-TC-EQ-UAT|10=120|8=FIX.4.4|9=91|35=A|34=58|49=MU9051500001|52=20220107-09:44:51.550|56=IFIX-TC-EQ-UAT|554=7020|98=0|108=60|10=072|8=FIX.4.4|9=120|35=3|34=59|49=MU9051500001|52=20220107-09:45:03.486|56=IFIX-TC-EQ-UAT|45=59|58=Invalid tag number|371=1056|372=AE|373=0|10=069|8=FIX.4.4|9=120|35=3|34=60|49=MU9051500001|52=20220107-09:45:03.504|56=IFIX-TC-EQ-UAT|45=60|58=Invalid tag number|371=1056|372=AE|373=0|10=044|8=FIX.4.4|9=120|35=3|34=61|49=MU9051500001|52=20220107-09:45:03.511|56=IFIX-TC-EQ-UAT|45=61|58=Invalid tag number|371=1056|372=AE|373=0|10=044|8=FIX.4.4|9=120|35=3|34=62|49=MU9051500001|52=20220107-09:45:03.519|56=IFIX-TC-EQ-UAT|45=62|58=Invalid tag number|371=1056|372=AE|373=0|10=054|8=FIX.4.4|9=120|35=3|34=63|49=MU9051500001|52=20220107-09:45:03.527|56=IFIX-TC-EQ-UAT|45=63|58=Invalid tag number|371=1056|372=AE|373=0|10=055|8=FIX.4.4|9=120|35=3|34=64|49=MU9051500001|52=20220107-09:45:03.535|56=IFIX-TC-EQ-UAT|45=64|58=Invalid tag number|371=1056|372=AE|373=0|10=056|8=FIX.4.4|9=120|35=3|34=65|49=MU9051500001|52=20220107-09:45:03.542|56=IFIX-TC-EQ-UAT|45=65|58=Invalid tag number|371=1056|372=AE|373=0|10=056|8=FIX.4.4|9=120|35=3|34=66|49=MU9051500001|52=20220107-09:45:03.550|56=IFIX-TC-EQ-UAT|45=66|58=Invalid tag number|371=1056|372=AE|373=0|10=057|8=FIX.4.4|9=120|35=3|34=67|49=MU9051500001|52=20220107-09:45:03.555|56=IFIX-TC-EQ-UAT|45=67|58=Invalid tag number|371=1056|372=AE|373=0|10=064|8=FIX.4.4|9=120|35=3|34=68|49=MU9051500001|52=20220107-09:45:03.561|56=IFIX-TC-EQ-UAT|45=68|58=Invalid tag number|371=1056|372=AE|373=0|10=063|8=FIX.4.4|9=120|35=3|34=69|49=MU9051500001|52=20220107-09:45:03.566|56=IFIX-TC-EQ-UAT|45=69|58=Invalid tag number|371=1056|372=AE|373=0|10=070|8=FIX.4.4|9=120|35=3|34=70|49=MU9051500001|52=20220107-09:45:03.572|56=IFIX-TC-EQ-UAT|45=70|58=Invalid tag number|371=1056|372=AE|373=0|10=051|8=FIX.4.4|9=120|35=3|34=71|49=MU9051500001|52=20220107-09:45:03.577|56=IFIX-TC-EQ-UAT|45=71|58=Invalid tag number|371=1056|372=AE|373=0|10=058|8=FIX.4.4|9=120|35=3|34=72|49=MU9051500001|52=20220107-09:45:03.582|56=IFIX-TC-EQ-UAT|45=72|58=Invalid tag number|371=1056|372=AE|373=0|10=056|8=FIX.4.4|9=120|35=3|34=73|49=MU9051500001|52=20220107-09:45:03.594|56=IFIX-TC-EQ-UAT|45=73|58=Invalid tag number|371=1056|372=AE|373=0|10=061|8=FIX.4.4|9=120|35=3|34=74|49=MU9051500001|52=20220107-09:45:03.603|56=IFIX-TC-EQ-UAT|45=74|58=Invalid tag number|371=1056|372=AE|373=0|10=054|8=FIX.4.4|9=120|35=3|34=75|49=MU9051500001|52=20220107-09:45:03.776|56=IFIX-TC-EQ-UAT|45=75|58=Invalid tag number|371=1056|372=AE|373=0|10=067|8=FIX.4.4|9=120|35=3|34=76|49=MU9051500001|52=20220107-09:45:03.784|56=IFIX-TC-EQ-UAT|45=76|58=Invalid tag number|371=1056|372=AE|373=0|10=068|8=FIX.4.4|9=91|35=A|34=77|49=MU9051500001|52=20220107-14:20:07.982|56=IFIX-TC-EQ-UAT|554=7020|98=0|108=60|10=073|8=FIX.4.4|9=91|35=A|34=78|49=MU9051500001|52=20220107-14:20:27.343|56=IFIX-TC-EQ-UAT|554=7020|98=0|108=60|10=067|8=FIX.4.4|9=91|35=A|34=79|49=MU9051500001|52=20220107-14:20:47.213|56=IFIX-TC-EQ-UAT|554=7020|98=0|108=60|10=066|8=FIX.4.4|9=91|35=A|34=80|49=MU9051500001|52=20220107-14:21:07.542|56=IFIX-TC-EQ-UAT|554=7020|98=0|108=60|10=060|8=FIX.4.4|9=91|35=A|34=81|49=MU9051500001|52=20220107-14:21:27.455|56=IFIX-TC-EQ-UAT|554=7020|98=0|108=60|10=066|8=FIX.4.4|9=91|35=A|34=82|49=MU9051500001|52=20220107-14:21:47.884|56=IFIX-TC-EQ-UAT|554=7020|98=0|108=60|10=075|8=FIX.4.4|9=91|35=A|34=83|49=MU9051500001|52=20220107-14:22:07.790|56=IFIX-TC-EQ-UAT|554=7020|98=0|108=60|10=069|8=FIX.4.4|9=91|35=A|34=84|49=MU9051500001|52=20220107-14:22:27.284|56=IFIX-TC-EQ-UAT|554=7020|98=0|108=60|10=070|8=FIX.4.4|9=91|35=A|34=85|49=MU9051500001|52=20220107-14:22:47.083|56=IFIX-TC-EQ-UAT|554=7020|98=0|108=60|10=070|8=FIX.4.4|9=91|35=A|34=86|49=MU9051500001|52=20220107-14:23:07.125|56=IFIX-TC-EQ-UAT|554=7020|98=0|108=60|10=065|8=FIX.4.4|9=91|35=A|34=87|49=MU9051500001|52=20220107-14:23:27.353|56=IFIX-TC-EQ-UAT|554=7020|98=0|108=60|10=071|8=FIX.4.4|9=91|35=A|34=88|49=MU9051500001|52=20220107-14:23:47.463|56=IFIX-TC-EQ-UAT|554=7020|98=0|108=60|10=076|8=FIX.4.4|9=132|35=3|34=89|49=MU9051500001|52=20220107-14:24:04.304|56=IFIX-TC-EQ-UAT|45=98|58=Incorrect data format for value|371=828|372=AE|373=6|10=253|8=FIX.4.4|9=132|35=3|34=90|49=MU9051500001|52=20220107-14:24:04.320|56=IFIX-TC-EQ-UAT|45=99|58=Incorrect data format for value|371=828|372=AE|373=6|10=244|8=FIX.4.4|9=70|35=0|34=91|49=MU9051500001|52=20220107-14:25:04.255|56=IFIX-TC-EQ-UAT|10=107|8=FIX.4.4|9=70|35=0|34=92|49=MU9051500001|52=20220107-14:26:04.243|56=IFIX-TC-EQ-UAT|10=106|8=FIX.4.4|9=70|35=0|34=93|49=MU9051500001|52=20220107-14:27:04.030|56=IFIX-TC-EQ-UAT|10=102|8=FIX.4.4|9=70|35=0|34=94|49=MU9051500001|52=20220107-14:28:04.214|56=IFIX-TC-EQ-UAT|10=108|8=FIX.4.4|9=70|35=0|34=95|49=MU9051500001|52=20220107-14:29:04.202|56=IFIX-TC-EQ-UAT|10=107|8=FIX.4.4|9=70|35=0|34=96|49=MU9051500001|52=20220107-14:30:04.183|56=IFIX-TC-EQ-UAT|10=108|8=FIX.4.4|9=70|35=0|34=97|49=MU9051500001|52=20220107-14:31:04.177|56=IFIX-TC-EQ-UAT|10=113|8=FIX.4.4|9=70|35=0|34=98|49=MU9051500001|52=20220107-14:32:04.032|56=IFIX-TC-EQ-UAT|10=105|8=FIX.4.4|9=70|35=0|34=99|49=MU9051500001|52=20220107-14:33:04.151|56=IFIX-TC-EQ-UAT|10=109|8=FIX.4.4|9=92|35=A|34=100|49=MU9051500001|52=20220107-14:33:32.599|56=IFIX-TC-EQ-UAT|554=7020|98=0|108=60|10=115|8=FIX.4.4|9=134|35=3|34=101|49=MU9051500001|52=20220107-14:33:45.186|56=IFIX-TC-EQ-UAT|45=129|58=Incorrect data format for value|371=828|372=AE|373=6|10=088|8=FIX.4.4|9=134|35=3|34=102|49=MU9051500001|52=20220107-14:33:45.205|56=IFIX-TC-EQ-UAT|45=130|58=Incorrect data format for value|371=828|372=AE|373=6|10=073|8=FIX.4.4|9=71|35=0|34=103|49=MU9051500001|52=20220107-14:34:45.624|56=IFIX-TC-EQ-UAT|10=155|8=FIX.4.4|9=71|35=0|34=104|49=MU9051500001|52=20220107-14:35:45.618|56=IFIX-TC-EQ-UAT|10=160|8=FIX.4.4|9=92|35=A|34=105|49=MU9051500001|52=20220107-14:35:57.646|56=IFIX-TC-EQ-UAT|554=7020|98=0|108=60|10=122|8=FIX.4.4|9=71|35=0|34=106|49=MU9051500001|52=20220107-14:36:57.193|56=IFIX-TC-EQ-UAT|10=164|8=FIX.4.4|9=71|35=0|34=107|49=MU9051500001|52=20220107-14:37:57.638|56=IFIX-TC-EQ-UAT|10=170|8=FIX.4.4|9=71|35=0|34=108|49=MU9051500001|52=20220107-14:38:57.049|56=IFIX-TC-EQ-UAT|10=168|8=FIX.4.4|9=71|35=0|34=109|49=MU9051500001|52=20220107-14:39:57.230|56=IFIX-TC-EQ-UAT|10=162|8=FIX.4.4|9=71|35=0|34=110|49=MU9051500001|52=20220107-14:40:57.570|56=IFIX-TC-EQ-UAT|10=153|8=FIX.4.4|9=71|35=0|34=111|49=MU9051500001|52=20220107-14:41:57.090|56=IFIX-TC-EQ-UAT|10=152|8=FIX.4.4|9=71|35=0|34=112|49=MU9051500001|52=20220107-14:42:57.078|56=IFIX-TC-EQ-UAT|10=160|8=FIX.4.4|9=71|35=0|34=113|49=MU9051500001|52=20220107-14:43:57.358|56=IFIX-TC-EQ-UAT|10=163|8=FIX.4.4|9=71|35=0|34=114|49=MU9051500001|52=20220107-14:44:57.128|56=IFIX-TC-EQ-UAT|10=160|8=FIX.4.4|9=71|35=0|34=115|49=MU9051500001|52=20220107-14:45:57.190|56=IFIX-TC-EQ-UAT|10=161|8=FIX.4.4|9=71|35=0|34=116|49=MU9051500001|52=20220107-14:46:57.308|56=IFIX-TC-EQ-UAT|10=164|8=FIX.4.4|9=71|35=0|34=117|49=MU9051500001|52=20220107-14:47:57.100|56=IFIX-TC-EQ-UAT|10=156|8=FIX.4.4|9=71|35=0|34=118|49=MU9051500001|52=20220107-14:48:57.232|56=IFIX-TC-EQ-UAT|10=164|8=FIX.4.4|9=71|35=0|34=119|49=MU9051500001|52=20220107-14:49:57.449|56=IFIX-TC-EQ-UAT|10=176|8=FIX.4.4|9=71|35=0|34=120|49=MU9051500001|52=20220107-14:50:57.027|56=IFIX-TC-EQ-UAT|10=152|8=FIX.4.4|9=71|35=0|34=121|49=MU9051500001|52=20220107-14:51:57.438|56=IFIX-TC-EQ-UAT|10=160|8=FIX.4.4|9=71|35=0|34=122|49=MU9051500001|52=20220107-14:52:57.125|56=IFIX-TC-EQ-UAT|10=155|8=FIX.4.4|9=71|35=0|34=123|49=MU9051500001|52=20220107-14:53:57.431|56=IFIX-TC-EQ-UAT|10=157|8=FIX.4.4|9=71|35=0|34=124|49=MU9051500001|52=20220107-14:54:57.492|56=IFIX-TC-EQ-UAT|10=166|8=FIX.4.4|9=71|35=0|34=125|49=MU9051500001|52=20220107-14:55:57.080|56=IFIX-TC-EQ-UAT|10=161|8=FIX.4.4|9=71|35=0|34=126|49=MU9051500001|52=20220107-14:56:57.045|56=IFIX-TC-EQ-UAT|10=164|8=FIX.4.4|9=71|35=0|34=127|49=MU9051500001|52=20220107-14:57:57.155|56=IFIX-TC-EQ-UAT|10=168|8=FIX.4.4|9=71|35=0|34=128|49=MU9051500001|52=20220107-14:58:57.423|56=IFIX-TC-EQ-UAT|10=168|8=FIX.4.4|9=71|35=0|34=129|49=MU9051500001|52=20220107-14:59:57.447|56=IFIX-TC-EQ-UAT|10=176|8=FIX.4.4|9=71|35=0|34=130|49=MU9051500001|52=20220107-15:00:57.288|56=IFIX-TC-EQ-UAT|10=158|8=FIX.4.4|9=71|35=0|34=131|49=MU9051500001|52=20220107-15:01:57.384|56=IFIX-TC-EQ-UAT|10=157|8=FIX.4.4|9=92|35=A|34=132|49=MU9051500001|52=20220107-15:02:17.673|56=IFIX-TC-EQ-UAT|554=7020|98=0|108=60|10=113|8=FIX.4.4|9=82|35=2|34=133|49=MU9051500001|52=20220107-15:02:20.906|56=IFIX-TC-EQ-UAT|7=180|16=0|10=125|8=FIX.4.4|9=71|35=0|34=134|49=MU9051500001|52=20220107-15:03:21.075|56=IFIX-TC-EQ-UAT|10=150|8=FIX.4.4|9=71|35=0|34=135|49=MU9051500001|52=20220107-15:04:21.499|56=IFIX-TC-EQ-UAT|10=162|8=FIX.4.4|9=71|35=0|34=136|49=MU9051500001|52=20220107-15:05:21.043|56=IFIX-TC-EQ-UAT|10=149|8=FIX.4.4|9=71|35=0|34=137|49=MU9051500001|52=20220107-15:06:21.548|56=IFIX-TC-EQ-UAT|10=161|8=FIX.4.4|9=71|35=0|34=138|49=MU9051500001|52=20220107-15:07:21.316|56=IFIX-TC-EQ-UAT|10=156|8=FIX.4.4|9=71|35=0|34=139|49=MU9051500001|52=20220107-15:08:21.273|56=IFIX-TC-EQ-UAT|10=160|8=FIX.4.4|9=71|35=0|34=140|49=MU9051500001|52=20220107-15:09:21.174|56=IFIX-TC-EQ-UAT|10=153|8=FIX.4.4|9=71|35=0|34=141|49=MU9051500001|52=20220107-15:10:21.233|56=IFIX-TC-EQ-UAT|10=142|8=FIX.4.4|9=71|35=0|34=142|49=MU9051500001|52=20220107-15:11:21.006|56=IFIX-TC-EQ-UAT|10=142|8=FIX.4.4|9=71|35=0|34=143|49=MU9051500001|52=20220107-15:12:21.020|56=IFIX-TC-EQ-UAT|10=140|8=FIX.4.4|9=92|35=A|34=144|49=MU9051500001|52=20220107-15:12:37.335|56=IFIX-TC-EQ-UAT|554=7020|98=0|108=60|10=114|8=FIX.4.4|9=82|35=2|34=145|49=MU9051500001|52=20220107-15:12:40.548|56=IFIX-TC-EQ-UAT|7=214|16=0|10=131|8=FIX.4.4|9=71|35=0|34=146|49=MU9051500001|52=20220107-15:13:40.094|56=IFIX-TC-EQ-UAT|10=156|8=FIX.4.4|9=71|35=0|34=147|49=MU9051500001|52=20220107-15:14:40.437|56=IFIX-TC-EQ-UAT|10=159|8=FIX.4.4|9=71|35=0|34=148|49=MU9051500001|52=20220107-15:15:40.029|56=IFIX-TC-EQ-UAT|10=158|8=FIX.4.4|9=71|35=0|34=149|49=MU9051500001|52=20220107-15:16:40.046|56=IFIX-TC-EQ-UAT|10=159|8=FIX.4.4|9=71|35=0|34=150|49=MU9051500001|52=20220107-15:17:40.196|56=IFIX-TC-EQ-UAT|10=158|8=FIX.4.4|9=71|35=0|34=151|49=MU9051500001|52=20220107-15:18:40.250|56=IFIX-TC-EQ-UAT|10=151|8=FIX.4.4|9=71|35=0|34=152|49=MU9051500001|52=20220107-15:19:40.019|56=IFIX-TC-EQ-UAT|10=156|8=FIX.4.4|9=71|35=0|34=153|49=MU9051500001|52=20220107-15:20:40.510|56=IFIX-TC-EQ-UAT|10=145|8=FIX.4.4|9=71|35=0|34=154|49=MU9051500001|52=20220107-15:21:40.148|56=IFIX-TC-EQ-UAT|10=154|8=FIX.4.4|9=71|35=0|34=155|49=MU9051500001|52=20220107-15:22:40.163|56=IFIX-TC-EQ-UAT|10=153|8=FIX.4.4|9=71|35=0|34=156|49=MU9051500001|52=20220107-15:23:40.215|56=IFIX-TC-EQ-UAT|10=153|8=FIX.4.4|9=71|35=0|34=157|49=MU9051500001|52=20220107-15:24:40.470|56=IFIX-TC-EQ-UAT|10=158|8=FIX.4.4|9=71|35=0|34=158|49=MU9051500001|52=20220107-15:25:40.214|56=IFIX-TC-EQ-UAT|10=156|8=FIX.4.4|9=71|35=0|34=159|49=MU9051500001|52=20220107-15:26:40.474|56=IFIX-TC-EQ-UAT|10=166|8=FIX.4.4|9=71|35=0|34=160|49=MU9051500001|52=20220107-15:27:40.334|56=IFIX-TC-EQ-UAT|10=154|8=FIX.4.4|9=71|35=0|34=161|49=MU9051500001|52=20220107-15:28:40.137|56=IFIX-TC-EQ-UAT|10=157|8=FIX.4.4|9=71|35=0|34=162|49=MU9051500001|52=20220107-15:29:40.160|56=IFIX-TC-EQ-UAT|10=155|8=FIX.4.4|9=71|35=0|34=163|49=MU9051500001|52=20220107-15:30:40.195|56=IFIX-TC-EQ-UAT|10=156|8=FIX.4.4|9=71|35=0|34=164|49=MU9051500001|52=20220107-15:31:40.069|56=IFIX-TC-EQ-UAT|10=158|8=FIX.4.4|9=71|35=0|34=165|49=MU9051500001|52=20220107-15:32:40.254|56=IFIX-TC-EQ-UAT|10=156|8=FIX.4.4|9=71|35=0|34=166|49=MU9051500001|52=20220107-15:33:40.705|56=IFIX-TC-EQ-UAT|10=159|8=FIX.4.4|9=71|35=0|34=167|49=MU9051500001|52=20220107-15:34:40.633|56=IFIX-TC-EQ-UAT|10=161|8=FIX.4.4|9=71|35=0|34=168|49=MU9051500001|52=20220107-15:35:40.550|56=IFIX-TC-EQ-UAT|10=161|8=FIX.4.4|9=71|35=0|34=169|49=MU9051500001|52=20220107-15:36:40.131|56=IFIX-TC-EQ-UAT|10=158|8=FIX.4.4|9=71|35=0|34=170|49=MU9051500001|52=20220107-15:37:40.416|56=IFIX-TC-EQ-UAT|10=157|8=FIX.4.4|9=71|35=0|34=171|49=MU9051500001|52=20220107-15:38:40.006|56=IFIX-TC-EQ-UAT|10=154|8=FIX.4.4|9=71|35=0|34=172|49=MU9051500001|52=20220107-15:39:40.348|56=IFIX-TC-EQ-UAT|10=165|8=FIX.4.4|9=71|35=0|34=173|49=MU9051500001|52=20220107-15:40:40.044|56=IFIX-TC-EQ-UAT|10=151|8=FIX.4.4|9=71|35=0|34=174|49=MU9051500001|52=20220107-15:41:40.019|56=IFIX-TC-EQ-UAT|10=155|8=FIX.4.4|9=71|35=0|34=175|49=MU9051500001|52=20220107-15:42:40.344|56=IFIX-TC-EQ-UAT|10=158|8=FIX.4.4|9=71|35=0|34=176|49=MU9051500001|52=20220107-15:43:40.142|56=IFIX-TC-EQ-UAT|10=156|8=FIX.4.4|9=71|35=0|34=177|49=MU9051500001|52=20220107-15:44:40.210|56=IFIX-TC-EQ-UAT|10=154|8=FIX.4.4|9=71|35=0|34=178|49=MU9051500001|52=20220107-15:45:40.247|56=IFIX-TC-EQ-UAT|10=166|8=FIX.4.4|9=71|35=0|34=179|49=MU9051500001|52=20220107-15:46:40.008|56=IFIX-TC-EQ-UAT|10=163|8=FIX.4.4|9=71|35=0|34=180|49=MU9051500001|52=20220107-15:47:40.124|56=IFIX-TC-EQ-UAT|10=155|8=FIX.4.4|9=71|35=0|34=181|49=MU9051500001|52=20220107-15:48:40.091|56=IFIX-TC-EQ-UAT|10=160|8=FIX.4.4|9=71|35=0|34=182|49=MU9051500001|52=20220107-15:49:40.181|56=IFIX-TC-EQ-UAT|10=162|8=FIX.4.4|9=71|35=0|34=183|49=MU9051500001|52=20220107-15:50:40.075|56=IFIX-TC-EQ-UAT|10=157|8=FIX.4.4|9=71|35=0|34=184|49=MU9051500001|52=20220107-15:51:40.072|56=IFIX-TC-EQ-UAT|10=156|8=FIX.4.4|9=71|35=0|34=185|49=MU9051500001|52=20220107-15:52:40.005|56=IFIX-TC-EQ-UAT|10=154|8=FIX.4.4|9=71|35=0|34=186|49=MU9051500001|52=20220107-15:53:40.340|56=IFIX-TC-EQ-UAT|10=158|8=FIX.4.4|9=71|35=0|34=187|49=MU9051500001|52=20220107-15:54:40.486|56=IFIX-TC-EQ-UAT|10=171|8=FIX.4.4|9=71|35=0|34=188|49=MU9051500001|52=20220107-15:55:40.625|56=IFIX-TC-EQ-UAT|10=168|8=FIX.4.4|9=71|35=0|34=189|49=MU9051500001|52=20220107-15:56:40.743|56=IFIX-TC-EQ-UAT|10=171|8=FIX.4.4|9=71|35=0|34=190|49=MU9051500001|52=20220107-15:57:40.774|56=IFIX-TC-EQ-UAT|10=168|8=FIX.4.4|9=71|35=0|34=191|49=MU9051500001|52=20220107-15:58:40.787|56=IFIX-TC-EQ-UAT|10=174|8=FIX.4.4|9=71|35=0|34=192|49=MU9051500001|52=20220107-15:59:40.770|56=IFIX-TC-EQ-UAT|10=168|8=FIX.4.4|9=71|35=0|34=193|49=MU9051500001|52=20220107-16:00:40.694|56=IFIX-TC-EQ-UAT|10=161|8=FIX.4.4|9=71|35=0|34=194|49=MU9051500001|52=20220107-16:01:40.675|56=IFIX-TC-EQ-UAT|10=162|8=FIX.4.4|9=71|35=0|34=195|49=MU9051500001|52=20220107-16:02:40.572|56=IFIX-TC-EQ-UAT|10=160|8=FIX.4.4|9=71|35=0|34=196|49=MU9051500001|52=20220107-16:03:40.510|56=IFIX-TC-EQ-UAT|10=154|8=FIX.4.4|9=71|35=0|34=197|49=MU9051500001|52=20220107-16:04:40.332|56=IFIX-TC-EQ-UAT|10=158|8=FIX.4.4|9=71|35=0|34=198|49=MU9051500001|52=20220107-16:05:40.107|56=IFIX-TC-EQ-UAT|10=160|8=FIX.4.4|9=71|35=0|34=199|49=MU9051500001|52=20220107-16:06:40.665|56=IFIX-TC-EQ-UAT|10=171|8=FIX.4.4|9=71|35=0|34=200|49=MU9051500001|52=20220107-16:07:40.286|56=IFIX-TC-EQ-UAT|10=154|8=FIX.4.4|9=71|35=0|34=201|49=MU9051500001|52=20220107-16:08:40.680|56=IFIX-TC-EQ-UAT|10=154|8=FIX.4.4|9=71|35=0|34=202|49=MU9051500001|52=20220107-16:09:40.274|56=IFIX-TC-EQ-UAT|10=155|8=FIX.4.4|9=71|35=0|34=203|49=MU9051500001|52=20220107-16:10:40.551|56=IFIX-TC-EQ-UAT|10=146|8=FIX.4.4|9=71|35=0|34=204|49=MU9051500001|52=20220107-16:11:40.027|56=IFIX-TC-EQ-UAT|10=146|8=FIX.4.4|9=71|35=0|34=205|49=MU9051500001|52=20220107-16:12:40.105|56=IFIX-TC-EQ-UAT|10=145|8=FIX.4.4|9=71|35=0|34=206|49=MU9051500001|52=20220107-16:13:40.125|56=IFIX-TC-EQ-UAT|10=149|8=FIX.4.4|9=71|35=0|34=207|49=MU9051500001|52=20220107-16:14:40.017|56=IFIX-TC-EQ-UAT|10=151|8=FIX.4.4|9=71|35=0|34=208|49=MU9051500001|52=20220107-16:15:40.527|56=IFIX-TC-EQ-UAT|10=159|8=FIX.4.4|9=71|35=0|34=209|49=MU9051500001|52=20220107-16:16:40.254|56=IFIX-TC-EQ-UAT|10=158|8=FIX.4.4|9=71|35=0|34=210|49=MU9051500001|52=20220107-16:17:40.498|56=IFIX-TC-EQ-UAT|10=161|8=FIX.4.4|9=71|35=0|34=211|49=MU9051500001|52=20220107-16:18:40.045|56=IFIX-TC-EQ-UAT|10=151|8=FIX.4.4|9=71|35=0|34=212|49=MU9051500001|52=20220107-16:19:40.035|56=IFIX-TC-EQ-UAT|10=152|8=FIX.4.4|9=71|35=0|34=213|49=MU9051500001|52=20220107-16:20:40.447|56=IFIX-TC-EQ-UAT|10=152|8=FIX.4.4|9=71|35=0|34=214|49=MU9051500001|52=20220107-16:21:40.155|56=IFIX-TC-EQ-UAT|10=150|8=FIX.4.4|9=71|35=0|34=215|49=MU9051500001|52=20220107-16:22:40.303|56=IFIX-TC-EQ-UAT|10=147|8=FIX.4.4|9=71|35=0|34=216|49=MU9051500001|52=20220107-16:23:40.195|56=IFIX-TC-EQ-UAT|10=158|8=FIX.4.4|9=71|35=0|34=217|49=MU9051500001|52=20220107-16:24:40.284|56=IFIX-TC-EQ-UAT|10=159|8=FIX.4.4|9=71|35=0|34=218|49=MU9051500001|52=20220107-16:25:40.171|56=IFIX-TC-EQ-UAT|10=156|8=FIX.4.4|9=71|35=0|34=219|49=MU9051500001|52=20220107-16:26:40.246|56=IFIX-TC-EQ-UAT|10=161|8=FIX.4.4|9=71|35=0|34=220|49=MU9051500001|52=20220107-16:27:40.075|56=IFIX-TC-EQ-UAT|10=154|8=FIX.4.4|9=71|35=0|34=221|49=MU9051500001|52=20220107-16:28:40.268|56=IFIX-TC-EQ-UAT|10=160|8=FIX.4.4|9=71|35=0|34=222|49=MU9051500001|52=20220107-16:29:40.094|56=IFIX-TC-EQ-UAT|10=159|8=FIX.4.4|9=71|35=0|34=223|49=MU9051500001|52=20220107-16:30:40.110|56=IFIX-TC-EQ-UAT|10=141|8=FIX.4.4|9=71|35=0|34=224|49=MU9051500001|52=20220107-16:31:40.108|56=IFIX-TC-EQ-UAT|10=150|8=FIX.4.4|9=71|35=0|34=225|49=MU9051500001|52=20220107-16:32:40.147|56=IFIX-TC-EQ-UAT|10=155|8=FIX.4.4|9=71|35=0|34=226|49=MU9051500001|52=20220107-16:33:40.141|56=IFIX-TC-EQ-UAT|10=151|8=FIX.4.4|9=71|35=0|34=227|49=MU9051500001|52=20220107-16:34:40.114|56=IFIX-TC-EQ-UAT|10=153|8=FIX.4.4|9=71|35=0|34=228|49=MU9051500001|52=20220107-16:35:40.000|56=IFIX-TC-EQ-UAT|10=149|8=FIX.4.4|9=71|35=0|34=229|49=MU9051500001|52=20220107-16:36:40.418|56=IFIX-TC-EQ-UAT|10=164|8=FIX.4.4|9=71|35=0|34=230|49=MU9051500001|52=20220107-16:37:40.686|56=IFIX-TC-EQ-UAT|10=164|8=FIX.4.4|9=71|35=0|34=231|49=MU9051500001|52=20220107-16:38:40.907|56=IFIX-TC-EQ-UAT|10=162|8=FIX.4.4|9=71|35=0|34=232|49=MU9051500001|52=20220107-16:39:40.187|56=IFIX-TC-EQ-UAT|10=164|8=FIX.4.4|9=71|35=0|34=233|49=MU9051500001|52=20220107-16:40:40.424|56=IFIX-TC-EQ-UAT|10=151|8=FIX.4.4|9=71|35=0|34=234|49=MU9051500001|52=20220107-16:41:40.442|56=IFIX-TC-EQ-UAT|10=153|8=FIX.4.4|9=71|35=0|34=235|49=MU9051500001|52=20220107-16:42:40.343|56=IFIX-TC-EQ-UAT|10=155|8=FIX.4.4|9=71|35=0|34=236|49=MU9051500001|52=20220107-16:43:40.409|56=IFIX-TC-EQ-UAT|10=160|8=FIX.4.4|9=71|35=0|34=237|49=MU9051500001|52=20220107-16:44:40.513|56=IFIX-TC-EQ-UAT|10=158|8=FIX.4.4|9=71|35=0|34=238|49=MU9051500001|52=20220107-16:45:40.591|56=IFIX-TC-EQ-UAT|10=166|8=FIX.4.4|9=71|35=0|34=239|49=MU9051500001|52=20220107-16:46:40.528|56=IFIX-TC-EQ-UAT|10=168|8=FIX.4.4|9=71|35=0|34=240|49=MU9051500001|52=20220107-16:47:40.426|56=IFIX-TC-EQ-UAT|10=158|8=FIX.4.4|9=71|35=0|34=241|49=MU9051500001|52=20220107-16:48:40.294|56=IFIX-TC-EQ-UAT|10=163|8=FIX.4.4|9=71|35=0|34=242|49=MU9051500001|52=20220107-16:49:40.114|56=IFIX-TC-EQ-UAT|10=156|8=FIX.4.4|9=71|35=0|34=243|49=MU9051500001|52=20220107-16:50:40.724|56=IFIX-TC-EQ-UAT|10=156|8=FIX.4.4|9=71|35=0|34=244|49=MU9051500001|52=20220107-16:51:40.262|56=IFIX-TC-EQ-UAT|10=155|8=FIX.4.4|9=71|35=0|34=245|49=MU9051500001|52=20220107-16:52:40.043|56=IFIX-TC-EQ-UAT|10=154|8=FIX.4.4|9=71|35=0|34=246|49=MU9051500001|52=20220107-16:53:40.466|56=IFIX-TC-EQ-UAT|10=165|8=FIX.4.4|9=71|35=0|34=247|49=MU9051500001|52=20220107-16:54:40.043|56=IFIX-TC-EQ-UAT|10=158|8=FIX.4.4|9=71|35=0|34=248|49=MU9051500001|52=20220107-16:55:40.152|56=IFIX-TC-EQ-UAT|10=161|8=FIX.4.4|9=71|35=0|34=249|49=MU9051500001|52=20220107-16:56:40.224|56=IFIX-TC-EQ-UAT|10=163|8=FIX.4.4|9=71|35=0|34=250|49=MU9051500001|52=20220107-16:57:40.210|56=IFIX-TC-EQ-UAT|10=151|8=FIX.4.4|9=71|35=0|34=251|49=MU9051500001|52=20220107-16:58:40.149|56=IFIX-TC-EQ-UAT|10=164|8=FIX.4.4|9=71|35=0|34=252|49=MU9051500001|52=20220107-16:59:40.607|56=IFIX-TC-EQ-UAT|10=165|8=FIX.4.4|9=71|35=0|34=253|49=MU9051500001|52=20220107-17:00:40.308|56=IFIX-TC-EQ-UAT|10=151|8=FIX.4.4|9=71|35=0|34=254|49=MU9051500001|52=20220107-17:01:40.565|56=IFIX-TC-EQ-UAT|10=158|8=FIX.4.4|9=71|35=0|34=255|49=MU9051500001|52=20220107-17:02:40.238|56=IFIX-TC-EQ-UAT|10=157|8=FIX.4.4|9=71|35=0|34=256|49=MU9051500001|52=20220107-17:03:40.151|56=IFIX-TC-EQ-UAT|10=153|8=FIX.4.4|9=71|35=0|34=257|49=MU9051500001|52=20220107-17:04:40.504|56=IFIX-TC-EQ-UAT|10=157|8=FIX.4.4|9=71|35=0|34=258|49=MU9051500001|52=20220107-17:05:40.202|56=IFIX-TC-EQ-UAT|10=154|8=FIX.4.4|9=71|35=0|34=259|49=MU9051500001|52=20220107-17:06:40.187|56=IFIX-TC-EQ-UAT|10=168|8=FIX.4.4|9=71|35=0|34=260|49=MU9051500001|52=20220107-17:07:40.084|56=IFIX-TC-EQ-UAT|10=157|8=FIX.4.4|9=71|35=0|34=261|49=MU9051500001|52=20220107-17:08:40.245|56=IFIX-TC-EQ-UAT|10=158|8=FIX.4.4|9=71|35=0|34=262|49=MU9051500001|52=20220107-17:09:40.083|56=IFIX-TC-EQ-UAT|10=160|8=FIX.4.4|9=71|35=0|34=263|49=MU9051500001|52=20220107-17:10:40.128|56=IFIX-TC-EQ-UAT|10=153|8=FIX.4.4|9=71|35=0|34=264|49=MU9051500001|52=20220107-17:11:40.225|56=IFIX-TC-EQ-UAT|10=153|8=FIX.4.4|9=71|35=0|34=265|49=MU9051500001|52=20220107-17:12:40.098|56=IFIX-TC-EQ-UAT|10=163|8=FIX.4.4|9=71|35=0|34=266|49=MU9051500001|52=20220107-17:13:40.034|56=IFIX-TC-EQ-UAT|10=155|8=FIX.4.4|9=71|35=0|34=267|49=MU9051500001|52=20220107-17:14:40.123|56=IFIX-TC-EQ-UAT|10=156|8=FIX.4.4|9=71|35=0|34=268|49=MU9051500001|52=20220107-17:15:40.068|56=IFIX-TC-EQ-UAT|10=166|8=FIX.4.4|9=71|35=0|34=269|49=MU9051500001|52=20220107-17:16:40.233|56=IFIX-TC-EQ-UAT|10=162|8=FIX.4.4|9=71|35=0|34=270|49=MU9051500001|52=20220107-17:17:40.013|56=IFIX-TC-EQ-UAT|10=151|8=FIX.4.4|9=71|35=0|34=271|49=MU9051500001|52=20220107-17:18:40.018|56=IFIX-TC-EQ-UAT|10=158|8=FIX.4.4|9=71|35=0|34=272|49=MU9051500001|52=20220107-17:19:40.157|56=IFIX-TC-EQ-UAT|10=164|8=FIX.4.4|9=71|35=0|34=273|49=MU9051500001|52=20220107-17:20:40.050|56=IFIX-TC-EQ-UAT|10=149|8=FIX.4.4|9=71|35=0|34=274|49=MU9051500001|52=20220107-17:21:40.047|56=IFIX-TC-EQ-UAT|10=157|8=FIX.4.4|9=71|35=0|34=275|49=MU9051500001|52=20220107-17:22:40.228|56=IFIX-TC-EQ-UAT|10=160|8=FIX.4.4|9=71|35=0|34=276|49=MU9051500001|52=20220107-17:23:40.284|56=IFIX-TC-EQ-UAT|10=164|8=FIX.4.4|9=71|35=0|34=277|49=MU9051500001|52=20220107-17:24:40.458|56=IFIX-TC-EQ-UAT|10=169|8=FIX.4.4|9=71|35=0|34=278|49=MU9051500001|52=20220107-17:25:40.569|56=IFIX-TC-EQ-UAT|10=174|8=FIX.4.4|9=71|35=0|34=279|49=MU9051500001|52=20220107-17:26:40.636|56=IFIX-TC-EQ-UAT|10=171|8=FIX.4.4|9=71|35=0|34=280|49=MU9051500001|52=20220107-17:27:40.661|56=IFIX-TC-EQ-UAT|10=162|8=FIX.4.4|9=71|35=0|34=281|49=MU9051500001|52=20220107-17:28:40.641|56=IFIX-TC-EQ-UAT|10=162|8=FIX.4.4|9=71|35=0|34=282|49=MU9051500001|52=20220107-17:29:40.604|56=IFIX-TC-EQ-UAT|10=163|8=FIX.4.4|9=71|35=0|34=283|49=MU9051500001|52=20220107-17:30:40.563|56=IFIX-TC-EQ-UAT|10=160|8=FIX.4.4|9=71|35=0|34=284|49=MU9051500001|52=20220107-17:31:40.567|56=IFIX-TC-EQ-UAT|10=166|8=FIX.4.4|9=71|35=0|34=285|49=MU9051500001|52=20220107-17:32:40.449|56=IFIX-TC-EQ-UAT|10=167|8=FIX.4.4|9=71|35=0|34=286|49=MU9051500001|52=20220107-17:33:40.218|56=IFIX-TC-EQ-UAT|10=163|8=FIX.4.4|9=71|35=0|34=287|49=MU9051500001|52=20220107-17:34:40.004|56=IFIX-TC-EQ-UAT|10=158|8=FIX.4.4|9=71|35=0|34=288|49=MU9051500001|52=20220107-17:35:40.562|56=IFIX-TC-EQ-UAT|10=169|8=FIX.4.4|9=71|35=0|34=289|49=MU9051500001|52=20220107-17:36:40.257|56=IFIX-TC-EQ-UAT|10=172|8=FIX.4.4|9=71|35=0|34=290|49=MU9051500001|52=20220107-17:37:40.638|56=IFIX-TC-EQ-UAT|10=168|8=FIX.4.4|9=71|35=0|34=291|49=MU9051500001|52=20220107-17:38:40.214|56=IFIX-TC-EQ-UAT|10=160|8=FIX.4.4|9=71|35=0|34=292|49=MU9051500001|52=20220107-17:39:40.399|56=IFIX-TC-EQ-UAT|10=176|8=FIX.4.4|9=71|35=0|34=293|49=MU9051500001|52=20220107-17:40:40.544|56=IFIX-TC-EQ-UAT|10=161|8=FIX.4.4|9=71|35=0|34=294|49=MU9051500001|52=20220107-17:41:40.625|56=IFIX-TC-EQ-UAT|10=163|8=FIX.4.4|9=71|35=0|34=295|49=MU9051500001|52=20220107-17:42:40.607|56=IFIX-TC-EQ-UAT|10=165|8=FIX.4.4|9=71|35=0|34=296|49=MU9051500001|52=20220107-17:43:40.600|56=IFIX-TC-EQ-UAT|10=160|8=FIX.4.4|9=71|35=0|34=297|49=MU9051500001|52=20220107-17:44:40.036|56=IFIX-TC-EQ-UAT|10=165|8=FIX.4.4|9=71|35=0|34=298|49=MU9051500001|52=20220107-17:45:40.005|56=IFIX-TC-EQ-UAT|10=163|8=FIX.4.4|9=71|35=0|34=299|49=MU9051500001|52=20220107-17:46:40.504|56=IFIX-TC-EQ-UAT|10=169|8=FIX.4.4|9=71|35=0|34=300|49=MU9051500001|52=20220107-17:47:40.195|56=IFIX-TC-EQ-UAT|10=159|8=FIX.4.4|9=71|35=0|34=301|49=MU9051500001|52=20220107-17:48:40.313|56=IFIX-TC-EQ-UAT|10=153|8=FIX.4.4|9=92|35=A|34=302|49=MU9051500001|52=20220107-18:16:05.813|56=IFIX-TC-EQ-UAT|554=7020|98=0|108=60|10=113|8=FIX.4.4|9=92|35=A|34=303|49=MU9051500001|52=20220107-18:16:25.418|56=IFIX-TC-EQ-UAT|554=7020|98=0|108=60|10=117|8=FIX.4.4|9=92|35=A|34=304|49=MU9051500001|52=20220107-18:16:45.352|56=IFIX-TC-EQ-UAT|554=7020|98=0|108=60|10=117|8=FIX.4.4|9=92|35=A|34=305|49=MU9051500001|52=20220107-18:17:05.961|56=IFIX-TC-EQ-UAT|554=7020|98=0|108=60|10=121|8=FIX.4.4|9=92|35=A|34=306|49=MU9051500001|52=20220107-18:17:26.124|56=IFIX-TC-EQ-UAT|554=7020|98=0|108=60|10=116|8=FIX.4.4|9=92|35=A|34=307|49=MU9051500001|52=20220107-18:17:45.915|56=IFIX-TC-EQ-UAT|554=7020|98=0|108=60|10=126|8=FIX.4.4|9=92|35=A|34=308|49=MU9051500001|52=20220107-18:23:30.321|56=IFIX-TC-EQ-UAT|554=7020|98=0|108=60|10=109|8=FIX.4.4|9=92|35=A|34=309|49=MU9051500001|52=20220107-18:23:50.905|56=IFIX-TC-EQ-UAT|554=7020|98=0|108=60|10=120|8=FIX.4.4|9=71|35=0|34=310|49=MU9051500001|52=20220107-18:24:54.322|56=IFIX-TC-EQ-UAT|10=153|8=FIX.4.4|9=71|35=0|34=311|49=MU9051500001|52=20220107-18:25:54.497|56=IFIX-TC-EQ-UAT|10=168|8=FIX.4.4|9=71|35=0|34=312|49=MU9051500001|52=20220107-18:26:54.495|56=IFIX-TC-EQ-UAT|10=168|8=FIX.4.4|9=71|35=0|34=313|49=MU9051500001|52=20220107-18:27:54.437|56=IFIX-TC-EQ-UAT|10=166|8=FIX.4.4|9=71|35=0|34=314|49=MU9051500001|52=20220107-18:28:54.278|56=IFIX-TC-EQ-UAT|10=171|8=FIX.4.4|9=71|35=0|34=315|49=MU9051500001|52=20220107-18:29:54.521|56=IFIX-TC-EQ-UAT|10=164|8=FIX.4.4|9=71|35=5|34=316|49=MU9051500001|52=20220107-18:30:13.025|56=IFIX-TC-EQ-UAT|10=156|