8=FIX.4.4|9=87|35=A|34=1|49=MU9051500001|52=20220107-07:26:34.251|56=IFIX-EQ-UAT|554=7020|98=0|108=60|10=074|8=FIX.4.4|9=66|35=0|34=2|49=MU9051500001|52=20220107-07:27:34.731|56=IFIX-EQ-UAT|10=122|8=FIX.4.4|9=75|35=1|34=3|49=MU9051500001|52=20220107-07:27:48.505|56=IFIX-EQ-UAT|112=TEST|10=146|8=FIX.4.4|9=66|35=0|34=4|49=MU9051500001|52=20220107-07:28:48.243|56=IFIX-EQ-UAT|10=128|8=FIX.4.4|9=75|35=1|34=5|49=MU9051500001|52=20220107-07:29:00.506|56=IFIX-EQ-UAT|112=TEST|10=139|8=FIX.4.4|9=66|35=0|34=6|49=MU9051500001|52=20220107-07:30:00.718|56=IFIX-EQ-UAT|10=118|8=FIX.4.4|9=75|35=1|34=7|49=MU9051500001|52=20220107-07:30:12.357|56=IFIX-EQ-UAT|112=TEST|10=140|8=FIX.4.4|9=66|35=0|34=8|49=MU9051500001|52=20220107-07:31:12.135|56=IFIX-EQ-UAT|10=117|8=FIX.4.4|9=75|35=1|34=9|49=MU9051500001|52=20220107-07:31:24.637|56=IFIX-EQ-UAT|112=TEST|10=147|8=FIX.4.4|9=67|35=0|34=10|49=MU9051500001|52=20220107-07:32:24.378|56=IFIX-EQ-UAT|10=172|8=FIX.4.4|9=76|35=1|34=11|49=MU9051500001|52=20220107-07:32:36.029|56=IFIX-EQ-UAT|112=TEST|10=188|8=FIX.4.4|9=88|35=A|34=12|49=MU9051500001|52=20220107-07:33:09.602|56=IFIX-EQ-UAT|554=7020|98=0|108=60|10=125|8=FIX.4.4|9=133|35=D|34=13|49=MU9051500001|52=20220107-07:33:45.678|56=IFIX-EQ-UAT|1=L00-000012D8|11=123123152|38=1|40=1|54=1|55=SBER|386=1|336=TQBR|10=187|8=FIX.4.4|9=67|35=0|34=14|49=MU9051500001|52=20220107-07:34:45.156|56=IFIX-EQ-UAT|10=175|8=FIX.4.4|9=76|35=1|34=15|49=MU9051500001|52=20220107-07:34:57.535|56=IFIX-EQ-UAT|112=TEST|10=199|8=FIX.4.4|9=67|35=0|34=16|49=MU9051500001|52=20220107-07:35:57.762|56=IFIX-EQ-UAT|10=184|8=FIX.4.4|9=76|35=1|34=17|49=MU9051500001|52=20220107-07:36:09.621|56=IFIX-EQ-UAT|112=TEST|10=196|8=FIX.4.4|9=67|35=0|34=18|49=MU9051500001|52=20220107-07:37:09.598|56=IFIX-EQ-UAT|10=192|8=FIX.4.4|9=76|35=1|34=19|49=MU9051500001|52=20220107-07:37:21.692|56=IFIX-EQ-UAT|112=TEST|10=201|8=FIX.4.4|9=67|35=0|34=20|49=MU9051500001|52=20220107-07:38:21.683|56=IFIX-EQ-UAT|10=175|8=FIX.4.4|9=76|35=1|34=21|49=MU9051500001|52=20220107-07:38:34.036|56=IFIX-EQ-UAT|112=TEST|10=191|8=FIX.4.4|9=67|35=0|34=22|49=MU9051500001|52=20220107-07:39:34.206|56=IFIX-EQ-UAT|10=173|8=FIX.4.4|9=76|35=1|34=23|49=MU9051500001|52=20220107-07:39:46.554|56=IFIX-EQ-UAT|112=TEST|10=202|8=FIX.4.4|9=67|35=0|34=24|49=MU9051500001|52=20220107-07:40:46.185|56=IFIX-EQ-UAT|10=176|8=FIX.4.4|9=76|35=1|34=25|49=MU9051500001|52=20220107-07:40:58.526|56=IFIX-EQ-UAT|112=TEST|10=198|8=FIX.4.4|9=136|35=D|34=26|49=MU9051500001|52=20220107-07:41:21.314|56=IFIX-EQ-UAT|1=L00-000012D8|11=123123152|38=1|40=1|54=1|55=AMZN-RM|386=1|336=FBQR|10=118|8=FIX.4.4|9=147|35=D|34=27|49=MU9051500001|52=20220107-07:41:45.681|56=IFIX-EQ-UAT|1=L00-000012D8|11=zwlgraigxwwcftrgjzvh|38=1|40=1|54=1|55=AMZN-RM|386=1|336=FBQR|10=103|8=FIX.4.4|9=147|35=D|34=28|49=MU9051500001|52=20220107-07:42:30.475|56=IFIX-EQ-UAT|1=L00-000012D8|11=ykveulmbccwhgsqydcsz|38=1|40=1|54=1|55=AMZN-RM|386=1|336=FQBR|10=075|8=FIX.4.4|9=67|35=0|34=29|49=MU9051500001|52=20220107-07:43:30.126|56=IFIX-EQ-UAT|10=172|8=FIX.4.4|9=76|35=1|34=30|49=MU9051500001|52=20220107-07:43:42.270|56=IFIX-EQ-UAT|112=TEST|10=186|8=FIX.4.4|9=67|35=0|34=31|49=MU9051500001|52=20220107-07:44:42.329|56=IFIX-EQ-UAT|10=174|8=FIX.4.4|9=76|35=1|34=32|49=MU9051500001|52=20220107-07:44:54.057|56=IFIX-EQ-UAT|112=TEST|10=195|8=FIX.4.4|9=67|35=0|34=33|49=MU9051500001|52=20220107-07:45:54.122|56=IFIX-EQ-UAT|10=171|8=FIX.4.4|9=76|35=1|34=34|49=MU9051500001|52=20220107-07:46:06.039|56=IFIX-EQ-UAT|112=TEST|10=196|8=FIX.4.4|9=67|35=0|34=35|49=MU9051500001|52=20220107-07:47:06.214|56=IFIX-EQ-UAT|10=174|8=FIX.4.4|9=76|35=1|34=36|49=MU9051500001|52=20220107-07:47:18.220|56=IFIX-EQ-UAT|112=TEST|10=194|8=FIX.4.4|9=67|35=0|34=37|49=MU9051500001|52=20220107-07:48:18.039|56=IFIX-EQ-UAT|10=185|8=FIX.4.4|9=76|35=1|34=38|49=MU9051500001|52=20220107-07:48:30.184|56=IFIX-EQ-UAT|112=TEST|10=200|8=FIX.4.4|9=67|35=0|34=39|49=MU9051500001|52=20220107-07:49:30.034|56=IFIX-EQ-UAT|10=177|8=FIX.4.4|9=76|35=1|34=40|49=MU9051500001|52=20220107-07:49:42.634|56=IFIX-EQ-UAT|112=TEST|10=197|8=FIX.4.4|9=67|35=0|34=41|49=MU9051500001|52=20220107-07:50:42.030|56=IFIX-EQ-UAT|10=161|8=FIX.4.4|9=76|35=1|34=42|49=MU9051500001|52=20220107-07:50:54.398|56=IFIX-EQ-UAT|112=TEST|10=201|8=FIX.4.4|9=67|35=0|34=43|49=MU9051500001|52=20220107-07:51:54.325|56=IFIX-EQ-UAT|10=174|8=FIX.4.4|9=76|35=1|34=44|49=MU9051500001|52=20220107-07:52:06.157|56=IFIX-EQ-UAT|112=TEST|10=195|8=FIX.4.4|9=67|35=0|34=45|49=MU9051500001|52=20220107-07:53:06.097|56=IFIX-EQ-UAT|10=181|8=FIX.4.4|9=180|35=D|34=46|49=MU9051500001|52=20220107-07:53:13.457|56=IFIX-EQ-UAT|1=L00-000012D8|11=plomcxldlkqbvekgxlco|38=1|40=1|54=1|55=AMZN-RM|386=1|336=FQBR|453=1|452=3|447=D|448=2076087002|10=069|8=FIX.4.4|9=134|35=3|34=47|49=MU9051500001|52=20220107-07:53:13.774|56=IFIX-EQ-UAT|45=26|58=Tag not defined for this message type|371=278|372=8|373=2|10=218|8=FIX.4.4|9=134|35=3|34=48|49=MU9051500001|52=20220107-07:53:13.788|56=IFIX-EQ-UAT|45=27|58=Tag not defined for this message type|371=278|372=8|373=2|10=225|8=FIX.4.4|9=76|35=1|34=49|49=MU9051500001|52=20220107-07:53:18.150|56=IFIX-EQ-UAT|112=TEST|10=197|8=FIX.4.4|9=67|35=0|34=50|49=MU9051500001|52=20220107-07:54:18.031|56=IFIX-EQ-UAT|10=169|8=FIX.4.4|9=76|35=1|34=51|49=MU9051500001|52=20220107-07:54:30.165|56=IFIX-EQ-UAT|112=TEST|10=191|8=FIX.4.4|9=67|35=0|34=52|49=MU9051500001|52=20220107-07:55:30.101|56=IFIX-EQ-UAT|10=164|8=FIX.4.4|9=76|35=1|34=53|49=MU9051500001|52=20220107-07:55:42.140|56=IFIX-EQ-UAT|112=TEST|10=190|8=FIX.4.4|9=67|35=0|34=54|49=MU9051500001|52=20220107-07:56:42.118|56=IFIX-EQ-UAT|10=178|8=FIX.4.4|9=76|35=1|34=55|49=MU9051500001|52=20220107-07:56:54.096|56=IFIX-EQ-UAT|112=TEST|10=206|8=FIX.4.4|9=88|35=A|34=56|49=MU9051500001|52=20220107-07:57:26.908|56=IFIX-EQ-UAT|554=7020|98=0|108=60|10=147|8=FIX.4.4|9=180|35=D|34=57|49=MU9051500001|52=20220107-07:57:38.880|56=IFIX-EQ-UAT|1=L00-000012D8|11=mdrakbomrkzvsfinijlp|38=1|40=1|54=1|55=AMZN-RM|386=1|336=FQBR|453=1|452=3|447=D|448=2076087002|10=091|8=FIX.4.4|9=67|35=0|34=58|49=MU9051500001|52=20220107-07:58:38.487|56=IFIX-EQ-UAT|10=198|8=FIX.4.4|9=76|35=1|34=59|49=MU9051500001|52=20220107-07:58:51.071|56=IFIX-EQ-UAT|112=TEST|10=202|8=FIX.4.4|9=67|35=0|34=60|49=MU9051500001|52=20220107-07:59:51.310|56=IFIX-EQ-UAT|10=172|8=FIX.4.4|9=76|35=1|34=61|49=MU9051500001|52=20220107-08:00:03.334|56=IFIX-EQ-UAT|112=TEST|10=182|8=FIX.4.4|9=67|35=0|34=62|49=MU9051500001|52=20220107-08:01:03.299|56=IFIX-EQ-UAT|10=175|8=FIX.4.4|9=76|35=1|34=63|49=MU9051500001|52=20220107-08:01:15.251|56=IFIX-EQ-UAT|112=TEST|10=186|8=FIX.4.4|9=67|35=0|34=64|49=MU9051500001|52=20220107-08:02:15.095|56=IFIX-EQ-UAT|10=175|8=FIX.4.4|9=76|35=1|34=65|49=MU9051500001|52=20220107-08:02:27.026|56=IFIX-EQ-UAT|112=TEST|10=192|8=FIX.4.4|9=67|35=0|34=66|49=MU9051500001|52=20220107-08:03:27.182|56=IFIX-EQ-UAT|10=178|8=FIX.4.4|9=67|35=0|34=67|49=MU9051500001|52=20220107-08:04:27.045|56=IFIX-EQ-UAT|10=178|8=FIX.4.4|9=67|35=0|34=68|49=MU9051500001|52=20220107-08:05:27.002|56=IFIX-EQ-UAT|10=173|8=FIX.4.4|9=67|35=0|34=69|49=MU9051500001|52=20220107-08:06:27.548|56=IFIX-EQ-UAT|10=190|8=FIX.4.4|9=67|35=0|34=70|49=MU9051500001|52=20220107-08:07:27.529|56=IFIX-EQ-UAT|10=182|8=FIX.4.4|9=180|35=D|34=71|49=MU9051500001|52=20220107-08:08:05.049|56=IFIX-EQ-UAT|1=L00-000012D8|11=mtfrgystwkrkmhabdtfe|38=1|40=1|54=1|55=AMZN-RM|386=1|336=FQBR|453=1|452=3|447=D|448=2076087002|10=076|8=FIX.4.4|9=67|35=0|34=72|49=MU9051500001|52=20220107-08:09:05.381|56=IFIX-EQ-UAT|10=178|8=FIX.4.4|9=88|35=A|34=73|49=MU9051500001|52=20220107-08:09:52.851|56=IFIX-EQ-UAT|554=7020|98=0|108=60|10=140|8=FIX.4.4|9=180|35=D|34=74|49=MU9051500001|52=20220107-08:10:02.923|56=IFIX-EQ-UAT|1=L00-000012D8|11=myxncjourirqogaclcnv|38=1|40=1|54=1|55=AMZN-RM|386=1|336=FQBR|453=1|452=3|447=D|448=2076087002|10=084|8=FIX.4.4|9=67|35=0|34=75|49=MU9051500001|52=20220107-08:11:02.301|56=IFIX-EQ-UAT|10=163|8=FIX.4.4|9=67|35=0|34=76|49=MU9051500001|52=20220107-08:12:02.344|56=IFIX-EQ-UAT|10=172|8=FIX.4.4|9=180|35=D|34=77|49=MU9051500001|52=20220107-08:12:19.475|56=IFIX-EQ-UAT|1=L00-000012D8|11=myxncjourirqogaclcnv|38=1|40=1|54=1|55=AMZN-RM|386=1|336=FQBR|453=1|452=3|447=D|448=2076087002|10=099|8=FIX.4.4|9=180|35=D|34=78|49=MU9051500001|52=20220107-08:12:32.112|56=IFIX-EQ-UAT|1=L00-000012D8|11=jmjfuvnaxphsxjxhweor|38=1|40=1|54=1|55=AMZN-RM|386=1|336=FQBR|453=1|452=3|447=D|448=2076087002|10=110|8=FIX.4.4|9=180|35=D|34=79|49=MU9051500001|52=20220107-08:12:42.630|56=IFIX-EQ-UAT|1=L00-000012D8|11=jmjfuvnaxphsxjxhweor|38=1|40=1|54=1|55=AMZN-RM|386=1|336=FQBR|453=1|452=3|447=D|448=2076087002|10=117|8=FIX.4.4|9=67|35=0|34=80|49=MU9051500001|52=20220107-08:13:42.065|56=IFIX-EQ-UAT|10=172|8=FIX.4.4|9=88|35=A|34=81|49=MU9051500001|52=20220107-08:14:16.982|56=IFIX-EQ-UAT|554=7020|98=0|108=60|10=140|8=FIX.4.4|9=180|35=D|34=82|49=MU9051500001|52=20220107-08:14:27.283|56=IFIX-EQ-UAT|1=L00-000012D8|11=plljwlrwnbmhptnmfmpl|38=1|40=1|54=1|55=AMZN-RM|386=1|336=FQBR|453=1|452=3|447=D|448=2076087002|10=102|8=FIX.4.4|9=88|35=A|34=83|49=MU9051500001|52=20220107-08:15:29.052|56=IFIX-EQ-UAT|554=7020|98=0|108=60|10=135|8=FIX.4.4|9=180|35=D|34=84|49=MU9051500001|52=20220107-08:15:32.922|56=IFIX-EQ-UAT|1=L00-000012D8|11=soixmkxfzvwsvosuryue|38=1|40=1|54=1|55=AMZN-RM|386=1|336=FQBR|453=1|452=3|447=D|448=2076087002|10=185|8=FIX.4.4|9=88|35=A|34=85|49=MU9051500001|52=20220107-08:16:30.683|56=IFIX-EQ-UAT|554=7020|98=0|108=60|10=140|8=FIX.4.4|9=180|35=D|34=86|49=MU9051500001|52=20220107-08:16:36.373|56=IFIX-EQ-UAT|1=L00-000012D8|11=yeuliklwcgylpjpplzki|38=1|40=1|54=1|55=AMZN-RM|386=1|336=FQBR|453=1|452=3|447=D|448=2076087002|10=116|8=FIX.4.4|9=88|35=A|34=87|49=MU9051500001|52=20220107-08:17:37.873|56=IFIX-EQ-UAT|554=7020|98=0|108=60|10=151|8=FIX.4.4|9=77|35=2|34=88|49=MU9051500001|52=20220107-08:17:40.091|56=IFIX-EQ-UAT|7=65|16=0|10=109|8=FIX.4.4|9=180|35=D|34=89|49=MU9051500001|52=20220107-08:17:40.701|56=IFIX-EQ-UAT|1=L00-000012D8|11=ewvbgrlwujxsslkybqwh|38=1|40=1|54=1|55=AMZN-RM|386=1|336=FQBR|453=1|452=3|447=D|448=2076087002|10=132|8=FIX.4.4|9=67|35=0|34=90|49=MU9051500001|52=20220107-08:18:40.081|56=IFIX-EQ-UAT|10=174|8=FIX.4.4|9=67|35=0|34=91|49=MU9051500001|52=20220107-08:19:40.054|56=IFIX-EQ-UAT|10=176|8=FIX.4.4|9=67|35=0|34=92|49=MU9051500001|52=20220107-08:20:40.006|56=IFIX-EQ-UAT|10=166|8=FIX.4.4|9=88|35=A|34=93|49=MU9051500001|52=20220107-08:21:17.033|56=IFIX-EQ-UAT|554=7020|98=0|108=60|10=129|8=FIX.4.4|9=180|35=D|34=94|49=MU9051500001|52=20220107-08:21:19.621|56=IFIX-EQ-UAT|1=L00-000012D8|11=wuveoovbuicphwknjzqq|38=1|40=1|54=1|55=AMZN-RM|386=1|336=FQBR|453=1|452=3|447=D|448=2076087002|10=127|8=FIX.4.4|9=67|35=0|34=95|49=MU9051500001|52=20220107-08:22:19.243|56=IFIX-EQ-UAT|10=180|8=FIX.4.4|9=88|35=A|34=96|49=MU9051500001|52=20220107-08:22:50.583|56=IFIX-EQ-UAT|554=7020|98=0|108=60|10=140|8=FIX.4.4|9=180|35=D|34=97|49=MU9051500001|52=20220107-08:23:09.205|56=IFIX-EQ-UAT|1=L00-000012D8|11=lorcculqqlghzdfyxkrg|38=1|40=1|54=1|55=AMZN-RM|386=1|336=FQBR|453=1|452=3|447=D|448=2076087002|10=095|8=FIX.4.4|9=67|35=0|34=98|49=MU9051500001|52=20220107-08:24:09.071|56=IFIX-EQ-UAT|10=183|8=FIX.4.4|9=67|35=0|34=99|49=MU9051500001|52=20220107-08:25:09.047|56=IFIX-EQ-UAT|10=188|8=FIX.4.4|9=68|35=0|34=100|49=MU9051500001|52=20220107-08:26:09.926|56=IFIX-EQ-UAT|10=227|8=FIX.4.4|9=68|35=0|34=101|49=MU9051500001|52=20220107-08:27:09.939|56=IFIX-EQ-UAT|10=233|8=FIX.4.4|9=68|35=0|34=102|49=MU9051500001|52=20220107-08:28:09.799|56=IFIX-EQ-UAT|10=239|8=FIX.4.4|9=68|35=0|34=103|49=MU9051500001|52=20220107-08:29:09.749|56=IFIX-EQ-UAT|10=236|8=FIX.4.4|9=68|35=0|34=104|49=MU9051500001|52=20220107-08:30:09.827|56=IFIX-EQ-UAT|10=226|8=FIX.4.4|9=89|35=A|34=105|49=MU9051500001|52=20220107-08:30:22.466|56=IFIX-EQ-UAT|554=7020|98=0|108=60|10=178|8=FIX.4.4|9=181|35=D|34=106|49=MU9051500001|52=20220107-08:30:34.454|56=IFIX-EQ-UAT|1=L00-000012D8|11=xmytaknqbtbwzpgmgzen|38=1|40=1|54=1|55=AMZN-RM|386=1|336=FQBR|453=1|452=3|447=D|448=2076087002|10=157|8=FIX.4.4|9=68|35=0|34=107|49=MU9051500001|52=20220107-08:31:34.355|56=IFIX-EQ-UAT|10=224|8=FIX.4.4|9=68|35=0|34=108|49=MU9051500001|52=20220107-08:32:34.553|56=IFIX-EQ-UAT|10=226|8=FIX.4.4|9=68|35=0|34=109|49=MU9051500001|52=20220107-08:33:34.389|56=IFIX-EQ-UAT|10=235|8=FIX.4.4|9=68|35=0|34=110|49=MU9051500001|52=20220107-08:34:34.207|56=IFIX-EQ-UAT|10=217|8=FIX.4.4|9=68|35=0|34=111|49=MU9051500001|52=20220107-08:35:34.381|56=IFIX-EQ-UAT|10=222|8=FIX.4.4|9=68|35=0|34=112|49=MU9051500001|52=20220107-08:36:34.653|56=IFIX-EQ-UAT|10=226|8=FIX.4.4|9=68|35=0|34=113|49=MU9051500001|52=20220107-08:37:34.346|56=IFIX-EQ-UAT|10=227|8=FIX.4.4|9=68|35=0|34=114|49=MU9051500001|52=20220107-08:38:34.515|56=IFIX-EQ-UAT|10=227|8=FIX.4.4|9=68|35=0|34=115|49=MU9051500001|52=20220107-08:39:34.636|56=IFIX-EQ-UAT|10=233|8=FIX.4.4|9=68|35=0|34=116|49=MU9051500001|52=20220107-08:40:34.012|56=IFIX-EQ-UAT|10=214|8=FIX.4.4|9=68|35=0|34=117|49=MU9051500001|52=20220107-08:41:34.084|56=IFIX-EQ-UAT|10=225|8=FIX.4.4|9=68|35=0|34=118|49=MU9051500001|52=20220107-08:42:34.073|56=IFIX-EQ-UAT|10=225|8=FIX.4.4|9=68|35=0|34=119|49=MU9051500001|52=20220107-08:43:34.002|56=IFIX-EQ-UAT|10=219|8=FIX.4.4|9=68|35=0|34=120|49=MU9051500001|52=20220107-08:44:34.219|56=IFIX-EQ-UAT|10=222|8=FIX.4.4|9=68|35=0|34=121|49=MU9051500001|52=20220107-08:45:34.227|56=IFIX-EQ-UAT|10=223|8=FIX.4.4|9=68|35=0|34=122|49=MU9051500001|52=20220107-08:46:34.599|56=IFIX-EQ-UAT|10=237|8=FIX.4.4|9=68|35=0|34=123|49=MU9051500001|52=20220107-08:47:34.377|56=IFIX-EQ-UAT|10=233|8=FIX.4.4|9=68|35=0|34=124|49=MU9051500001|52=20220107-08:48:34.489|56=IFIX-EQ-UAT|10=239|8=FIX.4.4|9=68|35=0|34=125|49=MU9051500001|52=20220107-08:49:34.016|56=IFIX-EQ-UAT|10=227|8=FIX.4.4|9=68|35=0|34=126|49=MU9051500001|52=20220107-08:50:34.312|56=IFIX-EQ-UAT|10=219|8=FIX.4.4|9=68|35=0|34=127|49=MU9051500001|52=20220107-08:51:34.408|56=IFIX-EQ-UAT|10=227|8=FIX.4.4|9=68|35=0|34=128|49=MU9051500001|52=20220107-08:52:34.452|56=IFIX-EQ-UAT|10=228|8=FIX.4.4|9=68|35=0|34=129|49=MU9051500001|52=20220107-08:53:34.418|56=IFIX-EQ-UAT|10=232|8=FIX.4.4|9=68|35=0|34=130|49=MU9051500001|52=20220107-08:54:34.693|56=IFIX-EQ-UAT|10=230|8=FIX.4.4|9=68|35=0|34=131|49=MU9051500001|52=20220107-08:55:34.747|56=IFIX-EQ-UAT|10=232|8=FIX.4.4|9=68|35=0|34=132|49=MU9051500001|52=20220107-08:56:34.635|56=IFIX-EQ-UAT|10=230|8=FIX.4.4|9=181|35=D|34=133|49=MU9051500001|52=20220107-08:56:42.657|56=IFIX-EQ-UAT|1=L00-000012D8|11=fdzqhrkuamxyervwajva|38=1|40=1|54=1|55=AMZN-RM|386=1|336=FQBR|453=1|452=3|447=D|448=2076087002|10=159|8=FIX.4.4|9=68|35=0|34=134|49=MU9051500001|52=20220107-08:57:42.302|56=IFIX-EQ-UAT|10=223|8=FIX.4.4|9=68|35=0|34=135|49=MU9051500001|52=20220107-08:58:42.225|56=IFIX-EQ-UAT|10=229|8=FIX.4.4|9=68|35=0|34=136|49=MU9051500001|52=20220107-08:59:42.369|56=IFIX-EQ-UAT|10=240|8=FIX.4.4|9=181|35=D|34=137|49=MU9051500001|52=20220107-09:00:09.369|56=IFIX-EQ-UAT|1=L00-000012D8|11=vsptabgablsetcpgnufw|38=1|40=1|54=1|55=AMZN-RM|386=1|336=FQBR|453=1|452=3|447=D|448=2076087002|10=116|8=FIX.4.4|9=181|35=D|34=138|49=MU9051500001|52=20220107-09:00:36.877|56=IFIX-EQ-UAT|1=L00-000012D8|11=kslhoxlvkangcvmmryle|38=1|40=1|54=2|55=AMZN-RM|386=1|336=FQBR|453=1|452=3|447=D|448=2076087002|10=153|8=FIX.4.4|9=181|35=D|34=139|49=MU9051500001|52=20220107-09:01:05.800|56=IFIX-EQ-UAT|1=L00-000012D8|11=qhyxpabcelvyguwlhrhu|38=1|40=2|54=2|55=AMZN-RM|386=1|336=FQBR|453=1|452=3|447=D|448=2076087002|10=149|8=FIX.4.4|9=68|35=0|34=140|49=MU9051500001|52=20220107-09:02:05.259|56=IFIX-EQ-UAT|10=221|8=FIX.4.4|9=68|35=0|34=141|49=MU9051500001|52=20220107-09:03:05.321|56=IFIX-EQ-UAT|10=213|8=FIX.4.4|9=68|35=0|34=142|49=MU9051500001|52=20220107-09:04:05.209|56=IFIX-EQ-UAT|10=220|8=FIX.4.4|9=188|35=D|34=143|49=MU9051500001|52=20220107-09:04:26.688|56=IFIX-EQ-UAT|1=L00-000012D8|11=fthiqxmlorwantslrzcn|38=1|40=2|44=100|54=2|55=AMZN-RM|386=1|336=FQBR|453=1|452=3|447=D|448=2076087002|10=240|8=FIX.4.4|9=191|35=D|34=144|49=MU9051500001|52=20220107-09:04:41.278|56=IFIX-EQ-UAT|1=L00-000012D8|11=fppbeaiiqyyazclbvqhe|38=1|40=2|44=224044|54=2|55=AMZN-RM|386=1|336=FQBR|453=1|452=3|447=D|448=2076087002|10=065|8=FIX.4.4|9=68|35=0|34=145|49=MU9051500001|52=20220107-09:05:41.017|56=IFIX-EQ-UAT|10=221|8=FIX.4.4|9=68|35=0|34=146|49=MU9051500001|52=20220107-09:06:41.074|56=IFIX-EQ-UAT|10=226|8=FIX.4.4|9=68|35=0|34=147|49=MU9051500001|52=20220107-09:07:41.030|56=IFIX-EQ-UAT|10=220|8=FIX.4.4|9=191|35=D|34=148|49=MU9051500001|52=20220107-09:07:42.647|56=IFIX-EQ-UAT|1=L00-000012D8|11=hqfrtvzrwfokfazfqiwy|38=1|40=2|44=224044|54=2|55=AMZN-RM|386=1|336=FQBR|453=1|452=3|447=D|448=2076087002|10=149|8=FIX.4.4|9=68|35=0|34=149|49=MU9051500001|52=20220107-09:08:42.446|56=IFIX-EQ-UAT|10=235|8=FIX.4.4|9=68|35=0|34=150|49=MU9051500001|52=20220107-09:09:42.373|56=IFIX-EQ-UAT|10=227|8=FIX.4.4|9=68|35=0|34=151|49=MU9051500001|52=20220107-09:10:42.451|56=IFIX-EQ-UAT|10=217|8=FIX.4.4|9=89|35=A|34=152|49=MU9051500001|52=20220107-09:11:03.232|56=IFIX-EQ-UAT|554=7020|98=0|108=60|10=170|8=FIX.4.4|9=89|35=A|34=153|49=MU9051500001|52=20220107-18:16:05.801|56=IFIX-EQ-UAT|554=7020|98=0|108=60|10=180|8=FIX.4.4|9=89|35=A|34=154|49=MU9051500001|52=20220107-18:16:25.410|56=IFIX-EQ-UAT|554=7020|98=0|108=60|10=179|8=FIX.4.4|9=89|35=A|34=155|49=MU9051500001|52=20220107-18:16:45.343|56=IFIX-EQ-UAT|554=7020|98=0|108=60|10=187|8=FIX.4.4|9=68|35=0|34=156|49=MU9051500001|52=20220107-18:17:47.549|56=IFIX-EQ-UAT|10=242|8=FIX.4.4|9=89|35=A|34=157|49=MU9051500001|52=20220107-18:22:44.441|56=IFIX-EQ-UAT|554=7020|98=0|108=60|10=184|8=FIX.4.4|9=68|35=0|34=158|49=MU9051500001|52=20220107-18:23:44.483|56=IFIX-EQ-UAT|10=235|8=FIX.4.4|9=68|35=5|34=159|49=MU9051500001|52=20220107-18:23:46.357|56=IFIX-EQ-UAT|10=243|8=FIX.4.4|9=89|35=A|34=160|49=MU9051500001|52=20220107-18:29:23.767|56=IFIX-EQ-UAT|554=7020|98=0|108=60|10=193|8=FIX.4.4|9=89|35=A|34=161|49=MU9051500001|52=20220107-18:29:43.353|56=IFIX-EQ-UAT|554=7020|98=0|108=60|10=187|8=FIX.4.4|9=89|35=A|34=162|49=MU9051500001|52=20220107-18:30:03.672|56=IFIX-EQ-UAT|554=7020|98=0|108=60|10=180|8=FIX.4.4|9=89|35=A|34=163|49=MU9051500001|52=20220107-18:30:56.103|56=IFIX-EQ-UAT|554=7020|98=0|108=60|10=178|8=FIX.4.4|9=68|35=0|34=164|49=MU9051500001|52=20220107-18:31:58.274|56=IFIX-EQ-UAT|10=234|8=FIX.4.4|9=68|35=0|34=165|49=MU9051500001|52=20220107-18:32:58.161|56=IFIX-EQ-UAT|10=231|8=FIX.4.4|9=68|35=0|34=166|49=MU9051500001|52=20220107-18:33:58.444|56=IFIX-EQ-UAT|10=237|8=FIX.4.4|9=68|35=0|34=167|49=MU9051500001|52=20220107-18:34:58.013|56=IFIX-EQ-UAT|10=231|8=FIX.4.4|9=68|35=0|34=168|49=MU9051500001|52=20220107-18:35:58.193|56=IFIX-EQ-UAT|10=242|8=FIX.4.4|9=68|35=0|34=169|49=MU9051500001|52=20220107-18:36:58.026|56=IFIX-EQ-UAT|10=239|8=FIX.4.4|9=181|35=D|34=170|49=MU9051500001|52=20220107-18:37:21.923|56=IFIX-EQ-UAT|1=L00-000012D8|11=rsqhoujjiibdiprtdomm|38=1|40=1|54=1|55=AMZN-RM|386=1|336=TQFR|453=1|452=3|447=D|448=2076087002|10=145|8=FIX.4.4|9=181|35=D|34=171|49=MU9051500001|52=20220107-18:37:53.236|56=IFIX-EQ-UAT|1=L00-000012D8|11=jgqjwxdcnsakpwujpciq|38=1|40=1|54=1|55=AMZN-RM|386=1|336=FQBR|453=1|452=3|447=D|448=2076087002|10=138|8=FIX.4.4|9=68|35=0|34=172|49=MU9051500001|52=20220107-18:38:53.321|56=IFIX-EQ-UAT|10=228|8=FIX.4.4|9=68|35=0|34=173|49=MU9051500001|52=20220107-18:39:53.019|56=IFIX-EQ-UAT|10=234|8=FIX.4.4|9=68|35=0|34=174|49=MU9051500001|52=20220107-18:40:53.338|56=IFIX-EQ-UAT|10=231|8=FIX.4.4|9=68|35=0|34=175|49=MU9051500001|52=20220107-18:41:53.130|56=IFIX-EQ-UAT|10=223|8=FIX.4.4|9=68|35=0|34=176|49=MU9051500001|52=20220107-18:42:53.305|56=IFIX-EQ-UAT|10=229|8=FIX.4.4|9=68|35=0|34=177|49=MU9051500001|52=20220107-18:43:53.098|56=IFIX-EQ-UAT|10=240|8=FIX.4.4|9=68|35=0|34=178|49=MU9051500001|52=20220107-18:44:53.044|56=IFIX-EQ-UAT|10=233|8=FIX.4.4|9=68|35=0|34=179|49=MU9051500001|52=20220107-18:45:53.186|56=IFIX-EQ-UAT|10=242|8=FIX.4.4|9=68|35=0|34=180|49=MU9051500001|52=20220107-18:46:53.024|56=IFIX-EQ-UAT|10=226|8=FIX.4.4|9=68|35=0|34=181|49=MU9051500001|52=20220107-18:47:53.072|56=IFIX-EQ-UAT|10=231|8=FIX.4.4|9=68|35=0|34=182|49=MU9051500001|52=20220107-18:48:53.365|56=IFIX-EQ-UAT|10=238|8=FIX.4.4|9=68|35=0|34=183|49=MU9051500001|52=20220107-18:49:53.223|56=IFIX-EQ-UAT|10=233|8=FIX.4.4|9=68|35=0|34=184|49=MU9051500001|52=20220107-18:50:53.352|56=IFIX-EQ-UAT|10=229|8=FIX.4.4|9=68|35=0|34=185|49=MU9051500001|52=20220107-18:51:53.142|56=IFIX-EQ-UAT|10=228|8=FIX.4.4|9=68|35=0|34=186|49=MU9051500001|52=20220107-18:52:53.358|56=IFIX-EQ-UAT|10=239|8=FIX.4.4|9=68|35=0|34=187|49=MU9051500001|52=20220107-18:53:53.361|56=IFIX-EQ-UAT|10=235|8=FIX.4.4|9=68|35=0|34=188|49=MU9051500001|52=20220107-18:54:53.331|56=IFIX-EQ-UAT|10=234|8=FIX.4.4|9=68|35=0|34=189|49=MU9051500001|52=20220107-18:55:53.149|56=IFIX-EQ-UAT|10=243|8=FIX.4.4|9=68|35=0|34=190|49=MU9051500001|52=20220107-18:56:53.370|56=IFIX-EQ-UAT|10=232|8=FIX.4.4|9=68|35=0|34=191|49=MU9051500001|52=20220107-18:57:53.035|56=IFIX-EQ-UAT|10=232|8=FIX.4.4|9=68|35=0|34=192|49=MU9051500001|52=20220107-18:58:53.271|56=IFIX-EQ-UAT|10=236|8=FIX.4.4|9=68|35=0|34=193|49=MU9051500001|52=20220107-18:59:53.156|56=IFIX-EQ-UAT|10=240|8=FIX.4.4|9=68|35=0|34=194|49=MU9051500001|52=20220107-19:00:53.385|56=IFIX-EQ-UAT|10=232|8=FIX.4.4|9=68|35=0|34=195|49=MU9051500001|52=20220107-19:01:53.062|56=IFIX-EQ-UAT|10=226|8=FIX.4.4|9=68|35=0|34=196|49=MU9051500001|52=20220107-19:02:53.438|56=IFIX-EQ-UAT|10=235|8=FIX.4.4|9=77|35=1|34=197|49=MU9051500001|52=20220107-19:03:05.026|56=IFIX-EQ-UAT|112=TEST|10=246|8=FIX.4.4|9=90|35=0|34=198|49=MU9051500001|52=20220107-19:03:17.406|56=IFIX-EQ-UAT|112=20220107-19:02:07|10=024|8=FIX.4.4|9=96|35=A|34=199|49=MU9051500001|52=20220107-19:04:07.810|56=IFIX-EQ-UAT|554=7020|6936=E|98=0|108=60|10=023|8=FIX.4.4|9=96|35=A|34=200|49=MU9051500001|52=20220107-19:04:09.975|56=IFIX-EQ-UAT|554=7020|6936=E|98=0|108=60|10=020|8=FIX.4.4|9=96|35=A|34=201|49=MU9051500001|52=20220107-19:04:27.931|56=IFIX-EQ-UAT|554=7020|6936=E|98=0|108=60|10=013|8=FIX.4.4|9=96|35=A|34=202|49=MU9051500001|52=20220107-19:04:30.247|56=IFIX-EQ-UAT|554=7020|6936=E|98=0|108=60|10=008|8=FIX.4.4|9=96|35=A|34=203|49=MU9051500001|52=20220107-19:04:47.538|56=IFIX-EQ-UAT|554=7020|6936=E|98=0|108=60|10=020|8=FIX.4.4|9=96|35=A|34=204|49=MU9051500001|52=20220107-19:04:49.718|56=IFIX-EQ-UAT|554=7020|6936=E|98=0|108=60|10=023|8=FIX.4.4|9=96|35=A|34=205|49=MU9051500001|52=20220107-19:05:07.638|56=IFIX-EQ-UAT|554=7020|6936=E|98=0|108=60|10=020|8=FIX.4.4|9=96|35=A|34=206|49=MU9051500001|52=20220107-19:05:09.803|56=IFIX-EQ-UAT|554=7020|6936=E|98=0|108=60|10=017|8=FIX.4.4|9=96|35=A|34=207|49=MU9051500001|52=20220107-19:05:27.543|56=IFIX-EQ-UAT|554=7020|6936=E|98=0|108=60|10=019|8=FIX.4.4|9=96|35=A|34=208|49=MU9051500001|52=20220107-19:05:29.708|56=IFIX-EQ-UAT|554=7020|6936=E|98=0|108=60|10=025|8=FIX.4.4|9=96|35=A|34=209|49=MU9051500001|52=20220107-19:05:47.998|56=IFIX-EQ-UAT|554=7020|6936=E|98=0|108=60|10=037|8=FIX.4.4|9=96|35=A|34=210|49=MU9051500001|52=20220107-19:05:50.166|56=IFIX-EQ-UAT|554=7020|6936=E|98=0|108=60|10=010|8=FIX.4.4|9=96|35=A|34=211|49=MU9051500001|52=20220107-19:06:07.365|56=IFIX-EQ-UAT|554=7020|6936=E|98=0|108=60|10=015|8=FIX.4.4|9=96|35=A|34=212|49=MU9051500001|52=20220107-19:06:09.549|56=IFIX-EQ-UAT|554=7020|6936=E|98=0|108=60|10=022|8=FIX.4.4|9=96|35=A|34=213|49=MU9051500001|52=20220107-19:06:28.200|56=IFIX-EQ-UAT|554=7020|6936=E|98=0|108=60|10=008|8=FIX.4.4|9=96|35=A|34=214|49=MU9051500001|52=20220107-19:06:30.377|56=IFIX-EQ-UAT|554=7020|6936=E|98=0|108=60|10=017|8=FIX.4.4|9=96|35=A|34=215|49=MU9051500001|52=20220107-19:06:37.669|56=IFIX-EQ-UAT|554=7020|6936=E|98=0|108=60|10=029|8=FIX.4.4|9=96|35=A|34=216|49=MU9051500001|52=20220107-19:06:39.854|56=IFIX-EQ-UAT|554=7020|6936=E|98=0|108=60|10=028|8=FIX.4.4|9=96|35=A|34=217|49=MU9051500001|52=20220107-19:06:57.348|56=IFIX-EQ-UAT|554=7020|6936=E|98=0|108=60|10=027|8=FIX.4.4|9=96|35=A|34=218|49=MU9051500001|52=20220107-19:06:59.524|56=IFIX-EQ-UAT|554=7020|6936=E|98=0|108=60|10=026|8=FIX.4.4|9=96|35=A|34=219|49=MU9051500001|52=20220107-19:07:17.419|56=IFIX-EQ-UAT|554=7020|6936=E|98=0|108=60|10=025|8=FIX.4.4|9=96|35=A|34=220|49=MU9051500001|52=20220107-19:07:19.603|56=IFIX-EQ-UAT|554=7020|6936=E|98=0|108=60|10=014|8=FIX.4.4|9=96|35=A|34=221|49=MU9051500001|52=20220107-19:07:37.759|56=IFIX-EQ-UAT|554=7020|6936=E|98=0|108=60|10=027|8=FIX.4.4|9=96|35=A|34=222|49=MU9051500001|52=20220107-19:07:39.948|56=IFIX-EQ-UAT|554=7020|6936=E|98=0|108=60|10=030|8=FIX.4.4|9=96|35=A|34=223|49=MU9051500001|52=20220107-19:07:57.399|56=IFIX-EQ-UAT|554=7020|6936=E|98=0|108=60|10=031|8=FIX.4.4|9=96|35=A|34=224|49=MU9051500001|52=20220107-19:07:59.580|56=IFIX-EQ-UAT|554=7020|6936=E|98=0|108=60|10=026|8=FIX.4.4|9=96|35=A|34=225|49=MU9051500001|52=20220107-19:08:18.050|56=IFIX-EQ-UAT|554=7020|6936=E|98=0|108=60|10=015|8=FIX.4.4|9=96|35=A|34=226|49=MU9051500001|52=20220107-19:08:20.228|56=IFIX-EQ-UAT|554=7020|6936=E|98=0|108=60|10=016|8=FIX.4.4|9=89|35=A|34=227|49=MU9051500001|52=20220107-19:08:44.890|56=IFIX-EQ-UAT|554=7020|98=0|108=60|10=195|8=FIX.4.4|9=79|35=2|34=228|49=MU9051500001|52=20220107-19:08:47.075|56=IFIX-EQ-UAT|7=187|16=0|10=219|8=FIX.4.4|9=68|35=5|34=229|49=MU9051500001|52=20220107-19:09:21.445|56=IFIX-EQ-UAT|10=237|8=FIX.4.4|9=96|35=A|34=230|49=MU9051500001|52=20220107-19:09:52.080|56=IFIX-EQ-UAT|554=7020|6936=E|98=0|108=60|10=013|8=FIX.4.4|9=96|35=A|34=231|49=MU9051500001|52=20220107-19:10:02.103|56=IFIX-EQ-UAT|554=7020|6936=E|98=0|108=60|10=253|8=FIX.4.4|9=96|35=A|34=232|49=MU9051500001|52=20220107-19:10:12.959|56=IFIX-EQ-UAT|554=7020|6936=E|98=0|108=60|10=018|8=FIX.4.4|9=96|35=A|34=233|49=MU9051500001|52=20220107-19:10:15.153|56=IFIX-EQ-UAT|554=7020|6936=E|98=0|108=60|10=008|8=FIX.4.4|9=96|35=A|34=234|49=MU9051500001|52=20220107-19:10:33.060|56=IFIX-EQ-UAT|554=7020|6936=E|98=0|108=60|10=006|8=FIX.4.4|9=96|35=A|34=235|49=MU9051500001|52=20220107-19:10:35.255|56=IFIX-EQ-UAT|554=7020|6936=E|98=0|108=60|10=015|8=FIX.4.4|9=96|35=A|34=236|49=MU9051500001|52=20220107-19:10:52.544|56=IFIX-EQ-UAT|554=7020|6936=E|98=0|108=60|10=016|8=FIX.4.4|9=96|35=A|34=237|49=MU9051500001|52=20220107-19:10:54.738|56=IFIX-EQ-UAT|554=7020|6936=E|98=0|108=60|10=024|8=FIX.4.4|9=96|35=A|34=238|49=MU9051500001|52=20220107-19:11:12.860|56=IFIX-EQ-UAT|554=7020|6936=E|98=0|108=60|10=016|8=FIX.4.4|9=96|35=A|34=239|49=MU9051500001|52=20220107-19:11:42.599|56=IFIX-EQ-UAT|98=0|108=60|554=7020|6936=E|10=029|8=FIX.4.4|9=96|35=A|34=240|49=MU9051500001|52=20220107-19:11:44.780|56=IFIX-EQ-UAT|98=0|108=60|554=7020|6936=E|10=015|8=FIX.4.4|9=96|35=A|34=241|49=MU9051500001|52=20220107-19:12:02.460|56=IFIX-EQ-UAT|98=0|108=60|554=7020|6936=E|10=006|8=FIX.4.4|9=96|35=A|34=242|49=MU9051500001|52=20220107-19:12:04.650|56=IFIX-EQ-UAT|98=0|108=60|554=7020|6936=E|10=010|8=FIX.4.4|9=96|35=A|34=243|49=MU9051500001|52=20220107-19:12:22.859|56=IFIX-EQ-UAT|98=0|108=60|554=7020|6936=E|10=022|8=FIX.4.4|9=96|35=A|34=244|49=MU9051500001|52=20220107-19:12:25.189|56=IFIX-EQ-UAT|98=0|108=60|554=7020|6936=E|10=022|8=FIX.4.4|9=96|35=A|34=245|49=MU9051500001|52=20220107-19:12:42.562|56=IFIX-EQ-UAT|98=0|108=60|554=7020|6936=E|10=017|8=FIX.4.4|9=89|35=A|34=246|49=MU9051500001|52=20220107-19:13:04.019|56=IFIX-EQ-UAT|98=0|108=60|554=7020|10=181|8=FIX.4.4|9=79|35=2|34=247|49=MU9051500001|52=20220107-19:13:06.223|56=IFIX-EQ-UAT|7=219|16=0|10=202|8=FIX.4.4|9=68|35=0|34=248|49=MU9051500001|52=20220107-19:14:06.221|56=IFIX-EQ-UAT|10=224|8=FIX.4.4|9=181|35=D|34=249|49=MU9051500001|52=20220107-19:14:18.031|56=IFIX-EQ-UAT|1=L00-000012D8|11=flzixeirzyislaohxqzx|38=1|40=1|54=1|55=AMZN-RM|386=1|336=FQBR|453=1|452=3|447=D|448=2076087002|10=191|8=FIX.4.4|9=68|35=0|34=250|49=MU9051500001|52=20220107-19:15:18.224|56=IFIX-EQ-UAT|10=224|8=FIX.4.4|9=68|35=0|34=251|49=MU9051500001|52=20220107-19:16:18.069|56=IFIX-EQ-UAT|10=233|8=FIX.4.4|9=68|35=0|34=252|49=MU9051500001|52=20220107-19:17:18.020|56=IFIX-EQ-UAT|10=222|8=FIX.4.4|9=68|35=0|34=253|49=MU9051500001|52=20220107-19:18:18.212|56=IFIX-EQ-UAT|10=227|8=FIX.4.4|9=89|35=A|34=254|49=MU9051500001|52=20220107-19:19:18.496|56=IFIX-EQ-UAT|98=0|108=60|554=7020|10=200|8=FIX.4.4|9=68|35=0|34=255|49=MU9051500001|52=20220107-19:20:18.387|56=IFIX-EQ-UAT|10=235|8=FIX.4.4|9=68|35=0|34=256|49=MU9051500001|52=20220107-19:21:18.516|56=IFIX-EQ-UAT|10=231|8=FIX.4.4|9=68|35=0|34=257|49=MU9051500001|52=20220107-19:22:18.306|56=IFIX-EQ-UAT|10=230|8=FIX.4.4|9=181|35=D|34=258|49=MU9051500001|52=20220107-19:22:27.655|56=IFIX-EQ-UAT|1=L00-000012D8|11=bjdnihwigyffpyvpdiag|38=1|40=1|54=1|55=AMZN-RM|386=1|336=FQBR|453=1|452=3|447=D|448=2076087002|10=110|8=FIX.4.4|9=68|35=0|34=259|49=MU9051500001|52=20220107-19:23:27.611|56=IFIX-EQ-UAT|10=232|8=FIX.4.4|9=68|35=0|34=260|49=MU9051500001|52=20220107-19:24:27.647|56=IFIX-EQ-UAT|10=234|8=FIX.4.4|9=68|35=0|34=261|49=MU9051500001|52=20220107-19:25:27.078|56=IFIX-EQ-UAT|10=234|8=FIX.4.4|9=68|35=0|34=262|49=MU9051500001|52=20220107-19:26:27.696|56=IFIX-EQ-UAT|10=242|8=FIX.4.4|9=68|35=0|34=263|49=MU9051500001|52=20220107-19:27:27.023|56=IFIX-EQ-UAT|10=228|8=FIX.4.4|9=68|35=5|34=264|49=MU9051500001|52=20220107-19:28:13.528|56=IFIX-EQ-UAT|10=240|