8=FIX.4.4|9=90|35=A|34=1|49=MU9051500004|52=20220107-19:20:51.582|56=IFIX-DC-EQ-UAT|98=0|108=60|554=7020|10=254|8=FIX.4.4|9=69|35=0|34=2|49=MU9051500004|52=20220107-19:21:51.331|56=IFIX-DC-EQ-UAT|10=044|8=FIX.4.4|9=69|35=0|34=3|49=MU9051500004|52=20220107-19:22:51.218|56=IFIX-DC-EQ-UAT|10=050|8=FIX.4.4|9=69|35=0|34=4|49=MU9051500004|52=20220107-19:23:51.113|56=IFIX-DC-EQ-UAT|10=046|8=FIX.4.4|9=69|35=0|34=5|49=MU9051500004|52=20220107-19:24:51.077|56=IFIX-DC-EQ-UAT|10=057|8=FIX.4.4|9=69|35=0|34=6|49=MU9051500004|52=20220107-19:25:51.263|56=IFIX-DC-EQ-UAT|10=056|8=FIX.4.4|9=69|35=0|34=7|49=MU9051500004|52=20220107-19:26:51.135|56=IFIX-DC-EQ-UAT|10=056|8=FIX.4.4|9=69|35=0|34=8|49=MU9051500004|52=20220107-19:27:51.093|56=IFIX-DC-EQ-UAT|10=061|8=FIX.4.4|9=69|35=5|34=9|49=MU9051500004|52=20220107-19:28:15.520|56=IFIX-DC-EQ-UAT|10=063|