8=FIX.4.4|9=90|35=A|34=1|49=MU9051500002|52=20220107-18:31:16.475|56=IFIX-TC-EQ-UAT|554=7020|98=0|108=60|10=015|8=FIX.4.4|9=69|35=0|34=2|49=MU9051500002|52=20220107-18:32:16.492|56=IFIX-TC-EQ-UAT|10=068|8=FIX.4.4|9=69|35=0|34=3|49=MU9051500002|52=20220107-18:33:16.482|56=IFIX-TC-EQ-UAT|10=069|8=FIX.4.4|9=69|35=0|34=4|49=MU9051500002|52=20220107-18:34:16.355|56=IFIX-TC-EQ-UAT|10=070|8=FIX.4.4|9=69|35=0|34=5|49=MU9051500002|52=20220107-18:35:16.356|56=IFIX-TC-EQ-UAT|10=073|8=FIX.4.4|9=69|35=0|34=6|49=MU9051500002|52=20220107-18:36:16.065|56=IFIX-TC-EQ-UAT|10=072|8=FIX.4.4|9=69|35=0|34=7|49=MU9051500002|52=20220107-18:37:16.007|56=IFIX-TC-EQ-UAT|10=070|8=FIX.4.4|9=69|35=0|34=8|49=MU9051500002|52=20220107-18:38:16.564|56=IFIX-TC-EQ-UAT|10=080|8=FIX.4.4|9=69|35=0|34=9|49=MU9051500002|52=20220107-18:39:16.362|56=IFIX-TC-EQ-UAT|10=078|8=FIX.4.4|9=70|35=0|34=10|49=MU9051500002|52=20220107-18:40:16.601|56=IFIX-TC-EQ-UAT|10=098|8=FIX.4.4|9=70|35=0|34=11|49=MU9051500002|52=20220107-18:41:16.034|56=IFIX-TC-EQ-UAT|10=100|8=FIX.4.4|9=70|35=0|34=12|49=MU9051500002|52=20220107-18:42:16.037|56=IFIX-TC-EQ-UAT|10=105|8=FIX.4.4|9=70|35=0|34=13|49=MU9051500002|52=20220107-18:43:16.204|56=IFIX-TC-EQ-UAT|10=103|8=FIX.4.4|9=70|35=0|34=14|49=MU9051500002|52=20220107-18:44:16.238|56=IFIX-TC-EQ-UAT|10=112|8=FIX.4.4|9=70|35=0|34=15|49=MU9051500002|52=20220107-18:45:16.288|56=IFIX-TC-EQ-UAT|10=119|8=FIX.4.4|9=70|35=0|34=16|49=MU9051500002|52=20220107-18:46:16.095|56=IFIX-TC-EQ-UAT|10=117|8=FIX.4.4|9=70|35=0|34=17|49=MU9051500002|52=20220107-18:47:16.045|56=IFIX-TC-EQ-UAT|10=114|8=FIX.4.4|9=70|35=0|34=18|49=MU9051500002|52=20220107-18:48:16.044|56=IFIX-TC-EQ-UAT|10=115|8=FIX.4.4|9=70|35=0|34=19|49=MU9051500002|52=20220107-18:49:16.347|56=IFIX-TC-EQ-UAT|10=123|8=FIX.4.4|9=70|35=0|34=20|49=MU9051500002|52=20220107-18:50:16.405|56=IFIX-TC-EQ-UAT|10=102|8=FIX.4.4|9=70|35=0|34=21|49=MU9051500002|52=20220107-18:51:16.878|56=IFIX-TC-EQ-UAT|10=118|8=FIX.4.4|9=70|35=0|34=22|49=MU9051500002|52=20220107-18:52:16.687|56=IFIX-TC-EQ-UAT|10=118|8=FIX.4.4|9=70|35=0|34=23|49=MU9051500002|52=20220107-18:53:16.176|56=IFIX-TC-EQ-UAT|10=113|8=FIX.4.4|9=70|35=0|34=24|49=MU9051500002|52=20220107-18:54:16.127|56=IFIX-TC-EQ-UAT|10=111|8=FIX.4.4|9=70|35=0|34=25|49=MU9051500002|52=20220107-18:55:16.140|56=IFIX-TC-EQ-UAT|10=108|8=FIX.4.4|9=70|35=0|34=26|49=MU9051500002|52=20220107-18:56:16.143|56=IFIX-TC-EQ-UAT|10=113|8=FIX.4.4|9=70|35=0|34=27|49=MU9051500002|52=20220107-18:57:16.313|56=IFIX-TC-EQ-UAT|10=114|8=FIX.4.4|9=70|35=0|34=28|49=MU9051500002|52=20220107-18:58:16.002|56=IFIX-TC-EQ-UAT|10=111|8=FIX.4.4|9=70|35=0|34=29|49=MU9051500002|52=20220107-18:59:16.525|56=IFIX-TC-EQ-UAT|10=123|8=FIX.4.4|9=70|35=0|34=30|49=MU9051500002|52=20220107-19:00:16.162|56=IFIX-TC-EQ-UAT|10=099|8=FIX.4.4|9=70|35=0|34=31|49=MU9051500002|52=20220107-19:01:16.415|56=IFIX-TC-EQ-UAT|10=102|8=FIX.4.4|9=92|35=0|34=32|49=MU9051500002|52=20220107-19:01:27.826|56=IFIX-TC-EQ-UAT|112=20220107-19:01:29|10=170|8=FIX.4.4|9=70|35=0|34=33|49=MU9051500002|52=20220107-19:02:27.014|56=IFIX-TC-EQ-UAT|10=102|8=FIX.4.4|9=79|35=1|34=34|49=MU9051500002|52=20220107-19:02:39.315|56=IFIX-TC-EQ-UAT|112=TEST|10=138|8=FIX.4.4|9=91|35=A|34=35|49=MU9051500002|52=20220107-19:02:56.768|56=IFIX-TC-EQ-UAT|554=7020|98=0|108=60|10=079|8=FIX.4.4|9=91|35=A|34=36|49=MU9051500002|52=20220107-19:13:49.500|56=IFIX-TC-EQ-UAT|98=0|108=60|554=7020|10=068|8=FIX.4.4|9=70|35=0|34=37|49=MU9051500002|52=20220107-19:14:49.636|56=IFIX-TC-EQ-UAT|10=123|8=FIX.4.4|9=70|35=0|34=38|49=MU9051500002|52=20220107-19:15:49.187|56=IFIX-TC-EQ-UAT|10=126|8=FIX.4.4|9=70|35=0|34=39|49=MU9051500002|52=20220107-19:16:49.278|56=IFIX-TC-EQ-UAT|10=129|8=FIX.4.4|9=70|35=0|34=40|49=MU9051500002|52=20220107-19:17:49.009|56=IFIX-TC-EQ-UAT|10=114|8=FIX.4.4|9=70|35=0|34=41|49=MU9051500002|52=20220107-19:18:49.342|56=IFIX-TC-EQ-UAT|10=116|8=FIX.4.4|9=91|35=A|34=42|49=MU9051500002|52=20220107-19:19:25.632|56=IFIX-TC-EQ-UAT|98=0|108=60|554=7020|10=071|8=FIX.4.4|9=70|35=0|34=43|49=MU9051500002|52=20220107-19:20:25.032|56=IFIX-TC-EQ-UAT|10=101|8=FIX.4.4|9=70|35=0|34=44|49=MU9051500002|52=20220107-19:21:25.006|56=IFIX-TC-EQ-UAT|10=104|8=FIX.4.4|9=70|35=0|34=45|49=MU9051500002|52=20220107-19:22:25.856|56=IFIX-TC-EQ-UAT|10=119|8=FIX.4.4|9=70|35=0|34=46|49=MU9051500002|52=20220107-19:23:25.755|56=IFIX-TC-EQ-UAT|10=119|8=FIX.4.4|9=70|35=0|34=47|49=MU9051500002|52=20220107-19:24:25.566|56=IFIX-TC-EQ-UAT|10=121|8=FIX.4.4|9=70|35=0|34=48|49=MU9051500002|52=20220107-19:25:25.548|56=IFIX-TC-EQ-UAT|10=123|8=FIX.4.4|9=70|35=0|34=49|49=MU9051500002|52=20220107-19:26:25.848|56=IFIX-TC-EQ-UAT|10=128|8=FIX.4.4|9=70|35=0|34=50|49=MU9051500002|52=20220107-19:27:25.658|56=IFIX-TC-EQ-UAT|10=120|8=FIX.4.4|9=70|35=5|34=51|49=MU9051500002|52=20220107-19:28:14.465|56=IFIX-TC-EQ-UAT|10=121|