8=FIX.4.4|9=90|35=A|34=1|49=MU9051500003|52=20220107-19:20:05.997|56=IFIX-DC-EQ-UAT|98=0|108=60|554=7020|10=006|8=FIX.4.4|9=90|35=A|34=2|49=MU9051500003|52=20220107-19:20:26.841|56=IFIX-DC-EQ-UAT|98=0|108=60|554=7020|10=254|